:1020000000800020255600000D5600000D560000EF
:1020100000000000000000000000000000000000C0
:102020000000000000000000000000000D5600004D
:1020300000000000000000000D560000795600006E
:102040000D5600000D5600000D5600000D56000004
:10205000DD5500000D5600000D5600001156000021
:102060000D5600000D5600000D5600000D560000E4
:102070000D5600000D5600000D2400000D56000006
:102080000D5600000D5600000D5600000D560000C4
:10209000000000000D5600000D5600000D56000017
:1020A0000D5600000D5600000D5600000D560000A4
:1020B00010B5064C2378002B07D1054B002B02D01E
:1020C000044800E000BF0123237010BD440100203C
:1020D00000000000D47D000008B5084B002B03D0A1
:1020E0000748084900E000BF07480368002B03D0F9
:1020F000064B002B00D0984708BDC04600000000EA
:10210000D47D0000480100204001002000000000B4
:10211000014B18687047C046AC17002037B5174C04
:102120001749201C03F0BCFD164D281C00F063FD70
:10213000011C201C03F0CEFD281C00F05AFD011CE0
:10214000684603F047FD201C0F4903F0A9FD6946CE
:10215000201C03F0C9FD281C00F058FD0B49051C8C
:10216000201C03F09DFD291C0A22201C03F0EDFD1C
:10217000201C074903F0AEFD04203EBDE81C0020F2
:10218000B4760000741B0020BB760000C876000007
:10219000E076000073B50C48694600F017FD0B4D62
:1021A0000B4E281C311C03F07BFD0624311C281C1F
:1021B00003F076FD6B46195D281C102203F0FBFD31
:1021C000013CF3D2042076BD741B0020E81C0020E3
:1021D000E5760000013810B50C4C032810D805F046
:1021E00021F90B050208201C09490BE0201C0949B4
:1021F00008E0201C084905E0201C084903F050FDB8
:102200000749201C03F04CFD042010BDE81C0020F1
:10221000EB760000EF760000F3760000F876000021
:10222000FD76000070B5164C201C00F0B7FD261C92
:10223000FF2801D0002511E01248134903F04AFDA0
:1022400001201CE02378002B0FD1FA2080000135FB
:1022500003F026FA0A2D01D101232370301C0B490B
:1022600000F0AEFC0A4C0328ECD12278094B002A7E
:1022700002D00220186002E003221A60042070BD20
:10228000741B0020E81C00200A77000000000020DA
:10229000880C0020AC17002007B500230093191C00
:1022A0001A1C054803F088FC044800F0DBFF0448D2
:1022B00000F0D8FF07BDC046600100208C0C002054
:1022C0006801002038B50F4C0F49201C0F4A00F060
:1022D000C3FE0F4D23680B225B68291C201C984706
:1022E000201C00F07FFF0B4C0B49201C03F0D8FC96
:1022F000291C201C03F0D4FC201C084903F0EAFC34
:10230000042038BD8C0C002084760000C30B000034
:10231000A1770000E81C0020227700002B77000046
:1023200010B5084C0849201C00F012FE031C0320C5
:10233000002B06D0201C054900F00AFE431E9841E0
:10234000033010BD8C0C0020560900005709000016
:10235000F8B5264F381C00F07DFC254C061C431CAC
:1023600003D1201C234903F0B5FC2349201C03F0B2
:1023700097FC201C311C0A2203F005FD0025B54204
:1023800031DA0A22291C201C03F011FD1B49201CF4
:1023900003F086FC291C381C00F088FC011C201C62
:1023A00003F07EFC1649201C03F07AFC291C381C23
:1023B00000F0AAFC0A22011C201C03F0C6FC1149F3
:1023C000201C03F06DFC1049201C03F069FC291C43
:1023D000381C00F0BDFCFFF7FDFE0135201C03F0AA
:1023E00095FFEDB2CBE70420F8BDC046741B00207A
:1023F000E81C00203B770000617700008077000038
:10240000837700008D7700009377000008B50248BD
:1024100003F0E2FE08BDC046B017002013B5124914
:10242000124803F00FFD1249124803F00BFD124948
:10243000124803F007FD1249124803F003FD124948
:10244000124803F0FFFC124C1249201C03F0FAFC66
:102450000323009301230193211C0D220E230E4818
:1024600003F096FE13BDC046000800421418002079
:10247000000C004218180020001000421C18002018
:1024800000140042101800200018004220180020FC
:1024900024180020001C0042B0170020024B1A8AAA
:1024A000024B92B21A807047003000422818002078
:1024B000024B1A8A024B92B21A80704700300042D7
:1024C0002E190020024B1A8A024B92B21A807047D2
:1024D00000300042341A00200A4B7F211A8A0A4B2E
:1024E00092B25A805A7901320A4019798A4207D049
:1024F00058881988401A510080B25918C8805A71FA
:102500007047C04600300042281800200A4B7F2147
:102510001A8A0A4B92B25A805A7901320A401979C2
:102520008A4207D058881988401A510080B2591839
:10253000C8805A717047C046003000422E190020F2
:102540000A4B7F211A8A0A4B92B25A805A79013279
:102550000A4019798A4207D058881988401A5100D0
:1025600080B25918C8805A717047C0460030004286
:10257000341A0020054A002313715371044A137161
:102580005371044A137153717047C04628180020D4
:102590002E190020341A0020C122114B92001A601B
:1025A000104B5A78D209FBD10F49104A11605A7862
:1025B000D209FCD10E490F4A11805A78D209FCD1B8
:1025C0000D4B1A8892B21A80D97B0B4AC909FBD1EC
:1025D00011880A4801431180DA7BD209FCD1704787
:1025E000080C0040000C004004070300040C0040ED
:1025F0001C440000020C00400030004202040000B5
:102600007047000013B503F01FF904F065FFFFF7F2
:10261000F7FF012003F044F82E4C201C04F020F9B1
:10262000201C04F07DF9FFF7B7FFFFF7A3FF082098
:10263000002103F0A9F90920002103F0A5F90A20DF
:10264000002103F0A1F90B20002103F09DF90C20DB
:10265000002103F099F90D20002103F095F90820DD
:102660001D49042202F01EFF09201C49042202F029
:1026700019FF05201A49042202F014FF002019490D
:10268000032202F00FFF01201749032202F00AFF84
:1026900002201649032202F005FF154C23699847D2
:1026A000042804D01349144803F014FB01E0E36844
:1026B000984763699847042803D00F480F4903F0EF
:1026C00009FBFA20800002F0EBFFE3689847A3695A
:1026D0009847F6E7AF2100209D240000B1240000B8
:1026E000C5240000D92400000D250000412500006C
:1026F00094760000107B0000E81C0020307B000076
:1027000007B5002300930348191C1A1C03F054FA60
:1027100007BDC0463C1B0020437A002B04D18372C6
:10272000C372C36001234372704730B585B0041C87
:1027300002AD00680291039203F024FC6B79E17909
:10274000227A00932068002303F0D2FC29792068C4
:10275000029A03F0E7FB206803F00AFC05B030BDE5
:1027600070B5041C1826FFF7D7FF2079331C4343AC
:102770000D4D0821EB18595603F096F9A079331C3A
:1027800043430821EB18595603F08EF9607908216C
:102790004643AD19695603F087F9044B201C06CB5C
:1027A000FFF7C3FF70BDC046B0770000441B002098
:1027B00010B5041C006803F0CDFB0023637210BD4C
:1027C00007B5837A00910192002B0FD09A0706D5A6
:1027D000EFF310835A425341C37272B606E0DA0730
:1027E00004D5C3689A03044B920B9A600099019A2E
:1027F000FFF79BFF07BDC04600180040837A002BFF
:102800000DD09A0704D5C37A002B08D062B606E033
:10281000DA0704D5C268024B9203920BDA60704764
:102820000018004010B5041C006803F0B5FB2068D8
:1028300003F0C5FBC0B210BD0F4B104A10491A601F
:1028400000225A711A710F4B0F4819600A21197131
:10285000092199710821597103215A72DA7119728B
:102860000A4B18601D2018711B2098711A205A728B
:102870005871DA7119727047441B002000093D003D
:10288000181800204C1B00201C1800205C1B002086
:10289000014B19617047C046741B0020F0B50C1C39
:1028A00085B0112800D193E00CD8062800D1B7E0FC
:1028B000092864D0042800D0CBE000228A56664B59
:1028C0001A61C6E01B2800D1BAE003D8132800D152
:1028D00085E0BEE02C2802D032283DD0B9E00B784C
:1028E000012B10D15C4B1A7E012A07D1D96800292F
:1028F00000D0AEE003225A7604202AE0032A00D05A
:10290000A7E0082269E0002B00D0A2E0524A117E25
:10291000141C012913D106226276E268002A02D033
:1029200023606360A36000256319186E002802D03D
:1029300003685B6A984704351C2DF5D103E0032931
:1029400001D1072353760121042000F0FAFF012072
:10295000011C00F0F6FF7CE03F4B1D7E012D78D17D
:102960000A684C681A60CA6804205A600021032271
:102970009C605A7600F0E5FF281C0021E9E70B1C5B
:1029800063331E78344D0423002E47D12F1C3C376F
:10299000311C2122381C04F0D8FD201C04F044FE18
:1029A000211C021C381C04F0C7FD0123201C2B76BF
:1029B0002E606E60AE6004F037FE231CC1B262333D
:1029C000FF201A780090413B201C01F047F940E0BD
:1029D0000B78002B3DD0204B02225A7639E00D1C9B
:1029E0000A35281C039504F01FFE1B4D071C2E1CE6
:1029F0001A36301C0021212204F0A7FDBBB2002BA7
:102A000004D01A1C301C039904F096FD0123E356F0
:102A10002B61A2782B1C3B331A7002236B7618E0D3
:102A20000D4B5A69002A14D02218253211785D699D
:102A30000622121A0138A9540028F5D1586108E07D
:102A4000054D2869002804D0082204F075FD0023F4
:102A50002B6105B0F0BDC046741B002070B586B078
:102A6000061C01F0FDFE2B4B6846009301F02CF88C
:102A7000051E06D00021062000F063FF032001217F
:102A800043E002F031F902F079FB234823490124A5
:102A900002F046F9301C1C22291CF467757635605B
:102AA0007560B560F4603561603004F04EFD211C46
:102AB000042000F046FF211C052000F042FF211CED
:102AC000062000F03EFF211C042000F026FF211C00
:102AD000052000F022FF211C062000F01EFF211C13
:102AE000201C00F02EFF211C022000F02AFF211CD8
:102AF000032000F026FF211C201C00F00EFF211CEB
:102B0000022000F00AFF0320211C00F006FF281C11
:102B100006B070BD9D280000C15100009128000042
:102B2000F7B51E1CC36F041C0D1C171C002B01D114
:102B3000FFF794FFE368002B03D00023236063605A
:102B4000A360281C04F070FDFF23C1B20093281C71
:102B50003A1C331C01F082F8002802DA0420607667
:102B60002AE0002363760123237602F093FD071CFD
:102B7000667E07231E4005D102F08CFD0F4BC01B63
:102B8000984215D9627E0323134000D12376261C78
:102B90003C3600212122301C04F0D7FC281C04F014
:102BA00043FD291C021C301C04F0C6FC607E03E0BF
:102BB000301C00F0B9FFDBE7FEBDC0465FEA000055
:102BC00008B501220023FFF7ABFF08BD13B5081CB1
:102BD0000C1C01F07DF8684601F07AF8002300A88B
:102BE000C11849795A42013BA1549A1DF7D1201CC2
:102BF00016BD00687047437E032B03D0DA1F002305
:102C0000012A01D8031C3C33181C704770B5041C02
:102C10000025002000F088FF256101F04DF8A84252
:102C20000CDB02F037FD061C2569002D08D102F0EF
:102C300031FD074B801B984204D901E0281C05E0B8
:102C4000206903E0281C00F06FFFEDE770BDC0466F
:102C5000E7030000F8B5C36F041C467E002B01D1CA
:102C6000FFF7FCFEFF2001F003F8002398420EDB83
:102C7000637602F00FFD071C657E02231D4009D11B
:102C800002F008FD084BC01B984208D902E0181C4E
:102C900040B2F8BD667601F039F8C0B2F8E7281CFA
:102CA00000F042FFE8E7C04687130000F7B5061CB6
:102CB000437E1A360D1C21220021041C301C019376
:102CC00004F043FC281C01F012F8002398420EDBAC
:102CD000637602F0DFFC071C657E02231D4008D1ED
:102CE00002F0D8FC074BC01B984206D901E0181C23
:102CF00007E0019B301C637603E0281C00F014FF02
:102D0000EAE7FEBDCF070000F8B5041C467E081CAC
:102D100000F0EDFF002398420EDB637602F0BAFC70
:102D2000071C657E02231D4008D102F0B3FC074B4F
:102D3000C01B984205D901E0181C06E066762069A0
:102D400003E0281C00F0F0FEEBE7F8BDCF07000021
:102D5000F8B5041C467E081C00F0C9FF0023984209
:102D60000EDB637602F096FC071C657E02231D4095
:102D700008D102F08FFC084BC01B984206D901E035
:102D8000181C07E066763B34207803E0281C00F02E
:102D9000CBFEEAE7F8BDC046CF070000C36F10B511
:102DA000041C002B01D1FFF759FE002000F0BCFEEF
:102DB000607E10BDF7B5061C101C0F1C019202F0BE
:102DC00011FF0124051E39D1291C052000F0B9FD91
:102DD0000220291C00F0B5FD3561381C02F03CF9D9
:102DE000002809DA211C052000F0ABFD211C02207F
:102DF00000F0A7FD2C1C21E002F04CFC051C3469FE
:102E0000002C05D102F046FC0D4B401B984211D915
:102E10000121052000F095FD0121022000F091FD27
:102E200031690024A14209D0019802F001FF346108
:102E3000012403E0201C00F077FEE0E7201CFEBD2B
:102E40001F4E000013B50024221C231C0094211CDB
:102E5000044802F0B1FE044BFF221C765A76DC6770
:102E600013BDC0466C1B0020741B002007B5002357
:102E700000930348191C1A1C02F09EFE07BDC046B1
:102E8000001C002008B503681B6B984708BD0000B4
:102E90004968044BC150044BC252044B0022C25239
:102EA000012070471C0B00001A0B0000180B0000DB
:102EB00013B502686B46D97107335468191C012297
:102EC000A04716BD13B503686C4607341B6B211C65
:102ED00001229847431C00D0207816BD036810B526
:102EE0009B68041C9847002804D0E369E418013467
:102EF000E07F01E00120404210BD10B5041C2368B2
:102F0000201C9B689847002804D02368201CDB689D
:102F10009847F4E710BD0000014BC05A7047C04607
:102F20009A0500001FB5036849689B690391111C4D
:102F3000041C9847002809D0042301211020009385
:102F400020560A1C03AB02F0A1F8012004B010BD0A
:102F5000B32370B5DB00002545618561C561C552AD
:102F60002A4B88B0C5522A4B04AEC550294B49BAEA
:102F7000C5520223041C7180181C191C2A1C0395BD
:102F80003380059501F0D6FE2074A8422DDB231C6A
:102F90002033211C221C009314311832043B02F010
:102FA000F7F8102001212A1C2056009503AB02F0EF
:102FB0006DF810202056311C102201F005FFA842A8
:102FC0000DDB02F067FB061C636904251D400ED172
:102FD00002F060FB104B801B984211D907E01020D3
:102FE000205601F0C7FFFF232374281C0CE0626900
:102FF0000423151C1D40F2D09A436261012003E0B6
:10300000281C00F091FDDFE708B070BD9A050000B4
:103010009C050000180B0000CF07000010B5041C31
:10302000002000F081FD1023E356013303D0B323C9
:10303000DB00E05A00E0002010BD10B5041C102099
:103040002056002807DB02F0AFF81020205601F0D0
:1030500091FFFF23237410BD7FB50E1C041C68462E
:10306000151C02F0A1FD0948311C6A46FFF7A2FEBB
:10307000002809D0064A23680292019A1B6A03922B
:10308000201C02A92A1C984704B070BD741B0020A4
:10309000B07C000070B50B4E051C805B141CAF2388
:1030A0001218DB009A4200D91C1AB423DB00C018A6
:1030B0002818221C04F040FAAB5B201CE318AB5329
:1030C00070BDC046180B0000F8B50368041C9B686F
:1030D0000F1C161C984785B2002D36D0AE4200D288
:1030E000B5B23E1CF31BAB422DD2E3695A1CE31868
:1030F000E2610133DB7F3370B323DB00E25AE16925
:10310000013AE252A26991421BD1616902229143C4
:103110000F4A002312786161A361E3611020944695
:103120002056211C9A4203D0AF222031D20003E066
:10313000AF222831D200634601F04CFF002000F09E
:10314000F3FC0136CEE7281C01E001204042F8BD27
:10315000401C002010B5034B041CC95802F03AFD76
:10316000201C10BD9C05000038B5041C002000F098
:10317000DBFC1023E35601332DD0B321C900605A84
:10318000002829D1E269A369934225D0A318981C8D
:10319000C57F581CC07F08320002281880B26052D8
:1031A000D91CCD7F191DC97F2D024D190B496552C0
:1031B000591DCD7F991DC97F2D06090469181D1C55
:1031C00008350733ED7FDB7F49191B02C918044B13
:1031D000E150E26100E0002038BDC0469A050000E1
:1031E0009C05000030B5002187B0041C052000F0CC
:1031F000A8FB0021022000F0A4FB022502AB164A26
:103200001D80A25A102052BA5A80144A0093A25824
:1032100010230392B422D200A118114A0193205620
:10322000A25A002301F020FE002809DA012105201E
:1032300000F087FB281C012100F083FB002008E040
:103240000121052000F07DFB281C012100F079FB05
:10325000012007B030BDC0461A0B00001C0B000057
:10326000180B0000FA22920082600A4A00230832FA
:103270000260FF220274B322D20043604361836183
:10328000C3618352044A8352044A8350044A8352DE
:103290007047C046587B00009A0500009C0500005E
:1032A000180B000007B5002300930348191C1A1CD3
:1032B00002F082FC07BDC046081C002007B50023B1
:1032C00000930348191C1A1C02F076FC07BDC04687
:1032D000101C002007B5002300930348191C1A1C7A
:1032E00002F06AFC07BDC046181C002007B5002389
:1032F00000930348191C1A1C02F05EFC07BDC0466F
:10330000201C002010B50A48FFF72AFA094C0020BB
:103310002056012102F038FB00202056012102F046
:1033200093FB01F087FA012001F07AFA002010BD2A
:103330005C1B002017000020F0B585B003283DD1AC
:103340006B460C680F3300220E894D681A70944248
:1033500006D0954230D10121019500911D1C03E05A
:103360000122009401921C1C164F174B381C06CBEF
:10337000FFF726FA154B00201856002102F064FBD7
:10338000002E0FD02178381CFFF74CFA00992870D6
:103390004B424B410199013EED184B424B41B6B2B5
:1033A000E418EDE7094A00201056012102F04CFB19
:1033B000381CFFF723FA02E0FA2600E0FF2670B27D
:1033C00005B0F0BD5C1B0020281C00201700002069
:1033D00008B50248FFF7ECF9002008BD5C1B00208F
:1033E000034B044A1A6000225A711A717047C04692
:1033F000281C0020001BB70013B5041CA5204001A9
:10340000211C00F029FA002C0BD0A520002340013C
:1034100001A9019300F01CFA0028EFD1019BA342FF
:10342000ECD1002016BD0000F7B5012001F0F8F93D
:103430000120694600F00CFA051E4BD1061C009BCA
:1034400002211943012000F007FA012001F0E8F9F8
:10345000214C01A9206800F0FBF9271C002802D1AB
:10346000019B002B27D10E230120236001F0D8F906
:10347000206801A900F0ECF9002802D1019B002B83
:1034800019D113230120236001F0CAF9206801A992
:1034900000F0DEF900280ED01BE00136301C0321BD
:1034A00004F00EF800290AD1022001F0B9F93868B9
:1034B00001A900F0CDF9019B5B07EED505E0009B6B
:1034C00002211943012000F0C7F9019B5B07B6D523
:1034D00000E0051C68B2FEBD1000002007B51348CF
:1034E00001A900F0B5F9002801D0FA201BE0019BEA
:1034F0008021490019430D48019100F0ADF90028E1
:10350000F3D1D020400101A900F0A2F90028ECD1AC
:10351000019B80214902D02019434001019100F014
:103520009BF90028E1D140B20EBDC046081400004E
:10353000F7B5214D2E682C1C002E3AD18020400179
:10354000291C00F085F9071E27D11C4801A900F0AD
:103550007FF9061E01D02F6029E02B68184A93429C
:1035600004D1019A012A1AD0164B08E0164A934258
:1035700009D1019B032B12D0042B02D1134B2360E2
:103580000DE0134BFBE7134A934208D1EC20800374
:10359000291C00F05DF9002801D02E6007E02268A8
:1035A0000D4B1340A022D2021343236001E0002000
:1035B00000E02068FEBDC046301C0020F41300006F
:1035C000A0021000A1021000B0021000B102100011
:1035D000B2021000F0001000FFFFF0FF38B5041C2D
:1035E000264800F031F9002803DB012001F018F92A
:1035F000F6E7234800F028F9C30709D5022C15D1B6
:103600002049214800F028F980212048490315E08D
:103610001F4D012001F004F9013D1E4800F014F98E
:10362000002D27D01C4B9842F3D1E7E7032C09D19A
:103630001449154800F010F91448002100F00CF965
:10364000002403E0043C63425C41E401FFF770FFA7
:10365000E8230005000D9B00984202D10220204380
:1036600000E0201CFFF7C8FE0A480C4900F0F4F8FF
:10367000002000E0FB2040B238BDC046141000001E
:10368000BC0702007DD51C3CAC0702008C1000007A
:10369000D10700000C000C009ED0AD10612F52EF3E
:1036A00037B5134B02380093124B01931D1C0128B0
:1036B00003D8114B0093114B0193FA24E40000202E
:1036C000019B83420AD0022001F0AAF8013C009835
:1036D00000F0BAF8002CF3D1FB2407E0019B002492
:1036E000AB4203D10248211C00F0B6F860B23EBDE7
:1036F0008C10000036265302AC070200C3C15DD710
:1037000037B5A020002301A940010193124C00F01D
:103710009FF80199A02021404001019100F09CF800
:10372000251C002816D10A24A020400101A900F080
:103730008FF800280ED101998020C000084009D0E0
:10374000A020013C29404001E4B2019100F084F83E
:10375000002CE9D140B23EBDFFFBFFFF37B5041C92
:103760000D1C0A4801A900F073F800280CD10122B1
:10377000019BA240002D01D0134300E0934301932D
:103780000248019900F068F840B23EBD080102000D
:1037900037B5041C0D1C0A4801A900F059F800288F
:1037A0000CD10122019BA240002D01D0134300E067
:1037B000934301930248019900F04EF840B23EBD98
:1037C0000001020030B587B00023041C01A918488D
:1037D0000493059300F03CF8002825D1019B002BB1
:1037E0000BD0C0208002184304A9082200F038F84A
:1037F000002819D1049A019205E00E4801A900F0B1
:1038000027F8002810D1019AC02093B280021843F3
:1038100002A90622019300F023F802A9051C062242
:10382000201C00F0CFFF281C40B207B030BDC046BE
:1038300008000C009C14000008B5FFF763FD08BDEC
:1038400008B5FFF7C5FD08BD08B500F0D7FE08BDF7
:1038500008B500F0D9FE08BD08B500F0DFFE08BDD0
:10386000F7B50E4B051C1C880191083C161CA4B230
:103870000027019BD919A64204D8B2B2281C00F037
:1038800017FF09E0281C221C00F012FF002803D1BA
:10389000361B3F192D19ECE740B2FEBD0E0000208B
:1038A000F7B50E4B051C1C880191083C161CA4B2F0
:1038B0000027019BD919A64204D8B2B2281C00F0F7
:1038C0001DFF09E0281C221C00F018FF002803D16E
:1038D000361B3F192D19ECE740B2FEBD0E0000204B
:1038E000062815D80F23042815D01023052812D038
:1038F000122306280FD0032300280CD0042301280C
:1039000009D00523022806D0032803D1062302E0AC
:10391000FF2300E0FE2358B2704738B5051C0C1C8D
:1039200000F01AFA00280AD1281CFFF7D9FF002856
:1039300003DBC0B2211CFFF711FF00F033FA40B2E5
:1039400038BD38B5051C0C1C00F006FA00280AD159
:10395000281CFFF7C5FF002803DBC0B2211CFFF7BE
:1039600017FF00F01FFA40B238BD000070B5041C0C
:103970009AB0151C2C2869D01B2804D1101C01A951
:103980000822002372E0062803D1101C01A930226E
:103990006BE00E2800D18FE0322803D1101C01A962
:1039A0001022EEE72F2808D101A80021642200F0A0
:1039B00012FF281C01A96422E3E734280DD1101C52
:1039C00001A90422002300F0A9FB011E74D13B4B86
:1039D0001B68002B70D0201C6DE0112814D1384AD0
:1039E000002301AC1370281C211C042200F096FB5C
:1039F000002861D1334B22781A70304B1B68002BA2
:103A00005AD01120211C56E013280DD1101C01A9F9
:103A10002C22002300F082FB00284DD1274B1B688D
:103A2000002B49D013202AE004280DD1101C01A935
:103A30000422002300F072FB00283DD11F4B1B68BD
:103A4000002B39D004201AE0652803D1281C01A9D5
:103A5000042296E7092803D1101C01A9642204E07E
:103A60002A280ED1101C01A90422012300F056FBC4
:103A7000002821D1114B1B68002B1DD0201C01A94F
:103A800019E0202818D101AE101C311C0822002397
:103A900000F044FB00280FD1281C0830B28801999F
:103AA000012300F03BFB002806D1044B1B68002BD0
:103AB00002D0201C311C98471AB070BD341C002065
:103AC000381C0020391C002070B58AB06B460126D6
:103AD000DE71073300281DD00168104A00251160EF
:103AE0000F4A181C157000F0D9FB041EAC4212D10D
:103AF00000F08EF9041EAC4208D10A49301C00F0D7
:103B000055FB02A800F07AFB041C04E0281C00F01E
:103B1000EAFB00E0F42460B20AB070BD341C00205F
:103B2000381C00206D39000008B50023084A9A1897
:103B30005268002A02D01268910705D41033B02BC6
:103B4000F4D100F043FA00E0F42040B208BDC046D2
:103B500094230020F0B5A5B01C1C2AAB1B8806904E
:103B600005932BAB1B780F1C161C0793012A03D15E
:103B70007B1E1F2B1BD901E0002C01D1F4206AE031
:103B8000022AF5D1201C00F02EFE4028F0D100239F
:103B9000E25C111C30393629F0D80A390629EDD9F2
:103BA000473A192AEAD90133402BF1D1E0E70599C8
:103BB0000D2901D9FF29E1D109AD68463A1C6A30C7
:103BC000EF19069900F0FEFD3B1C403300279F7162
:103BD000059A6B462A33DA87079A531E9A416B4639
:103BE0008B331A70263B1E70032E13D123782B7053
:103BF000032BC3D862781023111C6A7099430A29D9
:103C0000BCD16846A11C263000F0DCFD6378EB18BF
:103C10009F7016E0022E0AD1201C00F0E4FD431E26
:103C20009BB23F2BAAD8421C211C281C04E0042E66
:103C300005D1281C211C3E2200F0C4FD01E0012E0C
:103C40009CD10023009301930293012028212A1C78
:103C50006C2300F001F940B225B0F0BD13B504ACFF
:103C60002488009400240194FFF774FF16BD00001F
:103C700010B5104C86B02378011CDBB2002B14D198
:103C8000021C0E3AD2B2F120F02A0FD905AA117007
:103C900001200093019302931021042300F0DCF82B
:103CA000002803D10123237000E0F22040B206B0C7
:103CB00010BDC046381C00201FB50023009301939F
:103CC000029303211A1C012000F0C6F805B000BDC4
:103CD00010B5041C00F040F8002806D1201CFFF7A6
:103CE00071FD002801D100F05DF840B210BD7FB534
:103CF000002305AA10701221009301930293012062
:103D0000042300F0A9F807B000BD0000014B1878AB
:103D1000C0B27047391C0020024B1A780132D2B26F
:103D20001A707047481C00207047000007B501203A
:103D300000F0D2FD074801A9FFF78AFD002806D14F
:103D4000019B0221194303480191FFF785FD40B211
:103D50000EBDC0467010000010B50E4C2378002B2D
:103D600005D0237800200133DBB2237010E00A4B2A
:103D70001A78032A02D01B78042BF2D1FFF754FBE8
:103D8000002805D105480649FFF766FD0028E8D060
:103D900040B210BD641C0020541C002074100000B0
:103DA0007856000007B5164B1A78002A03D01A7807
:103DB000013AD2B21A701B78002083421DD1114BF8
:103DC000021C1978032902D01B78042B15D10E4848
:103DD0000E490192FFF740FD00280ED1012001A9F4
:103DE000FFF736FD002808D101990223194204D0BB
:103DF000994301200191FFF72FFD40B20EBDC0464F
:103E0000641C0020541C002074100000214300009A
:103E1000094B10B500241C60084B09481C60094B75
:103E20001C70094B1C70094B1C7000F043FD084AC4
:103E3000084B201C1A6010BD441C0020581C002098
:103E4000193D0000641C0020541C0020481C002068
:103E5000293D00004C1C0020F0B58BB01C1C10ABA1
:103E60000E1C02CB02921B887F22019312AB1B888F
:103E70003240039306AB5A70082218705A80051C12
:103E80005A88002904D001998A1803998A1800E0F9
:103E9000A21892B25A80FFF75FFF031C002B00D0DC
:103EA00086E06F460893FB820793079B36021D430B
:103EB0000795079B06AD1E430796079A6B883E48F9
:103EC0001B04134307930799FFF7C6FC1637031C1F
:103ED000002B6DD10793079B022213430793079989
:103EE0003648FFF7B9FC031C002B61D108933B80D7
:103EF0006E4616363288324B9A4216D82F4807A99A
:103F0000FFF7A6FC002810D1079F02231F4007D10E
:103F10002C4808A9FFF79CFC002806D0089704E06D
:103F2000338801339BB23380E2E7089B002B3ED0FD
:103F3000089B291C09936B8808229BB26B80099807
:103F4000FFF7AEFC002833D1099B029A083309938E
:103F5000002A09D0111C0998221CFFF7A1FC002897
:103F600026D1099BE3180993109B002B0FD00399CE
:103F7000099B0C1BE418099409981099019AFFF702
:103F80008FFC002814D1099B019AD3180993089B30
:103F900002229B000793079B0B4813430793079943
:103FA000FFF75AFC002803D1FFF7FCFE00E0FD20DC
:103FB00040B20BB0F0BDC0468C100000781000007D
:103FC000E7030000000415006C100000F0B5494B39
:103FD00085B01A78002A0AD1474B1C78E4B2002C2D
:103FE00000D184E01A78013AD2B21A700FE000F0E2
:103FF0001FFE00247BE0414801A9FFF729FC041EB5
:104000000AD03C4A1378002B71D1002CE4D0FFF782
:10401000A3FE041EF5D1EEE7019A0126324262D0DA
:1040200000F05AFC01993548B1430191FFF714FCA7
:10403000041EE6D1324AFE241070019A97043F0D07
:10404000DFD0039003A92F48FFF702FC041E0BD119
:1040500002AD0398291C0422FFF702FC6B88041CA4
:104060009BB26B80002803D0301C00F035FCC8E701
:104070006B88BB4207D06B88FF1A042F03DD301C0E
:1040800000F02AFC2DE02B78012B01D11E4B12E011
:104090002B78022B01D11D4B0DE02B78042B01D185
:1040A0001B4B08E02B78062B01D11A4B03E02B7831
:1040B000072B16D1184B1B68002B07D0687869882E
:1040C000039A0839C0B289B208329847094A13786E
:1040D000002B96D10A4A1378002B04D1FFF726FE55
:1040E00001E0FA248DE7FFF75DFE041C89E760B26A
:1040F00005B0F0BD401C0020481C002070100000DE
:104100005C1C002084100000441C0020581C00206F
:10411000601C00203C1C0020501C0020F0B585B025
:10412000051C0F1C141C0193002803D0002901D08A
:10413000002A04D1019A002A29D1F4202CE0184841
:1041400003A9FFF785FB002826D1164802A9039E84
:10415000FFF77EFB00281FD1B604360DB442ECD821
:10416000029B9D42E9D32A19F31800929A42E4D89F
:10417000281C391C221CFFF773FB00280CD1029B62
:10418000009AF618964202D0019B002B04D0064BF1
:1041900001221A70FFF7CAFD40B205B0F0BDC0465B
:1041A00070100000841000005C1C0020013800B575
:1041B000062813D803F036F906040A08120C0E007C
:1041C000084B08E0084B06E0084B04E0084B02E00F
:1041D000084B00E0084B1960002000E0F42040B2DA
:1041E00000BDC046581C0020441C0020601C00205C
:1041F0004C1C00203C1C0020501C002073B50023E8
:10420000041C01A920480193FFF722FB1F4B019AD0
:10421000061C9A4204D11E4801A9FFF719FB061C8F
:10422000019B0F251A0C91B2080A2A40090929405E
:1042300062729AB22172110A12092A402B4021712E
:104240006271A371E071FFF773F92379A279617943
:104250001B022A401A430901FF23194020600A4328
:10426000607AE179054009020D43217A09010B408A
:1042700008492B438B4200D9F326074B9A4200D8BA
:10428000F32670B276BDC046AC070200C3C15DD74D
:1042900048100000301300002F13000038B500282C
:1042A00003D005786B1E032B00D901250020FFF7F2
:1042B000C3FA041E15D100F0BBF9281CFFF78EF9D4
:1042C000041E0CD1281CFFF7EBF9041E07D1023D98
:1042D000012D06D9FFF702F9002802D0041CFFF7D0
:1042E000AFFA60B238BD10B5FFF70AFA041E09D163
:1042F00001F06CF8041E05D1FFF7A2FA041E01D1EB
:1043000000F076F960B210BD1FB501AB002202903B
:1043100019810320191C0192FFF70EF805B000BDAA
:1043200073B56C46061C0734CF2806D0031C3B33FC
:10433000DBB2012B01D90B250EE0201C0121FFF778
:10434000E3FF0028F7D000201CE02378B3420AD016
:10435000013DEDB2002D06D0201C0121FFF7D4FF56
:104360000028F2D0EFE70B25201C0121FFF7CCFF3E
:104370000028E8D12378002B03D0013DEDB2002DB9
:10438000F2D1012040B276BDF0B585B000900C1C92
:10439000019200278026B601B44200D8A6B20A25B1
:1043A00068460B300121FFF7AFFF002801D0002045
:1043B00020E06A46D37A1B090F2B05D0013DADB230
:1043C0002BB20133ECD1F2E72DB2002DEFDD009BD3
:1043D000B6B238B21818311CFFF796FF0028E6D1A4
:1043E000019A002A09D0A41BF319A4B29FB2002C91
:1043F000D0D1012040B205B0F0BD054B1B78002B99
:10440000F1D103A80221FFF77FFF0028EBD0CEE710
:10441000651C00201FB501AB01900022198103200B
:10442000191C0292FEF788FF05B000BD30B585B0BB
:1044300008AC257801AC2070C1380E2857D802F09E
:10444000F1FF2121360E19192B2B480856565656C6
:104450001B000B0C63700B0AA370E17010E00B0AD9
:10446000DBB2002D02D08022524213436370A17050
:10447000002304E0002300E0FF236370A370E370D7
:10448000052138E00A0C62700A0AA2701A0AE1706B
:104490002271637107212EE00A0C62700A0AA27071
:1044A0001A0C22711A0AE1706271A3710FE00B0AF3
:1044B000DBB2002D02D08020404203436370130E14
:1044C000E370130C2371130AA1706371A2710821A8
:1044D00011E00B0C63700B0AA370130E2371130C05
:1044E0006371130AE170A371E271092103E00020F6
:1044F00040B205B030BD0D4B4A1E1B78002B0DD1CC
:104500007F2001334000994206D0E518013D2D7807
:104510006840074D285CF4E7A05400E0D1B2201CAD
:10452000FFF778FF43425841C0B2E1E7651C002025
:10453000A87B000073B5031C0A1C302802D8012098
:10454000C32501E00020C9250090191C281C042364
:10455000FFF76CFF0024061E012E0DD1281CFFF76B
:10456000DFFE341C012807D000240094CF20211C3A
:10457000221C231CFFF75AFF60B276BDF0B5031C66
:1045800085B00F1CFF2802D80125C42601E00025B4
:10459000CA26191C0095301C00220423FFF746FF91
:1045A0000024012821D1301CFFF7BAFE012808D0D1
:1045B00000240094211C221C231CCF20FFF736FF6F
:1045C00013E003AC201C04212A1CFFF7DDFE0128A8
:1045D000EED16278A37812021B04134322781343AE
:1045E000E278041C120613433B6060B205B0F0BDD4
:1045F000014B002018707047651C002007B501A909
:10460000FFF7BCFF01980EBD08B5FFF7B7FF012803
:1046100001D1002000E0FA2040B208BD08B5FFF744
:1046200089FF012801D1002000E0FA2040B208BD36
:1046300013B51D4C00231D4801A901932370FFF7FA
:104640009DFF002803D02378002B09D015E001231B
:10465000164801A92370FFF791FF0028F3D11DE050
:10466000019A7C239A435021114310480191FFF78E
:1046700061FF002812D00123237080204001694689
:10468000FFF77CFF00280BD00848FFF7B7FF702327
:104690009843502101430548FFF7C0FF002000E088
:1046A000FA2040B216BDC046651C002024E8000078
:1046B00073B5031C151C00240E1C0094191CC82083
:1046C000221C2B1CFFF7B2FE012815D1C820FFF7D2
:1046D00027FE012807D000230093191C1A1CCF20A5
:1046E000FFF7A4FE08E0301C291C221CFFF74CFE3B
:1046F0000128F0D160B276BDFA24FBE7F0B5031CC7
:1047000087B0141C002503910095191CC7202A1C92
:10471000231CFFF78BFE01284CD1C720FFF700FEBA
:10472000012807D00095291C2A1C2B1CCF20FFF73D
:104730007DFE3FE005AF3D808023261C9B019C420F
:1047400000D91E1CB6B2002D04D103229C4205D90B
:10475000012203E00022A3425241023210236846A4
:104760005B4213301A4301210270FFF753FE002809
:1047700018D1039B28B21818311CFFF74BFE0028F4
:1047800010D10F4B1B78002B06D0A41B7519A4B2B7
:10479000ADB2002CD0D111E0381C0221FFF73AFE57
:1047A0000028F2D000230093191C1A1CCF20FFF719
:1047B0003DFE03E0FA2040B207B0F0BD0020FAE76A
:1047C000651C002010B500239A4203D0CC5CC45471
:1047D0000133F9E710BD8318002A03D001700130BE
:1047E0009842FBD17047021C031C1978981A80B2BA
:1047F000002901D00133F8E77047000008B5034BEA
:104800001B68002B00D0984708BDC046681C0020DC
:1048100008B500F047FE08BD08B500F0C7FE08BDAA
:1048200010B5041C002C04D0012000F039FF013C1D
:10483000F8E710BD10B5094C00202056002101F00A
:1048400003F96420FFF7ECFF00202056012101F05E
:10485000FBF86420FFF7E4FF10BDC0461500002000
:1048600038B5104B104D00241C6000202856012143
:1048700001F08AF800202856012101F0E5F80B4BE1
:1048800000201856211C01F07FF8094B0020185613
:10489000A04202DB022101F077F8FFF7CBFF0020F6
:1048A00038BDC046681C0020150000201400002000
:1048B0001600002008B5054B05491860054B00207F
:1048C00018560322FFF7A4FF08BDC046681C00204D
:1048D000FD4700001400002008B5074B002806D053
:1048E0000020185605490322FFF792FF03E000203D
:1048F0001856FFF791FF08BD14000020FD47000087
:10490000F0B585B003920AAA128802900192002A9B
:1049100046D0244D02015059002841D0AD18AA8834
:10492000002A3DD0AF7AFFB2012F39D11E4C1F4E65
:10493000201C18223360FFF745FF0198E080AB8808
:10494000C31A1BB2002B0CDDAB8802999BB20193FA
:10495000174B039A1F70174B1970174B1A700023CF
:1049600000E03B1C02980F4F0501E9593068019A9D
:10497000FFF7D4FB002813D10199E388ED595B1AA6
:10498000E3800E4B25601A68A180002A04D01B68C2
:1049900002980399221C98473068019A13183360D3
:1049A00005B0F0BDD8220020741C0020701C00202F
:1049B000401C00206D1C00208E1C0020882300203D
:1049C000F0B50F1C9DB0141C412816D10BAD101C66
:1049D000291C04220023FFF7A1FB002800D01AE1C4
:1049E0006B7807AA13708D4B1968002900D112E16A
:1049F00000201B682856012117E0422817D10BAD73
:104A0000101C291C04220023FFF788FB002800D07B
:104A100001E16B7807AA1370804B1968002900D157
:104A2000F9E000201B68285602219847F3E043284C
:104A300035D107AD101C291C0C220023FFF76EFB9B
:104A4000002800D0E7E0697A4AB2002A15DB744CEE
:104A50001201A318D87201209872724B1888013085
:104A600080B218801888002803D11888013080B2DD
:104A700018801B88A2189BB2D3800BAA0223117046
:104A800093806B886968D380644B916019680029B2
:104A900000D1C0E008201B6828560421C5E744283F
:104AA00001D04B2821D10BAD201C291C042200234E
:104AB000FFF734FB002800D0ADE0287807AA10707B
:104AC0006B785370002B07D1698843B2544C083976
:104AD0001B0189B2E3181981504B1968002900D1D4
:104AE00099E01B6840B205219FE74A2812D1101CAB
:104AF0000BA944220023FFF711FB002800D08AE015
:104B0000494B1B991A68002A00D184E01B680BA846
:104B1000984780E0462803D0482803D04D283FD14D
:104B2000062600E0092607AD0023201C291C1022C0
:104B3000FFF7F4FA031E6ED1EA890C20039228567F
:104B40003749020189180B738C46298902916A89B9
:104B5000059269886D680BAA5181D5606146CD8840
:104B60000399A94213D102990BB2002B0ADDBB4273
:104B700008DA0599631802990091111C321CFFF79D
:104B8000BFFE48E0029B938000230B9326E0102F8A
:104B900041D9191C1A1C181C0123FFF7BFFA3AE06F
:104BA000452803D0472803D04C281ED1072600E013
:104BB00008260BAD201C291C08220023FFF7AEFAA3
:104BC000002828D128786B8807AA40B2144CA988FD
:104BD00013800301E318DB8899421CD10F4B19683D
:104BE000002918D01B68311C1FE7522813D10BADC8
:104BF000101C291C14220123FFF790FA00280AD167
:104C00000A4B696819601A68002A04D01B68286872
:104C1000A9682A7C98471DB0F0BDC04688230020B3
:104C2000D82200208C1C0020902300208C23002000
:104C3000F8B5264DEC88002C46D0254B002159565E
:104C4000244E09018A59002A3ED072189388002BFD
:104C50003AD0131C08339B78DBB2012B34D19088F7
:104C6000201A00B2002806DD1B4F02233B709488F7
:104C70000023A4B202E0184F03223A70174F715874
:104C80003868221CFFF74AFA002815D1104A002084
:104C90001056AC800301F658EB882E601B1BEB808E
:104CA0000F4B1A68002A04D00E4A1B6811782A1C80
:104CB00098473B68E4183C60074F3B78032B03D1CF
:104CC00000233B70FFF76EF8F8BDC046741C00204F
:104CD0006D1C0020D8220020401C0020701C0020E9
:104CE000882300208E1C002038B5094D2C78E4B2B2
:104CF000002C0CD10748211CB022FFF76CFD0220CC
:104D00000549FFF753FA01232B70044B1C8038BD73
:104D10006C1C0020D8220020C14900008C1C0020FF
:104D2000024B1860024B19607047C0468823002070
:104D30009023002070B5161C86B0FF2402283CD1B9
:104D4000012904D0022938D10B2307240BE00723C3
:104D5000002408E01A4A2501AD18A97AC9B2002931
:104D600004D00134E4B29C42F4D325E01022281C84
:104D7000FFF731FD0123AB72124B1A88013292B258
:104D80001A801A88002A03D11A88013292B21A8036
:104D90001B88E4B29BB2EB8001231E420DD0EB7264
:104DA00005AA00231470502100930193029302205E
:104DB0000423FFF751F800E0FF2460B206B070BD95
:104DC000D82200208C1C002030B589B0002921D0C9
:104DD00000281FDB114D0301ED182B1C08339B78B5
:104DE000012B17D1002A15D005AC20720822201CF7
:104DF000FFF7E8FCEB880220638100230093019316
:104E000002934121221C0C23FFF726F8002802D030
:104E1000F72000E0FA2040B209B030BDD8220020CF
:104E20007FB5002819DB0F4A0301D3181A1C08327A
:104E30009278012A11D105AA10705170DB880220E6
:104E40005380002300930193029342210423FFF730
:104E500003F8002802D0F72000E0FA2040B207B0A3
:104E600000BDC046D8220020F0B58BB0071C0591CC
:104E7000161C109D002833DB002931D0AF23DB0046
:104E80009A422DD8184A0301D31804939A7A08330A
:104E9000012A25D19B78002B22D006AC1022201CA1
:104EA0000021FFF798FC049A27706680D388A381BD
:104EB000002D05D02B88A3806B886D68E380A560EA
:104EC000059B019600934423029302201023C721DF
:104ED000221CFEF7C1FF0023984202D0034B00E0E2
:104EE000034B18B20BB0F0BDD8220020F2FF000037
:104EF000FAFF0000F0B587B0002830DB00292ED083
:104F0000002A2CD0184F05017C19A67AA446F6B2C7
:104F10000834012E23D1E95161468A80217900228B
:104F200091421DD12671E2784D21324200D14621B5
:104F3000002B01D101235B4204AA107104937D1957
:104F4000EB880024D380022000940194029408236B
:104F5000FEF782FF221CA04202D0044A00E0044A6D
:104F600010B207B0F0BDC046D8220020F2FF00000A
:104F7000FAFF0000F0B587B0002824DB144E0501CD
:104F80007419A77A211CFFB20831012F1BD105AA81
:104F90001070E388538000238B70E380C8784E2123
:104FA000384200D149210093019302930220042347
:104FB000FEF752FF041E00D0F724701900211022C2
:104FC000FFF709FC00E0FA2460B207B0F0BDC0466C
:104FD000D8220020F0B589B0002833DB002931D079
:104FE000002A2FD0194C05016719A4463C1C08342F
:104FF000A678F6B20496012E24D1A678002E01D10F
:10500000002320E06646A951BA802279002AF7D110
:10501000049A2271002B01D101235B4206AA107170
:1050200006936544EB880024D38002200823009473
:10503000019402944821FEF70FFF231CA04202D0E6
:10504000034B00E0034B18B209B0F0BDD82200209A
:10505000F2FF0000FAFF00001FB5041CFFF7C3FBBE
:10506000C3B2402B0ED80021C0B2431C0091019165
:1050700002910220CA21221CFEF7EEFE002802D077
:10508000F72000E0FA2040B204B010BDF0B599B0AE
:105090001EAC2488059400286ADB002B68D0364CAF
:1050A0000601A519A4462C1C0834A778FFB2012FCD
:1050B0005ED1022947D106285ADCE5783D4257D017
:1050C000012A08D11868E378002802D01943E1705A
:1050D00037E08B430BE0032A0BD11868E2781023EA
:1050E000002802D01343E3702BE09A43131CE370B3
:1050F0003FE0022A3CD1059A3F2A39D806AC2070FD
:105100006644F288191C6280059A002602250792DF
:1051100008A840226570FFF755FB0096019602969D
:10512000281C5121221C4823FEF796FE033008D18B
:10513000009601960296281CD121221C4823FEF7D6
:105140008BFE002015E01B6806AC6271207106938F
:10515000EB880220E38000230093019302934F2108
:10516000221C0823FEF778FE002802D0F72000E07A
:10517000FA2040B219B0F0BDD822002008B503488B
:105180000021B02202F0E1F908BDC04694230020BE
:1051900030B5044D00012C18E360039B6160A260F0
:1051A000435130BD9423002010B504490001002371
:1051B0000A1853609360D360435010BD94230020BD
:1051C000F7B5051C481E141C082800D9F5E002F0AC
:1051D00029F9BDF4F4DA051AF4F45900002A10D0C4
:1051E00053787F2B0DD8754E2C01AF22A159D200D8
:1051F0000023281C3419FFF77DFE6368012219681B
:10520000D9E0281CCDE000210520FEF79AFB002103
:105210000220FEF796FB69482901002C20D00422C9
:10522000A35E002B1CDD4618B7683A689B18AF22B6
:10523000D200934204D9736802221C682243BBE067
:105240003B60002B07D0E388002B12D0736802224A
:105250001E68324364E04158281CFFF74BFE08E00B
:1052600041184B6801221F68281C97431F60FFF7F5
:1052700081FE01210520FEF764FB01210220FEF7DB
:1052800060FB9AE000210520FEF75BFB0220002175
:10529000FEF757FB002CECD0A7883AB2002AE8DDD5
:1052A000474B464E1B782801012B23D831188B68B9
:1052B0001A6833580193E3889C466744BFB2019B48
:1052C00000973F0A9F54009F9B185F7067899F70EB
:1052D00067893F0ADF70E77B1F71E7895F71E768C5
:1052E0003F0A9F71E768DF718B680427E15F5218FE
:1052F000083203E033189B6819688A181A6033185B
:105300009A681168AF22D200571ABC462D4FBC458F
:1053100008D8E288002AACD05B68022219680A43E8
:105320001A60A6E7264B1B78002B05D0032B03D071
:105330003358281C591805E033580831AF22591842
:10534000281CD2000023FFF745FE92E7002A34D044
:105350000023D356002B30D1184A29015018406839
:105360000424066834430460062D04DC281C191C40
:10537000FFF756FD21E08958AF220831281CD200E2
:10538000FFF728FE19E0002A17D000201056002849
:1053900013DB0A4B2D015D196B6808221968114255
:1053A00002D0FFF7E7FD08E0074801401960002040
:1053B0002056000401430A431A60F7BD94230020DD
:1053C000401C00207F050000FFFF00FF73B5061C96
:1053D000FEF7AEF8294B0005000D002498424BD98A
:1053E000274801A9FEF734FA041E45D1019B254D3B
:1053F00025492B40194322480191FEF72DFA2348F5
:10540000211C002E20D0FEF727FAAB212048FEF702
:1054100023FA01211F48FEF71FFA211C1E48FEF740
:105420001BFA1E488121FEF717FA1D48FEF70CFAF9
:105430000128FAD1019B80211D40490229431048CF
:105440000191FEF709FA17E0FEF706FAB9211048B4
:10545000FEF702FA01210F48FEF7FEF9211C0E4863
:10546000FEF7FAF90D488121FEF7F6F90C48FEF730
:10547000EBF90128FAD1DDE760B276BD9F030000A9
:1054800010140000FF8F88F80010110108020100BD
:105490000C020100140201001C02010004020100C0
:1054A00018020100F0B51823434385B00292374A31
:1054B0001625D3185D5701900391691C63D0102DF8
:1054C00061D0334B334C196800291FD14422324834
:1054D00002F03BF831491022CA67314BC021490024
:1054E0005A50C12189005858FF26B04358501A60BD
:1054F0002C4A2D4B5A802378022213432370637861
:10550000DB09012BFBD0224B01221A6001276369C2
:105510003E1CAE40334363610021019800F0C4FAA1
:105520001D4A0399AB009950072D00DC0027FB00B2
:10553000029AED1AAD00042A22D8101CBF0001F017
:1055400071FF03080D121700124B0522FF18BB69EB
:1055500012E0104904227F18BB690DE00D4ABF1804
:10556000BB69032208E00B4B0222FF18BB6903E072
:10557000084901227F18BB69AA40151C1D43BD6163
:10558000B603B60BE66005B0F0BDC046B0770000CC
:10559000901C002000180040941C002004E100E052
:1055A00000E100E005400000000C004018235843D3
:1055B000084B18181623C3565A1C0AD0102B08D0B3
:1055C00001229A409103044B890B996059699143D8
:1055D00059617047B07700000018004070B5002492
:1055E000084D01262B69A640334206D0064BA20087
:1055F000D358002B00D098472E610134102CEFD1E6
:1056000070BDC04600180040941C0020FEE700005A
:1056100008B5034B1B68002B00D0984708BDC04657
:10562000D81C002038B50F490F4CA14204D100F01E
:1056300055F8FCF7E7FF0BE00C4D8D42F7D0002347
:10564000CA18E818A24204D2006804331060F7E7D1
:10565000FEE79042EBD0064B064A9342E7D2002287
:1056600004C3F9E70000002044010020D87D0000B9
:10567000440100204824002008B500F02CF8002840
:1056800001D100F01DF808BD014B18607047C046FD
:10569000D81C0020014B18687047C046DC1C002055
:1056A00070B5041E08D0054B1D681E1C00F012F8D2
:1056B00033685B1BA342F9D370BDC046DC1C0020DD
:1056C00008B5034B1A6801321A6000F08DFB08BD63
:1056D000DC1C0020704700207047000070B54A4A6B
:1056E0001E21536802208B430343484953608B6952
:1056F000082423438B61464C464B9C829C8A204362
:105700009882101CDA689407FCD5434A012414706F
:105710001478E50704D5404C647864B2002CF7DBBC
:1057200001249460547864B2002CFBDB3B4D3A4C6E
:105730006560547864B2002CFBDB8225364CED01A9
:105740006580547864B2002CFBDB9C8C8025AC43D4
:105750009C84DC68E606FCD5314D2E4CE562DD68A4
:105760002C4CEE06FBD5A58C2E4E3543A584DD686A
:10577000284CEE06FBD5A58C02263543A584DC68B3
:105780002506FCD5234CE4686606F8D5DC68E506FA
:10579000FCD500249460547864B2002CFBDB224DCD
:1057A0001D4C656055781C4C6DB2002DFADB1E6AED
:1057B0001E4D35401D621D6A8026B5431D620323C0
:1057C000A3601B4B636053785BB2002BFBDB0023B1
:1057D0000B72184A4B728B72CB72174BFF211A60F7
:1057E000164B174A1B6812685C01D20E2140114308
:1057F0009A06520F12020B1C1343124A1385436878
:1058000080221343436070BD00400041000400400B
:105810000C06000000080040000C004001050100DB
:10582000B805FF7D040A000000070300FFFCFFFF2E
:1058300003060100006CDC021800002024608000D8
:1058400020608000004000422E4BFA21186810B5FD
:10585000890001F0F1FD2C4B013898421DD82B4BEB
:105860002B4A5860106AC0210002000A0906014351
:105870001162002407229C601A60264BFC211A6AE0
:105880000A431A62196AFC2292010A431A62196ACF
:10589000A022D2020A431A6200E0FEE7201C002187
:1058A000013400F071F8162CF8D11B4C63785BB210
:1058B000002BFADB194B6380194B5A7ED209012A5F
:1058C000FAD0E422D2009A803F22DA70597E144A3C
:1058D000C9090129FAD0C0235B010020136190702F
:1058E00000F024F863785BB2002BFBDB0D4A0A4B17
:1058F0005A800D4BDA79D209012AFAD041225A7026
:1059000010BDC04618000020FFFFFF0010E000E0BF
:1059100000ED00E000040040000C00401E400000CC
:1059200000400042214000000048004200B5144AF7
:10593000517E131CC9090129F9D00138042813D854
:105940001969104A0A401A615A780F218A4301F0F6
:1059500069FD030509070300012102E0032100E0BE
:1059600002210A435A700AE01169F0231B050B4318
:10597000136153780F218B4302210B43537000BDF9
:1059800000400042FFFFFFF010B51824021C201C4D
:1059900050432A4B1818007A40B201304CD00329EA
:1059A0004AD8081C211C01F03DFD0233112162433D
:1059B00098569A18C301224852681B18991840310A
:1059C0000220087001219140596035E062439856E9
:1059D0001B499A185268C3015B1899184031062078
:1059E0000870012191405960996125E051435A5650
:1059F000134859184B68D2011118C81840300624B2
:105A000004700120984048600E495218506013E01D
:105A100051435A5659180A4B4968D201D2185318A3
:105A20004033187802242043187018780424A043C7
:105A3000187001238B40936010BDC046B077000002
:105A4000004400411044004118235843134AF0B564
:105A5000131808241C5701341FD08256104ED2014F
:105A60005D6801249019231C8668AB401E420BD14F
:105A70000E1C771EBE41401934404030A50004780A
:105A80000426B4432C430470002903D1054952185D
:105A9000536002E0024E92199361F0BDB0770000AE
:105AA000004400411044004118224243F8B52D4DF6
:105AB0000824AA181457031C621C50D0481C002448
:105AC0000C284CD801F0AEFC071E1E1E1E1E1E1E0A
:105AD0001E0A0A0A0A000124644240E0092902D190
:105AE000181C002103E00A2904D1181C0221FFF729
:105AF0004BFF23E000240B2931D1181C0121FFF7B3
:105B000043FF2CE018225343EA185268EB56012059
:105B1000141C04405508DB01002C11D0124C1B1939
:105B20005D1930352E780C010F21314021439A1830
:105B3000C9B22970403213781843107000240EE067
:105B4000094E0F279B195D1930352E789A18BE43E0
:105B50003143C9B229704032137818431070201CA9
:105B6000F8BDC046B077000000440041F7B50024FE
:105B700001900D1C261C019A281C131919790A2260
:105B800000F015F92E21071C281C00F08DF80134B7
:105B9000C719F619032CEED1019B281CD9790A22CA
:105BA00000F005F93018FEBD024B083303600023F6
:105BB00043607047A87C000030B503AC044D2478E6
:105BC00008350560017142718371C47130BDC046F2
:105BD000A87C0000024B4160083303607047C04658
:105BE000A87C0000002230B5131C051C0C78002C8A
:105BF00016D0201C30380131092807D80A20434329
:105C0000303B1B199BB2FF2BF0D90FE02E2C0DD18E
:105C1000032A0BD0501CAA181371C2B20023E5E767
:105C2000201C032A03D1EB71012000E0002030BDCD
:105C300041607047044A054B08321A6000221A710D
:105C40005A719A71DA717047A87C0000E01C00203C
:105C5000F7B58A18061C0D1C01920C1C019B671BD2
:105C60009C4207D0336821781B68301C9847013468
:105C70000028F3D1381CFEBD08B50368C9B21B6803
:105C8000984708BD38B5051C0C1C081E07D001F04C
:105C9000CBFC2B68021C5B68281C211C984738BD74
:105CA00008B5FFF7EFFF08BD08B503681B68984704
:105CB00008BD10B50A68041C1268081C211C904716
:105CC00010BD000008B50249FFF7DCFF08BDC04663
:105CD000B87C000038B5041CFFF7D4FF051C201C5D
:105CE000FFF7F0FF281838BD38B5041CFFF7E1FFB7
:105CF000051C201CFFF7E6FF401938BDF0B58DB03C
:105D0000161C0BAB002201900C1C1A70012E00D83F
:105D10000A266D462B35201C311C01F0D1FB201CBE
:105D2000CFB2311C01F088FB291C041C092F01D8BB
:105D3000303700E03737FFB22F70013D002CEAD139
:105D40000198FFF79FFF0DB0F0BDF8B5041C0D1CC6
:105D5000161E04D10368C9B21B68984712E00A2ACC
:105D60000DD100290ADA2D21FFF79EFF6942071C99
:105D7000321C201CFFF7C2FFC01903E000E0D2B2C2
:105D8000FFF7BCFFF8BD38B5041CFFF7DEFF051CAC
:105D9000201CFFF797FF281838BD08B5002A02D14C
:105DA000FFF76AFF02E0D2B2FFF7A8FF08BD08B50F
:105DB000FFF7F3FF08BD38B5041CFFF7EEFF051C25
:105DC000201CFFF77FFF281838BD0000014B18602A
:105DD0007047C0461C000020024B012252421A604C
:105DE0007047C0461C000020104A1368591C1CD084
:105DF000013B1360002B18D172B60D4B1A7DD107F1
:105E0000FBD5198B2022FF320A431A83094ADA6133
:105E1000094A1A801A7DD107FCD5BFF34F8F074A74
:105E2000074BDA60BFF34F8FFEE770471C0000207E
:105E3000004000410210000002A5FFFF0400FA0527
:105E400000ED00E001607047F7B508AC2678046803
:105E50009D1E27686C1EA541ECB2920705683A4367
:105E600027063A432A600268072529405068B50191
:105E7000002C00D05C03294301430C435460F7BD60
:105E800030B50368C0251C68AD0312052A402243C3
:105E9000C024A402090421401143196003685A6810
:105EA00014435C6030BD036801211A680A431A601C
:105EB0000268116801231942FBD1D1691942F8D156
:105EC0007047036802211A680A431A600268D3699E
:105ED0009907FCD4704703681A7ED10702D41A7E52
:105EE0009107FCD57047036800225A837047036806
:105EF000187E4007C00F70470368187EC0097047BE
:105F000003688022197E52420A431A76704703685A
:105F1000188DC0B2704703681A7E01200242FBD080
:105F20001985704770B5036801268D07ED0F314064
:105F30001C686D0709072943214319600468510053
:105F4000034801F079FA0138C0B2207370BDC04631
:105F5000006CDC02036801211A680A431A600268B7
:105F6000116801231942FBD1D1691942F8D1704758
:105F7000036802211A680A431A600268D369990704
:105F8000FCD47047036802211A688A431A600268C9
:105F9000D3699907FCD4704710B503681A7ED407FB
:105FA000FCD59A6A520A52021143996203681A7E1A
:105FB0009107FCD5197E01221142F8D010BD03686B
:105FC000197E01221142FBD0197E89081142F7D0B7
:105FD000986AC005C00D70470368224A30B59342E5
:105FE00011D0214A934211D0204A934211D0204A25
:105FF000934211D01F4A934211D01F4A934230D18D
:106000000E2319220DE0092314220AE00A23152287
:1060100007E00B23162204E00C23172201E00D23D6
:106020001822DCB2154901209B08A0409B000860A3
:106030005B180320C021890004405D58E000FF2464
:106040008440A5432C1CC0258540281C2043585063
:106050008023DB011A430A4B5A805A7852B2002A35
:10606000FBDB30BD00080042000C00420010004283
:106070000014004200180042001C004200E100E051
:10608000000C0040F8B5041C151C0E1C1F1CFFF76B
:10609000A3FF201CFFF707FFB1001C220A4069077D
:1060A0002368090C0A431A60226884239375012E21
:1060B0001AD10821012D00D110210C4B7943186809
:1060C000C00001F0B9F9236807219A890140D20480
:1060D0004903D20C0A439A8123680004C20C9889B0
:1060E000400B400310439881F8BDC04618000020C3
:1060F000F7B5019308AB041C1F780D1C161CFFF7A5
:1061000029FF201CFFF768FFBF070C221743C0229E
:10611000920336051640C02292022D0423683E43A6
:1061200001991540354307221D600A4080212368EC
:1061300089020A435A60F7BD0120704708B5036819
:106140001322DB69984708BD10B5041C0069FFF7EE
:10615000AAFE201C143001F0E7F810BD08B5006954
:10616000FFF7B9FE08BD08B5143001F0EFF808BD1F
:1061700008B5143001F0F0F808BD08B5143001F08E
:10618000D7F808BD08B50069FFF7C5FE012008BDB6
:10619000F7B51D1C08AB1B78041C009309AB1B78DA
:1061A000161C019300234360FA239B008360094B74
:1061B0000F1C08330360143001F0A0F8009A231C70
:1061C0005C3327619A70019A1E705D70201CDA7032
:1061D000FEBDC046D07C000010B5041C0069FFF76E
:1061E00086FE002807D02069FFF791FE011C201CC5
:1061F000143001F08EF82069FFF77EFE002805D0EC
:106200002069FFF77DFE2069FFF76DFE10BDF023CA
:10621000081C18403038434258417047F0231B0196
:10622000194080239B0099420CD0C0239B009942C7
:1062300006D080235B000520994204D0002002E0B4
:10624000072000E0062070470F231940012905D0E0
:1062500002394B424B410220C01A00E00020704737
:10626000F0B5031C85B003915C33041C1827187823
:106270003B1C43431B4E0821F3185956151CFFF7CE
:1062800013FC231C5D33187808214743F619715617
:10629000FFF70AFC01210A1C039B2069FFF7F2FEAD
:1062A000291C201CFFF7BAFF291C071C201CFFF724
:1062B000CBFF291C061C201CFFF7A9FF391C0090EE
:1062C000331C20690122FFF7BFFD231C5F331978BF
:1062D000013B1A782069FFF7D3FD2069FFF7F1FD34
:1062E00005B0F0BDB07700003F20704713B50268DD
:1062F0006B46D97107335468191C0122A04716BD9B
:1063000008B50069022100F00FFC08BD08B500695E
:10631000032100F01FFC08BD38B50D1C041C131C24
:10632000006903212A1C00F009FD002801D1012386
:10633000636038BD10B5054C23685A1C04D103684E
:10634000DB6898472060031C181C10BD70000020FB
:10635000074A08B51368591C04D00121494211604D
:10636000181C03E00069022100F0DAFC08BDC046F9
:106370007000002008B503780349023303704222FD
:10638000024800F085FD08BD2C000020AF21002050
:1063900010B50178031C42780020A12908D1212AD8
:1063A0002FD118481849072200F072FD012028E07B
:1063B000212926D1202A05D113490722114800F0AE
:1063C0000FFC04E0222A10D19A780F4BDA710E4BA1
:1063D00096221968D200914210D1DC7901231C4029
:1063E0000CD1FA20FFF7F2FC0AE0232A09D1DA786F
:1063F0009B7812021A43054B1A6002E0FFF7ECFC8F
:10640000002010BDAF210020200000202800002027
:10641000064BFA218900996005490022083119606C
:1064200004495A6019611A767047C046E81C00207A
:10643000007D0000AF21002070B5C2B219495301A0
:10644000CB189E68184DC0242E40A40526439E609C
:10645000164E800109683018083258605201505CAD
:106460000726B0430126304350549E6935402C43E3
:106470009C610F4C5C61505C7024A043102420434D
:1064800050549C680B488A182040802464032043A1
:10649000986098684021800B8003986053790B4383
:1064A000537170BDB4210020FFFFFF8FD01F00206B
:1064B000101E0020FF3F00F038B5041C08CC01215D
:1064C0001A78051C0A431A708022201C00215200F1
:1064D00001F03BF82B689A78D107FCD45C6238BD98
:1064E000134BF0B51B6899035A029B01C90ED20EDB
:1064F0005B0F1F2900D105211F2A00D11D22072B68
:1065000000D1032304688E01278D0A491F253940D5
:106510003143218501682A400C8DAC4322430A8512
:1065200002681903108D044B03400B431385F0BD23
:10653000246080003FF8FFFFFF8FFFFFEFF3108321
:1065400003600123436072B670470368002B02D1D9
:1065500062B6BFF36F8F704737B50569041C684694
:10656000002D12D1FFF7EAFF019B013B03D3621D0F
:10657000D57FEDB2F9E768460193FFF7E6FF00200B
:10658000854217D0206AE36913E0FFF7D7FF019B2C
:106590000025013B04D3221C34321578EDB2F8E714
:1065A00068460193FFF7D1FF0020854202D0206B9F
:1065B000E36AC01A3EBD0000436810B51A68037A4A
:1065C00003215B01D318FF339A7A8A4301210A43DE
:1065D0009A72037A42685B01D318C2689C6891047E
:1065E0000B4A090922400A439A60037A42685B0118
:1065F000D3189A684021920B92039A6043681A68F4
:10660000037A08335B01D3181A790A431A7110BD53
:10661000FF3F00F0F7B50569041C0E1C171C684607
:10662000002D1FD1FFF78AFF019B013B5A1C06D0AA
:10663000621DD17F5A1E00293AD0131CF6E7684626
:106640000193FFF782FF0025E369BD4235D0226A3E
:10665000934232D25A1CE261A269D3181B78735557
:106660000135F1E7FFF76AFF019B013B5A1C08D097
:10667000221C343215785A1EEDB2002D18D0131C8E
:10668000F4E768460193FFF760FF0025E36ABD4227
:1066900026D0226B934241D322E0621D0021D177A4
:1066A00030321678581E8E4214D1031C5A1CF4D175
:1066B00068460193FFF749FF38E0226A934235D1DB
:1066C0000023E361012323616846FFF737FF019B45
:1066D000013BEBE71170201C0193FFF76DFFF6E71C
:1066E000226B934222D10023E36223616846FFF7C5
:1066F00025FF019B013B5A1CDAD0221C34320021B9
:10670000117001321678581E8E4201D1031CF2E737
:106710001170201C0193FFF74FFFEAE75A1CE26259
:10672000A26AD3181B7873550135AFE7281CFEBD4C
:1067300037B54368027A1B68083252019A18041C64
:10674000D0790123FF21184253D0D371A068656925
:1067500062680140002D20D149015218916863619F
:106760008904890C2162A16A68465160621DD37751
:10677000FFF7E4FE019B013B5A1C33D0221C34324C
:106780001178581EC9B20132002903D001930123A8
:10679000137023E01170031CEEE74B01D3189A68C5
:1067A000A5699204920C22630022626168465D60D2
:1067B000FFF7C4FE019B013B01E011702B1C591C2B
:1067C00010D0221C343201201070621DD17F5D1E5A
:1067D000C9B230320029F0D0019310706846FFF73B
:1067E000B4FE06E068460193FFF7AFFE201CFFF7FA
:1067F000E3FE37BD37B500236C46E3710734201C38
:106800000D1CFFF7B7FD2B681818286000F0F8FD85
:10681000211C00F0AEFD2B681818286020783EBDC2
:1068200003290BD10D4BB2221B685200985C8021CA
:10683000494201439954022168220CE001290CD1FC
:10684000064B92221B685200985C8021494201430A
:10685000995402212822FF3299547047B421002014
:1068600038B5264B2021DA69051C0A43DA61244B2E
:1068700001201A78062402431A70224B0F2219783D
:10688000914319701978214319701F490C782043DE
:10689000087019780A401A701A7860210A431A7031
:1068A0001A4B1B4A5A805A78D209FCD11948FEF774
:1068B000EBFE194C201CFFF7FFFD201CFFF710FE1C
:1068C00023687F2219780A401A701A7804210A4333
:1068D0001A701A890C218A431A81C1210F4A890032
:1068E00050580002000A5050802111601A7802218D
:1068F0000A431A7001232B7038BDC04600040040C3
:10690000584400413C44004159440041000C0040BF
:1069100006400000DD720000B421002000E100E02C
:106920000078002810D0094B01211B681A898A437E
:106930001A811A8B08210A431A831A8B04210A43ED
:106940001A83034B00221A607047C046B42100200E
:10695000B82200200F4B9A69920B92039A611B6830
:106960000222FF331A7298798022524202439A71AE
:106970001A7A9007FCD5084B081C997A7F221040A0
:10698000914301439972997A802252420A439A7242
:106990007047C046B42100200050004110B50B796B
:1069A0000C1C002B0BD1081CFFF7F2FC002804D1B3
:1069B000094B9A69920B92039A6101200BE000F057
:1069C0001FFD211C00F009FD0028F6D1024B9A6939
:1069D000920B92039A6110BDB4210020F8B50D1CF2
:1069E000832A16D1CAB242495301CB189C69414847
:1069F000AD012040C024A405204398613E480832E0
:106A000045195D610B685201D15C702081434020C3
:106A100065E0022A45D1382000F0A7FC374B344FFF
:106A20008026036076000023421D036203614361F8
:106A3000C36147608560C660D3772F32041CC36290
:106A400003631370301C537000F06CFDA061301CA8
:106A500000F068FDFF232A1C1A405201A062BF18F3
:106A6000B968244A07260A40C02189050A43BA604A
:106A7000A16862681940126808314901885CAD005C
:106A8000B043032630438854A16862680B405B0121
:106A9000A169D3185960201CFFF78EFD184BEC50EC
:106AA00025E0822A1ED1CAB211495301CB189C6934
:106AB0001048AD012040C024A405204398610E4831
:106AC000083245195D610B68520199180C798020D4
:106AD000404220430871D15C702081433020014343
:106AE000D15404E0002A02D1081CFFF7A5FCF8BD30
:106AF000B4210020FFFFFF8F101E0020307D00001A
:106B00009021002038B5051C0124064BA200D25864
:106B1000002A06D0211C281C0134FFF75FFFE4B2D5
:106B2000F3E738BD7400002008B5084B8A00D05840
:106B3000002803D003689B68984706E0C9B2044B5D
:106B40004901591888688004800C08BD90210020F4
:106B5000B421002010B50C1CFFF7E6FF00280CD074
:106B6000064BE1B21B680831490159184A79802364
:106B70005B4213434B710223CB7110BDB421002043
:106B800070B5CAB2134B144854018901591803193E
:106B900059609D681149083229408025AD0229437A
:106BA000996099684026890B8903996003685101AF
:106BB00059180D7935430D715101591889794D06D0
:106BC000FAD551015918C979CD07FAD50419A06829
:106BD000C0B270BDD01F0020B4210020FF3F00F0E4
:106BE00038B50C4B141C1B680D1CFF335A7940211F
:106BF0000A435A710021FFF7C3FFA04200D9201CAD
:106C00000023A34204D0044A9A5CEA540133F8E713
:106C100038BDC046B4210020D01F002010B5C9B235
:106C20000C48490143189A689204920C3F2A08D9EB
:106C3000141C9A68403CA404920BA40C92032243B7
:106C400002E09A68920B92039A6041188868C0B279
:106C500010BDC046B4210020F0B51C1C2C4B85B0E3
:106C60001B68061C0D1C0292002B4AD0294B8A007F
:106C7000D058002805D0036802995B68221C984709
:106C800043E0301CFFF750FFA04204D2301C291C07
:106C9000FFF74AFF041C291C301CFFF7BFFF1E4FE3
:106CA000E9B24A010191396803928B18FF335A7A8D
:106CB00003218A4301210A4318495A72AB01C918BA
:106CC0000298221C00F038FC002C1DD0301C291C1E
:106CD000FFF72AFF002817D1019B3A6808335B01B0
:106CE000D31819794020014319710121D9710399F1
:106CF0005318FF339A7A03218A4301210A439A7277
:106D000002E00120404200E0201C05B0F0BDC0467A
:106D1000B822002090210020B4210020D01F0020A4
:106D200013B56C460734221C0123FFF795FF012899
:106D300001D1207801E00120404216BDF0B51C1CB5
:106D40003A4B85B01B680E1C0292002B60D080234A
:106D5000DB019C425CD800220092002C56D0344DBE
:106D6000F7B22B6801933B1C0833019A5B01D318DF
:106D70009B79DB091AD02F4B2F49186800F05CFB78
:106D80002E4B1721584300F057FB3B1C0833019A48
:106D90005B01D318DB799A0708D4294B9A5D002A46
:106DA00038D1421E002835D0101CEEE7244B0022BB
:106DB0009A55251E3F2D00D93F25224AB301D318ED
:106DC000181C02992A1C039300F0B6FB184A7B0199
:106DD000D318039AA9045A619A69890C920B9203F9
:106DE0000A439A613B1C019A08335B01D3180222C3
:106DF000DA715979802252420A435A71009B029AF1
:106E00005B1952190093641B0292A6E700980BE0ED
:106E1000012008E001229A557B01ED18AB69101C96
:106E20009B0B9B03AB61404205B0F0BDB822002034
:106E3000B42100201800002040420F007011010012
:106E4000081E0020101E002070B50E4D1C1C8B016A
:106E5000ED18281C0E1C111C221C00F06DFBF6B254
:106E60000949760189194D618A69084B201C134034
:106E70008B618B69A2049B0B920C9B0313438B6168
:106E800070BDC046101E0020B4210020FF3F00F05E
:106E9000F7B5114B01901B780F1C141C002B19D156
:106EA0000E4B1E78002E01D1151C08E00C4D0D482C
:106EB0002E888019361900F03FFB2E800AE0002D45
:106EC00008D0BA192B1C01980021FFF7BDFF361816
:106ED0002D1AF4E7201CFEBDAE210020AC210020BD
:106EE000061E0020051D0020F8B50E1C00AF151E63
:106EF000012D28D9D31DDB08DB006A46D21A95463E
:106F0000081C00F091FB01306C4640000323207008
:106F100063700222AA420ED23378002B0BD0511C90
:106F2000C9B20136A354A94204D0002302326354EB
:106F3000D2B2EFE72A1C0548211CFFF7A9FF431E28
:106F40009841C0B200E00020BD46F8BDAF2100204E
:106F500008B5044B00221A70034B04491A88FFF746
:106F600097FF08BDAC210020061E0020051D002053
:106F7000F0B5204A87B001230026009102A91370C2
:106F8000051C0296FFF736FC03AC092701903A1C5A
:106F9000201C311C00F0D9FA022363708023E371B6
:106FA000FA232372029B0122DB196380019B627129
:106FB0002371104A009B27701670BB4205D1281C14
:106FC000211C1A1CFFF764FF11E00B4B01221A7001
:106FD0000A4B211C3A1C281C1E800296FFF758FF02
:106FE000281C02A9FFF706FC281CFFF7B1FF0120AF
:106FF00007B0F0BDAE210020AC210020061E00200D
:1070000070B5CE7886B0051C0C1C022E08D1C9883C
:107010002348FFF7ADFF031C581E8341D8B23DE063
:1070200000F0EEF9211C00F0B9F9002803D0C317D5
:107030001B1AD80F32E0012E04D1E2881949112A17
:1070400027D823E0032E29D1A278002A05D116499A
:10705000E2880B78934219D81BE0022A03D1A27967
:10706000281C124904E0012A05D1A2791049281CE4
:10707000FFF73AFF12E0032A10D100F0C1F901A98D
:1070800000F09CF9A279281C01A9F1E7D2B2002AEC
:1070900000D10A78281CFFF7FBFE012006B070BD66
:1070A000AF210020507D00004C7D0000627D00007B
:1070B000407D000073B5051C48780C1C0B287BD85C
:1070C00000F0B0F9081C7A287A3E4306474B6B72F1
:1070D000002072E0097801AA002903D111705170D3
:1070E000281C09E0002313705370344B1B78012BCC
:1070F00000D11370281C0021022352E08A7800235B
:10710000012A04D101AA137053702D4BEEE72B4ACC
:1071100013704CE08E78012E07D1294B01AA002173
:107120001E701170281C331C3BE0002E08D1234A2E
:1071300001231370234A9169890B890391613BE014
:10714000A178281CFFF706FC36E0281CFFF758FF43
:1071500033E0281C00211C4A22E00A780020D306D4
:107160002BD1281CFFF7CEFCA2781649164B2A20FB
:107170001A600A68FF30145C03239C4302252C43E9
:1071800014544A20FF30145C9C4301231C431454C4
:107190008A69920B92038A610EE00C4A281C002136
:1071A0000123FFF751FE07E08A78084B1A60054B70
:1071B0009A69920B92039A61012076BD041D00200A
:1071C000AD210020B4210020B8220020B0210020F1
:1071D000F8B53C4B071C1C78002C72D13A4D28683E
:1071E000838B19070DD5201CFFF726F92B6810207B
:1071F0001A1CFF32917A01439172344A14600822BA
:107200009A832B689A8B500701D504229A83FF3307
:107210001A7AD10628D510221A725A7940210A43C7
:107220002B495A710A786023381C1A4202D1FFF7A1
:1072300041FF01E0FFF7B2FB002806D02B68802257
:10724000FF33997952420A4301E0224B20229A717E
:107250002B68FF331A7A500606D540221A72597AE3
:10726000602081430A435A722968FE230E8C002451
:107270001E40E1B2002E24D0331C012223411342D0
:1072800017D0231C286808335B01C318D879104233
:1072900004D1DA79032313409A0707D50E4BA200D5
:1072A000D058002809D003681B6898470123A340E1
:1072B0009E430134092CDCD103E0381CFFF7B0FAFF
:1072C000F4E7F8BDAC210020B4210020B822002052
:1072D000D01F0020FF5000419021002008B5024837
:1072E000FFF776FF08BDC046AF210020014A024BE0
:1072F0001A60704700500041B421002010B50021F1
:107300004022041C00F021F90023201C2364636444
:1073100010BD026C10B53F23541C2340446CA342A3
:1073200001D08154036410BD00230364436470479B
:10733000436C026C934206D0C25C3F2101330B4088
:107340004364101C01E0012040427047026C436C12
:10735000D01A00D540307047436C026C934201D084
:10736000C05C01E001204042704708B500F0DAF847
:1073700008BD70B544680E1C0025002C09D0236898
:10738000201C5B68311C9847002804DB2D18E4683A
:10739000F3E7281C01E00120404270BD38B5446885
:1073A0000D1C002C08D02368201C9B68291C9847C2
:1073B000002802D1E468F4E7201C38BD38B54468E1
:1073C0000D1C002C07D02368201C291CDB68984763
:1073D000E4682D18F5E72C7038BD38B544680D1CED
:1073E000002C08D02368201C1B68291C9847002803
:1073F00003D1E468F4E7201C00E0012038BD000060
:10740000064B0122196810B51140054805D1022428
:1074100004700424447041601A6010BDC42200202E
:10742000BC22002002B4714649084900095C4900A9
:107430008E4402BC7047C046002934D0012300228C
:1074400010B488422CD301242407A14204D28142E3
:1074500002D209011B01F8E7E400A14204D28142F3
:1074600002D249005B00F8E7884201D3401A1A4370
:107470004C08A04202D3001B5C0822438C08A042A7
:1074800002D3001B9C082243CC08A04202D3001B5D
:10749000DC082243002803D01B0901D00909E3E7D7
:1074A000101C10BC7047002801D00020C04307B456
:1074B000024802A14018029003BDC0461900000016
:1074C0000029F0D003B5FFF7B9FF0EBC4243891A7B
:1074D0001847C0467047C04670B50E4B0E4D00248D
:1074E000ED1AAD101E1CAC4204D0A300F35898470F
:1074F0000134F8E700F0BAF8084B094D0024ED1A02
:10750000AD101E1CAC4204D0A300F35898470134C0
:10751000F8E770BD000100200001002000010020FC
:107520003C01002008B5034B011C186800F016F858
:1075300008BDC046FC00002010B50023934203D0D4
:10754000CC5CC4540133F9E710BD031C821893428C
:1075500002D019700133FAE77047000070B50323B9
:10756000CD1C9D430835061C0C2D01D20C2501E0D5
:10757000002D3FDB8D423DD3204B1C681A1C211C83
:10758000002913D00868431B0DD40B2B02D90B60C4
:10759000CC181EE08C4202D1636813601AE0486880
:1075A00060600C1C16E00C1C4968E9E7144C20686C
:1075B000002803D1301C00F025F82060301C291C65
:1075C00000F020F8431C15D0C41C03239C438442C4
:1075D0000AD12560201C0B300722231D9043C31ABB
:1075E0000BD05A42E25008E0211A301C00F00AF891
:1075F0000130EED10C233360002070BDCC2200207E
:10760000C822002038B5074C0023051C081C236045
:1076100000F012F8431C03D12368002B00D02B602C
:1076200038BDC046442400200023C25C0133002A38
:10763000FBD1581E70470000094A1368002B0CD07C
:1076400018186946884202D81060181C7047054B0C
:107650000C2201201A604042F8E7034B1360EFE769
:10766000D02200204424002048240020F8B5C04641
:10767000F8BC08BC9E467047F8B5C046F8BC08BCCC
:107680009E46704731302E32352E31322E31343312
:107690000000000095210000D521000051230000CA
:1076A0001D2100002522000021230000C52200002A
:1076B00011210000535349443A20004950204164AD
:1076C00064726573733A20007369676E616C20732E
:1076D0007472656E677468202852535349293A00C2
:1076E0002064426D004D41433A20005745500057F9
:1076F00050410057504132004E4F4E4500415554C5
:107700004F2F44454641554C5400576946692073F4
:107710006869656C64206E6F742070726573656E45
:10772000740053656E64696E67200020766961207D
:1077300055445020536F636B657400436F756C64E0
:10774000206E6F742067657420612076616C6964B7
:10775000205769466920636F6E6E656374696F6E4A
:10776000006E756D626572206F6620617661696C6E
:1077700061626C65206E6574776F726B733A20007E
:10778000292000095369676E616C3A200064426DDC
:107790003A200009456E6379727074696F6E3A2001
:1077A0000048656C6C6F20576F726C6400000000BD
:1077B0000000000016000000080000001C0000008F
:1077C000FF00000400040600000000001700000095
:1077D000080000001C000000FF0001040104070075
:1077E000000000000A000000080000001C0000006B
:1077F000120000010001FF00000000000B0000006B
:10780000080000001C000000130001010101FF003E
:10781000010000000A000000080000001C00000039
:10782000FF00000500050A00010000000B00000039
:10783000080000001C000000FF00010501050B000E
:107840000000000014000000080000002C000000F0
:10785000FF0002000200040000000000150000000C
:10786000080000002C000000FF00030003000500DA
:107870000000000010000000020000001C000000DA
:10788000FF000002000200000000000011000000E4
:107890000200000004000000FF00FFFFFFFF0100E6
:1078A0000000000013000000020000001C000000A7
:1078B000FF0001030103FF000000000008000000BA
:1078C00002000000040000001000FFFFFFFF100096
:1078D0000000000009000000020000000400000099
:1078E0001100FFFFFFFFFF00010000001700000074
:1078F0000300000004000000FF00FFFFFFFFFF0087
:107900000100000016000000030000000400000059
:10791000FF00FFFFFFFFFF0000000000020000006B
:1079200001000000060000000000FFFFFFFFFF0055
:10793000010000000200000001000000040000003F
:107940000A00FFFFFFFF020001000000030000002B
:1079500001000000040000000B00FFFFFFFF030018
:107960000000000004000000010000001C000000F6
:10797000040000000000FF000000000005000000FF
:10798000010000001C000000050001000100FF00D4
:1079900000000000060000000100000004000000DC
:1079A0000600FFFFFFFFFF000000000007000000CF
:1079B00001000000040000000700FFFFFFFFFF00C0
:1079C0000000000018000000060000000000000099
:1079D000FF00FFFFFFFFFF00000000001900000094
:1079E0000600000000000000FF00FFFFFFFFFF0097
:1079F0000000000012000000080000000400000069
:107A0000FF00FFFFFFFFFF00000000000300000079
:107A10000800000004000000FF00FFFFFFFFFF0060
:107A2000000000000C000000020000000000000048
:107A3000FF00FFFFFFFFFF00000000000D0000003F
:107A40000200000000000000FF00FFFFFFFFFF003A
:107A5000000000000E000000080000000000000010
:107A6000FF00FFFFFFFFFF00000000000F0000000D
:107A70000200000000000000FF00FFFFFFFFFF000A
:107A8000000000001B0000000800000000000000D3
:107A9000FF00FFFFFFFFFF00000000001C000000D0
:107AA0000800000000000000FF00FFFFFFFFFF00D4
:107AB00001000000080000000800000000000000B5
:107AC000FF00FFFFFFFFFF000100000009000000B2
:107AD0000800000000000000FF00FFFFFFFF09009A
