:1020000000800020DD910000C5910000C591000016
:1020100000000000000000000000000000000000C0
:10202000000000000000000000000000C59100005A
:102030000000000000000000C59100003192000087
:10204000C5910000C5910000C5910000C591000038
:1020500095910000C5910000C5910000C991000054
:10206000C5910000C5910000C5910000C591000018
:10207000C5910000C591000061410000C5910000BC
:10208000C5910000C5910000C5910000C5910000F8
:1020900000000000C5910000C5910000C59100003E
:1020A000C5910000C5910000C5910000C5910000D8
:1020B00010B5064C2378002B07D1054B002B02D01E
:1020C000044800E000BF0123237010BDB8010020C8
:1020D00000000000F40F010008B5084B002B03D0EE
:1020E0000748084900E000BF07480368002B03D0F9
:1020F000064B002B00D0984708BDC04600000000EA
:10210000F40F0100BC010020B40100200000000019
:1021100090B583B000AF786039603B68002B01D187
:1021200000230FE07B681B6804331C683B68181CA5
:102130000BF041F9031C79683A68081C111C1A1C41
:10214000A047031C181CBD4603B090BD80B582B0EB
:1021500000AF78607B685B68181CBD4602B080BD2C
:1021600080B584B000AF154A3B1D101C191C02F04D
:102170002DFD134A134B101C191C07F091FB06236D
:10218000FB6012E00E4A0F4B101C191C07F088FB75
:102190003A1DFB68D3181B78094A101C191C102221
:1021A00007F009FCFB68013BFB60FB68002BE9DAE8
:1021B0000923181CBD4604B080BDC046C02C0020B9
:1021C000342E00207CFD000080B582B000AF021CE0
:1021D000FB1D1A70FB1D1B78022B0FD002DC012B9C
:1021E0001AD01FE0032B02D0042B0ED01AE0134AA2
:1021F000134B101C191C07F053FB1AE00F4A114B2C
:10220000101C191C07F04CFB13E00C4A0E4B101C61
:10221000191C07F045FB0CE0084A0C4B101C191C5C
:1022200007F03EFB054A0A4B101C191C07F038FB4F
:10223000C0460923181CBD4602B080BD342E0020C4
:1022400084FD000088FD00008CFD000094FD00006E
:102250009CFD000080B582B000AF3C4B181C02F022
:102260003FFD031C3B603B68013305D1384A394BC5
:10227000101C191C07F02EFB354A374B101C191C7B
:1022800007F00EFB324A3B68101C191C0A2207F0AB
:102290007AFBFB1D00221A704EE02D4AFB1D1B78B5
:1022A000101C191C0A2207F082FB294A2B4B101C18
:1022B000191C07F0F5FA254AFB1D1B78101C191C88
:1022C00002F058FD031C224A101C191C07F0E8FA02
:1022D0001F4A234B101C191C07F0E2FA1B4AFB1D76
:1022E0001B78101C191C02F091FD031C184A101CCD
:1022F000191C0A2207F029FB154A1A4B101C191C3D
:1023000007F0CEFA124A184B101C191C07F0C8FA35
:102310000E4AFB1D1B78101C191C02F0BBFD031C90
:10232000181CFFF751FF0A4B181C07F00EFEFB1D8F
:102330001A78FB1D01321A70FB1D1A783B689A420D
:10234000ABDB0923181CBD4602B080BDC02C0020A9
:10235000342E0020ACFD0000D4FD0000F4FD000090
:10236000F8FD000004FE00000CFE000080B584B003
:1023700000AF2A4A2A4B101C191C07F091FA294B6E
:10238000181C02F05FFC031C244A101C191C07F0E7
:10239000A1FA244B181C02F04BFC031C3A1C101C25
:1023A000191C07F025FA1D4A1F4B101C191C07F0B9
:1023B00077FA1A4A3B1C101C191C07F095FA194BA6
:1023C000181C02F057FC031CFB60144A174B101C2E
:1023D000191C07F065FA114AFB68101C191C0A2227
:1023E00007F0B3FA0D4A124B101C191C07F072FAD1
:1023F000AF23DB00BB60094A0E4B101C191C07F011
:102400004FFA064ABB68101C191C0A2207F0DDFAB5
:102410000923181CBD4604B080BDC046342E0020E0
:102420001CFE0000C02C002024FE000034FE000032
:102430004CFE000054FE000080B582B000AF044B9B
:102440001B687B607B68181CBD4602B080BDC0461F
:10245000DC01002080B582B000AF00237B60244BFC
:10246000181C02F05DFD031CFF3B5A425341DBB2D6
:10247000002B07D01F4A204B101C191C07F02AFA0A
:10248000012330E00DE0FA239B00181C06F016FF34
:102490007B6801337B607B680A2B02D1174B0122DA
:1024A0001A70134A164B101C191C02F0CFFA031CA9
:1024B000032B08D0114B1B7801225340DBB2002BB9
:1024C00001D0012300E00023002BDCD10B4B1B7853
:1024D000002B04D00B4B02221A60022303E0094BAD
:1024E00003221A600923181CBD4602B080BDC046F5
:1024F000C02C0020342E002074FE0000E0010020DB
:1025000004000020DC01002080B500AF184B1B88C0
:10251000184A101C191C02F05BFE031C5A4253415E
:10252000DBB2002B01D003231EE0134B1B88134AA0
:10253000101C191C02F04CFE031C5A425341DBB222
:10254000002B01D003230FE00D4B1B880D4A101CFC
:10255000191C02F03DFE031C5A425341DBB2002B12
:1025600001D0032300E00923181CBD4680BDC046EE
:1025700014000020E401002018000020241800208E
:1025800016000020040D002080B500AF0B4B1B8807
:102590000B490C4A081C111C1A1C02F03BFF084A8C
:1025A000094B101C191CFFF7B3FD054B181C02F05A
:1025B0008FFF0923181CBD4680BDC0461A000020AD
:1025C000E401002044FF000054FF000080B582B009
:1025D00000AF78603960144B1B881449144A081CFA
:1025E000111C1A1C02F016FF10497A683B68081C7F
:1025F000111C1A1C02F0E0FF021C3B68D31A5A1E81
:102600009341DBB2002B05D00A4A0B4B101C191C5E
:1026100007F060F9054B181C02F05AFF0923181C3B
:10262000BD4602B080BDC0461A000020E401002073
:1026300044FF0000342E00208CFE000090B5CBB08B
:1026400000AF786039602820FF303B1809221A70EB
:10265000544B181C02F0E8FF031C90214900C919D3
:102660000B6090225200D2191368002B00DC90E01E
:102670004D4B94204000C019C3181A1CFF23101C96
:1026800000211A1C0AF0A2FD484B1B699847031C45
:10269000022B06D9464B1B7801225340DBB2002B9C
:1026A00001D0012300E00023002B08D13F4BDB6861
:1026B000404990204000C0190268032098478621B5
:1026C00049007A18374B101C191C03F019F986229F
:1026D0005200BB18181CFFF739FD031C8E20400068
:1026E000C0190360314B1B699847031C022B06D9A4
:1026F0002F4B1B7801225340DBB2002B01D001236A
:1027000000E00023002B08D1284BDB688E21490014
:10271000C9190A682849032098478D225200BC181D
:10272000204B181C03F000F9031C23801F4B1B696E
:102730009847031C022B06D91D4B1B7801225340DE
:10274000DBB2002B01D0012300E00023002B08D1D5
:10275000164BDB688D2040003A1812881749032079
:102760009847104A3B1C0C33101C191CFF2203F025
:1027700003F8031C8A214900C9190B60104B5B68E0
:10278000391C0C318A204000C0190268081C111C39
:1027900098472821FF317B181B78181CBD464BB089
:1027A00090BDC046040D0020E4FEFFFF5003010071
:1027B00000000020C8FE0000FCFE00000CFF00002E
:1027C000B402010080B584B002AF786039607B68E4
:1027D000012B18D13A680D4B9A4214D10C4B0022B0
:1027E0000092181C00210022002306F0F3FF094B81
:1027F000181C02F0B7FC084B181C02F0B3FC074B86
:10280000181C02F0AFFCBD4602B080BDFFFF000007
:10281000D4010020E4010020040D00202418002031
:1028200080B500AF034B0120191CFFF7CBFFBD465D
:1028300080BDC046FFFF000080B582B000AF786069
:102840000A1CBB1C1A807B6800221A8000225A8056
:1028500000229A807B68BA1C1288DA80BB1C1B8815
:10286000DAB27B681A70BB1C1B881B0A9BB2DAB2F7
:102870007B685A707B68181CBD4602B080BDC0469C
:1028800090B583B000AF0720002106F0EBFE234B8C
:102890001A68012313400BD106F0D8FC031C9BB22D
:1028A0001F4A101C191CFFF7C7FF1C4B01221A609E
:1028B000FB1D00221A701B4AFB1D1B78101C191CE3
:1028C00001F068FE18E0184B1C68164AFB1D1B78C7
:1028D000101C191C01F05EFE031C1A1C104B1A552B
:1028E000114B1B685A1C104B1A600F4B1B68062BB0
:1028F00002D10D4B00221A600B4B1B68052BE2DD49
:102900000720012106F0AEFE084BDB69044A101CCB
:1029100006219847BD4603B090BDC04688230020DD
:102920008C230020982C0020200000201CFF000099
:1029300080B500AF054B00221A70044B00225A707C
:10294000034B00221A70BD4680BDC04644230020C0
:102950001C00002080B500AF1D4BC12292001A6000
:102960001C4B5B78DBB2DB09DBB2002BF8D11A4BD6
:102970001A4A1A60174B5B78DBB2DB09DBB2002B1B
:10298000F8D1174B174A1A80124B5B78DBB2DB0980
:10299000DBB2002BF8D1144B134A128892B21A8082
:1029A000114BDB7BDBB2DB09DBB2002BF8D10E4B2A
:1029B0000D4A128892B20D490A4392B21A800A4B0C
:1029C000DB7BDBB2DB09DBB2002BF8D1BD4680BD7F
:1029D000080C0040000C0040040C004004070300F9
:1029E000020C00401C4400000030004202040000C1
:1029F00090B587B000AF78603B1C0F3300221A708F
:102A00003B1C173300221A7000233B61504B1B699B
:102A10009847031C062B06D94E4B1B7801225340C6
:102A2000DBB2002B01D0012300E00023002B05D1F5
:102A3000474B1B68484A0720111C98477B681B7A44
:102A400001225340DBB2002B38D03B1C173301224C
:102A50001A707B681B68181C0AF0FCF9031C0C1C1C
:102A6000181C211C394B384A09F006FC031C0C1CAD
:102A7000181C211C0AF074FA031C3B61344B1B69BF
:102A80009847031C062B06D9324B1B780122534072
:102A9000DBB2002B01D0012300E00023002B3ED14C
:102AA0002B4B5C687B681B68181C08F00FFC031C30
:102AB0002A4A0720111C1A1CA04730E03B1C173380
:102AC00002221A707B681B68181C0AF0C3F9031CE9
:102AD0000C1C181C211C1D4B1B4A09F0CDFB031CB0
:102AE0000C1C181C211C0AF03BFA031C3B61184B00
:102AF0001B699847031C062B06D9164B1B7801222D
:102B00005340DBB2002B01D0012300E00023002B57
:102B100005D10F4B5B6812493A6907209847114B62
:102B2000DC683B1C173319787B68DA887B689B88E4
:102B30003869A047021C3B1C0F331A70BD4607B012
:102B400090BDC046C046C046AED85F764F1E963F89
:102B5000500301001C00002078FF000090FF0000DF
:102B6000B8FF0000B402010080B582B000AF72B6B9
:102B70001F4B1B78DAB21E4B5B78DBB29A420FD048
:102B80001B4B1B78DBB20133DAB20F231340DBB2ED
:102B9000174A191C1170164A9B00D3185B6800E095
:102BA00000237B601DE07B68181CFFF721FF104BA2
:102BB0001B78DAB20E4B5B78DBB29A420FD00C4B2B
:102BC0001B78DBB20133DAB20F231340DBB2084AC1
:102BD000191C1170064A9B00D3185B6800E00023A3
:102BE0007B607B68002BDED162B6BD4602B080BD43
:102BF0004423002080B582B000AFFB1C07221A706E
:102C000000237B600FE015497A68131CDB009B1AD8
:102C10005B01CA18E023101C00211A1C0AF0D6FA26
:102C20007B6801337B607B68072BECDD0C4B00225B
:102C30001A700B4B00225A60094B00221A72084B83
:102C40000022DA60FB1C08221A70064B00221A7060
:102C5000FB1C1B78181CBD4602B080BD042500205B
:102C6000042C00202400002080B582B000AF021C9C
:102C7000BB1D1A80164B1B699847031C032B06D9F2
:102C8000144B1B7801225340DBB2002B01D00123EF
:102C900000E00023002B06D10D4BDB68BA1D128823
:102CA0000D4904209847BB1D1A880C4B9200002147
:102CB000D150BB1D1A880A4B92000021D150BB1D78
:102CC0001A88084B92000021D150BD4602B080BD49
:102CD0005003010024000020E4FF00008C240020A9
:102CE000142400209C23002090B585B000AF021C66
:102CF000BB1D1A800023FB60BB1D1B889A00264B5E
:102D0000D318FB60FB681B685A1CFB681A60234BD6
:102D10001B699847031C032B06D9214B1B78012202
:102D20005340DBB2002B01D0012300E00023002B35
:102D300008D11A4BDC68FB681B681A4A0420111C76
:102D40001A1CA047FB681B68022B22D1134B1B697E
:102D50009847031C032B06D9114B1B7801225340C3
:102D6000DBB2002B01D0012300E00023002B06D1B1
:102D70000A4BDB68BA1D12880B4904209847BB1D1B
:102D80001B88181C00F05CFBBB1D1B88181CFFF780
:102D90006BFFBD4605B090BD9C2300205003010091
:102DA00024000020000001001800010090B589B047
:102DB00000AFF860B960111C1A1CBB1D19803B1DC7
:102DC0001A803B1C1F3307221A700023BB610023AB
:102DD0007B6100233B61A64B1B699847031C032BB7
:102DE00006D9A44B1B7801225340DBB2002B01D043
:102DF000012300E00023002B06D19D4BDB68BA1DA8
:102E000012889D4904209847BB1D1B889A009B4B44
:102E1000D318BB61BB1D1B889A00994BD3187B61EB
:102E2000BB1D1B889A00974BD3183B61BB68022BD4
:102E300000D085E0BB1D1A88BB6918689249131C35
:102E4000DB009B1ADB001B1822339B00CB18FA68AF
:102E50005A60BB1D1A888C488821131CDB009B1A02
:102E60005B01C3185B181B780133D9B2864C8820EC
:102E7000131CDB009B1A5B01E3181B180A1C1A7059
:102E8000BB1D1A88BB691C683B1D19887E48131C32
:102E9000DB009B1ADB001B190C339B00C318596025
:102EA000BB1D1A8878483021131CDB009B1A5B017C
:102EB000C3185B181B780133D9B2734C3020131C34
:102EC000DB009B1A5B01E3181B180A1C1A70684B85
:102ED0001B699847031C022B06D9664B1B780122FD
:102EE0005340DBB2002B01D0012300E00023002B74
:102EF00008D15F4BDC68BB691B68644A0320111C66
:102F00001A1CA0475A4B1B699847031C022B06D971
:102F1000584B1B7801225340DBB2002B01D0012318
:102F200000E00023002B06D1514BDB683A1D1288CC
:102F3000574903209847BB691B685A1CBB691A6034
:102F4000BB68012B00D083E0BB1D1A887B69186821
:102F50004D49131CDB009B1ADB001B182E339B0012
:102F6000FA685A50BB1D1A884748B021131CDB0071
:102F70009B1A5B01C3185B181B790133D9B2424C11
:102F8000B020131CDB009B1A5B01E3181B180A1C02
:102F90001A71BB1D1A887B691C683B1D18883A4949
:102FA000131CDB009B1ADB001B1918339B005850C5
:102FB000BB1D1A8834485821131CDB009B1A5B0187
:102FC000C3185B181B790133D9B22F4C5820131C3E
:102FD000DB009B1A5B01E3181B180A1C1A71244BB7
:102FE0001B699847031C022B06D9224B1B78012230
:102FF0005340DBB2002B01D0012300E00023002B63
:1030000008D11B4BDC687B691B68224A0320111C1A
:103010001A1CA047164B1B699847031C022B06D9A4
:10302000144B1B7801225340DBB2002B01D001234B
:1030300000E00023002B06D10D4BDB683A1D1288FF
:103040001349032098477B691B685A1C7B691A60E7
:10305000BB1D1B88181CFFF747FE3B1C1F330822B3
:103060001A703B1C1F331B78181CBD4609B090BD5D
:1030700050030100240000203C0001008C240020AB
:10308000142400209C230020042500205C00010063
:10309000800001008C00010090B5C1B000AF7860E5
:1030A00039600723FC22D2191360734B1B699847C0
:1030B000031C032B06D9714B1B7801225340DBB252
:1030C000002B01D0012300E00023002B05D16A4B27
:1030D0001B686B4A0420111C98473B1C0C331A1CBC
:1030E000E023101C00211A1C0AF070F8391CEC3186
:1030F0003A687B68081C111C1A1C05F073FB391C0C
:10310000EC31604A3B1C0C33081C111C1A1C05F0E6
:103110005FFE031C1A1C5C4B1A705B4B1B78002B68
:1031200000D189E0544B1B699847031C022B06D938
:10313000524B1B7801225340DBB2002B01D00123FC
:1031400000E00023002B05D14B4B1B684F4A0320A6
:10315000111C9847484B1B699847031C022B06D942
:10316000464B1B7801225340DBB2002B01D00123D8
:1031700000E00023002B05D13F4B1B68444A03208D
:10318000111C98473C4B1B699847031C022B06D91E
:103190003A4B1B7801225340DBB2002B01D00123B4
:1031A00000E00023002B08D1334BDB68391C0C31C5
:1031B000B4228A5C3749032098472F4B1B699847F4
:1031C000031C022B06D92D4B1B7801225340DBB286
:1031D000002B01D0012300E00023002B08D1264B57
:1031E000DB68391C0C3188228A5C2B490320984704
:1031F000214B1B699847031C022B06D91F4B1B78D8
:1032000001225340DBB2002B01D0012300E0002358
:10321000002B09D1184BDC683B1C0C331B681F4A80
:103220000320111C1A1CA0470823FC22D21913608A
:10323000FC22D21913681AE00F4B1B699847031C34
:10324000022B06D90D4B1B7801225340DBB2002B19
:1032500001D0012300E00023002B05D1064B1B68A1
:103260000F4A0320111C9847FC22D2191368181C1E
:10327000BD4641B090BDC04650030100240000206F
:10328000AC0001001C0B010094230020D4000100BD
:103290000001010028010100400101005C01010062
:1032A0006801010090B58DB000AF786039603B1CBB
:1032B0002F3307221A70594B1B699847031C062BA2
:1032C00006D9574B1B7801225340DBB2002B01D0AB
:1032D000012300E00023002B05D1504B1B68514A0D
:1032E0000720111C98473B1C1C3300221A703B1C02
:1032F0001C3300225A603B1C1C3300221A723B1CF8
:103300001C330022DA60391C0C317A683B68081CD7
:10331000111C1A1C05F066FA391C0C31424A3B1C80
:103320001C33081C111C1A1C05F052FD031C1A1C2E
:103330003E4B1A703D4B1B78002B50D0374B1B690E
:103340009847031C032B06D9354B1B7801225340A9
:10335000DBB2002B01D0012300E00023002B05D1BC
:103360002E4B1B68324A0420111C98472B4B1B69BB
:103370009847031C032B06D9294B1B780122534085
:10338000DBB2002B01D0012300E00023002B09D188
:10339000224BDC683B1C1C335B68264A0420111C52
:1033A0001A1CA0471D4B1B699847031C032B06D909
:1033B0001B4B1B7801225340DBB2002B01D00123B1
:1033C00000E00023002B22D1144BDC683B1C1C3393
:1033D000DB68194A0420111C1A1CA04717E00F4B88
:1033E0001B699847031C012B06D90D4B1B78012242
:1033F0005340DBB2002B01D0012300E00023002B5F
:1034000005D1064B1B680D4A0220111C98473B1C36
:103410002F331B78181CBD460DB090BD5003010022
:103420002400002078010100620B01009423002099
:1034300098010100B8010100C80101006801010004
:1034400090B5B54CA54400AF021CB44BC22080001F
:10345000C019C3181A80B2497B1807221A70B14BE1
:10346000C2229200D219D3181A1CE023101C00218A
:103470001A1C09F0ABFEAC4B1B699847031C022BCE
:1034800006D9AA4B1B7801225340DBB2002B01D096
:10349000012300E00023002B0AD1A34BDB689F4AE5
:1034A000C2208000C01982181288A14903209847C1
:1034B0009A4BC2218900C919CB181A889D488821C6
:1034C000131CDB009B1A5B01C3185B181B78002BD5
:1034D00031D1924BC2229200D219D3181A88954842
:1034E000B021131CDB009B1A5B01C3185B181B790E
:1034F000002B20D18C4B1B699847031C032B06D94A
:103500008A4B1B7801225340DBB2002B01D00123F0
:1035100000E00023002B0AD1834BDB687F4AC220E6
:103520008000C019821812888349042098477C497A
:103530007B181B78E3E1794BC2229200D219D31891
:103540001A88764BC2208000C019C3181B88581CEB
:103550007849131CDB009B1A5B0158506F4BC2214A
:103560008900C919CB181A886E4BC2208000C01977
:10357000C1187048131CDB009B1A5B01C218E023C2
:10358000081C111C1A1C09F0FFFD6C4BC22189009C
:10359000C919CB181A1C80239B00101C00211A1C6F
:1035A00009F014FEBB229200B9183A1CEC328023B9
:1035B0009B00081C111C1A1C04F038FCBB239B0048
:1035C000F9185F4A3B1C0C33081C111C1A1C04F030
:1035D00083FE031C1A1C5B4B1A70BB2080003B1837
:1035E000DA68594B1A60574B1B7801225340DBB203
:1035F000002B00D16FE04C4B1B6998474B4B1B785D
:1036000001225340DBB2002B01D0012300E0002354
:10361000002B05D1444B1B684C4A0020111C9847D5
:10362000414B1B699847414B1B7801225340DBB249
:10363000002B01D0012300E00023002B15D13A4BD1
:10364000DC68364BC2218900C919CB181A88394861
:103650008821131CDB009B1A5B01C3185B181B78C5
:103660003B4A0020111C1A1CA0472F4B1B6998478E
:103670002E4B1B7801225340DBB2002B01D00123DB
:1036800000E00023002B15D1274BDC68234BC2221E
:103690009200D219D3181A882648B021131CDB00D7
:1036A0009B1A5B01C3185B181B792A4A0020111C66
:1036B0001A1CA047BB2080003B181B69002B04D0BC
:1036C000BB2189007B181B6900E0234B234A101C97
:1036D000191C06F0FFF8224BDA691B4B1B68391CDA
:1036E000EC31081C191C9047021C0D483B181A703D
:1036F0000B497B181B780A2B41D00B4B1B69984751
:10370000031C032B06D9094B1B7801225340DBB263
:10371000002B27D0012326E0F4FCFFFFFEFCFFFF77
:103720000703000004FDFFFF5003010024000020F8
:10373000D80101000425002008020100E4FDFFFF7C
:103740001C0B010094230020982300203C02010060
:10375000500201006402010078020100342E0020B2
:103760001CFF00000023002B05D1684B1B68684A32
:103770000420111C9847674ABB1808221A70664B30
:103780001A683B1CEC33101C191CFFF785FC634BBB
:10379000C2208000C019C3181A8861488821131CF0
:1037A000DB009B1A5B01C3185B1800221A705B4B8D
:1037B000C2218900C919CB181A885948B021131C95
:1037C000DB009B1A5B01C3185B1800221A71534B74
:1037D000C2229200D219D3181A885149131CDB0057
:1037E0009B1A5B01CB1800221A714C4BC22080003F
:1037F000C019C3181A884A483021131CDB009B1AD1
:103800005B01C3185B1800221A70444BC221890067
:10381000C919CB181A8842485821131CDB009B1A7F
:103820005B01C3185B1800221A710023C0229200AA
:10383000D21913605AE0394BC2208000C019C31856
:103840001A883749131CDB009B1ADB00C02080005C
:10385000C01902689B1822339B00CB1800225A60C3
:103860002E4BC2218900C919CB181A882C49131C68
:10387000DB009B1ADB00C0208000C01902689B1887
:103880002E339B0000225A50244BC2218900C919B3
:10389000CB181A882249131CDB009B1ADB00C020BE
:1038A0008000C01902689B1818339B0000225A50F0
:1038B0001A4BC2218900C919CB181A881849131C40
:1038C000DB009B1ADB00C0208000C01902689B1837
:1038D0000C339B00CB1800225A60C0218900C91903
:1038E0000B680133C0229200D2191360C0208000FF
:1038F000C0190368132B9EDD06497B181B78181C22
:10390000BD46C3239B009D4490BDC04650030100AB
:10391000800201000703000098230020FEFCFFFF47
:103920000425002080B500AF074A084B101C191C65
:1039300005F0B6FF064B1B685B68034A101C191C98
:1039400005F0C8FFBD4680BD342E002034030100C1
:10395000142C002080B500AF044B1B685B68044A40
:10396000101C191C05F0B6FFBD4680BD142C0020AC
:10397000342E002080B582B000AF021CFB1D1A70EF
:10398000034BFA1D12781A70BD4602B080BDC046C6
:103990004800002080B582B000AF021CFB1D1A70E9
:1039A000FB1D1B78012B02D0022B05D009E0064B32
:1039B0001B68064ADA6004E0034B1B68044ADA60BD
:1039C000C046BD4602B080BD142C00205539000011
:1039D0002539000080B584B000AF78600A1CFB1C5C
:1039E0001A70102009F0BCFB031CFB60FB68002B65
:1039F00029D07B68181C09F0DEFC031C5A1CFB68EC
:103A00001A60FB68FA1C12781A72FB681B68181C93
:103A100009F0A6FB031C1A1CFB685A60FB685B6874
:103A2000002B0AD0FB685968FB681B687A68081C81
:103A3000111C1A1C09F0C6FC05E0FB68181C09F0F3
:103A400099FB0023FB60FB68181CBD4604B080BDD9
:103A500080B500AF074B1B685B68181C09F08AFB38
:103A6000044B1B68181C09F085FB024B00221A60EE
:103A7000BD4680BD142C0020F0B5474680B486B00A
:103A800000AFF860684680463A4800680068786190
:103A9000844601229444614600239C4662464C0FB2
:103AA000A446D3007B6064467B681C437C60CC00EA
:103AB000021C0132131C0022141C5A0FE60016438C
:103AC000DD00031C01330733DB08DB006A46D21A32
:103AD00095466B4600333B613969264B1B685A6833
:103AE000244B1B681B680133081C111C1A1C09F0AD
:103AF00069FC204B1C681F4B1B685B68181C09F095
:103B00005AFC051CFB68181C09F055FC031CEB183B
:103B100001332360174B1B685B68181C09F02AFBF4
:103B2000144B1C68134B1B681B68181C09F018FB0E
:103B3000031C63600F4B1B685B68002B14D00D4B9C
:103B40001B685B6800221A700A4B1B685A683B6945
:103B5000101C191C09F022FC064B1B685A68FB68F4
:103B6000101C191C09F01AFCC546BD4606B004BC61
:103B70009046F0BD142C002080B500AF024B1B789E
:103B8000181CBD4680BDC04648000020F0B5474621
:103B900080B490B000AF021CB9613B1C1F331A7097
:103BA0006B46984605F058FB061C3B1C2433374AED
:103BB000181C1421331C09F0BFFBBB69181C09F049
:103BC000FAFB031CFB631A1C01323A6100227A6182
:103BD00039694A0F7969C900F960F9681143F960D8
:103BE0003A69D2001A1C0132141C0022151C620F03
:103BF000E9007960796811437960E20001330733A5
:103C0000DB08DB006946C91A8D466B460033BB638F
:103C1000BC6BBB69181C09F0CEFB031C0133BA69ED
:103C2000201C111C1A1C09F0CDFB3B1C2433181C52
:103C30000221FFF7CFFE021C154B1A60154B181C12
:103C4000FFF71AFF3B1C1F331A78134B9200D3580F
:103C5000181CFFF711FF0F4B181CFFF70DFFBB6B74
:103C6000181CFFF709FF0B4B181CFFF705FF01207D
:103C7000FFF790FE064B1B68DB689847FFF7E8FEEE
:103C8000C546BD4610B004BC9046F0BD40030100DF
:103C9000142C00204403010028000020F0B5474602
:103CA00080B496B000AF3962FA613B1C2733021C26
:103CB0001A706B46984605F0CFFA061C3B1C3C3345
:103CC0003D4A181C1421331C09F036FB3B6A181CB2
:103CD00009F071FB031C7B651A1C01323A6100225A
:103CE0007A6139694A0F7969C900F960F968114345
:103CF000F9603A69D2001A1C0132141C0022151C0A
:103D0000620FE9007960796811437960E20001335C
:103D10000733DB08DB006946C91A8D466B46003362
:103D20003B653C6D3B6A181C09F045FB031C0133E5
:103D30003A6A201C111C1A1C09F044FB391C28315A
:103D40001D4AFB69081C142109F0F6FA3B1C3C33A0
:103D5000181C0221FFF73EFE021C184B1A60184B7C
:103D6000181CFFF789FE3B1C27331A78154B92006D
:103D7000D358181CFFF780FE114B181CFFF77CFE70
:103D80003B6D181CFFF778FE0D4B181CFFF774FEF7
:103D90003B1C2833181CFFF76FFE0120FFF7FAFDCC
:103DA000064B1B68DB689847FFF752FEC546BD46C9
:103DB00016B004BC9046F0BD40030100142C002056
:103DC0004403010028000020F0B5474680B496B0B7
:103DD00000AF3962FA613B1C2733021C1A706B4634
:103DE000984605F039FA061C3B1C3C333D4A181C2A
:103DF0001421331C09F0A0FA3B6A181C09F0DBFA05
:103E0000031C7B651A1C01323A6100227A61396910
:103E10004A0F7969C900F960F9681143F9603A6994
:103E2000D2001A1C0132141C0022151C620FE9007A
:103E30007960796811437960E20001330733DB0868
:103E4000DB006946C91A8D466B4600333B653C6D05
:103E50003B6A181C09F0AFFA031C01333A6A201CB4
:103E6000111C1A1C09F0AEFA391C28311E4AFB69D4
:103E7000081C142109F060FA3B1C3C33181C022179
:103E8000FFF7A8FD021C194B1A60194B181CFFF70D
:103E9000F3FD3B1C27331A78164B9200D358181C9D
:103EA000FFF7EAFD124B181CFFF7E6FD3B6D181CEF
:103EB000FFF7E2FD0E4B181CFFF7DEFD3B1C28331D
:103EC000181CFFF7D9FD0120FFF764FD074B1B68A5
:103ED000DB689847FFF7BCFDC546BD4616B004BC7D
:103EE0009046F0BD4003010048030100142C00205F
:103EF0004403010028000020F0B5474680B498B084
:103F000002AF3962FA613B1C2733021C1A706B4600
:103F1000984605F0A1F9061C3B1C3C33404A181C8E
:103F20001421331C09F008FA3B6A181C09F043FA03
:103F3000031C7B651A1C01323A6100227A613969DF
:103F40004A0F7969C900F960F9681143F9603A6963
:103F5000D2001A1C0132141C0022151C620FE90049
:103F60007960796811437960E20001330733DB0837
:103F7000DB006946C91A8D4602AB00333B653C6DD8
:103F80003B6A181C09F017FA031C01333A6A201C1B
:103F9000111C1A1C09F016FAF86908F08FFF031CAF
:103FA0000C1C391C28311F4A00930194081C142151
:103FB00009F0C2F93B1C3C33181C0221FFF70AFD33
:103FC000021C194B1A60194B181CFFF755FD3B1CBE
:103FD00027331A78164B9200D358181CFFF74CFD64
:103FE000124B181CFFF748FD3B6D181CFFF744FDF2
:103FF0000E4B181CFFF740FD3B1C2833181CFFF725
:104000003BFD0120FFF7C6FC074B1B68DB689847A8
:10401000FFF71EFDC546BD4616B004BC9046F0BD78
:10402000400301004C030100142C00204403010054
:104030002800002080B500AFBD4680BD80B500AF30
:10404000264B1B699847031C093B5A1E9341DBB260
:10405000002B06D0224A234B101C191C05F03AFCF9
:1040600002E01E4BDB6898471C4B5B699847031CBA
:10407000093B5A1E9341DBB2002B05D0184A1A4B5C
:10408000101C191C05F026FC184B9B689847031C54
:10409000083B5A1E9341DBB2002B05D0104A144B4B
:1040A000101C191C05F016FC0620002105F07AFAF8
:1040B0000720012105F076FA0E4B181C00F04CF990
:1040C0000C4B181C012100F049FA0B4B9B689847D8
:1040D000094B5B689847BD4680BDC0461CFF000089
:1040E000342E00206C0301008C030100B402010097
:1040F000B4030100982C0020D4FF000080B500AF6D
:10410000044B1B680620191C012204F0A7FFBD46C2
:1041100080BDC046D4FF000080B500AF05F0A2F915
:1041200008F0F8FFFFF786FF012005F0C7F8094BFC
:10413000181C06F0B5F9074B181C06F011FAFFF72A
:104140007DFFFFF7DBFF044B01221A70034BDB6896
:104150009847FBE7FB32002049000020D4FF000015
:1041600080B500AF024B181C05F054FEBD4680BD63
:10417000302C002080B584B002AF786039607B6855
:10418000012B33D13A681B4B9A422FD11A4A1B4B51
:10419000101C191C05F060FC194A1A4B101C191C44
:1041A00005F05AFC184A194B101C191C05F054FC58
:1041B000174A184B101C191C05F04EFC164A174BD9
:1041C000101C191C05F048FC154A164B101C191C34
:1041D00005F042FC144A124B032100910121019188
:1041E000101C191C0D220E2305F0F0FDBD4602B077
:1041F00080BDC046FFFF0000182C002000080042D0
:104200001C2C0020000C0042202C0020001000423A
:10421000242C002000140042282C0020001800420A
:104220002C2C0020001C0042302C002080B500AF58
:10423000034B0120191CFFF79DFFBD4680BDC04602
:10424000FFFF000080B586B000AF78607B687B61BF
:10425000204B3B613B1C0F3301221A703B1C0E3379
:1042600002221A703B691C4A934200D91A4B7A69A0
:1042700013603B1C0F331B78013B5A1E9341DBB28A
:104280001A1C7B695A713B1C0E331B78012B14D00E
:1042900002DC002B09D014E0022B02D0032B08D043
:1042A0000FE07B6900221A710EE07B6901221A710E
:1042B0000AE07B6902221A7106E07B6903221A7107
:1042C00002E07B6900221A717B68181CBD4606B0AB
:1042D00080BDC04600093D00001BB70080B584B01A
:1042E00000AFF860B960111C1A1CFB1D1970BB1DD2
:1042F0001A70FB6800225A72BB68002B06D1134962
:10430000134A144B081C222108F0D4FEFB68BA683B
:104310001A60FB68FA1D12781A71FB68BA1D1278D0
:104320009A71FB683A1C183212785A71FB683A1C71
:104330001C321278DA71FB683A1C203212781A7239
:10434000FB68181CBD4604B080BDC046380701009C
:10435000600701004C07010080B582B000AF7860B3
:104360007B68181C00F048F87B681B79191C7B6877
:104370001B791A1C1E48131C5B009B18DB00C3181A
:1043800008331B785BB2081C191C05F09BF97B688D
:104390009B79191C7B689B791A1C1548131C5B00C0
:1043A0009B18DB00C31808331B785BB2081C191C70
:1043B00005F088F97B685B79191C7B685B791A1CAE
:1043C0000B48131C5B009B18DB00C31808331B78D9
:1043D0005BB2081C191C05F075F97A68054B101CB6
:1043E00019685A6800F020F8BD4602B080BDC0468A
:1043F000D8030100902C002080B582B000AF786017
:104400007B685B7A002B00D00BE07B6800229A72FD
:104410007B680022DA727B680022DA607B68012206
:104420005A72BD4602B080BD80B586B002AFF8605A
:104430003B1D19605A60FB681B68181C05F0ACFB3B
:10444000FB681968FB68DA79FB681B7A381D4079CC
:104450000090081C111C1A1C002305F067FCFB6867
:1044600019683B1D1A793B1D1B68081C111C1A1C7E
:1044700005F062FBFB681B68181C05F083FBBD465A
:1044800004B080BD80B582B000AF78607B681B68E7
:10449000181C05F069FB7B6800225A72BD4602B009
:1044A00080BDC04680B586B000AFF8603B1D196086
:1044B0005A60FB689B7A002B1DD0FB689B7A1A1C04
:1044C000022313400BD0EFF310837B617B695A42C8
:1044D0005341DBB21A1CFB68DA7272B60BE0FB6860
:1044E0009B7A1A1C0123134005D0084BFA68D26846
:1044F0009203920B9A60FA683B1D101C19685A6867
:10450000FFF792FFBD4606B080BDC04600180040D0
:1045100080B582B000AF78607B689B7A002B17D0A3
:104520007B689B7A1A1C0223134005D07B68DB7AD8
:10453000002B0DD062B60BE07B689B7A1A1C01231E
:10454000134005D0044B7A68D2689203920BDA606C
:10455000BD4602B080BDC0460018004080B582B0A4
:1045600000AF78600A1CFB1C1A70FB1C1B78002B28
:1045700006D17B681B68181C012105F017FB05E0BC
:104580007B681B68181C002105F010FBBD4602B0BB
:1045900080BDC04680B582B000AF78600A1CFB1CAD
:1045A0001A707B681A68FB1C1B78101C191C05F01C
:1045B00011FB7B681B68181C05F01FFB031CDBB29A
:1045C000181CBD4602B080BD80B586B004AF7860CF
:1045D00039607B68012B23D13A68134B9A421FD173
:1045E000124B181CFFF72EFE114A124B08210091A6
:1045F0000021019103210291101C191C0A22092398
:10460000FFF76CFE0C4A0D4B1A210091002101911D
:1046100003210291101C191C1D221B23FFF75EFEB3
:10462000BD4602B080BDC046FFFF0000902C0020B8
:10463000982C00201C2C0020A82C0020202C0020CE
:1046400080B500AF034B0120191CFFF7BDFFBD462D
:1046500080BDC046FFFF000090B58FB002AF021CC6
:104660003960FB1D1A70FB1D1B78043B2E2B00D9F3
:1046700034E19A009B4BD3181B689F463B687B62D2
:104680007B6A1B78012B17D1974B1B7E012B0BD11B
:10469000954BDB68002B07D1934B03225A760420FD
:1046A000002101F004FE4EE08F4B1B7E032B4AD10C
:1046B0008D4B08225A7646E07B6A1B78002B42D14C
:1046C000894B1B7E012B2FD1874B06225A76864BB6
:1046D000DB68002B08D0844B00221A60824B00223A
:1046E0005A60814B00229A600023FB6218E07E4BE7
:1046F000FA6A18329200D358002B0ED07A4BFA6A1D
:1047000018329200D3581B6824331B68764AF96A22
:10471000183189008A58101C9847FB6A0133FB62E4
:10472000FB6A062BE3DD06E06F4B1B7E032B02D1F9
:104730006D4B07225A760420012101F0B8FD0120BB
:10474000012101F0B4FDCAE0674B1B7E012B18D19B
:104750003B683B623B6A1A68634B1A603B6ADA68E3
:10476000614B5A603B6A5A685F4B9A605E4B03220A
:104770005A760420002101F09AFD0120002101F069
:1047800096FDACE03B681B785AB2574B1A61A6E025
:104790003B68FB61FA696323D35C002B2FD1534B39
:1047A000181C0021212208F011FDFC69FB69181C6E
:1047B00008F001FE031C4D4A101C211C1A1C08F0B5
:1047C000E3FC494B01221A76474B00221A60464B04
:1047D00000225A60444B00229A60FC69FB69181C55
:1047E00008F0E9FD031CD9B2FA696223D25CFB69C7
:1047F0002133FF200090201C01F0E6FE6FE03A4BD1
:1048000004225A766BE03B68BB61BB691B78002BC6
:1048100002D0354B02225A7661E03B687B617B69AE
:104820000A33181C08F0C7FD021C3B1C12331A8007
:104830002F4B181C0021212208F0C8FC3B1C12330E
:104840001B88002B0BD07B691A1C0A323B1C1233CD
:104850001B882749081C111C1A1C08F095FC7B6951
:104860005B785AB2204B1A617B6999781E4A3B23C8
:10487000D1541D4B02225A7631E03B68FB601A4B43
:104880005B69002B18D00023BB620FE0164B5A69FE
:10489000BB6AD318BA6A0521891AF8682022411820
:1048A0008A1892791A70BB6A0133BB62BB6A052B06
:1048B000ECDD0D4B00225A6111E00B4B1B69002B04
:1048C0000BD0094B1B691A1C3B68101C191C0822D1
:1048D00008F05AFC044B00221A6100E0C046BD46B5
:1048E0000DB090BDB4070100C02C0020FC2C0020AE
:1048F000DA2C002080B582B000AF78603960034BBD
:104900003A681A61BD4602B080BDC046C02C002086
:1049100080B582B000AF78607B6800221A767B6831
:10492000FF225A767B680022DA677B68181CBD4636
:1049300002B080BD90B58BB000AF786002F046FC4D
:104940003B1C0C333E4A1A603C1C27343B1C0C3386
:10495000181C01F06FFD031C23703B1C27331B78D0
:104960005BB2002B0CD00620002101F0A0FC03203C
:10497000012101F088FC3B1C27331B785BB25BE014
:1049800002F068FE03F0B0F82E4A2F4B101C191CE1
:1049900002F07CFE7B680122DA677B6800225A768F
:1049A0007B6800221A607B6800225A607B680022C4
:1049B0009A607B680122DA607B6800221A617B685A
:1049C0001A1C60321C23101C00211A1C08F0FEFB6C
:1049D0000420012101F06BFC0520012101F067FC9E
:1049E0000620012101F063FC0420012101F04BFCB1
:1049F0000520012101F047FC0620012101F043FCC4
:104A00000120012101F053FC0220012101F04FFCA3
:104A10000320012101F04BFC0120012101F033FCB6
:104A20000220012101F02FFC0320012101F02BFCC9
:104A30003B1C27331B785BB2181CBD460BB090BDE6
:104A4000594600002D7B0000F548000080B582B07B
:104A500000AF786039607A683B68101C191C01222D
:104A6000002300F005F8031C181CBD4602B080BDF1
:104A700090B589B002AFF860B9603B60FB1D1A7059
:104A8000FB68DB6F002B03D1FB68181CFFF752FF9C
:104A9000FB68DB68002B08D0FB6800221A60FB680B
:104AA00000225A60FB6800229A60BB68181C08F05C
:104AB00082FC031CD9B2B868FB1D1A783B68FF243E
:104AC000009401F081FD031CDBB2DB09DBB2002B9B
:104AD00005D0FB6804225A76FB685B7E46E0FB68E3
:104AE00000225A76FB6801221A7604F0AFFB031C01
:104AF0007B6102E0002001F0CDFCFB685B7E1A1CAC
:104B0000032313400FD1FB685B7E1A1C062313405E
:104B100009D104F09BFB021C7B69D21A154B9A4207
:104B200001D8012300E00023002BE3D1FB685B7E6A
:104B30001A1C0323134002D1FB6800221A76FB687B
:104B40003C33181C0021212208F040FBFB681C1C90
:104B50003C34BB68181C08F02EFC031CBA68201CEF
:104B6000111C1A1C08F010FBFB685B7E181CBD466C
:104B700007B090BD5FEA000080B582B000AF7860FA
:104B800039607B68034A1A607B68181CBD4602B016
:104B900080BDC0467808010080B582B000AF786063
:104BA00039607A683B68101C191CFFF7E5FF7B68C9
:104BB000054A1A607B683A6852685A607B68181C1C
:104BC000BD4602B080BDC046A80C010080B584B0CF
:104BD00000AF786039603B68181C01F02FFD3B1C6A
:104BE0000833181C01F02AFD3B1C0F3300221A70F9
:104BF00014E03B1C0F331B783A68D3183A1C0F3271
:104C0000127805218A1A391C08318A5C1A703B1CFB
:104C10000F331A783B1C0F3301321A703B1C0F33D1
:104C20001B78052BE5D93B68181CBD4604B080BD38
:104C300080B582B000AF78607B681B68181CBD46E9
:104C400002B080BD80B582B000AF78607B685B7ECB
:104C5000032B07D07B685B7E072B03D07B685B7ED2
:104C6000082B02D17B683C3300E00023181CBD46B2
:104C700002B080BD80B584B000AF7860002001F044
:104C800009FC7B6800221A6101F0CCFC031CDBB23A
:104C9000DB09DBB2002B01D000231AE004F0D6FAC6
:104CA000031CFB6002E0002001F0F4FB7B681B6941
:104CB000002B09D104F0CAFA021CFB68D21A074B78
:104CC0009A4201D8012300E00023002BEBD17B683E
:104CD0001B69181CBD4604B080BDC046E703000038
:104CE00080B584B000AF78603B1C0F337A68527E89
:104CF0001A707B68DB6F002B03D17B68181CFFF7F1
:104D000019FEFF2001F06AFC031CDBB2DB09DBB2F9
:104D1000002B01D0002326E07B6800225A7604F0A5
:104D200095FA031CBB6002E0002001F0B3FB7B6836
:104D30005B7E1A1C0223134009D104F087FA021C7F
:104D4000BB68D21A0A4B9A4201D8012300E0002323
:104D5000002BE9D17B683A1C0F3212785A7601F0A9
:104D60008BFC031CDBB25BB2181CBD4604B080BDDB
:104D70008713000080B584B000AF78600A1CFB1C6C
:104D80001A703B1C0F337A68527E1A707B681A3394
:104D9000181C0021212208F019FAFB1C1B78181C92
:104DA00001F05BFC031CDBB2DB09DBB2002B01D0A2
:104DB000002324E07B6800225A7604F047FA031CA3
:104DC000BB6002E0002001F065FB7B685B7E1A1C83
:104DD0000223134009D104F039FA021CBB68D21A2D
:104DE000094B9A4201D8012300E00023002BE9D1AE
:104DF0007B683A1C0F3212785A767B681A33181C7B
:104E0000BD4604B080BDC046CF07000080B584B069
:104E100000AF78600A1CFB1C1A703B1C0F337A68C9
:104E2000527E1A70FB1C1B78181C01F016FC031C28
:104E3000DBB2DB09DBB2002B01D0002324E07B686E
:104E400000225A7604F002FA031CBB6002E0002044
:104E500001F020FB7B685B7E1A1C0223134009D102
:104E600004F0F4F9021CBB68D21A094B9A4201D82B
:104E7000012300E00023002BE9D17B683A1C0F32AC
:104E800012785A767B681B69181CBD4604B080BD39
:104E9000CF07000080B584B000AF78600A1CFB1C0F
:104EA0001A703B1C0F337A68527E1A70FB1C1B78F9
:104EB000181C01F0D2FB031CDBB2DB09DBB2002BB8
:104EC00001D0002325E07B6800225A7604F0BEF969
:104ED000031CBB6002E0002001F0DCFA7B685B7E13
:104EE0001A1C0223134009D104F0B0F9021CBB685C
:104EF000D21A0A4B9A4201D8012300E00023002B6A
:104F0000E9D17B683A1C0F3212785A767A683B23D3
:104F1000D35C181CBD4604B080BDC046CF0700005E
:104F200080B582B000AF78607B68DB6F002B03D167
:104F30007B68181CFFF7FEFC002001F0ABFA7B68D1
:104F40005B7E181CBD4602B080BDC04680B586B0F1
:104F500000AFF860B9607A607A68BB68101C191CF1
:104F600004F04EFC031C002B01D0012350E005206F
:104F7000002101F09CF90220002101F098F9FB6862
:104F800000221A61BB68181C02F01CFD031CDBB276
:104F9000DB09DBB2002B09D00520012101F087F9E4
:104FA0000220012101F083F9002331E004F04EF9E1
:104FB000031C7B6102E0002001F06CFAFB681B69B6
:104FC000002B09D104F042F9021C7B69D21A124B62
:104FD0009A4201D8012300E00023002BEBD10520E9
:104FE000012101F064F90220012101F060F9FB6860
:104FF0001B69002B01D100230AE0FB681B697A685A
:10500000101C191C04F022FCFB6800221A61012309
:10501000181CBD4606B080BD1F4E000080B584B090
:1050200002AF786039607B68012B10D13A68094B78
:105030009A420CD1084B00220092181C0021002239
:10504000002304F0C7FB054B181CFFF761FCBD46AD
:1050500002B080BDFFFF0000B82C0020C02C002053
:1050600080B500AF034B0120191CFFF7D7FFBD46E9
:1050700080BDC046FFFF000080B584B002AF7860FD
:1050800039607B68012B0CD13A68074B9A4208D1F2
:10509000064B00220092181C00210022002304F07D
:1050A00099FBBD4602B080BDFFFF00004C2D0020E3
:1050B00080B500AF034B0120191CFFF7DDFFBD4693
:1050C00080BDC046FFFF000080B582B000AF7860B1
:1050D0007B68054A1A607B6800225A607B68181C4E
:1050E000BD4602B080BDC046B80C010080B582B09C
:1050F00000AF78607B68181CFFF7E6FF7B68054A05
:105100001A607B68FA2292009A607B68181CBD4680
:1051100002B080BD2009010080B584B000AFF86006
:10512000B9607A60FB681B6830331B68F868B9683F
:105130007A689847031C181CBD4604B080BDC04661
:1051400080B582B000AF78607B68181CFFF7CEFF97
:105150007B68034A1A607B68181CBD4602B080BD9C
:10516000D808010080B582B000AF78607B68181C59
:10517000FFF7E6FF7B68124A1A607B68FF221A7409
:105180007B6800225A617B6800229A617B6800225A
:10519000DA617A68B323DB000021D1527A68094BC7
:1051A0000021D1527A68084B0021D1507A68074B10
:1051B0000021D1527B68181CBD4602B080BDC0469C
:1051C000880801009A0500009C050000180B0000EB
:1051D00090B58BB002AF78600A1CBB1C1A8000230C
:1051E000BB607B6800225A617B6800229A617B6801
:1051F0000022DA617A68B323DB000021D1527A6899
:105200004F4B0021D1527A684E4B0021D1507A6821
:105210004D4B0021D1523B1C0C3302221A80BB1C87
:105220001B881B029AB2BB1C1B881B129BB2134328
:105230009BB29AB23B1C0C335A803B1C0C330022AD
:105240005A6002200221002202F02AFA031C1A1CD2
:105250007B681A747B681B7CDB09DBB2002B01D0F6
:10526000002369E07B68187C7B68191C14317B681B
:105270001A1C18327B681C337C68203440B20094BE
:1052800002F03CFC7B681B7C5AB23B1C08330021BB
:105290000091101C0121002202F0AEFB7B681B7CF8
:1052A0005AB23B1C0C33101C191C102202F042FA9B
:1052B000031CDBB2DB09DBB2002B0AD07B681B7C52
:1052C0005BB2181C02F00CFB7B68FF221A740023EF
:1052D00032E003F0BBFF031CFB6102E0002001F0A1
:1052E000D9F87B685A690423134009D103F0AEFF53
:1052F000021CFB69D21A154B9A4201D8012300E027
:105300000023002BEAD17B685A69042313400AD199
:105310007B681B7C5BB2181C02F0E2FA7B68FF2200
:105320001A74002308E07B685B690422191C91430E
:105330000A1C7B685A610123181CBD4609B090BD48
:105340009A0500009C050000180B0000CF07000024
:1053500080B588B002AFF860B960BB1D1A80BB6829
:10536000181CFCF7F3FE031C7B61FB681B681833F9
:105370001B68F968BA1D1288081C111C9847031C89
:105380005A425341DBB2002B01D000230CE0FB68F2
:105390001B7C5AB23B1C143304210091101C0121C8
:1053A000012202F029FB0123181CBD4606B080BD76
:1053B00080B582B000AF7860002001F06BF87B68A8
:1053C0001B7C5BB2013304D07A68B323DB00D35A71
:1053D00000E00023181CBD4602B080BD80B582B03D
:1053E00000AF78607B681B7C5BB2002B00DA0EE0BC
:1053F0007B681B7C5BB2181C02F08CFB7B681B7CFF
:105400005BB2181C02F06CFA7B68FF221A74BD466E
:1054100002B080BD90B589B000AFF860B960BB1D27
:105420001A803B1C1033181C04F0CCF91549BA68DB
:105430003B1C1033081C111C1A1CFFF787FD031CB2
:105440005A1E9341DBB2002B16D0FB681B68203339
:105450001C683A1C18323B1C1033101C191CFFF737
:105460009BFBF9683A1C1832BB1D1B88081C111CD9
:105470001A1CA047031C00E00023181CBD4609B0FD
:1054800090BDC046C02C002080B584B000AFF8604D
:10549000B960BB1D1A80BB68181CFCF757FE011CC5
:1054A000FA68084BD150FA68B91D074B0988D152E8
:1054B000FA68064B0021D1520123181CBD4604B0E6
:1054C00080BDC0461C0B00001A0B0000180B00002A
:1054D00080B588B002AF78600520002100F0E7FEBB
:1054E0000220002100F0E3FE3B1C083302221A8058
:1054F0007A68234BD35A1B029AB27968204BCB5A55
:105500001B129BB213439BB29AB23B1C08335A80C6
:105510007A681C4BD2583B1C08335A607B68197C54
:105520007B68B420C0001A187868174BC35A49B278
:10553000381C0830009010200190081C111C1A1C07
:10554000002302F047F9031C9BB2DB0BDBB2002BFC
:1055500009D00520012100F0AAFE0220012100F05F
:10556000A6FE002308E00520012100F0A0FE022095
:10557000012100F09CFE0123181CBD4606B080BD31
:105580001A0B00001C0B0000180B000080B582B045
:1055900000AF78600A1CFB1C1A707B681B68043320
:1055A0001B687968FA1C081C111C01229847031C0F
:1055B000181CBD4602B080BD80B584B000AFF86055
:1055C000B9607A60FA68174BD35A1A1C7B68D218F4
:1055D000AF23DB009A4206D9FA68124BD35AAF22A6
:1055E000D200D31A7B60FA680E4BD35AB422D20091
:1055F0009B18FA68D118BA687B68081C111C1A1C21
:1056000007F0C2FDFA68074BD25A7B689BB2D318E9
:1056100099B2FA68034BD1527B68181CBD4604B09E
:1056200080BDC046180B000080B582B000AF786026
:10563000002000F02FFF7B681B7C5BB2013372D02F
:105640007A68B323DB00D35A002B04D07A68B323E3
:10565000DB00D35A68E07B689A697B68DB699A4211
:1056600061D07B68DA69796820238A18D3181B789F
:105670001B029AB27B68DB69591C786820234118A9
:10568000CB181B78D31899B27A68B323DB00D152B8
:105690007B68DB699A1C796820238A18D3181B78E9
:1056A0001B029AB27B68DB69D91C786820234118F9
:1056B000CB181B78D31899B27A681D4BD1527B68EE
:1056C000DB691A1D796820238A18D3181B781A06FB
:1056D0007B68DB69591D786820234118CB181B783B
:1056E0001B04D2187B68DB69991D78682023411858
:1056F000CB181B781B02D2187B68DB69D91D786830
:1057000020234118CB181B78D1187A68094BD15047
:105710007B68DB691A1C08327B68DA617A68B3231C
:10572000DB00D35A00E00023181CBD4602B080BD48
:105730009A0500009C05000080B584B000AF786039
:105740007B681B6830331B6879683A1C0F32081C71
:10575000111C01229847031C01335A425341DBB20A
:10576000002B02D001235B4202E03B1C0F331B786D
:10577000181CBD4604B080BD80B586B000AFF8608F
:10578000B9607A60FB681B6808331B68FA68101CF4
:105790009847021C3B1C16331A803B1C16331B888F
:1057A000002B02D101235B4267E03B1C16331A88B1
:1057B0007B689A4203D93B1C16337A681A8000230F
:1057C0003B6151E0BA683B69D118FB68DB69581C42
:1057D000FA68D061F8682022C3189B181B780B70F8
:1057E000FA68B323DB00D35A013B99B2FA68B323BA
:1057F000DB00D152FB68DA69FB689B699A4230D1C1
:10580000FB6800229A61FB689A69FB68DA61FB68B1
:105810005B690222191C91430A1CFB685A61194BEF
:105820001B78002B0DD0FB681B7CFA68203259B224
:10583000AF23DB00081C111C1A1C002302F080F8A7
:105840000CE0FB681B7CFA68283259B2AF23DB00FE
:10585000081C111C1A1C002302F072F8002000F032
:1058600019FE3B6901333B613B1C16331A883B69C7
:105870009A42A7D83B1C16331B88181CBD4606B09D
:1058800080BDC0468C2D002080B582B000AF78600E
:105890007B681B6808331B687A68101C9847031CD8
:1058A0005A425341DBB2002B02D001235B4206E097
:1058B0007B68DA69796820238A18D3181B78181C4A
:1058C000BD4602B080BDC04680B582B000AF7860F2
:1058D00006E07B681B680C331B687A68101C9847CD
:1058E0007B681B6808331B687A68101C9847031C88
:1058F0005A1E9341DBB2002BEBD1BD4602B080BDF6
:1059000080B582B000AF786039603A68054BD358F3
:105910007A68101C191C03F06BFF7868BD4602B052
:1059200080BDC0469C05000080B582B000AF7860A5
:105930007A68034BD35A181CBD4602B080BDC046DE
:105940009A05000080B584B002AF786039607B684A
:10595000012B0CD13A68074B9A4208D1064B002222
:105960000092181C00210022002303F033FFBD46E3
:1059700002B080BDFFFF0000542D002080B500AFB5
:10598000034B0120191CFFF7DDFFBD4680BDC0465B
:10599000FFFF000080B584B002AF786039607B689B
:1059A000012B0CD13A68074B9A4208D1064B0022D2
:1059B0000092181C00210022002303F00BFFBD46BB
:1059C00002B080BDFFFF00005C2D002080B500AF5D
:1059D000034B0120191CFFF7DDFFBD4680BDC0460B
:1059E000FFFF000080B584B002AF786039607B684B
:1059F000012B0CD13A68074B9A4208D1064B002282
:105A00000092181C00210022002303F0E3FEBD4693
:105A100002B080BDFFFF0000642D002080B500AF04
:105A2000034B0120191CFFF7DDFFBD4680BDC046BA
:105A3000FFFF000080B584B002AF786039607B68FA
:105A4000012B0CD13A68074B9A4208D1064B002231
:105A50000092181C00210022002303F0BBFEBD466B
:105A600002B080BDFFFF00006C2D002080B500AFAC
:105A7000034B0120191CFFF7DDFFBD4680BDC0466A
:105A8000FFFF000080B584B000AFF860B960111C62
:105A90001A1CFB1D1970BB1D1A70F868B968FB1D34
:105AA0001A78BB1D1B7800F005F8FB68181CBD4672
:105AB00004B080BD80B588B000AFF860B960111C3B
:105AC0001A1CFB1D1970BB1D1A70FB68FB61BB68BB
:105AD000BB613B1C1733FA1D12781A703B1C16333E
:105AE000BA1D12781A70BB69194A934200D9184B33
:105AF000FA6913603B1C17331B78013B5A1E934114
:105B0000DBB21A1CFB695A713B1C16331B78012B44
:105B100014D002DC002B09D014E0022B02D0032B9E
:105B200008D00FE0FB6900221A710EE0FB69012228
:105B30001A710AE0FB6902221A7106E0FB6903226E
:105B40001A7102E0FB6900221A71BD4608B080BDDF
:105B5000001BB70080B586B000AFF860B960BB1D10
:105B60001A803B1C153300221A703B1C173300228D
:105B70001A703B1C163300221A70FB68002B07D1E9
:105B80003B1C1533FB603B1C173301221A700CE0E1
:105B9000BB68002B07D13B1C1533BB603B1C163385
:105BA00001221A7001E0FA233EE0224A224B101C27
:105BB00019685A68FEF776FC204B1B785BB2181CFC
:105BC000002103F04FFD1FE0FB681B78194A101CF1
:105BD000191CFEF7DFFC031C1A1CBB681A70BB1DE6
:105BE0001A88BB1D013A1A803B1C16331B78002B08
:105BF00002D1BB680133BB603B1C17331B78002B01
:105C000002D1FB680133FB60BB1D1B88002BDBD17D
:105C10000A4B1B785BB2181C012103F023FD054BD6
:105C2000181CFEF775FC00235BB2181CBD4606B0BD
:105C300080BDC046A82C0020742D002057000020F5
:105C400080B584B000AF78603B1C0F3300221A701F
:105C50000F4B181CFEF780FB0E4B1B785BB2181C19
:105C6000012103F09FFC0B4B1B785BB2181C012138
:105C700003F0F8FC01F094FA012001F087FA3B1CD4
:105C80000F331B785BB2181CBD4604B080BDC04604
:105C9000A82C00205700002090B585B000AF021C52
:105CA0003960FB1D1A703B1C0F3300221A70FB1D5C
:105CB0001B78032B11D13B68BB60BB681968BB68BC
:105CC0005A68BB681B893C1C0F34081C111C1A1C29
:105CD000FFF740FF031C237004E03B1C0F33FF223F
:105CE0001A70C0463B1C0F331B785BB2181CBD46B4
:105CF00005B090BD80B500AF044B181CFEF7C2FB89
:105D000000235BB2181CBD4680BDC046A82C0020F5
:105D100080B582B000AF786039607B68012B0BD111
:105D20003A68074B9A4207D1064A074B101C191CC8
:105D300001220223FFF7A6FEBD4602B080BDC04689
:105D4000FFFF0000742D0020001BB70080B500AFDE
:105D5000034B0120191CFFF7DBFFBD4680BDC04689
:105D6000FFFF000013B5041CA5204001211C00F01A
:105D700029FA002C0BD0A5200023400101A9019392
:105D800000F01CFA0028EFD1019BA342ECD10020C7
:105D900016BD0000F7B5012001F0F8F901206946B1
:105DA00000F00CFA051E4BD1061C009B0221194382
:105DB000012000F007FA012001F0E8F9214C01A9C7
:105DC000206800F0FBF9271C002802D1019B002B62
:105DD00027D10E230120236001F0D8F9206801A902
:105DE00000F0ECF9002802D1019B002B19D11323FC
:105DF0000120236001F0CAF9206801A900F0DEF952
:105E000000280ED01BE00136301C032105F0A8F954
:105E100000290AD1022001F0B9F9386801A900F07F
:105E2000CDF9019B5B07EED505E0009B02211943EC
:105E3000012000F0C7F9019B5B07B6D500E0051C07
:105E400068B2FEBD5000002007B5134801A900F05C
:105E5000B5F9002801D0FA201BE0019B8021490000
:105E600019430D48019100F0ADF90028F3D1D0207D
:105E7000400101A900F0A2F90028ECD1019B80218A
:105E80004902D02019434001019100F09BF90028FC
:105E9000E1D140B20EBDC04608140000F7B5214D57
:105EA0002E682C1C002E3AD180204001291C00F0C5
:105EB00085F9071E27D11C4801A900F07FF9061EAD
:105EC00001D02F6029E02B68184A934204D1019A2F
:105ED000012A1AD0164B08E0164A934209D1019BB9
:105EE000032B12D0042B02D1134B23600DE0134B74
:105EF000FBE7134A934208D1EC208003291C00F0F1
:105F00005DF9002801D02E6007E022680D4B134098
:105F1000A022D2021343236001E0002000E02068A9
:105F2000FEBDC0467C2D0020F4130000A00210002E
:105F3000A1021000B0021000B1021000B202100065
:105F4000F0001000FFFFF0FF38B5041C264800F0F9
:105F500031F9002803DB012001F018F9F6E72348A6
:105F600000F028F9C30709D5022C15D12049214892
:105F700000F028F980212048490315E01F4D012039
:105F800001F004F9013D1E4800F014F9002D27D05E
:105F90001C4B9842F3D1E7E7032C09D1144915486B
:105FA00000F010F91448002100F00CF9002403E07F
:105FB000043C63425C41E401FFF770FFE823000505
:105FC000000D9B00984202D10220204300E0201CDB
:105FD000FFF7C8FE0A480C4900F0F4F8002000E082
:105FE000FB2040B238BDC04614100000BC070200C0
:105FF0007DD51C3CAC0702008C100000D1070000CE
:106000000C000C009ED0AD10612F52EF37B5134B32
:1060100002380093124B01931D1C012803D8114B29
:106020000093114B0193FA24E4000020019B83426A
:106030000AD0022001F0AAF8013C009800F0BAF85A
:10604000002CF3D1FB2407E0019B0024AB4203D1D9
:106050000248211C00F0B6F860B23EBD8C10000072
:1060600036265302AC070200C3C15DD737B5A02066
:10607000002301A940010193124C00F09FF80199FF
:10608000A02021404001019100F09CF8251C00282F
:1060900016D10A24A020400101A900F08FF80028A1
:1060A0000ED101998020C000084009D0A020013CF9
:1060B00029404001E4B2019100F084F8002CE9D1BC
:1060C00040B23EBDFFFBFFFF37B5041C0D1C0A4864
:1060D00001A900F073F800280CD10122019BA24015
:1060E000002D01D0134300E093430193024801992E
:1060F00000F068F840B23EBD0801020037B5041C4C
:106100000D1C0A4801A900F059F800280CD1012201
:10611000019BA240002D01D0134300E09343019363
:106120000248019900F04EF840B23EBD0001020065
:1061300030B587B00023041C01A9184804930593C7
:1061400000F03CF8002825D1019B002B0BD0C0208B
:106150008002184304A9082200F038F8002819D159
:10616000049A019205E00E4801A900F027F80028E2
:1061700010D1019AC02093B28002184302A90622CE
:10618000019300F023F802A9051C0622201C00F050
:10619000CFFF281C40B207B030BDC04608000C003D
:1061A0009C14000008B5FFF74BFD08BD08B5FFF7CC
:1061B000A1FD08BD08B500F0D7FE08BD08B500F088
:1061C000D9FE08BD08B500F0DFFE08BDF7B50E4BDF
:1061D000051C1C880191083C161CA4B20027019BD9
:1061E000D919A64204D8B2B2281C00F017FF09E062
:1061F000281C221C00F012FF002803D1361B3F1977
:106200002D19ECE740B2FEBD4C000020F7B50E4B57
:10621000051C1C880191083C161CA4B20027019B98
:10622000D919A64204D8B2B2281C00F01DFF09E01B
:10623000281C221C00F018FF002803D1361B3F1930
:106240002D19ECE740B2FEBD4C000020062815D801
:106250000F23042815D01023052812D01223062856
:106260000FD0032300280CD00423012809D00523D4
:10627000022806D0032803D1062302E0FF2300E012
:10628000FE2358B2704738B5051C0C1C00F01AFAF2
:1062900000280AD1281CFFF7D9FF002803DBC0B271
:1062A000211CFFF711FF00F033FA40B238BD38B5BA
:1062B000051C0C1C00F006FA00280AD1281CFFF768
:1062C000C5FF002803DBC0B2211CFFF717FF00F059
:1062D0001FFA40B238BD000070B5041C9AB0151CFE
:1062E0002C2869D01B2804D1101C01A908220023E6
:1062F00072E0062803D1101C01A930226BE00E28A1
:1063000000D18FE0322803D1101C01A91022EEE742
:106310002F2808D101A80021642200F012FF281CB8
:1063200001A96422E3E734280DD1101C01A904223D
:10633000002300F0A9FB011E74D13B4B1B68002B0E
:1063400070D0201C6DE0112814D1384A002301AC14
:106350001370281C211C042200F096FB002861D138
:10636000334B22781A70304B1B68002B5AD0112007
:10637000211C56E013280DD1101C01A92C2200234A
:1063800000F082FB00284DD1274B1B68002B49D021
:1063900013202AE004280DD1101C01A90422002397
:1063A00000F072FB00283DD11F4B1B68002B39D039
:1063B00004201AE0652803D1281C01A9042296E7CD
:1063C000092803D1101C01A9642204E02A280ED157
:1063D000101C01A90422012300F056FB002821D142
:1063E000114B1B68002B1DD0201C01A919E020288F
:1063F00018D101AE101C311C0822002300F044FB10
:1064000000280FD1281C0830B2880199012300F020
:106410003BFB002806D1044B1B68002B02D0201C3C
:10642000311C98471AB070BD802D0020842D0020AB
:10643000852D002070B58AB06B460126DE710733CA
:1064400000281DD00168104A002511600F4A181C51
:10645000157000F0D9FB041EAC4212D100F08EF989
:10646000041EAC4208D10A49301C00F055FB02A8BA
:1064700000F07AFB041C04E0281C00F0EAFB00E0BA
:10648000F42460B20AB070BD802D0020842D00205D
:10649000D962000008B50023084A9A185268002AF9
:1064A00002D01268910705D41033B02BF4D100F05C
:1064B00043FA00E0F42040B208BDC046E0340020BA
:1064C000F0B5A5B01C1C2AAB1B88069005932BAB1E
:1064D0001B780F1C161C0793012A03D17B1E1F2B50
:1064E0001BD901E0002C01D1F4206AE0022AF5D189
:1064F000201C00F02EFE4028F0D10023E25C111C8D
:1065000030393629F0D80A390629EDD9473A192AFF
:10651000EAD90133402BF1D1E0E705990D2901D9E2
:10652000FF29E1D109AD68463A1C6A30EF19069996
:1065300000F0FEFD3B1C403300279F71059A6B461F
:106540002A33DA87079A531E9A416B468B331A70A7
:10655000263B1E70032E13D123782B70032BC3D838
:1065600062781023111C6A7099430A29BCD16846CD
:10657000A11C263000F0DCFD6378EB189F7016E05C
:10658000022E0AD1201C00F0E4FD431E9BB23F2BDB
:10659000AAD8421C211C281C04E0042E05D1281C6A
:1065A000211C3E2200F0C4FD01E0012E9CD10023FD
:1065B000009301930293012028212A1C6C2300F0F0
:1065C00001F940B225B0F0BD13B504AC24880094A5
:1065D00000240194FFF774FF16BD000010B5104CA5
:1065E00086B02378011CDBB2002B14D1021C0E3ABA
:1065F000D2B2F120F02A0FD905AA11700120009320
:10660000019302931021042300F0DCF8002803D149
:106610000123237000E0F22040B206B010BDC04656
:10662000842D00201FB500230093019302930321C2
:106630001A1C012000F0C6F805B000BD10B5041CFE
:1066400000F040F8002806D1201CFFF771FD00285B
:1066500001D100F05DF840B210BD7FB5002305AA5E
:10666000107012210093019302930120042300F083
:10667000A9F807B000BD0000014B1878C0B2704700
:10668000852D0020024B1A780132D2B21A70704761
:10669000942D00207047000007B5012000F0D2FDC6
:1066A000074801A9FFF78AFD002806D1019B0221B6
:1066B000194303480191FFF785FD40B20EBDC04666
:1066C0007010000010B50E4C2378002B05D02378F5
:1066D00000200133DBB2237010E00A4B1A78032A42
:1066E00002D01B78042BF2D1FFF754FB002805D110
:1066F00005480649FFF766FD0028E8D040B210BD06
:10670000B02D0020A02D002074100000785600004D
:1067100007B5164B1A78002A03D01A78013AD2B27C
:106720001A701B78002083421DD1114B021C19786E
:10673000032902D01B78042B15D10E480E49019273
:10674000FFF740FD00280ED1012001A9FFF736FD1B
:10675000002808D101990223194204D0994301204D
:106760000191FFF72FFD40B20EBDC046B02D0020B5
:10677000A02D00207410000021430000094B10B52B
:1067800000241C60084B09481C60094B1C70094B15
:106790001C70094B1C7000F043FD084A084B201C7C
:1067A0001A6010BD902D0020A42D002085660000E9
:1067B000B02D0020A02D0020942D00209566000013
:1067C000982D0020F0B58BB01C1C10AB0E1C02CB1A
:1067D00002921B887F22019312AB1B8832400393E5
:1067E00006AB5A70082218705A80051C5A88002976
:1067F00004D001998A1803998A1800E0A21892B26D
:106800005A80FFF75FFF031C002B00D086E06F4625
:106810000893FB820793079B36021D430795079B4E
:1068200006AD1E430796079A6B883E481B04134328
:1068300007930799FFF7C6FC1637031C002B6DD191
:106840000793079B02221343079307993648FFF7E4
:10685000B9FC031C002B61D108933B806E461636B1
:106860003288324B9A4216D82F4807A9FFF7A6FC68
:10687000002810D1079F02231F4007D12C4808A9E8
:10688000FFF79CFC002806D0089704E0338801330A
:106890009BB23380E2E7089B002B3ED0089B291C6B
:1068A00009936B8808229BB26B800998FFF7AEFCB6
:1068B000002833D1099B029A08330993002A09D092
:1068C000111C0998221CFFF7A1FC002826D1099B66
:1068D000E3180993109B002B0FD00399099B0C1B05
:1068E000E418099409981099019AFFF78FFC002881
:1068F00014D1099B019AD3180993089B02229B008B
:106900000793079B0B48134307930799FFF75AFC1C
:10691000002803D1FFF7FCFE00E0FD2040B20BB0E1
:10692000F0BDC0468C10000078100000E7030000A6
:10693000000415006C100000F0B5494B85B01A78C2
:10694000002A0AD1474B1C78E4B2002C00D184E025
:106950001A78013AD2B21A700FE000F01FFE00243C
:106960007BE0414801A9FFF729FC041E0AD03C4AFC
:106970001378002B71D1002CE4D0FFF7A3FE041E86
:10698000F5D1EEE7019A0126324262D000F05AFCBE
:1069900001993548B1430191FFF714FC041EE6D17B
:1069A000324AFE241070019A97043F0DDFD0039005
:1069B00003A92F48FFF702FC041E0BD102AD039878
:1069C000291C0422FFF702FC6B88041C9BB26B801D
:1069D000002803D0301C00F035FCC8E76B88BB42B0
:1069E00007D06B88FF1A042F03DD301C00F02AFC4F
:1069F0002DE02B78012B01D11E4B12E02B78022BBE
:106A000001D11D4B0DE02B78042B01D11B4B08E06D
:106A10002B78062B01D11A4B03E02B78072B16D1CC
:106A2000184B1B68002B07D068786988039A0839CF
:106A3000C0B289B208329847094A1378002B96D120
:106A40000A4A1378002B04D1FFF726FE01E0FA244E
:106A50008DE7FFF75DFE041C89E760B205B0F0BD6D
:106A60008C2D0020942D002070100000A82D0020F7
:106A700084100000902D0020A42D0020AC2D0020BB
:106A8000882D00209C2D0020F0B585B0051C0F1C22
:106A9000141C0193002803D0002901D0002A04D13E
:106AA000019A002A29D1F4202CE0184803A9FFF705
:106AB00085FB002826D1164802A9039EFFF77EFB1E
:106AC00000281FD1B604360DB442ECD8029B9D427B
:106AD000E9D32A19F31800929A42E4D8281C391CE9
:106AE000221CFFF773FB00280CD1029B009AF618BA
:106AF000964202D0019B002B04D0064B01221A7053
:106B0000FFF7CAFD40B205B0F0BDC04670100000EE
:106B100084100000A82D0020013800B5062813D8E5
:106B200004F0D0FA06040A08120C0E00084B08E024
:106B3000084B06E0084B04E0084B02E0084B00E07D
:106B4000084B1960002000E0F42040B200BDC046B0
:106B5000A42D0020902D0020AC2D0020982D002089
:106B6000882D00209C2D002073B50023041C01A952
:106B700020480193FFF722FB1F4B019A061C9A4203
:106B800004D11E4801A9FFF719FB061C019B0F2524
:106B90001A0C91B2080A2A400909294062729AB275
:106BA0002172110A12092A402B4021716271A371CE
:106BB000E071FFF773F92379A27961791B022A400A
:106BC0001A430901FF23194020600A43607AE179E2
:106BD000054009020D43217A09010B4008492B4366
:106BE0008B4200D9F326074B9A4200D8F32670B2A5
:106BF00076BDC046AC070200C3C15DD74810000097
:106C0000301300002F13000038B5002803D005789A
:106C10006B1E032B00D901250020FFF7C3FA041EC9
:106C200015D100F0BBF9281CFFF78EF9041E0CD11A
:106C3000281CFFF7EBF9041E07D1023D012D06D9F0
:106C4000FFF702F9002802D0041CFFF7AFFA60B288
:106C500038BD10B5FFF70AFA041E09D101F06CF82F
:106C6000041E05D1FFF7A2FA041E01D100F076F947
:106C700060B210BD1FB501AB002202901981032044
:106C8000191C0192FFF708F805B000BD73B56C46FA
:106C9000061C0734CF2806D0031C3B33DBB2012B84
:106CA00001D90B250EE0201C0121FFF7E3FF00288E
:106CB000F7D000201CE02378B3420AD0013DEDB2AA
:106CC000002D06D0201C0121FFF7D4FF0028F2D0B0
:106CD000EFE70B25201C0121FFF7CCFF0028E8D1AE
:106CE0002378002B03D0013DEDB2002DF2D101201D
:106CF00040B276BDF0B585B000900C1C0192002723
:106D00008026B601B44200D8A6B20A2568460B30E8
:106D10000121FFF7AFFF002801D0002020E06A46E4
:106D2000D37A1B090F2B05D0013DADB22BB2013335
:106D3000ECD1F2E72DB2002DEFDD009BB6B238B2F8
:106D40001818311CFFF796FF0028E6D1019A002A97
:106D500009D0A41BF319A4B29FB2002CD0D10120FA
:106D600040B205B0F0BD054B1B78002BF1D103A854
:106D70000221FFF77FFF0028EBD0CEE7B12D0020E6
:106D80001FB501AB0190002219810320191C02924A
:106D9000FEF782FF05B000BD30B585B008AC2578A0
:106DA00001AC2070C1380E2857D804F08BF921218E
:106DB000360E19192B2B4808565656561B000B0C2D
:106DC00063700B0AA370E17010E00B0ADBB2002DB8
:106DD00002D08022524213436370A170002304E06A
:106DE000002300E0FF236370A370E370052138E007
:106DF0000A0C62700A0AA2701A0AE17022716371A9
:106E000007212EE00A0C62700A0AA2701A0C227185
:106E10001A0AE1706271A3710FE00B0ADBB2002D58
:106E200002D08020404203436370130EE370130CC2
:106E30002371130AA1706371A271082111E00B0C78
:106E400063700B0AA370130E2371130C6371130A82
:106E5000E170A371E271092103E0002040B205B0A6
:106E600030BD0D4B4A1E1B78002B0DD17F20013306
:106E70004000994206D0E518013D2D786840074D45
:106E8000285CF4E7A05400E0D1B2201CFFF778FFA3
:106E900043425841C0B2E1E7B12D0020380901005A
:106EA00073B5031C0A1C302802D80120C32501E059
:106EB0000020C9250090191C281C0423FFF76CFF33
:106EC0000024061E012E0DD1281CFFF7DFFE341C06
:106ED000012807D000240094CF20211C221C231C51
:106EE000FFF75AFF60B276BDF0B5031C85B00F1CEA
:106EF000FF2802D80125C42601E00025CA26191C56
:106F00000095301C00220423FFF746FF00240128CF
:106F100021D1301CFFF7BAFE012808D000240094CC
:106F2000211C221C231CCF20FFF736FF13E003ACEB
:106F3000201C04212A1CFFF7DDFE0128EED1627817
:106F4000A37812021B04134322781343E278041C33
:106F5000120613433B6060B205B0F0BD014B002048
:106F600018707047B12D002007B501A9FFF7BCFFCD
:106F700001980EBD08B5FFF7B7FF012801D1002029
:106F800000E0FA2040B208BD08B5FFF789FF0128EC
:106F900001D1002000E0FA2040B208BD13B51D4C1D
:106FA00000231D4801A901932370FFF79DFF0028CE
:106FB00003D02378002B09D015E00123164801A93E
:106FC0002370FFF791FF0028F3D11DE0019A7C2385
:106FD0009A435021114310480191FFF761FF0028A7
:106FE00012D001232370802040016946FFF77CFF07
:106FF00000280BD00848FFF7B7FF702398435021B3
:1070000001430548FFF7C0FF002000E0FA2040B22E
:1070100016BDC046B12D002024E8000073B5031C46
:10702000151C00240E1C0094191CC820221C2B1CAB
:10703000FFF7B2FE012815D1C820FFF727FE01286F
:1070400007D000230093191C1A1CCF20FFF7A4FEC1
:1070500008E0301C291C221CFFF74CFE0128F0D14F
:1070600060B276BDFA24FBE7F0B5031C87B0141CB0
:10707000002503910095191CC7202A1C231CFFF72B
:107080008BFE01284CD1C720FFF700FE012807D056
:107090000095291C2A1C2B1CCF20FFF77DFE3FE00A
:1070A00005AF3D808023261C9B019C4200D91E1CFD
:1070B000B6B2002D04D103229C4205D9012203E07F
:1070C0000022A34252410232102368465B42133031
:1070D0001A4301210270FFF753FE002818D1039BC9
:1070E00028B21818311CFFF74BFE002810D10F4BA7
:1070F0001B78002B06D0A41B7519A4B2ADB2002CCE
:10710000D0D111E0381C0221FFF73AFE0028F2D05E
:1071100000230093191C1A1CCF20FFF73DFE03E04B
:10712000FA2040B207B0F0BD0020FAE7B12D0020F0
:1071300010B500239A4203D0CC5CC4540133F9E764
:1071400010BD8318002A03D0017001309842FBD192
:107150007047021C031C1978981A80B2002901D0CC
:107160000133F8E77047000008B5034B1B68002B9C
:1071700000D0984708BDC046B42D002008B501F0E6
:107180006DFF08BD08B501F0EDFF08BD10B5041C8A
:10719000002C04D0012002F091F8013CF8E710BD6A
:1071A00010B5094C00202056002102F05BFA642043
:1071B000FFF7ECFF00202056012102F053FA642073
:1071C000FFF7E4FF10BDC0465500002038B5104B56
:1071D000104D00241C6000202856012102F0E2F925
:1071E00000202856012102F03DFA0B4B00201856D2
:1071F000211C02F0D7F9094B00201856A04202DBEF
:10720000022102F0CFF9FFF7CBFF002038BDC046C6
:10721000B42D00205500002054000020560000200E
:1072200008B5054B05491860054B00201856032288
:10723000FFF7A4FF08BDC046B42D0020697100000F
:107240005400002008B5074B002806D0002018562F
:1072500005490322FFF792FF03E000201856FFF7CD
:1072600091FF08BD5400002069710000F0B585B0A1
:1072700003920AAA128802900192002A46D0244D55
:1072800002015059002841D0AD18AA88002A3DD0EB
:10729000AF7AFFB2012F39D11E4C1F4E201C18228D
:1072A0003360FFF745FF0198E080AB88C31A1BB23B
:1072B000002B0CDDAB8802999BB20193174B039A0C
:1072C0001F70174B1970174B1A70002300E03B1CFE
:1072D00002980F4F0501E9593068019AFFF7D4FB76
:1072E000002813D10199E388ED595B1AE3800E4B16
:1072F00025601A68A180002A04D01B6802980399AF
:10730000221C98473068019A1318336005B0F0BD0D
:1073100024340020C02D0020BC2D00208C2D002006
:10732000B92D0020DA2D0020D4340020F0B50F1C38
:107330009DB0141C412816D10BAD101C291C042231
:107340000023FFF7A1FB002800D01AE16B7807AA01
:1073500013708D4B1968002900D112E100201B68C1
:107360002856012117E0422817D10BAD101C291C0B
:1073700004220023FFF788FB002800D001E16B788E
:1073800007AA1370804B1968002900D1F9E000208A
:107390001B68285602219847F3E0432835D107ADF2
:1073A000101C291C0C220023FFF76EFB002800D0C4
:1073B000E7E0697A4AB2002A15DB744C1201A3187F
:1073C000D87201209872724B1888013080B21880F0
:1073D0001888002803D11888013080B218801B88D3
:1073E000A2189BB2D3800BAA0223117093806B88E2
:1073F0006968D380644B91601968002900D1C0E0AE
:1074000008201B6828560421C5E7442801D04B28D2
:1074100021D10BAD201C291C04220023FFF734FBD3
:10742000002800D0ADE0287807AA10706B78537060
:10743000002B07D1698843B2544C08391B0189B22B
:10744000E3181981504B1968002900D199E01B6895
:1074500040B205219FE74A2812D1101C0BA94422F3
:107460000023FFF711FB002800D08AE0494B1B994D
:107470001A68002A00D184E01B680BA8984780E0B6
:10748000462803D0482803D04D283FD1062600E0E7
:10749000092607AD0023201C291C1022FFF7F4FA4F
:1074A000031E6ED1EA890C20039228563749020147
:1074B00089180B738C46298902916A89059269881B
:1074C0006D680BAA5181D5606146CD880399A942A8
:1074D00013D102990BB2002B0ADDBB4208DA0599E1
:1074E000631802990091111C321CFFF7BFFE48E09F
:1074F000029B938000230B9326E0102F41D9191C87
:107500001A1C181C0123FFF7BFFA3AE0452803D0E4
:10751000472803D04C281ED1072600E008260BADD3
:10752000201C291C08220023FFF7AEFA002828D1CE
:1075300028786B8807AA40B2144CA98813800301ED
:10754000E318DB8899421CD10F4B1968002918D029
:107550001B68311C1FE7522813D10BAD101C291CCE
:1075600014220123FFF790FA00280AD10A4B696818
:1075700019601A68002A04D01B682868A9682A7C48
:1075800098471DB0F0BDC046D434002024340020FC
:10759000D82D0020DC340020D8340020F8B5264D4A
:1075A000EC88002C46D0254B00215956244E090169
:1075B0008A59002A3ED072189388002B3AD0131CA7
:1075C00008339B78DBB2012B34D19088201A00B2AB
:1075D000002806DD1B4F02233B7094880023A4B2D1
:1075E00002E0184F03223A70174F71583868221C76
:1075F000FFF74AFA002815D1104A00201056AC8037
:107600000301F658EB882E601B1BEB800F4B1A68AA
:10761000002A04D00E4A1B6811782A1C98473B6840
:10762000E4183C60074F3B78032B03D100233B70E9
:10763000FFF76EF8F8BDC046C02D0020B92D002020
:10764000243400208C2D0020BC2D0020D4340020B8
:10765000DA2D002038B5094D2C78E4B2002C0CD17D
:107660000748211CB022FFF76CFD02200549FFF7F7
:1076700053FA01232B70044B1C8038BDB82D002019
:10768000243400202D730000D82D0020024B1860F8
:10769000024B19607047C046D4340020DC3400200F
:1076A00070B5161C86B0FF2402283CD1012904D0F5
:1076B000022938D10B2307240BE00723002408E01C
:1076C0001A4A2501AD18A97AC9B2002904D001349B
:1076D000E4B29C42F4D325E01022281CFFF731FDD0
:1076E0000123AB72124B1A88013292B21A801A88A7
:1076F000002A03D11A88013292B21A801B88E4B2A0
:107700009BB2EB8001231E420DD0EB7205AA002331
:107710001470502100930193029302200423FFF779
:1077200051F800E0FF2460B206B070BD24340020A0
:10773000D82D002030B589B0002921D000281FDBCA
:10774000114D0301ED182B1C08339B78012B17D129
:10775000002A15D005AC20720822201CFFF7E8FC97
:10776000EB8802206381002300930193029341215F
:10777000221C0C23FFF726F8002802D0F72000E097
:10778000FA2040B209B030BD243400207FB5002873
:1077900019DB0F4A0301D3181A1C08329278012A08
:1077A00011D105AA10705170DB880220538000238C
:1077B00000930193029342210423FFF703F800286A
:1077C00002D0F72000E0FA2040B207B000BDC0466A
:1077D00024340020F0B58BB0071C0591161C109DB9
:1077E000002833DB002931D0AF23DB009A422DD8AB
:1077F000184A0301D31804939A7A0833012A25D131
:107800009B78002B22D006AC1022201C0021FFF711
:1078100098FC049A27706680D388A381002D05D038
:107820002B88A3806B886D68E380A560059B01961B
:1078300000934423029302201023C721221CFEF749
:10784000C1FF0023984202D0034B00E0034B18B263
:107850000BB0F0BD24340020F2FF0000FAFF00005E
:10786000F0B587B0002830DB00292ED0002A2CD0BC
:10787000184F05017C19A67AA446F6B20834012EE9
:1078800023D1E95161468A802179002291421DD19C
:107890002671E2784D21324200D14621002B01D1E0
:1078A00001235B4204AA107104937D19EB88002424
:1078B000D38002200094019402940823FEF782FFF3
:1078C000221CA04202D0044A00E0044A10B207B0D1
:1078D000F0BDC04624340020F2FF0000FAFF000093
:1078E000F0B587B0002824DB144E05017419A77A7F
:1078F000211CFFB20831012F1BD105AA1070E388AB
:10790000538000238B70E380C8784E21384200D129
:10791000492100930193029302200423FEF752FFB2
:10792000041E00D0F724701900211022FFF709FC73
:1079300000E0FA2460B207B0F0BDC0462434002055
:10794000F0B589B0002833DB002931D0002A2FD0D0
:10795000194C05016719A4463C1C0834A678F6B2F8
:107960000496012E24D1A678002E01D1002320E018
:107970006646A951BA802279002AF7D1049A227169
:10798000002B01D101235B4206AA107106936544C6
:10799000EB880024D38002200823009401940294F1
:1079A0004821FEF70FFF231CA04202D0034B00E04A
:1079B000034B18B209B0F0BD24340020F2FF0000E0
:1079C000FAFF00001FB5041CFFF7C3FBC3B2402B36
:1079D0000ED80021C0B2431C0091019102910220F7
:1079E000CA21221CFEF7EEFE002802D0F72000E09C
:1079F000FA2040B204B010BDF0B599B01EAC248896
:107A0000059400286ADB002B68D0364C0601A519C6
:107A1000A4462C1C0834A778FFB2012F5ED102299E
:107A200047D106285ADCE5783D4257D0012A08D1D3
:107A30001868E378002802D01943E17037E08B43DF
:107A40000BE0032A0BD11868E2781023002802D03B
:107A50001343E3702BE09A43131CE3703FE0022AC8
:107A60003CD1059A3F2A39D806AC20706644F2888A
:107A7000191C6280059A00260225079208A8402258
:107A80006570FFF755FB009601960296281C512160
:107A9000221C4823FEF796FE033008D1009601967B
:107AA0000296281CD121221C4823FEF78BFE0020C1
:107AB00015E01B6806AC627120710693EB8802200A
:107AC000E38000230093019302934F21221C08239B
:107AD000FEF778FE002802D0F72000E0FA2040B23E
