:1020000000800020C1880000A9880000A988000085
:1020100000000000000000000000000000000000C0
:10202000000000000000000000000000A98800007F
:102030000000000000000000A988000015890000D1
:10204000A9880000A9880000A9880000A9880000CC
:1020500079880000A9880000A9880000AD880000E8
:10206000A9880000A9880000A9880000A9880000AC
:10207000A9880000A9880000853B0000A98800000D
:10208000A9880000A9880000A9880000A98800008C
:1020900000000000A9880000A9880000A9880000AD
:1020A000A9880000A9880000A9880000A98800006C
:1020B00010B5064C2378002B07D1054B002B02D01E
:1020C000044800E000BF0123237010BDB8010020C8
:1020D000000000003C03010008B5084B002B03D0B2
:1020E0000748084900E000BF07480368002B03D0F9
:1020F000064B002B00D0984708BDC04600000000EA
:102100003C030100BC010020B401002000000000DD
:1021100090B583B000AF786039603B68002B01D187
:1021200000230FE07B681B6804331C683B68181CA5
:102130000AF0C9FB031C79683A68081C111C1A1CB8
:10214000A047031C181CBD4603B090BD80B500AF6E
:10215000054B1B68032B02D1044B1B8800E00023B6
:10216000181CBD4680BDC046DC01002016000020C2
:1021700080B500AF064B1B68032B05D1054B181C1F
:1021800002F06AFA031C00E00023181CBD4680BD63
:10219000DC0100209031002080B584B000AF2A4AD5
:1021A0002A4B101C191C06F0EDFE294B181C02F0DE
:1021B0005DFA031C244A101C191C06F0FDFE244B7A
:1021C000181C02F049FA031C3A1C101C191C06F0DA
:1021D00081FE1D4A1F4B101C191C06F0D3FE1A4A23
:1021E0003B1C101C191C06F0F1FE194B181C02F0C8
:1021F00055FA031CFB60144A174B101C191C06F0FF
:10220000C1FE114AFB68101C191C0A2206F00FFFC0
:102210000D4A124B101C191C06F0CEFEAF23DB003A
:10222000BB60094A0E4B101C191C06F0ABFE064A97
:10223000BB68101C191C0A2206F025FF0923181C74
:10224000BD4604B080BDC046043300208CF20000BF
:102250009031002094F20000A4F20000BCF20000D3
:10226000C4F2000080B582B000AF00237B60254B34
:10227000181C02F049FA031CFF3B5A425341DBB2DF
:10228000002B07D0204A214B101C191C06F094FE8D
:10229000012333E00DE0FA239B00181C06F080FBBD
:1022A0007B6801337B607B680A2B02D1184B0122CB
:1022B0001A70144A174B101C191C02F037F9031C32
:1022C000032B08D0124B1B7801225340DBB2002BAA
:1022D00001D0012300E00023002BDCD10C4B1B7844
:1022E000002B04D00C4B02221A60022306E00A4B9A
:1022F00003221A60094B01221A700923181CBD46DB
:1023000002B080BD9031002004330020E4F20000D0
:10231000E001002004000020DC010020000000207B
:1023200080B500AF184B1B88184A101C191C02F00E
:1023300043FB031C5A425341DBB2002B01D0032361
:102340001EE0134B1B88134A101C191C02F034FBAF
:10235000031C5A425341DBB2002B01D003230FE090
:102360000D4B1B880D4A101C191C02F025FB031C89
:102370005A425341DBB2002B01D0032300E0092372
:10238000181CBD4680BDC04614000020140D00205E
:10239000180000205423002016000020F401002023
:1023A00080B582B000AF786039607B68034A1A60FC
:1023B0007B68181CBD4602B080BDC046F8F3000023
:1023C00080B582B000AF786039607A683B68101CD5
:1023D000191CFFF7E5FF7B68054A1A607B683A68BD
:1023E00052685A607B68181CBD4602B080BDC0466A
:1023F000F0FF000080B582B000AF3A1C0E4B101CFD
:10240000191CFFF7DDFF0D4B1B880D493A1C081CFA
:10241000111C1A1C02F02CFC094A0A4B101C191C36
:10242000FFF776FE064B181C02F046FC0923181C29
:10243000BD4602B080BDC046E4010020E20100209C
:10244000140D002000F4000080B586B000AF786065
:1024500039603B1C17330A221A703A1C0C32284B85
:10246000101C191CFFF7ACFF264B1B8826493A1C91
:102470000C32081C111C1A1C02F0FAFB031C5A42F5
:102480005341DBB2002B1BD0204B1B699847031C28
:10249000002B06D01E4B1B7801225340DBB2002BD1
:1024A00001D0012300E00023002B05D1174B1B684E
:1024B000184A0120111C98473B1C17331B781AE05F
:1024C00011497A683B68081C111C1A1C02F068FC50
:1024D000021C3B68D31A5A1E9341DBB2002B05D075
:1024E0000D4A0E4B101C191C06F066FD064B181CFD
:1024F00002F0E2FB0923181CBD4606B080BDC046B1
:10250000EC0100201A000020F4010020CCF60000AD
:1025100000000020FCF200000433002028F300003B
:1025200080B584B000AF786039603A1C0832174B30
:10253000101C191CFFF744FF154B1B8815493A1C4A
:102540000832081C111C1A1C02F092FB11497A680F
:102550003B68081C111C1A1C02F022FC021C3B6880
:10256000D31A5A1E9341DBB2002B05D00A4A0B4BFB
:10257000101C191C06F020FD064B181C02F09CFBD9
:102580000923181CBD4604B080BDC046E4010020EC
:102590001A000020542300200433002028F30000F8
:1025A00080B5C4B000AF1020FF303B1800221A7075
:1025B000002384214900C9190B603C4B181C02F010
:1025C000EBFA031C84225200D2191360384B1B69AA
:1025D0009847031C022B06D9364B1B780122534027
:1025E000DBB2002B01D0012300E00023002B08D137
:1025F0002F4BDB68304984204000C019026803205B
:10260000984784214900C9190B68002B45DD284BE8
:102610001B699847031C022B06D9264B1B78012205
:102620005340DBB2002B01D0012300E00023002B3C
:1026300005D11F4B1B68214A0320111C98471B4AD8
:102640003B1D101C191CFF2202F08AFC031C7A1D82
:10265000FF321360781DFF300368002B1DD0791DF9
:10266000FF310B683B2B18D8154B88204000C01950
:10267000C218791DFF310B68D31800221A70114B54
:102680005B68391D781DFF300268081C111C9847D3
:102690001021FF317B1801221A701022FF32BB1863
:1026A0001B78181CBD4644B080BDC046F401002014
:1026B000CCF600000000002064F300007CF3000072
:1026C000F4FEFFFF38F6000080B588B000AF7860F8
:1026D0003960314B1B699847031C022B06D92F4BDD
:1026E0001B7801225340DBB2002B01D0012300E014
:1026F0000023002B06D1284BDB683A6802322849B8
:10270000032098473A1C1032264B101C191CFFF767
:1027100057FE254B1B8825493A1C1032081C111CFA
:102720001A1C02F0A5FA06F003F9031CFB603B1C1F
:102730000C33BB610023FB610BE0FB69BA69D31862
:102740001B781A4A101C191C02F014FBFB69013398
:10275000FB61FB69012BF0DD14497A683B68081CBA
:10276000111C1A1C02F01CFB021C3B68D31A5A1ED7
:102770009341DBB2002B05D00D4A0E4B101C191CE7
:1027800006F01AFC094B181C02F096FA0923181CD3
:10279000BD4608B080BDC046CCF600000000002059
:1027A00098F30000E4010020E2010020140D002055
:1027B0000433002028F3000080B584B000AF7860B7
:1027C00039603A1C0832174B101C191CFFF7F8FD32
:1027D000154B1B8815493A1C0832081C111C1A1C81
:1027E00002F046FA11497A683B68081C111C1A1C51
:1027F00002F0D6FA021C3B68D31A5A1E9341DBB290
:10280000002B05D00A4A0B4B101C191C06F0D4FBF8
:10281000064B181C02F050FA0923181CBD4604B0E0
:1028200080BDC046E4010020E2010020140D00201C
:102830000433002028F3000080B582B000AF044BC1
:102840001B687B607B68181CBD4602B080BDC0461B
:10285000DC01002080B584B002AF786039607B680D
:10286000012B2ED13A68184B9A422AD1174B0022DD
:102870000092181C00210022002306F01DFB144BBF
:1028800000220092181C00210022002306F014FBF5
:10289000104BFF220092181C0A2119220F2306F068
:1028A0000BFB0D4B181C02F051F80C4B181C02F0DE
:1028B0004DF80B4B181C02F049F80A4B181C02F09B
:1028C00045F8BD4602B080BDFFFF0000D4010020E6
:1028D000E4010020EC010020F4010020140D002090
:1028E000341800205423002080B500AF034B012092
:1028F000191CFFF7AFFFBD4680BDC046FFFF0000BB
:1029000080B582B000AF0720002106F01DFA264BEB
:102910001B78264A101C191C01F04EFB224B1B7819
:10292000224A101C191C01F061FB031C1A1C204BCD
:102930001A801D4B1B781D4A101C191C01F056FBF8
:10294000031C1A1C1B4B1A800720012106F0FCF9FE
:10295000174B1B881A04174B1B8813431A1C164B62
:102960001A60164B5B78DBB20133D9B2FB1D7F22B4
:102970000A401A70114B1B78DBB2FA1D1278D31A79
:102980005A1E9341DBB2002B0BD0FB1D18780A4B6B
:102990001A680A498300CB185A60084BFA1D12784E
:1029A0005A70BD4602B080BD7830002068310020EA
:1029B0007A3000207C30002080300020742E0020EF
:1029C00080B500AF054B00221A70044B00225A70EC
:1029D000034B00221A70BD4680BDC046742E0020F5
:1029E0001C00002080B586B000AF72B66D4B1B781E
:1029F000DAB26C4B5B78DBB29A420FD0694B1B7832
:102A0000DBB20133DAB27F231340DBB2654A191C13
:102A10001170644A9B00D3185B6800E000237B6060
:102A200062B6B8E07A6880235B01134000D196E07B
:102A30005D4B1B6A3A1D101C042198475B4B1B78A9
:102A4000002B00D18BE07B68DB05DB0D7B617B68B5
:102A50005B0A1A1C012313403B617B689B0A1A1C0A
:102A600001231340FB607B685B0BBB60504B1B6911
:102A70009847031C022B06D94C4B1B78012253406C
:102A8000DBB2002B01D0012300E00023002B05D195
:102A9000474BDB6847497A6903209847444B1B69D9
:102AA0009847031C022B06D9404B1B780122534048
:102AB000DBB2002B01D0012300E00023002B05D165
:102AC0003B4BDB683C49FA6803209847384B1B694D
:102AD0009847031C022B06D9344B1B780122534024
:102AE000DBB2002B01D0012300E00023002B05D135
:102AF0002F4BDB6831493A69032098472C4B1B69FF
:102B00009847031C022B06D9284B1B7801225340FF
:102B1000DBB2002B01D0012300E00023002B05D104
:102B2000234BDB682649BA6803209847204B1B6972
:102B30009847031C022B06D91C4B1B7801225340DB
:102B4000DBB2002B01D0012300E00023002B06D1D3
:102B5000174B1B681B4A0320111C9847FFE772B6EE
:102B6000104B1B78DAB20F4B5B78DBB29A420FD076
:102B70000C4B1B78DBB20133DAB27F231340DBB29C
:102B8000084A191C1170074A9B00D3185B6800E0C3
:102B900000237B6062B67B68002B00D042E7BD4615
:102BA00006B080BD742E0020C0F300001C00002081
:102BB000CCF600003CF4000044F4000050F40000A7
:102BC00060F4000070F4000080B500AF0B4B0022F1
:102BD0001A600A4B00225A60084B00229A60084B88
:102BE00000221A60054B00221A60044B00225A6032
:102BF000024B00229A60BD4680BDC046CC3000200A
:102C0000C830002080B582B000AFFB1D07221A70CB
:102C1000FFF7DAFFFB1D08221A70044B01221A701D
:102C2000FB1D1B78181CBD4602B080BD1D00002096
:102C300090B589B000AF786039603B1C1F33072224
:102C40001A705E4B1B699847031C022B06D95C4B1C
:102C50001B7801225340DBB2002B01D0012300E09E
:102C60000023002B05D1554B1B68564A0320111C2D
:102C70009847391C0C317A683B68081C111C1A1CD7
:102C800005F022F9391C0C314F4A504B081C111C1D
:102C90001A1C05F00FFC031C1A1C4D4B1A704C4BF0
:102CA0001B78002B00D169E0444B1B699847031C3B
:102CB000022B06D9424B1B7801225340DBB2002B7A
:102CC00001D0012300E00023002B05D13B4B1B6802
:102CD000404A0320111C9847384B1B699847031C36
:102CE000022B06D9364B1B7801225340DBB2002B56
:102CF00001D0012300E00023002B08D12F4BDC681A
:102D0000324B1B68344A0320111C1A1CA0472B4B62
:102D10001B699847031C022B06D9294B1B780122FB
:102D20005340DBB2002B01D0012300E00023002B35
:102D300008D1224BDC68254B5B68284A0320111C14
:102D40001A1CA0471D4B1B699847031C022B06D970
:102D50001B4B1B7801225340DBB2002B01D0012317
:102D600000E00023002B21D1144BDC68174B9B683B
:102D70001B4A0320111C1A1CA04717E00F4B1B69AC
:102D80009847031C012B06D90D4B1B780122534099
:102D9000DBB2002B01D0012300E00023002B05D182
:102DA000064B1B680F4A0220111C98473B1C1F331F
:102DB0001B78181CBD4609B090BDC046CCF600007B
:102DC0001D000020A8F40000A0FE0000CC30002070
:102DD000D8300020C4F40000E4F40000F4F4000053
:102DE00010F500002CF5000080B59C4FBD4400AFED
:102DF00078600A1C9A4B8C208000C019C3181A8076
:102E000098497B1807221A70974B1B699847031C37
:102E1000032B06D9954B1B7801225340DBB2002BC4
:102E200001D0012300E00023002B05D18E4B1B684D
:102E30008F4A0420111C98478B4B1B699847031C31
:102E4000032B06D9894B1B7801225340DBB2002BA0
:102E500001D0012300E00023002B05D1824BDB6869
:102E60007A688449042098477F4B1B699847031C64
:102E7000032B06D97D4B1B7801225340DBB2002B7C
:102E800001D0012300E00023002B0AD1764BDB6840
:102E9000734A8C208000C019821812887649042059
:102EA0009847764B8C218900C919CB181A1C8023AE
:102EB0009B00101C00211A1C09F010FC83229200B8
:102EC000B9183A1C0C3280239B00081C111C1A1CD8
:102ED00004F01EFB882080003B187A681A60604B63
:102EE0008C218900C919CB181A88882080003B18CA
:102EF0005A6083229200B918614A882080003B18EA
:102F0000081C111C1A1C04F059FD031C1A1C5D4BF3
:102F10001A70832189007B18DB688A229200D219FB
:102F20001360514B1B699847031C032B06D94F4B69
:102F30001B7801225340DBB2002B01D0012300E0BB
:102F40000023002B08D1484BDB688A208000C01981
:102F500002684D49042098474A4B1B780122534090
:102F6000DBB2002B25D0404B1B6998473F4B1B78A9
:102F700001225340DBB2002B01D0012300E00023EB
:102F8000002B05D1384B1B68404A0020111C984784
:102F9000832189007B181B69002B04D083229200B7
:102FA000BB181B6900E03A4B3A4A101C191C06F08A
:102FB00003F8394B9B69391C0C318A208000C019F9
:102FC0000268081C111C9847021C26497B181A70BD
:102FD000244ABB181B780A2B1CD0234B1B6998472B
:102FE000031C022B06D9214B1B7801225340DBB274
:102FF000002B01D0012300E00023002B05D11A4B48
:103000001B68264A0320111C984716483B180822C3
:103010001A7018E0144B1B699847144B1B78012257
:103020005340DBB2002B01D0012300E00023002B32
:1030300005D10D4B1B681A4A0020111C98470949FD
:103040007B1807221A70FFF7BFFD064ABB181B78D2
:10305000181CBD468C239B009D4480BDD0FDFFFF06
:10306000D2FDFFFF2F020000CCF600001D00002063
:103070003CF500005CF500007CF50000DCFDFFFF86
:10308000C8FE0000D8300020A0F50000C0F5000008
:10309000D4F5000004330020C0F30000DCF500008C
:1030A00010F6000080B55F4FBD4400AF78605E4809
:1030B0003B1807221A705D4B1B699847031C022BB3
:1030C00006D95B4B1B7801225340DBB2002B01D0A9
:1030D000012300E00023002B05D1544B1B68554A07
:1030E0000320111C9847544B8A218900C919CB1819
:1030F0001A1C80239B00101C00211A1C09F0EEFAF8
:1031000083229200B9183A1C0C3280239B00081CC1
:10311000111C1A1C04F0FCF9484A7B68101C191C8D
:103120003C2209F0D7FB83239B00F918444A434B08
:10313000081C111C1A1C04F041FC031C1A1C414BF6
:103140001A70832080003B18DB6888218900C91928
:103150000B603C4B1B7801225340DBB2002B25D087
:10316000324B1B699847324B1B7801225340DBB22C
:10317000002B01D0012300E00023002B05D12B4BB5
:103180001B68314A0020111C984783229200BB180B
:103190001B69002B04D0832080003B181B6900E0D2
:1031A0002A4B2B4A101C191C05F006FF294BDB6922
:1031B000391C0C3188208000C0190268081C111CC1
:1031C0009847021C18497B181A70174ABB181B78BD
:1031D0000A2B1BD0154B1B699847031C032B06D9E0
:1031E000134B1B7801225340DBB2002B01D001238B
:1031F00000E00023002B05D10C4B1B68164A04206D
:10320000111C984708483B1808221A70FFF7DCFC8D
:1032100005497B181B78181CBD468A239B009D44DA
:1032200080BDC046D8FDFFFF27020000CCF600009D
:103230001D00002020F60000E4FDFFFF8C30002080
:103240008CFE0000D8300020C0F50000D4F500004E
:1032500004330020C0F30000DCF5000080B584B02A
:1032600002AF786039607B68012B0CD13A68074B5C
:103270009A4208D1064B00220092181C002100221D
:10328000002305F019FEBD4602B080BDFFFF00001F
:103290008430002080B500AF034B0120191CFFF7DC
:1032A000DDFFBD4680BDC046FFFF000080B500AF1A
:1032B000074A084B101C191C05F064FE064B1B68DE
:1032C0005B68034A101C191C05F076FEBD4680BDE4
:1032D00004330020B0F60000DC30002080B500AFE1
:1032E000044B1B685B68044A101C191C05F064FE43
:1032F000BD4680BDDC3000200433002080B582B0A4
:1033000000AF021CFB1D1A70034BFA1D12781A70D5
:10331000BD4602B080BDC0464000002080B582B0EE
:1033200000AF021CFB1D1A70FB1D1B78012B02D085
:10333000022B05D009E0064B1B68064ADA6004E060
:10334000034B1B68044ADA60C046BD4602B080BD2C
:10335000DC300020DD320000AD32000080B584B0EA
:1033600000AF78600A1CFB1C1A70102009F080F96D
:10337000031CFB60FB68002B29D07B68181C09F03C
:10338000A2FA031C5A1CFB681A60FB68FA1C12782C
:103390001A72FB681B68181C09F06AF9031C1A1CD6
:1033A000FB685A60FB685B68002B0AD0FB685968B1
:1033B000FB681B687A68081C111C1A1C09F08AFA41
:1033C00005E0FB68181C09F05DF90023FB60FB6851
:1033D000181CBD4604B080BD80B500AF074B1B680C
:1033E0005B68181C09F04EF9044B1B68181C09F0A7
:1033F00049F9024B00221A60BD4680BDDC30002036
:10340000F0B5474680B486B000AFF86068468046A5
:103410003A48006800687861844601229444614615
:1034200000239C4662464C0FA446D3007B60644652
:103430007B681C437C60CC00021C0132131C002200
:10344000141C5A0FE6001643DD00031C013307333A
:10345000DB08DB006A46D21A95466B4600333B61B7
:103460003969264B1B685A68244B1B681B6801335B
:10347000081C111C1A1C09F02DFA204B1C681F4B4C
:103480001B685B68181C09F01EFA051CFB68181CF9
:1034900009F019FA031CEB1801332360174B1B6862
:1034A0005B68181C09F0EEF8144B1C68134B1B6882
:1034B0001B68181C09F0DCF8031C63600F4B1B68C9
:1034C0005B68002B14D00D4B1B685B6800221A70E0
:1034D0000A4B1B685A683B69101C191C09F0E6F975
:1034E000064B1B685A68FB68101C191C09F0DEF9B2
:1034F000C546BD4606B004BC9046F0BDDC30002099
:1035000080B500AF024B1B78181CBD4680BDC0467D
:1035100040000020F0B5474680B490B000AF021CD8
:10352000B9613B1C1F331A706B46984605F006FACA
:10353000061C3B1C2433374A181C1421331C09F089
:1035400083F9BB69181C09F0BEF9031CFB631A1C44
:1035500001323A6100227A6139694A0F7969C900FA
:10356000F960F9681143F9603A69D2001A1C013216
:10357000141C0022151C620FE90079607968114360
:103580007960E20001330733DB08DB006946C91AC2
:103590008D466B460033BB63BC6BBB69181C09F0DE
:1035A00092F9031C0133BA69201C111C1A1C09F082
:1035B00091F93B1C2433181C0221FFF7CFFE021C9B
:1035C000154B1A60154B181CFFF71AFF3B1C1F33D5
:1035D0001A78134B9200D358181CFFF711FF0F4BAA
:1035E000181CFFF70DFFBB6B181CFFF709FF0B4BF7
:1035F000181CFFF705FF0120FFF790FE064B1B6824
:10360000DB689847FFF7E8FEC546BD4610B004BC2E
:103610009046F0BDBCF60000DC300020C0F6000093
:1036200020000020F0B5474680B496B000AF396264
:10363000FA613B1C2733021C1A706B46984605F052
:103640007DF9061C3B1C3C333D4A181C1421331CDD
:1036500009F0FAF83B6A181C09F035F9031C7B6580
:103660001A1C01323A6100227A6139694A0F79697C
:10367000C900F960F9681143F9603A69D2001A1C6F
:103680000132141C0022151C620FE9007960796870
:1036900011437960E20001330733DB08DB00694640
:1036A000C91A8D466B4600333B653C6D3B6A181C5E
:1036B00009F009F9031C01333A6A201C111C1A1C79
:1036C00009F008F9391C28311D4AFB69081C14212E
:1036D00009F0BAF83B1C3C33181C0221FFF73EFEF0
:1036E000021C184B1A60184B181CFFF789FE3B1C74
:1036F00027331A78154B9200D358181CFFF780FE19
:10370000114B181CFFF77CFE3B6D181CFFF778FE71
:103710000D4B181CFFF774FE3B1C2833181CFFF7D9
:103720006FFE0120FFF7FAFD064B1B68DB68984728
:10373000FFF752FEC546BD4616B004BC9046F0BD2C
:10374000BCF60000DC300020C0F6000020000020A5
:10375000F0B5474680B496B000AF3962FA613B1CC1
:103760002733021C1A706B46984605F0E7F8061CD2
:103770003B1C3C333D4A181C1421331C09F064F8EF
:103780003B6A181C09F09FF8031C7B651A1C013268
:103790003A6100227A6139694A0F7969C900F96092
:1037A000F9681143F9603A69D2001A1C0132141CFD
:1037B0000022151C620FE900796079681143796075
:1037C000E20001330733DB08DB006946C91A8D4686
:1037D0006B4600333B653C6D3B6A181C09F073F87F
:1037E000031C01333A6A201C111C1A1C09F072F8E0
:1037F000391C28311E4AFB69081C142109F024F8E1
:103800003B1C3C33181C0221FFF7A8FD021C194B7E
:103810001A60194B181CFFF7F3FD3B1C27331A786D
:10382000164B9200D358181CFFF7EAFD124B181CD8
:10383000FFF7E6FD3B6D181CFFF7E2FD0E4B181C71
:10384000FFF7DEFD3B1C2833181CFFF7D9FD0120D4
:10385000FFF764FD074B1B68DB689847FFF7BCFD6B
:10386000C546BD4616B004BC9046F0BDBCF600008F
:10387000C4F60000DC300020C0F60000200000206C
:10388000F0B5474680B498B002AF3962FA613B1C8C
:103890002733021C1A706B46984605F04FF8061C39
:1038A0003B1C3C33404A181C1421331C08F0CCFF4D
:1038B0003B6A181C09F007F8031C7B651A1C0132CF
:1038C0003A6100227A6139694A0F7969C900F96061
:1038D000F9681143F9603A69D2001A1C0132141CCC
:1038E0000022151C620FE900796079681143796044
:1038F000E20001330733DB08DB006946C91A8D4655
:1039000002AB00333B653C6D3B6A181C08F0DBFFE3
:10391000031C01333A6A201C111C1A1C08F0DAFF40
:10392000F86908F0DFFD031C0C1C391C28311F4A04
:1039300000930194081C142108F086FF3B1C3C33C3
:10394000181C0221FFF70AFD021C194B1A60194BC3
:10395000181CFFF755FD3B1C27331A78164B9200B5
:10396000D358181CFFF74CFD124B181CFFF748FDED
:103970003B6D181CFFF744FD0E4B181CFFF740FD74
:103980003B1C2833181CFFF73BFD0120FFF7C6FC4A
:10399000074B1B68DB689847FFF71EFDC546BD4611
:1039A00016B004BC9046F0BDBCF60000C8F600009E
:1039B000DC300020C0F600002000002080B500AF01
:1039C000BD4680BDB0B500AF0FE00D4B9C680D4B00
:1039D0005B689847051C0B4B1B689847031C281C09
:1039E000191CA047642004F0DBFF064B9B6A984734
:1039F000031C01225340DBB2002BE6D1BD46B0BD13
:103A000038F60000C0F3000080B500AFFA239B0039
:103A1000181C04F0C5FF254BDB689847031C093BC5
:103A20005A1E9341DBB2002B06D0214A214B101CB9
:103A3000191C05F0C1FA02E01C4B9B6898471B4B10
:103A40001B699847031C093B5A1E9341DBB2002BAC
:103A500005D0174A184B101C191C05F0ADFA174B6E
:103A60001B689847031C083B5A1E9341DBB2002B8E
:103A700005D00F4A124B101C191C05F09DFA0020AE
:103A8000002105F001F90720012105F0FDF80D4B9B
:103A9000181C00F073F90B4B181C012100F070FA90
:103AA000094B5B689847BD4680BDC046C0F3000027
:103AB00004330020E8F6000008F7000038F60000A4
:103AC00030F70000683100209CF4000080B500AFA2
:103AD000044B1B680020191C012204F031FEBD4676
:103AE00080BDC0469CF4000080B500AF05F02CF806
:103AF00008F098FDFFF762FF012004F051FF0A4B28
:103B0000181C06F031F8084B181C06F08DF8FFF76A
:103B10007BFFFFF7DBFF054B01221A70FFF752FF17
:103B2000034B9B689847F9E7CB3700204100002002
:103B30009CF4000080B584B002AF786039607B6887
:103B4000012B0CD13A68074B9A4208D1064B002250
:103B50000092181C00210022002305F0ADF9BD469B
:103B600002B080BDFFFF0000E030002080B500AF54
:103B7000034B0120191CFFF7DDFFBD4680BDC04689
:103B8000FFFF000080B500AF024B181C05F0A6FC3B
:103B9000BD4680BD0031002080B584B002AF7860A2
:103BA00039607B68012B33D13A681B4B9A422FD185
:103BB0001A4A1B4B101C191C05F0ACFA194A1A4B77
:103BC000101C191C05F0A6FA184A194B101C191CD8
:103BD00005F0A0FA174A184B101C191C05F09AFAA8
:103BE000164A174B101C191C05F094FA154A164B6F
:103BF000101C191C05F08EFA144A124B0321009177
:103C000001210191101C191C0D220E2305F042FC0C
:103C1000BD4602B080BDC046FFFF0000E830002076
:103C200000080042EC300020000C0042F030002080
:103C300000100042F430002000140042F830002050
:103C400000180042FC300020001C0042003100201F
:103C500080B500AF034B0120191CFFF79DFFBD4647
:103C600080BDC046FFFF000080B586B000AF786021
:103C70007B687B61204B3B613B1C0F3301221A7038
:103C80003B1C0E3302221A703B691C4A934200D936
:103C90001A4B7A6913603B1C0F331B78013B5A1E89
:103CA0009341DBB21A1C7B695A713B1C0E331B78A3
:103CB000012B14D002DC002B09D014E0022B02D01F
:103CC000032B08D00FE07B6900221A710EE07B699C
:103CD00001221A710AE07B6902221A7106E07B69EF
:103CE00003221A7102E07B6900221A717B68181C9A
:103CF000BD4606B080BDC04600093D00001BB700B0
:103D000080B584B000AFF860B960111C1A1CFB1DAF
:103D10001970BB1D1A70FB6800225A72BB68002B19
:103D200006D11349134A144B081C222108F04AFCFF
:103D3000FB68BA681A60FB68FA1D12781A71FB6892
:103D4000BA1D12789A71FB683A1C183212785A71AF
:103D5000FB683A1C1C321278DA71FB683A1C20327C
:103D600012781A72FB68181CBD4604B080BDC046AC
:103D7000B4FA0000DCFA0000C8FA000080B582B096
:103D800000AF78607B68181C00F048F87B681B79EE
:103D9000191C7B681B791A1C1E48131C5B009B189E
:103DA000DB00C31808331B785BB2081C191C04F035
:103DB000FBFF7B689B79191C7B689B791A1C154853
:103DC000131C5B009B18DB00C31808331B785BB225
:103DD000081C191C04F0E8FF7B685B79191C7B68E0
:103DE0005B791A1C0B48131C5B009B18DB00C31883
:103DF00008331B785BB2081C191C04F0D5FF7A68E5
:103E0000054B101C19685A6800F020F8BD4602B036
:103E100080BDC04654F700006031002080B582B0FC
:103E200000AF78607B685B7A002B00D00BE07B688A
:103E300000229A727B680022DA727B680022DA60C4
:103E40007B6801225A72BD4602B080BD80B586B043
:103E500002AFF8603B1D19605A60FB681B68181CB4
:103E600005F0F8F9FB681968FB68DA79FB681B7ADA
:103E7000381D40790090081C111C1A1C002305F005
:103E8000B9FAFB6819683B1D1A793B1D1B68081CB1
:103E9000111C1A1C05F0AEF9FB681B68181C05F014
:103EA000CFF9BD4604B080BD80B582B000AF786068
:103EB0007B681B68181C05F0B5F97B6800225A72F4
:103EC000BD4602B080BDC04680B586B000AFF86088
:103ED0003B1D19605A60FB689B7A002B1DD0FB6864
:103EE0009B7A1A1C022313400BD0EFF310837B61E3
:103EF0007B695A425341DBB21A1CFB68DA7272B614
:103F00000BE0FB689B7A1A1C0123134005D0084B79
:103F1000FA68D2689203920B9A60FA683B1D101CF3
:103F200019685A68FFF792FFBD4606B080BDC046CB
:103F30000018004080B582B000AF78607B689B7A43
:103F4000002B17D07B689B7A1A1C0223134005D0E4
:103F50007B68DB7A002B0DD062B60BE07B689B7A26
:103F60001A1C0123134005D0044B7A68D2689203CF
:103F7000920BDA60BD4602B080BDC046001800401A
:103F800080B582B000AF78600A1CFB1C1A70FB1C65
:103F90001B78002B06D17B681B68181C012105F0DB
:103FA00063F905E07B681B68181C002105F05CF9CB
:103FB000BD4602B080BDC04680B582B000AF78601B
:103FC0000A1CFB1C1A707B681A68FB1C1B78101CEF
:103FD000191C05F062F97B681B68181C05F070F964
:103FE000031CDBB2181CBD4602B080BD80B584B096
:103FF00000AF78600A1CBB1C1A803B1C0C33BA1C37
:1040000012881A807B681B68181C05F041F9031C94
:10401000013B5A425341DBB2002B1AD03B1C0C33FC
:104020001B787A68101C191CFFF7C6FF031C1A1CAA
:104030003B1C0C331A703B1C0C335B787A68101CE9
:10404000191CFFF7B9FF031C1A1C3B1C0C335A70D8
:1040500019E03B1C0C335B787A68101C191CFFF7C5
:10406000ABFF031C1A1C3B1C0C335A703B1C0C335B
:104070001B787A68101C191CFFF79EFF031C1A1C82
:104080003B1C0C331A703B1C0C331B88181CBD46A0
:1040900004B080BD80B586B004AF786039607B68BD
:1040A000012B23D13A68134B9A421FD1124B181C93
:1040B000FFF7DAFD114A124B08210091002101910E
:1040C00003210291101C191C0A220923FFF718FE74
:1040D0000C4A0D4B1A2100910021019103210291FC
:1040E000101C191C1D221B23FFF70AFEBD4602B03F
:1040F00080BDC046FFFF0000603100206831002015
:10410000EC30002078310020F030002080B500AF86
:10411000034B0120191CFFF7BDFFBD4680BDC04603
:10412000FFFF000080B582B000AF78607B685B68FD
:10413000181CBD4602B080BD90B58FB002AF021C06
:104140003960FB1D1A70FB1D1B78043B2E2B00D918
:1041500034E19A009B4BD3181B689F463B687B62F7
:104160007B6A1B78012B17D1974B1B7E012B0BD140
:10417000954BDB68002B07D1934B03225A76042022
:10418000002101F04EFC4EE08F4B1B7E032B4AD1E9
:104190008D4B08225A7646E07B6A1B78002B42D171
:1041A000894B1B7E012B2FD1874B06225A76864BDB
:1041B000DB68002B08D0844B00221A60824B00225F
:1041C0005A60814B00229A600023FB6218E07E4B0C
:1041D000FA6A18329200D358002B0ED07A4BFA6A42
:1041E00018329200D3581B6824331B68764AF96A48
:1041F000183189008A58101C9847FB6A0133FB620A
:10420000FB6A062BE3DD06E06F4B1B7E032B02D11E
:104210006D4B07225A760420012101F002FC012097
:10422000012101F0FEFBCAE0674B1B7E012B18D178
:104230003B683B623B6A1A68634B1A603B6ADA6808
:10424000614B5A603B6A5A685F4B9A605E4B03222F
:104250005A760420002101F0E4FB0120002101F046
:10426000E0FBACE03B681B785AB2574B1A61A6E002
:104270003B68FB61FA696323D35C002B2FD1534B5E
:10428000181C0021212208F029FAFC69FB69181C7E
:1042900008F019FB031C4D4A101C211C1A1C08F0C5
:1042A000FBF9494B01221A76474B00221A60464B14
:1042B00000225A60444B00229A60FC69FB69181C7A
:1042C00008F001FB031CD9B2FA696223D25CFB69D6
:1042D0002133FF200090201C01F030FD6FE03A4BAD
:1042E00004225A766BE03B68BB61BB691B78002BEC
:1042F00002D0354B02225A7661E03B687B617B69D4
:104300000A33181C08F0DFFA021C3B1C12331A8017
:104310002F4B181C0021212208F0E0F93B1C12331E
:104320001B88002B0BD07B691A1C0A323B1C1233F2
:104330001B882749081C111C1A1C08F0ADF97B6961
:104340005B785AB2204B1A617B6999781E4A3B23ED
:10435000D1541D4B02225A7631E03B68FB601A4B68
:104360005B69002B18D00023BB620FE0164B5A6923
:10437000BB6AD318BA6A0521891AF8682022411845
:104380008A1892791A70BB6A0133BB62BB6A052B2B
:10439000ECDD0D4B00225A6111E00B4B1B69002B29
:1043A0000BD0094B1B691A1C3B68101C191C0822F6
:1043B00008F072F9044B00221A6100E0C046BD46C5
:1043C0000DB090BD30FB000090310020CC310020BA
:1043D000AA31002080B582B000AF78603960034B0D
:1043E0003A681A61BD4602B080BDC04690310020D7
:1043F00080B582B000AF78607B6800221A767B6857
:10440000FF225A767B680022DA677B68181CBD465B
:1044100002B080BD90B58BB000AF786002F048FA72
:104420003B1C0C333E4A1A603C1C27343B1C0C33AB
:10443000181C01F0B9FB031C23703B1C27331B78AD
:104440005BB2002B0CD00620002101F0EAFA032019
:10445000012101F0D2FA3B1C27331B785BB25BE0F1
:1044600002F06AFC02F0B2FE2E4A2F4B101C191CFF
:1044700002F07EFC7B680122DA677B6800225A76B4
:104480007B6800221A607B6800225A607B680022E9
:104490009A607B680122DA607B6800221A617B687F
:1044A0001A1C60321C23101C00211A1C08F016F97B
:1044B0000420012101F0B5FA0520012101F0B1FA33
:1044C0000620012101F0ADFA0420012101F095FA46
:1044D0000520012101F091FA0620012101F08DFA59
:1044E0000120012101F09DFA0220012101F099FA39
:1044F0000320012101F095FA0120012101F07DFA4C
:104500000220012101F079FA0320012101F075FA5E
:104510003B1C27331B785BB2181CBD460BB090BD0B
:104520003941000011720000D543000080B582B00F
:1045300000AF786039607A683B68101C191C012252
:10454000002300F005F8031C181CBD4602B080BD16
:1045500090B589B002AFF860B9603B60FB1D1A707E
:10456000FB68DB6F002B03D1FB68181CFFF752FFC1
:10457000FB68DB68002B08D0FB6800221A60FB6830
:1045800000225A60FB6800229A60BB68181C08F081
:104590009AF9031CD9B2B868FB1D1A783B68FF244E
:1045A000009401F0CBFB031CDBB2DB09DBB2002B78
:1045B00005D0FB6804225A76FB685B7E46E0FB6808
:1045C00000225A76FB6801221A7604F0B1F9031C26
:1045D0007B6102E0002001F017FBFB685B7E1A1C88
:1045E000032313400FD1FB685B7E1A1C0623134084
:1045F00009D104F09DF9021C7B69D21A154B9A422D
:1046000001D8012300E00023002BE3D1FB685B7E8F
:104610001A1C0323134002D1FB6800221A76FB68A0
:104620003C33181C0021212208F058F8FB681C1CA0
:104630003C34BB68181C08F046F9031CBA68201CFF
:10464000111C1A1C08F028F8FB685B7E181CBD467C
:1046500007B090BD5FEA000080B582B000AF78601F
:104660007B681B68181CBD4602B080BD80B582B057
:1046700000AF78607B685B7E032B07D07B685B7E36
:10468000072B03D07B685B7E082B02D17B683C3311
:1046900000E00023181CBD4602B080BD80B584B088
:1046A00000AF7860002001F0AFFA7B6800221A6149
:1046B00001F04DFB031CDBB2DB09DBB2002B01D0A8
:1046C00000231AE004F034F9031CFB6002E0002030
:1046D00001F09AFA7B681B69002B09D104F028F9D4
:1046E000021CFB68D21A074B9A4201D8012300E052
:1046F0000023002BEBD17B681B69181CBD4604B05E
:1047000080BDC046E703000080B582B000AF78608E
:104710007B68DB6F002B03D17B68181CFFF77AFEE8
:10472000002001F071FA7B685B7E181CBD4602B068
:1047300080BDC04680B586B000AFF860B9607A60D1
:104740007A68BB68101C191C04F0CCFB031C002BFE
:1047500001D0012350E00520002101F062F9022080
:10476000002101F05EF9FB6800221A61BB68181C89
:1047700002F09AFC031CDBB2DB09DBB2002B09D090
:104780000520012101F04DF90220012101F049F934
:10479000002331E004F0CCF8031C7B6102E0002030
:1047A00001F032FAFB681B69002B09D104F0C0F854
:1047B000021C7B69D21A124B9A4201D8012300E0F5
:1047C0000023002BEBD10520012101F02AF9022062
:1047D000012101F026F9FB681B69002B01D10023A0
:1047E0000AE0FB681B697A68101C191C04F0A0FB26
:1047F000FB6800221A610123181CBD4606B080BD6B
:104800001F4E000080B584B002AF786039607B68CD
:10481000012B10D13A68094B9A420CD1084B002267
:104820000092181C00210022002304F045FB054BD8
:10483000181CFFF7DDFDBD4602B080BDFFFF000084
:10484000883100209031002080B500AF034B01205B
:10485000191CFFF7D7FFBD4680BDC046FFFF000013
:1048600080B584B002AF786039607B68012B0CD1D1
:104870003A68074B9A4208D1064B00220092181C56
:1048800000210022002304F017FBBD4602B080BDCA
:10489000FFFF00001C32002080B500AF034B012059
:1048A000191CFFF7DDFFBD4680BDC046FFFF0000BD
:1048B00080B582B000AF78607B68054A1A607B687B
:1048C00000225A607B68181CBD4602B080BDC046FD
:1048D0000000010080B582B000AF78607B68181CD2
:1048E000FFF7E6FF7B68054A1A607B68FA229200B0
:1048F0009A607B68181CBD4602B080BD90FC000029
:1049000080B584B000AFF860B9607A60FB681B685E
:1049100030331B68F868B9687A689847031C181C1C
:10492000BD4604B080BDC04680B582B000AF78609F
:104930007B68181CFFF7CEFF7B68034A1A607B6810
:10494000181CBD4602B080BD48FC000080B582B096
:1049500000AF78607B68181CFFF7E6FF7B68124A9F
:104960001A607B68FF221A747B6800225A617B6898
:1049700000229A617B680022DA617A68B323DB0047
:104980000021D1527A68094B0021D1527A68084B34
:104990000021D1507A68074B0021D1527B68181C46
:1049A000BD4602B080BDC046F8FB00009A0500007D
:1049B0009C050000180B000090B58BB002AF78602A
:1049C0000A1CBB1C1A800023BB607B6800225A6152
:1049D0007B6800229A617B680022DA617A68B323DF
:1049E000DB000021D1527A684F4B0021D1527A6806
:1049F0004E4B0021D1507A684D4B0021D1523B1CC7
:104A00000C3302221A80BB1C1B881B029AB2BB1CEF
:104A10001B881B129BB213439BB29AB23B1C0C33F4
:104A20005A803B1C0C3300225A60022002210022D3
:104A300002F0A8F9031C1A1C7B681A747B681B7CA3
:104A4000DB09DBB2002B01D0002369E07B68187C16
:104A50007B68191C14317B681A1C18327B681C3364
:104A60007C68203440B2009402F0BAFB7B681B7C67
:104A70005AB23B1C083300210091101C0121002276
:104A800002F02CFB7B681B7C5AB23B1C0C33101CC5
:104A9000191C102202F0C0F9031CDBB2DB09DBB2E7
:104AA000002B0AD07B681B7C5BB2181C02F08AFAD0
:104AB0007B68FF221A74002332E003F039FF031CE5
:104AC000FB6102E0002001F09FF87B685A69042333
:104AD000134009D103F02CFF021CFB69D21A154BBD
:104AE0009A4201D8012300E00023002BEAD17B6821
:104AF0005A69042313400AD17B681B7C5BB2181CE3
:104B000002F060FA7B68FF221A74002308E07B68D9
:104B10005B690422191C91430A1C7B685A610123BA
:104B2000181CBD4609B090BD9A0500009C05000008
:104B3000180B0000CF07000080B588B002AFF86006
:104B4000B960BB1D1A80BB68181CFFF7EBFA031C89
:104B50007B61FB681B6818331B68F968BA1D1288F3
:104B6000081C111C9847031C5A425341DBB2002B0E
:104B700001D000230CE0FB681B7C5AB23B1C1433B1
:104B800004210091101C0121012202F0A7FA012347
:104B9000181CBD4606B080BD80B582B000AF7860FD
:104BA000002001F031F87B681B7C5BB2013304D03C
:104BB0007A68B323DB00D35A00E00023181CBD46FB
:104BC00002B080BD80B582B000AF78607B681B7C8E
:104BD0005BB2002B00DA0EE07B681B7C5BB2181C1A
:104BE00002F00AFB7B681B7C5BB2181C02F0EAF93E
:104BF0007B68FF221A74BD4602B080BD90B589B0B3
:104C000000AFF860B960BB1D1A803B1C1033181C44
:104C100004F04AF91549BA683B1C1033081C111CF2
:104C20001A1CFFF787FD031C5A1E9341DBB2002BB1
:104C300016D0FB681B6820331C683A1C18323B1CDA
:104C40001033101C191CFDF7BBFBF9683A1C183215
:104C5000BB1D1B88081C111C1A1CA047031C00E06C
:104C60000023181CBD4609B090BDC04690310020FD
:104C700080B584B000AFF860B960BB1D1A80BB6816
:104C8000181CFFF74FFA011CFA68084BD150FA685C
:104C9000B91D074B0988D152FA68064B0021D15241
:104CA0000123181CBD4604B080BDC0461C0B00008B
:104CB0001A0B0000180B000080B588B002AF7860B6
:104CC0000520002100F0ADFE0220002100F0A9FE29
:104CD0003B1C083302221A807A68234BD35A1B02EA
:104CE0009AB27968204BCB5A1B129BB213439BB2EA
:104CF0009AB23B1C08335A807A681C4BD2583B1C32
:104D000008335A607B68197C7B68B420C0001A188D
:104D10007868174BC35A49B2381C083000901020ED
:104D20000190081C111C1A1C002302F0C5F8031C7A
:104D30009BB2DB0BDBB2002B09D00520012100F078
:104D400070FE0220012100F06CFE002308E0052027
:104D5000012100F066FE0220012100F062FE012325
:104D6000181CBD4606B080BD1A0B00001C0B0000CD
:104D7000180B000080B582B000AF78600A1CFB1CE5
:104D80001A707B681B6804331B687968FA1C081C5E
:104D9000111C01229847031C181CBD4602B080BD9F
:104DA00080B584B000AFF860B9607A60FA68174BDC
:104DB000D35A1A1C7B68D218AF23DB009A4206D95B
:104DC000FA68124BD35AAF22D200D31A7B60FA682A
:104DD0000E4BD35AB422D2009B18FA68D118BA6885
:104DE0007B68081C111C1A1C07F056FCFA68074B5C
:104DF000D25A7B689BB2D31899B2FA68034BD1524E
:104E00007B68181CBD4604B080BDC046180B00006E
:104E100080B582B000AF7860002000F0F5FE7B68BE
:104E20001B7C5BB2013372D07A68B323DB00D35AA8
:104E3000002B04D07A68B323DB00D35A68E07B6888
:104E40009A697B68DB699A4261D07B68DA69796824
:104E500020238A18D3181B781B029AB27B68DB695F
:104E6000591C786820234118CB181B78D31899B2A5
:104E70007A68B323DB00D1527B68DB699A1C7968BE
:104E800020238A18D3181B781B029AB27B68DB692F
:104E9000D91C786820234118CB181B78D31899B2F5
:104EA0007A681D4BD1527B68DB691A1D7968202313
:104EB0008A18D3181B781A067B68DB69591D786835
:104EC00020234118CB181B781B04D2187B68DB69A0
:104ED000991D786820234118CB181B781B02D21823
:104EE0007B68DB69D91D786820234118CB181B78B3
:104EF000D1187A68094BD1507B68DB691A1C0832DB
:104F00007B68DA617A68B323DB00D35A00E00023C0
:104F1000181CBD4602B080BD9A0500009C0500002B
:104F200080B584B000AF78607B681B6830331B6845
:104F300079683A1C0F32081C111C01229847031C87
:104F400001335A425341DBB2002B02D001235B42B2
:104F500002E03B1C0F331B78181CBD4604B080BD1B
:104F600080B586B000AFF860B9607A60FB681B68F6
:104F700008331B68FA68101C9847021C3B1C163348
:104F80001A803B1C16331B88002B02D101235B4285
:104F900067E03B1C16331A887B689A4203D93B1C96
:104FA00016337A681A8000233B6151E0BA683B6986
:104FB000D118FB68DB69581CFA68D061F8682022B8
:104FC000C3189B181B780B70FA68B323DB00D35A05
:104FD000013B99B2FA68B323DB00D152FB68DA696E
:104FE000FB689B699A4230D1FB6800229A61FB689A
:104FF0009A69FB68DA61FB685B690222191C9143BC
:105000000A1CFB685A61194B1B78002B0DD0FB68FA
:105010001B7CFA68203259B2AF23DB00081C111C3C
:105020001A1C002301F0FEFF0CE0FB681B7CFA68F1
:10503000283259B2AF23DB00081C111C1A1C0023B4
:1050400001F0F0FF002000F0DFFD3B6901333B6120
:105050003B1C16331A883B699A42A7D83B1C16336F
:105060001B88181CBD4606B080BDC0465C320020BF
:1050700080B582B000AF78607B681B6808331B681E
:105080007A68101C9847031C5A425341DBB2002B2C
:1050900002D001235B4206E07B68DA69796820234D
:1050A0008A18D3181B78181CBD4602B080BDC046B4
:1050B00080B582B000AF786006E07B681B680C3377
:1050C0001B687A68101C98477B681B6808331B684C
:1050D0007A68101C9847031C5A1E9341DBB2002BC0
:1050E000EBD1BD4602B080BD80B582B000AF786024
:1050F00039603A68054BD3587A68101C191C03F0C4
:10510000E9FE7868BD4602B080BDC0469C0500003F
:1051100080B582B000AF78607A68034BD35A181C10
:10512000BD4602B080BDC0469A05000080B584B07F
:1051300002AF786039607B68012B0CD13A68074B6D
:105140009A4208D1064B00220092181C002100222E
:10515000002303F0B1FEBD4602B080BDFFFF00009A
:105160002432002080B500AF034B0120191CFFF74B
:10517000DDFFBD4680BDC046FFFF000080B584B0A6
:1051800002AF786039607B68012B0CD13A68074B1D
:105190009A4208D1064B00220092181C00210022DE
:1051A000002303F089FEBD4602B080BDFFFF000072
:1051B0002C32002080B500AF034B0120191CFFF7F3
:1051C000DDFFBD4680BDC046FFFF000080B584B056
:1051D00002AF786039607B68012B0CD13A68074BCD
:1051E0009A4208D1064B00220092181C002100228E
:1051F000002303F061FEBD4602B080BDFFFF00004A
:105200003432002080B500AF034B0120191CFFF79A
:10521000DDFFBD4680BDC046FFFF000080B584B005
:1052200002AF786039607B68012B0CD13A68074B7C
:105230009A4208D1064B00220092181C002100223D
:10524000002303F039FEBD4602B080BDFFFF000021
:105250003C32002080B500AF034B0120191CFFF742
:10526000DDFFBD4680BDC046FFFF000080B584B0B5
:1052700000AFF860B960111C1A1CFB1D1970BB1D32
:105280001A70F868B968FB1D1A78BB1D1B7800F00E
:1052900005F8FB68181CBD4604B080BD80B588B019
:1052A00000AFF860B960111C1A1CFB1D1970BB1D02
:1052B0001A70FB68FB61BB68BB613B1C1733FA1DAE
:1052C00012781A703B1C1633BA1D12781A70BB691B
:1052D000194A934200D9184BFA6913603B1C1733E3
:1052E0001B78013B5A1E9341DBB21A1CFB695A71B1
:1052F0003B1C16331B78012B14D002DC002B09D089
:1053000014E0022B02D0032B08D00FE0FB6900222F
:105310001A710EE0FB6901221A710AE0FB69022290
:105320001A7106E0FB6903221A7102E0FB69002290
:105330001A71BD4608B080BD001BB70080B586B0AD
:1053400000AFF860B960BB1D1A803B1C153300220A
:105350001A703B1C173300221A703B1C16330022B4
:105360001A70FB68002B07D13B1C1533FB603B1CFC
:10537000173301221A700CE0BB68002B07D13B1CCD
:105380001533BB603B1C163301221A7001E0FA236F
:105390003EE0224A224B101C19685A68FEF794FD21
:1053A000204B1B785BB2181C002103F0CDFC1FE0E2
:1053B000FB681B78194A101C191CFEF7FDFD031C25
:1053C0001A1CBB681A70BB1D1A88BB1D013A1A80D3
:1053D0003B1C16331B78002B02D1BB680133BB602A
:1053E0003B1C17331B78002B02D1FB680133FB6099
:1053F000BB1D1B88002BDBD10A4B1B785BB2181C32
:10540000012103F0A1FC054B181CFEF793FD0023BE
:105410005BB2181CBD4606B080BDC0467831002086
:10542000443200204F00002080B584B000AF786087
:105430003B1C0F3300221A700F4B181CFEF79EFC0A
:105440000E4B1B785BB2181C012103F01DFC0B4BAB
:105450001B785BB2181C012103F076FC01F012FAF4
:10546000012001F005FA3B1C0F331B785BB2181CBE
:10547000BD4604B080BDC046783100204F000020FA
:1054800090B585B000AF021C3960FB1D1A703B1C43
:105490000F3300221A70FB1D1B78032B11D13B68C0
:1054A000BB60BB681968BB685A68BB681B893C1C39
:1054B0000F34081C111C1A1CFFF740FF031C23703B
:1054C00004E03B1C0F33FF221A70C0463B1C0F3315
:1054D0001B785BB2181CBD4605B090BD80B500AF0F
:1054E000044B181CFEF7E0FC00235BB2181CBD4601
:1054F00080BDC0467831002080B582B000AF7860B2
:1055000039607B68012B0BD13A68074B9A4207D16F
:10551000064A074B101C191C01220223FFF7A6FEA6
:10552000BD4602B080BDC046FFFF000044320020EF
:10553000001BB70080B500AF034B0120191CFFF71B
:10554000DBFFBD4680BDC046FFFF000013B5041C55
:10555000A5204001211C00F0EFF9002C0BD0A52064
:105560000023400101A9019300F0E2F90028EFD1E6
:10557000019BA342ECD1002016BD0000F7B501202D
:1055800001F076F90120694600F0D2F9051E4BD1F1
:10559000061C009B02211943012000F0CDF90120D7
:1055A00001F066F9214C01A9206800F0C1F9271C1F
:1055B000002802D1019B002B27D10E23012023605C
:1055C00001F056F9206801A900F0B2F9002802D1D3
:1055D000019B002B19D113230120236001F048F90E
:1055E000206801A900F0A4F900280ED01BE00136C4
:1055F000301C032105F018F900290AD1022001F01E
:1056000037F9386801A900F093F9019B5B07EED5E3
:1056100005E0009B02211943012000F08DF9019B58
:105620005B07B6D500E0051C68B2FEBD480000204F
:1056300007B5134801A900F07BF9002801D0FA2032
:105640001BE0019B8021490019430D48019100F0A6
:1056500073F90028F3D1D020400101A900F068F9C6
:105660000028ECD1019B80214902D0201943400140
:10567000019100F061F90028E1D140B20EBDC046B1
:1056800008140000F7B5214D2E682C1C002E3AD1CD
:1056900080204001291C00F04BF9071E27D11C482F
:1056A00001A900F045F9061E01D02F6029E02B6802
:1056B000184A934204D1019A012A1AD0164B08E0E5
:1056C000164A934209D1019B032B12D0042B02D11D
:1056D000134B23600DE0134BFBE7134A934208D1B1
:1056E000EC208003291C00F023F9002801D02E6053
:1056F00007E022680D4B1340A022D202134323601F
:1057000001E0002000E02068FEBDC0464C320020D1
:10571000F4130000A0021000A1021000B00210005B
:10572000B1021000B2021000F0001000FFFFF0FF05
:1057300038B5041C264800F0F7F8002803DB0120E8
:1057400001F096F8F6E7234800F0EEF8C30709D514
:10575000022C15D12049214800F0EEF88021204884
:10576000490315E01F4D012001F082F8013D1E485C
:1057700000F0DAF8002D27D01C4B9842F3D1E7E770
:10578000032C09D11449154800F0D6F8144800211B
:1057900000F0D2F8002403E0043C63425C41E401E1
:1057A000FFF770FFE8230005000D9B00984202D12F
:1057B0000220204300E0201CFFF7C8FE0A480C49E5
:1057C00000F0BAF8002000E0FB2040B238BDC0462F
:1057D00014100000BC0702007DD51C3CAC07020081
:1057E0008C100000D10700000C000C009ED0AD1002
:1057F000612F52EF37B5134B02380093124B0193D0
:105800001D1C012803D8114B0093114B0193FA245E
:10581000E4000020019B83420AD0022001F028F816
:10582000013C009800F080F8002CF3D1FB2407E045
:10583000019B0024AB4203D10248211C00F07CF8FC
:1058400060B23EBD8C10000036265302AC07020049
:10585000C3C15DD737B5A020002301A94001019342
:10586000124C00F065F80199A020214040010191FF
:1058700000F062F8251C002816D10A24A02040015F
:1058800001A900F055F800280ED101998020C00030
:10589000084009D0A020013C29404001E4B2019118
:1058A00000F04AF8002CE9D140B23EBDFFFBFFFFFB
:1058B00037B5041C0D1C0A4801A900F039F800286E
:1058C0000CD10122019BA240002D01D0134300E026
:1058D000934301930248019900F02EF840B23EBD77
:1058E0000801020037B5041C0D1C0A4801A900F08C
:1058F0001FF800280CD10122019BA240002D01D0ED
:10590000134300E0934301930248019900F014F817
:1059100040B23EBD0001020008B5FFF785FD08BD9D
:1059200008B5FFF7DBFD08BD08B500F08FFE08BD28
:1059300008B500F091FE08BD08B500F097FE08BD5F
:10594000F7B50E4B051C1C880191083C161CA4B22F
:105950000027019BD919A64204D8B2B2281C00F036
:10596000CFFE09E0281C221C00F0CAFE002803D14B
:10597000361B3F192D19ECE740B2FEBD4400002054
:10598000F7B50E4B051C1C880191083C161CA4B2EF
:105990000027019BD919A64204D8B2B2281C00F0F6
:1059A000D5FE09E0281C221C00F0D0FE002803D1FF
:1059B000361B3F192D19ECE740B2FEBD4400002014
:1059C000062815D80F23042815D01023052812D037
:1059D000122306280FD0032300280CD0042301280B
:1059E00009D00523022806D0032803D1062302E0AC
:1059F000FF2300E0FE2358B2704738B5051C0C1C8D
:105A000000F0D2F900280AD1281CFFF7D9FF00289E
:105A100003DBC0B2211CFFF74BFF00F0EBF940B2F3
:105A200038BD38B5051C0C1C00F0BEF900280AD1A1
:105A3000281CFFF7C5FF002803DBC0B2211CFFF7BD
:105A400051FF00F0D7F940B238BD000070B5041C1A
:105A50009AB0151C2C2869D01B2804D1101C01A950
:105A60000822002372E0062803D1101C01A930226D
:105A70006BE00E2800D18FE0322803D1101C01A961
:105A80001022EEE72F2808D101A80021642200F09F
:105A9000CAFE281C01A96422E3E734280DD1101C9A
:105AA00001A90422002300F061FB011E74D13B4BCD
:105AB0001B68002B70D0201C6DE0112814D1384ACF
:105AC000002301AC1370281C211C042200F04EFBA3
:105AD000002861D1334B22781A70304B1B68002BA1
:105AE0005AD01120211C56E013280DD1101C01A9F9
:105AF0002C22002300F03AFB00284DD1274B1B68D5
:105B0000002B49D013202AE004280DD1101C01A934
:105B10000422002300F02AFB00283DD11F4B1B6804
:105B2000002B39D004201AE0652803D1281C01A9D4
:105B3000042296E7092803D1101C01A9642204E07D
:105B40002A280ED1101C01A90422012300F00EFB0B
:105B5000002821D1114B1B68002B1DD0201C01A94E
:105B600019E0202818D101AE101C311C0822002396
:105B700000F0FCFA00280FD1281C0830B2880199E7
:105B8000012300F0F3FA002806D1044B1B68002B18
:105B900002D0201C311C98471AB070BD5032002032
:105BA000543200205532002070B58AB06B46012671
:105BB000DE71073300281DD00168104A00251160EE
:105BC0000F4A181C157000F091FB041EAC4212D154
:105BD00000F046F9041EAC4208D10A49301C00F01E
:105BE0000DFB02A800F032FB041C04E0281C00F0AE
:105BF000A2FB00E0F42460B20AB070BD5032002075
:105C0000543200204D5A000008B50023084A9A1863
:105C10005268002A02D01268910705D41033B02BC5
:105C2000F4D100F0FBF900E0F42040B208BDC0461A
:105C3000B0390020F0B5A5B01C1C2AAB1B8806901B
:105C400005932BAB1B780F1C161C0793012A03D15D
:105C50007B1E1F2B1BD901E0002C01D1F4206AE030
:105C6000022AF5D1201C00F0E6FD4028F0D10023E7
:105C7000E25C111C30393629F0D80A390629EDD9F1
:105C8000473A192AEAD90133402BF1D1E0E70599C7
:105C90000D2901D9FF29E1D109AD68463A1C6A30C6
:105CA000EF19069900F0B6FD3B1C403300279F71A9
:105CB000059A6B462A33DA87079A531E9A416B4638
:105CC0008B331A70263B1E70032E13D123782B7052
:105CD000032BC3D862781023111C6A7099430A29D8
:105CE000BCD16846A11C263000F094FD6378EB1807
:105CF0009F7016E0022E0AD1201C00F09CFD431E6E
:105D00009BB23F2BAAD8421C211C281C04E0042E65
:105D100005D1281C211C3E2200F07CFD01E0012E53
:105D20009CD10023009301930293012028212A1C77
:105D30006C2300F0B9F840B225B0F0BD13B504AC47
:105D40002488009400240194FFF774FF16BD1FB54A
:105D5000002300930193029303211A1C012000F0F9
:105D6000A3F805B000BD0000024B1A780132D2B290
:105D70001A707047643200207047000007B5012098
:105D800000F0D2FD074801A9FFF7D2FD002806D197
:105D9000019B0221194303480191FFF7CDFD40B259
:105DA0000EBDC0467010000010B50E4C2378002BBD
:105DB00005D0237800200133DBB2237010E00A4BBA
:105DC0001A78032A02D01B78042BF2D1FFF7D6FBF6
:105DD000002805D105480649FFF7AEFD0028E8D0A8
:105DE00040B210BD803200207032002074100000DC
:105DF0007856000007B5164B1A78002A03D01A7897
:105E0000013AD2B21A701B78002083421DD1114B87
:105E1000021C1978032902D01B78042B15D10E48D7
:105E20000E490192FFF788FD00280ED1012001A93B
:105E3000FFF77EFD002808D101990223194204D002
:105E4000994301200191FFF777FD40B20EBDC04696
:105E500080320020703200207410000021430000C6
:105E6000094B10B500241C60084B09481C60094B05
:105E70001C70094B1C70094B1C7000F043FD084A54
:105E8000084B201C1A6010BD6032002074320020C4
:105E9000695D0000803200207032002064320020F2
:105EA000795D000068320020F0B58BB01C1C10AB8F
:105EB0000E1C02CB02921B887F22019312AB1B881F
:105EC0003240039306AB5A70082218705A80051CA2
:105ED0005A88002904D001998A1803998A1800E089
:105EE000A21892B25A80FFF75FFF031C002B00D06C
:105EF00086E06F460893FB820793079B36021D439B
:105F00000795079B06AD1E430796079A6B883E4888
:105F10001B04134307930799FFF70EFD1637031C65
:105F2000002B6DD10793079B022213430793079918
:105F30003648FFF701FD031C002B61D108933B801D
:105F40006E4616363288324B9A4216D82F4807A929
:105F5000FFF7EEFC002810D1079F02231F4007D156
:105F60002C4808A9FFF7E4FC002806D0089704E0B5
:105F7000338801339BB23380E2E7089B002B3ED08D
:105F8000089B291C09936B8808229BB26B80099897
:105F9000FFF7F6FC002833D1099B029A08330993D6
:105FA000002A09D0111C0998221CFFF7E9FC0028DF
:105FB00026D1099BE3180993109B002B0FD003995E
:105FC000099B0C1BE418099409981099019AFFF792
:105FD000D7FC002814D1099B019AD3180993089B78
:105FE00002229B000793079B0B48134307930799D3
:105FF000FFF7A2FC002803D1FFF7FCFE00E0FD2024
:1060000040B20BB0F0BDC0468C100000781000000C
:10601000E7030000000415006C100000F0B5494BC8
:1060200085B01A78002A0AD1474B1C78E4B2002CBC
:1060300000D184E01A78013AD2B21A700FE000F071
:106040001FFE00247BE0414801A9FFF771FC041EFC
:106050000AD03C4A1378002B71D1002CE4D0FFF712
:10606000A3FE041EF5D1EEE7019A0126324262D06A
:1060700000F05AFC01993548B1430191FFF75CFCEF
:10608000041EE6D1324AFE241070019A97043F0D97
:10609000DFD0039003A92F48FFF74AFC041E0BD161
:1060A00002AD0398291C0422FFF74AFC6B88041CEC
:1060B0009BB26B80002803D0301C00F035FCC8E791
:1060C0006B88BB4207D06B88FF1A042F03DD301C9E
:1060D00000F02AFC2DE02B78012B01D11E4B12E0A1
:1060E0002B78022B01D11D4B0DE02B78042B01D115
:1060F0001B4B08E02B78062B01D11A4B03E02B78C1
:10610000072B16D1184B1B68002B07D068786988BD
:10611000039A0839C0B289B208329847094A1378FD
:10612000002B96D10A4A1378002B04D1FFF726FEE4
:1061300001E0FA248DE7FFF75DFE041C89E760B2F9
:1061400005B0F0BD5C320020643200207010000009
:106150007832002084100000603200207432002069
:106160007C320020583200206C320020F0B585B01F
:10617000051C0F1C141C0193002803D0002901D01A
:10618000002A04D1019A002A29D1F4202CE01848D1
:1061900003A9FFF7CDFB002826D1164802A9039ECC
:1061A000FFF7C6FB00281FD1B604360DB442ECD869
:1061B000029B9D42E9D32A19F31800929A42E4D82F
:1061C000281C391C221CFFF7BBFB00280CD1029BAA
:1061D000009AF618964202D0019B002B04D0064B81
:1061E00001221A70FFF7CAFD40B205B0F0BDC046EB
:1061F000701000008410000078320020013800B5D3
:10620000062813D804F0C2FA06040A08120C0E007D
:10621000084B08E0084B06E0084B04E0084B02E09E
:10622000084B00E0084B1960002000E0F42040B269
:1062300000BDC04674320020603200207C32002055
:1062400068320020583200206C32002073B50023E1
:10625000041C01A920480193FFF76AFB1F4B019A18
:10626000061C9A4204D11E4801A9FFF761FB061CD7
:10627000019B0F251A0C91B2080A2A4009092940EE
:1062800062729AB22172110A12092A402B402171BE
:106290006271A371E071FFF7F5F92379A279617951
:1062A0001B022A401A430901FF23194020600A43B8
:1062B000607AE179054009020D43217A09010B401A
:1062C00008492B438B4200D9F326074B9A4200D84A
:1062D000F32670B276BDC046AC070200C3C15DD7DD
:1062E00048100000301300002F13000038B50028BC
:1062F00003D005786B1E032B00D901250020FFF782
:106300000BFB041E15D100F0BBF9281CFFF710FA97
:10631000041E0CD1281CFFF76DFA041E07D1023DA4
:10632000012D06D9FFF784F9002802D0041CFFF7DD
:10633000F7FA60B238BD10B5FFF78CFA041E09D128
:1063400001F06CF8041E05D1FFF7EAFA041E01D132
:1063500000F076F960B210BD1FB501AB00220290CB
:1063600019810320191C0192FFF78AF805B000BDBE
:1063700073B56C46061C0734CF2806D0031C3B338C
:10638000DBB2012B01D90B250EE0201C0121FFF708
:10639000E3FF0028F7D000201CE02378B3420AD0A6
:1063A000013DEDB2002D06D0201C0121FFF7D4FFE6
:1063B0000028F2D0EFE70B25201C0121FFF7CCFFCE
:1063C0000028E8D12378002B03D0013DEDB2002D49
:1063D000F2D1012040B276BDF0B585B000900C1C22
:1063E000019200278026B601B44200D8A6B20A2541
:1063F00068460B300121FFF7AFFF002801D00020D5
:1064000020E06A46D37A1B090F2B05D0013DADB2BF
:106410002BB20133ECD1F2E72DB2002DEFDD009B62
:10642000B6B238B21818311CFFF796FF0028E6D133
:10643000019A002A09D0A41BF319A4B29FB2002C20
:10644000D0D1012040B205B0F0BD054B1B78002B28
:10645000F1D103A80221FFF77FFF0028EBD0CEE7A0
:10646000813200201FB501AB019000221981032069
:10647000191C0292FFF704F805B000BD30B585B0D5
:1064800008AC257801AC2070C1380E2857D804F02C
:106490007DF92121360E19192B2B480856565656D0
:1064A0001B000B0C63700B0AA370E17010E00B0A69
:1064B000DBB2002D02D08022524213436370A170E0
:1064C000002304E0002300E0FF236370A370E37067
:1064D000052138E00A0C62700A0AA2701A0AE170FB
:1064E0002271637107212EE00A0C62700A0AA27001
:1064F0001A0C22711A0AE1706271A3710FE00B0A83
:10650000DBB2002D02D08020404203436370130EA3
:10651000E370130C2371130AA1706371A271082137
:1065200011E00B0C63700B0AA370130E2371130C94
:106530006371130AE170A371E271092103E0002085
:1065400040B205B030BD0D4B4A1E1B78002B0DD15B
:106550007F2001334000994206D0E518013D2D7897
:106560006840074D285CF4E7A05400E0D1B2201C3D
:10657000FFF778FF43425841C0B2E1E78132002083
:10658000A8FC000073B5031C0A1C302802D80120A7
:10659000C32501E00020C9250090191C281C0423F4
:1065A000FFF76CFF0024061E012E0DD1281CFFF7FB
:1065B000DFFE341C012807D000240094CF20211CCA
:1065C000221C231CFFF75AFF60B276BDF0B5031CF6
:1065D00085B00F1CFF2802D80125C42601E0002544
:1065E000CA26191C0095301C00220423FFF746FF21
:1065F0000024012821D1301CFFF7BAFE012808D061
:1066000000240094211C221C231CCF20FFF736FFFE
:1066100013E003AC201C04212A1CFFF7DDFE012837
:10662000EED16278A37812021B041343227813433D
:10663000E278041C120613433B6060B205B0F0BD63
:10664000014B0020187070478132002007B501A966
:10665000FFF7BCFF01980EBD08B5FFF7B7FF012893
:1066600001D1002000E0FA2040B208BD08B5FFF7D4
:1066700089FF012801D1002000E0FA2040B208BDC6
:1066800013B51D4C00231D4801A901932370FFF78A
:106690009DFF002803D02378002B09D015E00123AB
:1066A000164801A92370FFF791FF0028F3D11DE0E0
:1066B000019A7C239A435021114310480191FFF71E
:1066C00061FF002812D00123237080204001694619
:1066D000FFF77CFF00280BD00848FFF7B7FF7023B7
:1066E0009843502101430548FFF7C0FF002000E018
:1066F000FA2040B216BDC0468132002024E80000D6
:1067000073B5031C151C00240E1C0094191CC82012
:10671000221C2B1CFFF7B2FE012815D1C820FFF761
:1067200027FE012807D000230093191C1A1CCF2034
:10673000FFF7A4FE08E0301C291C221CFFF74CFECA
:106740000128F0D160B276BDFA24FBE7F0B5031C56
:1067500087B0141C002503910095191CC7202A1C22
:10676000231CFFF78BFE01284CD1C720FFF700FE4A
:10677000012807D00095291C2A1C2B1CCF20FFF7CD
:106780007DFE3FE005AF3D808023261C9B019C429F
:1067900000D91E1CB6B2002D04D103229C4205D99B
:1067A000012203E00022A342524102321023684634
:1067B0005B4213301A4301210270FFF753FE002899
:1067C00018D1039B28B21818311CFFF74BFE002884
:1067D00010D10F4B1B78002B06D0A41B7519A4B247
:1067E000ADB2002CD0D111E0381C0221FFF73AFEE7
:1067F0000028F2D000230093191C1A1CCF20FFF7A9
:106800003DFE03E0FA2040B207B0F0BD0020FAE7F9
:106810008132002010B500239A4203D0CC5CC454CE
:106820000133F9E710BD8318002A03D0017001304D
:106830009842FBD17047021C031C1978981A80B249
:10684000002901D00133F8E77047000008B5034B79
:106850001B68002B00D0984708BDC046843200203A
:1068600008B501F06DFF08BD08B501F0EDFF08BDEA
:1068700010B5041C002C04D0012002F091F8013C5A
:10688000F8E710BD10B5094C00202056002102F099
:106890005BFA6420FFF7ECFF00202056012102F094
:1068A00053FA6420FFF7E4FF10BDC0464D000020FE
:1068B00038B5104B104D00241C60002028560121D3
:1068C00002F0E2F900202856012102F03DFA0B4BBC
:1068D00000201856211C02F0D7F9094B0020185649
:1068E000A04202DB022102F0CFF9FFF7CBFF00202C
:1068F00038BDC046843200204D0000204C000020EE
:106900004E00002008B5054B05491860054B0020D6
:1069100018560322FFF7A4FF08BDC04684320020AA
:106920004D6800004C00002008B5074B002806D039
:106930000020185605490322FFF792FF03E00020CC
:106940001856FFF791FF08BD4C0000204D6800006D
:10695000F0B585B003920AAA128802900192002A2B
:1069600046D0244D02015059002841D0AD18AA88C4
:10697000002A3DD0AF7AFFB2012F39D11E4C1F4EF5
:10698000201C18223360FFF745FF0198E080AB8898
:10699000C31A1BB2002B0CDDAB8802999BB201938A
:1069A000174B039A1F70174B1970174B1A7000235F
:1069B00000E03B1C02980F4F0501E9593068019A2D
:1069C000FFF7D4FB002813D10199E388ED595B1A36
:1069D000E3800E4B25601A68A180002A04D01B6852
:1069E00002980399221C98473068019A1318336063
:1069F00005B0F0BDF4380020903200208C32002029
:106A00005C32002089320020AA320020A439002004
:106A1000F0B50F1C9DB0141C412816D10BAD101CF5
:106A2000291C04220023FFF7A1FB002800D01AE153
:106A30006B7807AA13708D4B1968002900D112E1F9
:106A400000201B682856012117E0422817D10BAD02
:106A5000101C291C04220023FFF788FB002800D00B
:106A600001E16B7807AA1370804B1968002900D1E7
:106A7000F9E000201B68285602219847F3E04328DC
:106A800035D107AD101C291C0C220023FFF76EFB2B
:106A9000002800D0E7E0697A4AB2002A15DB744C7E
:106AA0001201A318D87201209872724B1888013015
:106AB00080B218801888002803D11888013080B26D
:106AC00018801B88A2189BB2D3800BAA02231170D6
:106AD00093806B886968D380644B91601968002942
:106AE00000D1C0E008201B6828560421C5E74428CF
:106AF00001D04B2821D10BAD201C291C04220023DE
:106B0000FFF734FB002800D0ADE0287807AA10700A
:106B10006B785370002B07D1698843B2544C083905
:106B20001B0189B2E3181981504B1968002900D163
:106B300099E01B6840B205219FE74A2812D1101C3A
:106B40000BA944220023FFF711FB002800D08AE0A4
:106B5000494B1B991A68002A00D184E01B680BA8D6
:106B6000984780E0462803D0482803D04D283FD1DD
:106B7000062600E0092607AD0023201C291C102250
:106B8000FFF7F4FA031E6ED1EA890C20039228560F
:106B90003749020189180B738C46298902916A8949
:106BA000059269886D680BAA5181D5606146CD88D0
:106BB0000399A94213D102990BB2002B0ADDBB4203
:106BC00008DA0599631802990091111C321CFFF72D
:106BD000BFFE48E0029B938000230B9326E0102F1A
:106BE00041D9191C1A1C181C0123FFF7BFFA3AE0FF
:106BF000452803D0472803D04C281ED1072600E0A3
:106C000008260BAD201C291C08220023FFF7AEFA32
:106C1000002828D128786B8807AA40B2144CA9888C
:106C200013800301E318DB8899421CD10F4B1968CC
:106C3000002918D01B68311C1FE7522813D10BAD57
:106C4000101C291C14220123FFF790FA00280AD1F6
:106C50000A4B696819601A68002A04D01B68286802
:106C6000A9682A7C98471DB0F0BDC046A439002011
:106C7000F4380020A8320020AC390020A8390020C8
:106C8000F8B5264DEC88002C46D0254B00215956EE
:106C9000244E09018A59002A3ED072189388002B8D
:106CA0003AD0131C08339B78DBB2012B34D1908887
:106CB000201A00B2002806DD1B4F02233B70948887
:106CC0000023A4B202E0184F03223A70174F715804
:106CD0003868221CFFF74AFA002815D1104A002014
:106CE0001056AC800301F658EB882E601B1BEB801E
:106CF0000F4B1A68002A04D00E4A1B6811782A1C10
:106D000098473B68E4183C60074F3B78032B03D15E
:106D100000233B70FFF76EF8F8BDC04690320020AC
:106D200089320020F43800205C3200208C320020B0
:106D3000A4390020AA32002038B5094D2C78E4B2DD
:106D4000002C0CD10748211CB022FFF76CFD02205B
:106D50000549FFF753FA01232B70044B1C8038BD03
:106D600088320020F4380020116A0000A832002088
:106D7000024B1860024B19607047C046A4390020CE
:106D8000AC39002070B5161C86B0FF2402283CD117
:106D9000012904D0022938D10B2307240BE0072353
:106DA000002408E01A4A2501AD18A97AC9B20029C1
:106DB00004D00134E4B29C42F4D325E01022281C14
:106DC000FFF731FD0123AB72124B1A88013292B2E8
:106DD0001A801A88002A03D11A88013292B21A80C6
:106DE0001B88E4B29BB2EB8001231E420DD0EB72F4
:106DF00005AA0023147050210093019302930220EE
:106E00000423FFF751F800E0FF2460B206B070BD24
:106E1000F4380020A832002030B589B0002921D0F4
:106E200000281FDB114D0301ED182B1C08339B7844
:106E3000012B17D1002A15D005AC20720822201C86
:106E4000FFF7E8FCEB8802206381002300930193A5
:106E500002934121221C0C23FFF726F8002802D0C0
:106E6000F72000E0FA2040B209B030BDF43800202D
:106E70007FB5002819DB0F4A0301D3181A1C08320A
:106E80009278012A11D105AA10705170DB88022076
:106E90005380002300930193029342210423FFF7C0
:106EA00003F8002802D0F72000E0FA2040B207B033
:106EB00000BDC046F4380020F0B58BB0071C05912A
:106EC000161C109D002833DB002931D0AF23DB00D6
:106ED0009A422DD8184A0301D31804939A7A08339A
:106EE000012A25D19B78002B22D006AC1022201C31
:106EF0000021FFF798FC049A27706680D388A3814D
:106F0000002D05D02B88A3806B886D68E380A56079
:106F1000059B019600934423029302201023C7216E
:106F2000221CFEF7C1FF0023984202D0034B00E071
:106F3000034B18B20BB0F0BDF4380020F2FF000094
:106F4000FAFF0000F0B587B0002830DB00292ED012
:106F5000002A2CD0184F05017C19A67AA446F6B257
:106F60000834012E23D1E95161468A80217900221B
:106F700091421DD12671E2784D21324200D1462145
:106F8000002B01D101235B4204AA107104937D19E7
:106F9000EB880024D38002200094019402940823FB
:106FA000FEF782FF221CA04202D0044A00E0044AFD
:106FB00010B207B0F0BDC046F4380020F2FF000068
:106FC000FAFF0000F0B587B0002824DB144E05015D
:106FD0007419A77A211CFFB20831012F1BD105AA11
:106FE0001070E388538000238B70E380C8784E21B3
:106FF000384200D1492100930193029302200423D7
:10700000FEF752FF041E00D0F72470190021102251
:10701000FFF709FC00E0FA2460B207B0F0BDC046FB
:10702000F4380020F0B589B0002833DB002931D0D6
:10703000002A2FD0194C05016719A4463C1C0834BE
:10704000A678F6B20496012E24D1A678002E01D19E
:10705000002320E06646A951BA802279002AF7D1A0
:10706000049A2271002B01D101235B4206AA107100
:1070700006936544EB880024D38002200823009403
:10708000019402944821FEF70FFF231CA04202D076
:10709000034B00E0034B18B209B0F0BDF4380020F8
:1070A000F2FF0000FAFF00001FB5041CFFF7C3FB4E
:1070B000C3B2402B0ED80021C0B2431C00910191F5
:1070C00002910220CA21221CFEF7EEFE002802D007
:1070D000F72000E0FA2040B204B010BDF0B599B03E
:1070E0001EAC2488059400286ADB002B68D0364C3F
:1070F0000601A519A4462C1C0834A778FFB2012F5D
:107100005ED1022947D106285ADCE5783D4257D0A6
:10711000012A08D11868E378002802D01943E170E9
:1071200037E08B430BE0032A0BD11868E278102379
:10713000002802D01343E3702BE09A43131CE37042
:107140003FE0022A3CD1059A3F2A39D806AC20708C
:107150006644F288191C6280059A0026022507926F
:1071600008A840226570FFF755FB0096019602962D
:10717000281C5121221C4823FEF796FE033008D11B
:10718000009601960296281CD121221C4823FEF766
:107190008BFE002015E01B6806AC6271207106931F
:1071A000EB880220E38000230093019302934F2198
:1071B000221C0823FEF778FE002802D0F72000E00A
:1071C000FA2040B219B0F0BDF438002008B50348E9
:1071D0000021B02205F082FA08BDC046B039002077
:1071E00030B5044D00012C18E360039B6160A26080
:1071F000435130BDB039002010B5044900010023CF
:107200000A1853609360D360435010BDB03900201A
:10721000F7B5051C481E141C082800D9F5E003F03A
:10722000B5FABDF4F4DA051AF4F45900002A10D0C6
:1072300053787F2B0DD8754E2C01AF22A159D20067
:107240000023281C3419FFF77DFE636801221968AA
:10725000D9E0281CCDE000210520FEF7E2FB00214B
:107260000220FEF7DEFB69482901002C20D0042211
:10727000A35E002B1CDD4618B7683A689B18AF2246
:10728000D200934204D9736802221C682243BBE0F7
:107290003B60002B07D0E388002B12D073680222DA
:1072A0001E68324364E04158281CFFF74BFE08E09B
:1072B00041184B6801221F68281C97431F60FFF785
:1072C00081FE01210520FEF7ACFB01210220FEF723
:1072D000A8FB9AE000210520FEF7A3FB0220002175
:1072E000FEF79FFB002CECD0A7883AB2002AE8DD1D
:1072F000474B464E1B782801012B23D831188B6849
:107300001A6833580193E3889C466744BFB2019BD7
:1073100000973F0A9F54009F9B185F7067899F707A
:1073200067893F0ADF70E77B1F71E7895F71E76854
:107330003F0A9F71E768DF718B680427E15F52188D
:10734000083203E033189B6819688A181A603318EA
:107350009A681168AF22D200571ABC462D4FBC451F
:1073600008D8E288002AACD05B68022219680A4378
:107370001A60A6E7264B1B78002B05D0032B03D001
:107380003358281C591805E033580831AF225918D2
:10739000281CD2000023FFF745FE92E7002A34D0D4
:1073A0000023D356002B30D1184A290150184068C9
:1073B0000424066834430460062D04DC281C191CD0
:1073C000FFF756FD21E08958AF220831281CD20072
:1073D000FFF728FE19E0002A17D0002010560028D9
:1073E00013DB0A4B2D015D196B68082219681142E5
:1073F00002D0FFF7E7FD08E00748014019600020D0
:107400002056000401430A431A60F7BDB03900203A
:107410005C3200207F050000FFFF00FF73B5061CF3
:10742000FEF730F9294B0005000D002498424BD996
:10743000274801A9FEF77CFA041E45D1019B254D82
:1074400025492B40194322480191FEF775FA23483C
:10745000211C002E20D0FEF76FFAAB212048FEF74A
:107460006BFA01211F48FEF767FA211C1E48FEF740
:1074700063FA1E488121FEF75FFA1D48FEF754FAB1
:107480000128FAD1019B80211D404902294310485F
:107490000191FEF751FA17E0FEF74EFAB9211048B4
:1074A000FEF74AFA01210F48FEF746FA211C0E4862
:1074B000FEF742FA0D488121FEF73EFA0C48FEF72E
:1074C00033FA0128FAD1DDE760B276BD9F030000F0
:1074D00010140000FF8F88F800101101080201004D
:1074E0000C020100140201001C0201000402010050
:1074F0001802010010B54468A318436000239342AA
:1075000003D0C85CE0540133F9E7012010BD00004E
:10751000034B4160036000238260C36003617047D6
:10752000F574000038B50368041C151C002B16D038
:10753000C0681218A068824206D92369002B00D1C6
:10754000094B236100200EE0201C2A1C98470028CC
:1075500005D12369002B00D1044B236103E0E268CD
:1075600001205519E56038BDA8FD0000B4FD0000FC
:10757000F0B585B0002B05D17F2A03D801A90A7088
:10758000012214E00024802676425D061643D209CB
:107590002A43F6B201A9DB09171C6654651C1F4378
:1075A00001D02C1CEFE77F231E400E552A1CFFF74D
:1075B000B9FF05B0F0BD000008B5131C0A79012A17
:1075C00001D11A7806E0022A01D11A8802E0042AC1
:1075D00002D11A6800230BE0082A02D11A685B68FE
:1075E00006E00369002B00D1034B0361002001E09A
:1075F000FFF7BEFF08BDC046BDFD000008B5131C67
:107600000A79012A02D100229A5607E0022A02D101
:1076100000215A5E02E0042A02D11A68D3170BE057
:10762000082A02D11A685B6806E00369002B00D1C2
:10763000034B0361002001E0FFF79AFF08BDC0463D
:10764000BDFD000038B5141C1D1CA4185D41002BA5
:1076500002DAE243EB4301E0221C2B1CFFF788FF18
:1076600038BD000008B5131C0A79012A02D1002296
:107670009A5607E0022A02D100215A5E02E0042A4B
:1076800002D11A68D3170BE0082A02D11A685B6886
:1076900006E00369002B00D1034B0361002001E0E9
:1076A000FFF7D0FF08BDC046BDFD000007B50B6861
:1076B00001A91A0A4A701A0C0B708A701B0E042258
:1076C000CB70FFF72FFF0EBD08B5111CFFF7EEFFC3
:1076D00008BD13B50CC969466C460A70110A617081
:1076E000110C120EE2701A0A62711A0CA170237149
:1076F000A2711B0E69460822E371FFF713FF16BD46
:1077000008B5111CFFF7E5FF08BD08B5530FD200FF
:107710000A43FFF72DFF08BD10B5041C48780F235E
:10772000184009280AD803F031F810101012050784
:107730000707090701230BE0022309E02369002B57
:1077400000D1064B2361002007E0002300E0052361
:107750000A78201C191CFFF7D8FF10BDCFFD0000D0
:10776000F0B5041C4878161C3F23021C8BB00D1C7E
:107770009A43402A00D1FFE0802A02D0002A00D09C
:107780000AE16946012313310B700F2303409F0068
:107790009C46854BFF58EB780397002B02D05BB2D9
:1077A000F3182EE0302707400B1C102F29D1674615
:1077B000052F07D13178002923D16B4613330021DF
:1077C00019701EE0062F02D02B79012B02D13378DD
:1077D000002BF2D02F79022F03D13388002BECD06D
:1077E00004E0042F04D13768002FE6D00B1C08E01A
:1077F0000B1C082F05D1336871680B43DDD06B4635
:107800001333802A05D13668371C791E8F416946AB
:10781000CF7430210840102812D002D8002806D09A
:10782000BAE0202812D0302800D194E0B4E0002E35
:1078300000D095E02369002B00D0B1E05B4BAFE0B6
:107840001B780120002B00D1ACE089E01B7801936C
:10785000002B00D194E0802A09D06B79019F9F42D0
:1078600005D92369002B00D09AE0514B98E061467E
:107870000027042966DC2A78201C0221FFF745FF37
:10788000B84200D18DE06A780F231340032B02D158
:10789000019A97001AE0042B02D1019BDF0015E04A
:1078A00005A8391C142204F019FF029605A8291C0A
:1078B000029A039B9847002873D002992B79019A6A
:1078C000C918013702919742F0D3089F201C3A1C37
:1078D0000023FFF74DFE002863D0216800230293A8
:1078E00099420ED1201C3A1CFFF71CFE002858D0EC
:1078F00046E0029F2B7901990137F61802978F42D3
:107900003ED2201C291C321C039FB8470028F0D10E
:1079100047E06B783F22191C91430A1C201C291C4C
:10792000802A16D10F221340053B012B11D8326853
:10793000039B9847002834D02B7901990137F6181A
:107940008F421DD2201C291CFFF7E6FE0028E0D143
:1079500027E0321CECE71A782B7801209A4221D1DB
:10796000201C291CFFF7D8FE00281AD0201C291C37
:10797000321C039FB84715E03368321D002B01D13C
:1079800001200FE0201C98470028F9D12369002B23
:1079900000D1084B236105E02369002B00D1064B81
:1079A000236100200BB0F0BD64FE0000E2FD00008A
:1079B000F9FD000011FE0000CFFD000030B587B0DA
:1079C000051C684600F052FE002801D101202DE080
:1079D00001990F234A781340049A082B1DD114688B
:1079E000002C1FD022685368002B03D0281C211CB8
:1079F00098470CE091683F224B789343802B02D14B
:107A0000221D281C01E06268281CFFF7A9FE00283F
:107A100001D100200AE0A468E2E7281CFFF7A0FEDD
:107A20000028F6D0684600F032FECDE707B030BD42
:107A300070B50023051C0E1C141CFFF799FD0028CF
:107A400004D0281C311C221CFFF76CFD70BD10B542
:107A50000B7949783F24A143802901D0191C01E00A
:107A600001214942002A07D000238B4205D0D45C73
:107A7000002C02D00133F8E7131C111C1A1CFFF76D
:107A8000D7FF10BD10B54B780F241C40092C02D134
:107A90000B79111C15E0002A01D1111C12E03F24C2
:107AA000A3431C1C1378002C0AD109795C1C8C425E
:107AB00006D90369002B00D1044B0361002003E0C9
:107AC000511C1A1CFFF7B4FF10BDC04620FE000079
:107AD000F0B589B00F1C019200211422041C03A8E8
