:1020000000800020719A0000599A0000599A00003F
:1020100000000000000000000000000000000000C0
:10202000000000000000000000000000599A0000BD
:102030000000000000000000599A0000C59A00004E
:10204000599A0000599A0000599A0000599A0000C4
:10205000299A0000599A0000599A00005D9A0000E0
:10206000599A0000599A0000599A0000599A0000A4
:10207000599A0000599A00004D490000599A0000F1
:10208000599A0000599A0000599A0000599A000084
:1020900000000000599A0000599A0000599A000067
:1020A000599A0000599A0000599A0000599A000064
:1020B00010B5064C2378002B07D1054B002B02D01E
:1020C000044800E000BF0123237010BDB8010020C8
:1020D00000000000FC18010008B5084B002B03D0DD
:1020E0000748084900E000BF07480368002B03D0F9
:1020F000064B002B00D0984708BDC04600000000EA
:10210000FC180100BC010020B40100200000000008
:1021100090B583B000AF786039603B68002B01D187
:1021200000230FE07B681B6804331C683B68181CA5
:102130000BF0E7FD031C79683A68081C111C1A1C97
:10214000A047031C181CBD4603B090BD80B582B0EB
:1021500000AF78607B685B68181CBD4602B080BD2C
:1021600080B584B000AF154A3B1D101C191C03F04C
:1021700077F9134A134B101C191C07F0F3FF0623C1
:10218000FB6012E00E4A0F4B101C191C07F0EAFF0F
:102190003A1DFB68D3181B78094A101C191C102221
:1021A00008F06BF8FB68013BFB60FB68002BE9DA89
:1021B0000923181CBD4604B080BDC0468C2C0020ED
:1021C000002E00204806010080B582B000AF021C3E
:1021D000FB1D1A70FB1D1B78022B0FD002DC012B9C
:1021E0001AD01FE0032B02D0042B0ED01AE0134AA2
:1021F000134B101C191C07F0B5FF1AE00F4A114BC6
:10220000101C191C07F0AEFF13E00C4A0E4B101CFB
:10221000191C07F0A7FF0CE0084A0C4B101C191CF6
:1022200007F0A0FF054A0A4B101C191C07F09AFF83
:10223000C0460923181CBD4602B080BD002E0020F8
:102240005006010054060100580601006006010016
:102250006806010080B582B000AF3C4B181C03F04B
:1022600089F9031C3B603B68013305D1384A394B7F
:10227000101C191C07F090FF354A374B101C191C15
:1022800007F070FF324A3B68101C191C0A2207F045
:10229000DCFFFB1D00221A704EE02D4AFB1D1B784F
:1022A000101C191C0A2207F0E4FF294A2B4B101CB2
:1022B000191C07F057FF254AFB1D1B78101C191C21
:1022C00003F0A2F9031C224A101C191C07F04AFF54
:1022D0001F4A234B101C191C07F044FF1B4AFB1D0F
:1022E0001B78101C191C03F0DBF9031C184A101C86
:1022F000191C0A2207F08BFF154A1A4B101C191CD7
:1023000007F030FF124A184B101C191C07F02AFF67
:102310000E4AFB1D1B78101C191C03F005FA031C48
:10232000181CFFF751FF0A4B181C08F076FAFB1D2A
:102330001A78FB1D01321A70FB1D1A783B689A420D
:10234000ABDB0923181CBD4602B080BD8C2C0020DD
:10235000002E002078060100A0060100C006010042
:10236000C4060100D0060100D806010080B584B083
:1023700000AF2A4A2A4B101C191C07F0F3FE294B08
:10238000181C03F0A9F8031C244A101C191C07F0A0
:1023900003FF244B181C03F095F8031C3A1C101C77
:1023A000191C07F087FE1D4A1F4B101C191C07F053
:1023B000D9FE1A4A3B1C101C191C07F0F7FE194BDA
:1023C000181C03F0A1F8031CFB60144A174B101CE7
:1023D000191C07F0C7FE114AFB68101C191C0A22C1
:1023E00007F015FF0D4A124B101C191C07F0D4FE04
:1023F000AF23DB00BB60094A0E4B101C191C07F011
:10240000B1FE064ABB68101C191C0A2207F03FFFE8
:102410000923181CBD4604B080BDC046002E002014
:10242000E80601008C2C0020F006010000070100E6
:10243000180701002007010080B582B000AF044BEF
:102440001B687B607B68181CBD4602B080BDC0461F
:10245000DC01002080B582B000AF00237B60244BFC
:10246000181C03F0A7F9031CFF3B5A425341DBB28F
:10247000002B07D01F4A204B101C191C07F08CFEA4
:10248000012330E00DE0FA239B00181C07F060FBED
:102490007B6801337B607B680A2B02D1174B0122DA
:1024A0001A70134A164B101C191C02F019FF031C5A
:1024B000032B08D0114B1B7801225340DBB2002BB9
:1024C00001D0012300E00023002BDCD10B4B1B7853
:1024D000002B04D00B4B02221A60022303E0094BAD
:1024E00003221A600923181CBD4602B080BDC046F5
:1024F0008C2C0020002E002040070100E00100206D
:1025000004000020DC01002080B500AF184B1B88C0
:10251000184A101C191C03F0A5FA031C5A42534117
:10252000DBB2002B01D003231EE0134B1B88134AA0
:10253000101C191C03F096FA031C5A425341DBB2DB
:10254000002B01D003230FE00D4B1B880D4A101CFC
:10255000191C03F087FA031C5A425341DBB2002BCB
:1025600001D0032300E00923181CBD4680BDC046EE
:1025700014000020E401002018000020241800208E
:1025800016000020040D002080B500AF0B4B1B8807
:102590000B490C4A081C111C1A1C03F085FB084A45
:1025A000094B101C191CFFF7B3FD054B181C03F059
:1025B000D9FB0923181CBD4680BDC0461A00002067
:1025C000E4010020100801002008010080B582B05D
:1025D00000AF78603960144B1B881449144A081CFA
:1025E000111C1A1C03F060FB10497A683B68081C38
:1025F000111C1A1C03F02AFC021C3B68D31A5A1E39
:102600009341DBB2002B05D00A4A0B4B101C191C5E
:1026100007F0C2FD054B181C03F0A4FB0923181C8E
:10262000BD4602B080BDC0461A000020E401002073
:1026300010080100002E00205807010090B5CBB013
:1026400000AF786039602820FF303B1809221A70EB
:10265000544B181C03F032FC031C90214900C9198B
:102660000B6090225200D2191368002B00DC90E01E
:102670004D4B94204000C019C3181A1CFF23101C96
:1026800000211A1C0BF048FA484B1B699847031CA1
:10269000022B06D9464B1B7801225340DBB2002B9C
:1026A00001D0012300E00023002B08D13F4BDB6861
:1026B000404990204000C0190268032098478621B5
:1026C00049007A18374B101C191C03F063FD862251
:1026D0005200BB18181CFFF739FD031C8E20400068
:1026E000C0190360314B1B699847031C022B06D9A4
:1026F0002F4B1B7801225340DBB2002B01D001236A
:1027000000E00023002B08D1284BDB688E21490014
:10271000C9190A682849032098478D225200BC181D
:10272000204B181C03F04AFD031C23801F4B1B6920
:102730009847031C022B06D91D4B1B7801225340DE
:10274000DBB2002B01D0012300E00023002B08D1D5
:10275000164BDB688D2040003A1812881749032079
:102760009847104A3B1C0C33101C191CFF2203F025
:102770004DFC031C8A214900C9190B60104B5B6892
:10278000391C0C318A204000C0190268081C111C39
:1027900098472821FF317B181B78181CBD464BB089
:1027A00090BDC046040D0020E4FEFFFF200C010098
:1027B0000000002094070100C8070100D8070100AD
:1027C000840B010080B584B002AF786039607B680B
:1027D000012B18D13A680D4B9A4214D10C4B0022B0
:1027E0000092181C00210022002307F055FC094B21
:1027F000181C03F001F9084B181C03F0FDF8074BF7
:10280000181C03F0F9F8BD4602B080BDFFFF0000C0
:10281000D4010020E4010020040D00202418002031
:1028200080B500AF034B0120191CFFF7CBFFBD465D
:1028300080BDC046FFFF000080B500AF034B1B8A80
:102840009AB2034B5A80BD4680BDC046003000425C
:102850004423002080B500AF034B1B8A9AB2034B80
:102860005A80BD4680BDC046003000425025002041
:1028700080B500AF034B1B8A9AB2034B5A80BD460A
:1028800080BDC046003000425C27002080B584B087
:1028900000AF8D4B1B8A9AB28C4B9A808B4B9B88D6
:1028A00099B28A4B5B889AB23B1C0E338A1A1A8003
:1028B0003B1C0E331B88322B00D89AE03B1C0E3396
:1028C0001B883C2B04D93B1C0E331B88452B09D994
:1028D0003B1C0E331B88512B2DD93B1C0E331B8800
:1028E000592B28D87A4B1B699847031C022B06D911
:1028F000784B1B7801225340DBB2002B01D001231F
:1029000000E00023002B07D1714BDB683A1C0E322C
:102910001288714903209847704B01221A71704B3D
:1029200001221A706F4B01221A70684B5B889AB2B1
:102930006D4B1A80C5E06A4B1B78DBB20122534015
:10294000DBB2002B19D0624B1B699847031C022B8A
:1029500006D9604B1B7801225340DBB2002B01D01B
:10296000012300E00023002B00D0AAE0584B1B6895
:102970005E4A0320111C9847A3E03B1C0E331B88C2
:10298000472B04D93B1C0E331B884F2B0BD93B1C08
:102990000E331B885B2B00D893E03B1C0E331B8847
:1029A000632B00D98DE04A4B1B699847031C022B0F
:1029B00006D9484B1B7801225340DBB2002B01D0D3
:1029C000012300E00023002B07D1414BDB683A1CB8
:1029D0000E321288464903209847404B00221A7154
:1029E000404B01221A70394B5B889AB23E4B1A80D9
:1029F00067E03C4B1B78DBB2002B06D03B1C0E3350
:102A00001B88312B01D8012300E00023002B58D074
:102A10002F4B1B699847031C022B06D92D4B1B78A3
:102A200001225340DBB2002B01D0012300E0002340
:102A3000002B07D1264BDB683A1C0E3212882D4939
:102A400003209847274B00221A70204B5B889AB2CC
:102A5000254B1B889BB2D31A9AB2204B1A800620B2
:102A60000BF024F8031CBB60BB68002B09D01B4B88
:102A70001B889AB2BB681A80184B1B79DAB2BB6804
:102A80001A71124B5B7ADBB20133D9B2FB1D7F2284
:102A90000A401A700D4B1B7ADBB2FA1D1278D31A5A
:102AA0005A1E9341DBB2002B0BD0FB1D1B78074A4B
:102AB00002339B00D318BA685A60044BFA1D12788F
:102AC0005A72BD4604B080BD00300042442300204D
:102AD000200C01001C0000202C0801007C29002093
:102AE000762900207229002068290020480801006A
:102AF000600801007C08010080B584B000AF744B11
:102B00001B8A9AB2734B9A80724B9B8899B2714B15
:102B10005B889AB23B1C0E338A1A1A803B1C0E3318
:102B20001B88322B4DD93B1C0E331B883C2B04D900
:102B30003B1C0E331B88452B09D93B1C0E331B88CD
:102B4000512B13D93B1C0E331B88592B0ED8624BCB
:102B500001221A71614B01221A70614B01221A7015
:102B60005C4B5B889AB25F4B1A80AEE05B4B1B7884
:102B7000DBB201225340DBB2002B00D0A5E03B1CAE
:102B80000E331B88472B04D93B1C0E331B884F2B5D
:102B90000BD93B1C0E331B885B2B00D895E03B1CEC
:102BA0000E331B88632B00D98FE04A4B5B889AB2A7
:102BB0004C4B1A80484B00221A71494B01221A7063
:102BC00083E0474B1B78DBB2002B06D03B1C0E3357
:102BD0001B88312B01D8012300E00023002B00D1FA
:102BE00073E03F4B00221A703A4B5B889AB23D4B20
:102BF0001B889BB2D31A9AB2374B1A803A4B1B7878
:102C0000DBB201225340DBB2002B08D0314B5B8892
:102C10009AB2364B1A80344B01221A701EE02D4BAB
:102C20005B889AB2324B1A80314B1B8899B22F4B7A
:102C30001B889AB23B1C0C338A1A1A803B1C0C333B
:102C40001A882C4B9A4203D9234B01225A8002E066
:102C5000214B00225A80244B00221A7006200AF0D1
:102C600025FF031CBB60BB68002B0ED01A4B1B88D2
:102C70009AB2BB681A80184B1B79DAB2BB681A711A
:102C8000154B5B889AB2BB685A80124B5B7ADBB2F9
:102C90000133D9B2FB1D7F220A401A700D4B1B7AFB
:102CA000DBB2FA1D1278D31A5A1E9341DBB2002B05
:102CB0000BD0FB1D1B78074A02339B00D318BA6860
:102CC0005A60044BFA1D12785A72BD4604B080BD9A
:102CD0000030004250250020842900207729002060
:102CE000732900206A290020752900206E29002000
:102CF000702900206419000080B584B000AF8D4BAE
:102D00001B8A9AB28C4B9A808B4B9B8899B28A4BC8
:102D10005B889AB23B1C0E338A1A1A803B1C0E3316
:102D20001B88322B00D89AE03B1C0E331B883C2BAF
:102D300004D93B1C0E331B88452B09D93B1C0E3391
:102D40001B88512B2DD93B1C0E331B88592B28D89F
:102D50007A4B1B699847031C002B06D0784B1B78D5
:102D600001225340DBB2002B01D0012300E00023FD
:102D7000002B07D1714BDB683A1C0E321288714967
:102D800001209847704B01221A71704B01221A7072
:102D90006F4B01221A70684B5B889AB26D4B1A8098
:102DA000C5E06A4B1B78DBB201225340DBB2002B3B
:102DB00019D0624B1B699847031C002B06D0604B4F
:102DC0001B7801225340DBB2002B01D0012300E02D
:102DD0000023002B00D0AAE0584B1B685E4A01205C
:102DE000111C9847A3E03B1C0E331B88472B04D9CA
:102DF0003B1C0E331B884F2B0BD93B1C0E331B88FF
:102E00005B2B00D893E03B1C0E331B88632B00D94F
:102E10008DE04A4B1B699847031C002B06D0484B9A
:102E20001B7801225340DBB2002B01D0012300E0CC
:102E30000023002B07D1414BDB683A1C0E3212886D
:102E4000464901209847404B00221A71404B01220D
:102E50001A70394B5B889AB23E4B1A8067E03C4B44
:102E60001B78DBB2002B06D03B1C0E331B88312BAA
:102E700001D8012300E00023002B58D02F4B1B6901
:102E80009847031C002B06D02D4B1B780122534082
:102E9000DBB2002B01D0012300E00023002B07D17F
:102EA000264BDB683A1C0E3212882D4901209847C8
:102EB000274B00221A70204B5B889AB2254B1B8847
:102EC0009BB2D31A9AB2204B1A8006200AF0EEFD6C
:102ED000031CBB60BB68002B09D01B4B1B889AB23C
:102EE000BB681A80184B1B79DAB2BB681A71124B97
:102EF0005B7ADBB20133D9B2FB1D7F220A401A7024
:102F00000D4B1B7ADBB2FA1D1278D31A5A1E93416D
:102F1000DBB2002B0BD0FB1D1B78074A02339B0052
:102F2000D318BA685A60044BFA1D12785A72BD461B
:102F300004B080BD003000425C270020200C01005E
:102F40001C0000202C0801008C290020782900207A
:102F5000742900206C290020480801006008010045
:102F60007C08010080B500AF0F4B00221A800F4B88
:102F700001221A800E4B02221A800B4B00221A7279
:102F8000094B00225A72094B00221A72074B002289
:102F90005A72074B00221A72054B00225A72054BD7
:102FA00001221A70BD4680BD442300205025002018
:102FB0005C2700201C00002080B500AF1D4BC12203
:102FC00092001A601C4B5B78DBB2DB09DBB2002B92
:102FD000F8D11A4B1A4A1A60174B5B78DBB2DB093F
:102FE000DBB2002BF8D1174B174A1A80124B5B78D3
:102FF000DBB2DB09DBB2002BF8D1144B134A128889
:1030000092B21A80114BDB7BDBB2DB09DBB2002B07
:10301000F8D10E4B0D4A128892B20D490A4392B272
:103020001A800A4BDB7BDBB2DB09DBB2002BF8D169
:10303000BD4680BD080C0040000C0040040C004060
:1030400004070300020C00401C4400000030004252
:10305000020400000000000090B587B000AF786067
:103060000A1CBB1C1A80524B1B699847031C062B79
:1030700006D9504B1B7801225340DBB2002B01D004
:10308000012300E00023002B05D1494B1B684A4A6D
:103090000720111C98473B1C173300221A7000238D
:1030A0003B617B681B7901225340DBB2002B38D097
:1030B0003B1C173301221A707B681B88181C0AF00E
:1030C00031FB031C0C1C181C211C384B364A09F020
:1030D0003BFD031C0C1C181C211C0AF0E7FB031C05
:1030E0003B61334B1B699847031C002B06D0314BC7
:1030F0001B7801225340DBB2002B01D0012300E0FA
:103100000023002B3ED12A4B5C687B681B88181C6F
:1031100008F044FD031C294A0120111C1A1CA04779
:1031200030E03B1C173302221A707B681B88181C86
:103130000AF0F8FA031C0C1C181C211C1B4B1A4A21
:1031400009F002FD031C0C1C181C211C0AF0AEFB2C
:10315000031C3B61164B1B699847031C022B06D9C5
:10316000144B1B7801225340DBB2002B01D001230A
:1031700000E00023002B05D10D4B5B6810493A6934
:10318000032098470F4BDC683B1C173319787B688A
:103190005B883869BA1C1288A047021C3B1C0F339D
:1031A0001A70BD4607B090BDAED85F764F1E963FF1
:1031B000200C01001C00002094080100AC08010054
:1031C00060080100840B010080B582B000AF6A4B3B
:1031D0001B7ADAB2684B5B7ADBB29A4210D0664B4C
:1031E0001B7ADBB20133DAB27F231340DBB2624ACF
:1031F000191C1172604A02339B00D3185B6800E00F
:1032000000237B6026E05C4B1B889BB27A68101C15
:10321000191CFFF721FF7B68181C0AF051FC564B64
:103220001B7ADAB2544B5B7ADBB29A4210D0524B23
:103230001B7ADBB20133DAB27F231340DBB24E4A92
:10324000191C11724C4A02339B00D3185B6800E0D2
:1032500000237B607B68002BD5D1484B1B7ADAB208
:10326000464B5B7ADBB29A4210D0444B1B7ADBB2FE
:103270000133DAB27F231340DBB2404A191C1172CA
:103280003E4A02339B00D3185B6800E000237B605A
:1032900026E03A4B1B889BB27A68101C191CFFF77A
:1032A000DBFE7B68181C0AF00BFC344B1B7ADAB28D
:1032B000324B5B7ADBB29A4210D0304B1B7ADBB2D6
:1032C0000133DAB27F231340DBB22C4A191C11728E
:1032D0002A4A02339B00D3185B6800E000237B601E
:1032E0007B68002BD5D1264B1B7ADAB2244B5B7A54
:1032F000DBB29A4210D0224B1B7ADBB20133DAB236
:103300007F231340DBB21E4A191C11721C4A023380
:103310009B00D3185B6800E000237B6026E0184B1D
:103320001B889BB27A68101C191CFFF795FE7B68FE
:10333000181C0AF0C5FB124B1B7ADAB2104B5B7AF1
:10334000DBB29A4210D00E4B1B7ADBB20133DAB2F9
:103350007F231340DBB20A4A191C1172084A023358
:103360009B00D3185B6800E000237B607B68002B28
:10337000D5D1BD4602B080BD442300205025002099
:103380005C27002080B582B000AFFB1C07221A70BA
:1033900000237B600DE0144A7B68B4214B43D218B4
:1033A000B423101C00211A1C0AF0B6FB7B68013301
:1033B0007B607B68022BEEDD0C4B00221A700B4BFE
:1033C00000225A60094B00221A72084B0022DA6070
:1033D000FB1C08221A70064B00221A70FB1C1B787B
:1033E000181CBD4602B080BDB4290020D02B00209F
:1033F0001D00002080B582B000AF021CBB1D1A80EA
:103400001B4B1B699847031C022B06D9194B1B78D1
:1034100001225340DBB2002B01D0012300E0002346
:10342000002B06D1124BDB68BA1D1288124903200B
:103430009847BB1D1B88002B09D1104B00221A6036
:103440000F4B00221A600F4B00221A600CE0BB1DCC
:103450001B88012B08D10C4B00221A600B4B002259
:103460001A600B4B00221A60BD4602B080BDC046F8
:10347000200C01001D000020F8080100A4290020F4
:10348000A82900209C290020B0290020AC29002078
:10349000A029002090B585B000AF021CBB1D1A808A
:1034A000BB1D1B88002B02D1294BFB6005E0BB1D17
:1034B0001B88012B01D1274BFB60FB681B685A1C42
:1034C000FB681A60244B1B699847031C062B06D91E
:1034D000224B1B7801225340DBB2002B01D0012389
:1034E00000E00023002B08D11B4BDC68FB681B6845
:1034F0001B4A0720111C1A1CA047FB681B680A2BDB
:1035000022D1154B1B699847031C022B06D9134B7C
:103510001B7801225340DBB2002B01D0012300E0D5
:103520000023002B06D10C4BDB68BA1D12880D4915
:1035300003209847BB1D1B88181C00F0FFFABB1D19
:103540001B88181CFFF756FFBD4605B090BDC0464E
:103550009C290020A0290020200C01001D00002033
:10356000140901002C09010090B589B000AFF86082
:10357000B960111C1A1CBB1D19803B1D1A803B1C15
:10358000173307221A700023FB610023BB61994B9C
:103590001B699847031C012B06D9974B1B78012206
:1035A0005340DBB2002B01D0012300E00023002BAD
:1035B00006D1904BDB68BA1D1288904902209847CB
:1035C000BB1D1B88002B04D18D4BFB618D4BBB6158
:1035D00007E0BB1D1B88012B03D18B4BFB618B4B81
:1035E000BB61BB68022B00D077E0BB1D1A88FB696A
:1035F00018688749131C5B009B181A01D21A13180C
:1036000018339B00FA685A50BB1D1B88804858220B
:10361000B421594341188A1812790132D2B27C4838
:103620005821B4246343C3185B181A71BB1D1A8850
:10363000784B1C683B1D18887549131C5B009B1850
:103640001A01D21A131902339B005850BB1D1B8854
:103650006F49B4225A438A1812790132D2B26C49A6
:10366000B4204343CB181A71624B1B699847031C63
:10367000012B06D9604B1B7801225340DBB2002B93
:1036800001D0012300E00023002B08D1594BDC6856
:10369000FB691B68604A0220111C1A1CA047554B8D
:1036A0001B699847031C012B06D9534B1B78012239
:1036B0005340DBB2002B01D0012300E00023002B9C
:1036C00006D14C4BDB683A1D1288544902209847BA
:1036D000FB691B685A1CFB691A60BB68012B00D090
:1036E00078E0BB1D1A88BB6918684949131C5B0048
:1036F0009B181A01D21A131822339B00CB18FA68B0
:103700005A60BB1D1B8842488822B4215943411886
:103710008A1812780132D2B23D488821B42463431A
:10372000C3185B181A70BB1D1A883A4B1C683B1DE6
:1037300018883749131C5B009B181A01D21A1319F9
:1037400002339B005850BB1D1B883149B4225A4399
:103750008A1812790132D2B22D49B4204343CB18D2
:103760001A71244B1B699847031C012B06D9224B65
:103770001B7801225340DBB2002B01D0012300E073
:103780000023002B08D11B4BDC68BB691B68244A53
:103790000220111C1A1CA047164B1B699847031CDA
:1037A000012B06D9144B1B7801225340DBB2002BAE
:1037B00001D0012300E00023002B06D10D4BDB6874
:1037C0003A1D1288154902209847BB691B685A1C8C
:1037D000BB691A60BB1D1B88181CFFF75BFE3B1CF6
:1037E000173308221A703B1C17331B78181CBD4670
:1037F00009B090BD200C01001D00002050090100FF
:10380000A8290020A4290020AC290020B0290020EC
:10381000B4290020A02900207009010094090100AA
:10382000A009010080B5B4B000AF78603960534B97
:103830001B699847031C062B06D9514B1B780122A4
:103840005340DBB2002B01D0012300E00023002B0A
:1038500005D14A4B1B684B4A0720111C98473B1C5B
:103860000C331A1CB423101C00211A1C0AF054F942
:10387000391CC0313A687B68081C111C1A1C05F001
:10388000FBFB391CC031404A3B1C0C33081C111C8B
:103890001A1C05F0E7FE031C1A1C3C4B1A703B4B2C
:1038A0001B78002B4ED0354B1B699847031C022B0D
:1038B00006D9334B1B7801225340DBB2002B01D0D9
:1038C000012300E00023002B05D12C4B1B68304A5C
:1038D0000320111C9847294B1B699847031C022B96
:1038E00006D9274B1B7801225340DBB2002B01D0B5
:1038F000012300E00023002B08D1204BDB68391C9A
:103900000C3188228A5C2349032098471B4B1B6992
:103910009847031C022B06D9194B1B7801225340F0
:10392000DBB2002B01D0012300E00023002B21D1CA
:10393000124BDB68391C0C315C228A5C164903206F
:10394000984717E00D4B1B699847031C022B06D9BB
:103950000B4B1B7801225340DBB2002B01D001231B
:1039600000E00023002B05D1044B1B680B4A032009
:10397000111C9847181CBD4634B080BD200C0100B6
:103980001D000020C00901002C1401009429002012
:10399000E8090100100A0100240A0100380A0100A8
:1039A00090B58DB000AF786039603B1C2F33072293
:1039B0001A70594B1B699847031C062B06D9574BA5
:1039C0001B7801225340DBB2002B01D0012300E021
:1039D0000023002B05D1504B1B68514A0720111CB6
:1039E00098473B1C1C3300221A703B1C1C330022DE
:1039F0005A603B1C1C3300221A723B1C1C330022F1
:103A0000DA60391C0C317A683B68081C111C1A1CDE
:103A100005F032FB391C0C31424A3B1C1C33081C9C
:103A2000111C1A1C05F01EFE031C1A1C3E4B1A70BA
:103A30003D4B1B78002B50D0374B1B699847031C1C
:103A4000012B06D9354B1B7801225340DBB2002BEA
:103A500001D0012300E00023002B05D12E4B1B6871
:103A6000324A0220111C98472B4B1B699847031CB4
:103A7000012B06D9294B1B7801225340DBB2002BC6
:103A800001D0012300E00023002B09D1224BDC6888
:103A90003B1C1C335B68264A0220111C1A1CA047E1
:103AA0001D4B1B699847031C012B06D91B4B1B7828
:103AB00001225340DBB2002B01D0012300E00023A0
:103AC000002B22D1144BDC683B1C1C33DB68194AE9
:103AD0000220111C1A1CA04717E00F4B1B699847C6
:103AE000031C012B06D90D4B1B7801225340DBB27E
:103AF000002B01D0012300E00023002B05D1064B51
:103B00001B680D4A0220111C98473B1C2F331B7861
:103B1000181CBD460DB090BD200C01001D000020FA
:103B2000480A01006814010094290020680A010075
:103B3000880A0100980A0100380A010090B5D54CA6
:103B4000A54400AF021CD44BB6208000C019C31896
:103B50001A80D2497B1807221A70D14BB6229200E4
:103B6000D219D3181A1CB423101C00211A1C09F0F6
:103B7000D3FFCC4B1B699847031C012B06D9CA4BBA
:103B80001B7801225340DBB2002B01D0012300E05F
:103B90000023002B0AD1C34BDB68BF4AB62080004C
:103BA000C01982181288C14902209847BA4BB62121
:103BB0008900C919CB181A88BD495823B42042433B
:103BC0008A18D3181B79002B2FD1B34BB622920041
:103BD000D219D3181A88B6498823B42042438A18C8
:103BE000D3181B78002B20D1AE4B1B699847031CC0
:103BF000062B06D9AC4B1B7801225340DBB2002BBD
:103C000001D0012300E00023002B0AD1A54BDB6883
:103C1000A14AB6208000C01982181288A549072041
:103C200098479E497B181B78AEE19B4BB6229200C9
:103C3000D219D3181A88984BB6208000C019C3181F
:103C40001B88591C9A4BB4204243D150924BB62149
:103C50008900C919CB181B88914AB6208000C01969
:103C60008118934AB4204343D218B423081C111C72
:103C70001A1C09F02FFF904BB6218900C919CB18E7
:103C80001A1C80239B00101C00211A1C09F044FF01
:103C9000AF229200B9183A1CBC3280239B00081C4A
:103CA000111C1A1C04F00CFDAF239B00F918834A69
:103CB0003B1C0833081C111C1A1C04F057FF031C82
:103CC0001A1C7F4B1A70AF2080003B18DA687D4BBE
:103CD0001A607B4B1B7801225340DBB2002B67D06C
:103CE000704B1B699847704B1B7801225340DBB225
:103CF000002B01D0012300E00023002B05D1694BEC
:103D00001B68714A0020111C9847664B1B69984735
:103D1000654B1B7801225340DBB2002B01D00123FD
:103D200000E00023002B11D15E4BDB685A4AB6211C
:103D30008900C9198A1811885D485822B424614342
:103D400041188A181279614900209847554B1B6920
:103D50009847554B1B7801225340DBB2002B01D012
:103D6000012300E00023002B11D14E4BDB684A4AAF
:103D7000B6208000C019821811884D488822B424CA
:103D8000614341188A181278514900209847AF21A1
:103D900089007B181B69002B04D0AF229200BB184E
:103DA0001B6900E04B4B4C4A101C191C06F0F4F93F
:103DB0004A4BDA69434B1B68391CBC31081C191C7F
:103DC0009047021C35483B181A7034497B181B7801
:103DD0000A2B1BD0334B1B699847031C012B06D9B8
:103DE000314B1B7801225340DBB2002B01D0012361
:103DF00000E00023002B05D12A4B1B68384A022023
:103E0000111C9847254ABB1808221A702D4B1A68B6
:103E10003B1CBC33101C191CFFF704FD1E4BB620C5
:103E20008000C019C3181A8821495823B42042437E
:103E30008A18D31800221A71174BB6218900C919A4
:103E4000CB181A881A498823B42042438A18D318F9
:103E500000221A70104BB6229200D219D3181A8879
:103E600013493023B42042438A18D31800221A7011
:103E7000094BB6208000C019C3181B880C4AB42116
:103E80004B43D31800221A710023B4218900C919A9
:103E90000B6070E024FDFFFF2EFDFFFFD702000046
:103EA00030FDFFFF200C01001D000020A80A0100CA
:103EB000B4290020D80A0100E4FDFFFF2C14010002
:103EC00094290020982900200C0B0100200B0100F0
:103ED000340B0100480B0100002E0020E807010010
:103EE000500B01002B4BB6229200D219D3181A881E
:103EF0002949131C5B009B181A01D21AB4208000B8
:103F0000C0190368D31818339B0000225A50214B64
:103F1000B6218900C919CB181A881F49131C5B00E8
:103F20009B181A01D21AB4208000C0190368D31854
:103F300022339B00CB1800225A60164BB621890011
:103F4000C919CB181A881449131C5B009B181A0155
:103F5000D21AB4208000C0190368D31802339B0022
:103F600000225A50B4218900C9190B680133B422C8
:103F70009200D2191360B4208000C0190368132B7B
:103F8000B0DD06497B181B78181CBD46B7239B0083
:103F90009D4490BD2EFDFFFFB4290020D7020000F4
:103FA00080B500AF074A084B101C191C06F0DAF860
:103FB000064B1B685B68034A101C191C06F0ECF8E2
:103FC000BD4680BD002E0020040C0100E02B002027
:103FD00080B500AF044B1B685B68044A101C191CB9
:103FE00006F0DAF8BD4680BDE02B0020002E002050
:103FF00080B582B000AF021CFB1D1A70034BFA1D86
:1040000012781A70BD4602B080BDC0464000002044
:1040100080B582B000AF021CFB1D1A70FB1D1B781F
:10402000012B02D0022B05D009E0064B1B68064A83
:10403000DA6004E0034B1B68044ADA60C046BD4600
:1040400002B080BDE02B0020D13F0000A13F000066
:1040500080B584B000AF78600A1CFB1C1A70102079
:1040600009F024FD031CFB60FB68002B29D07B6852
:10407000181C09F046FE031C5A1CFB681A60FB68FA
:10408000FA1C12781A72FB681B68181C09F00EFDE6
:10409000031C1A1CFB685A60FB685B68002B0AD083
:1040A000FB685968FB681B687A68081C111C1A1C9D
:1040B00009F02EFE05E0FB68181C09F001FD002345
:1040C000FB60FB68181CBD4604B080BD80B500AF26
:1040D000074B1B685B68181C09F0F2FC044B1B685B
:1040E000181C09F0EDFC024B00221A60BD4680BD91
:1040F000E02B0020F0B5474680B486B000AFF860F2
:10410000684680463A480068006878618446012223
:104110009444614600239C4662464C0FA446D3005B
:104120007B6064467B681C437C60CC00021C0132CF
:10413000131C0022141C5A0FE6001643DD00031C5A
:1041400001330733DB08DB006A46D21A95466B461B
:1041500000333B613969264B1B685A68244B1B6846
:104160001B680133081C111C1A1C09F0D1FD204BDF
:104170001C681F4B1B685B68181C09F0C2FD051CFE
:10418000FB68181C09F0BDFD031CEB18013323600C
:10419000174B1B685B68181C09F092FC144B1C68D9
:1041A000134B1B681B68181C09F080FC031C636020
:1041B0000F4B1B685B68002B14D00D4B1B685B68B2
:1041C00000221A700A4B1B685A683B69101C191CA4
:1041D00009F08AFD064B1B685A68FB68101C191C05
:1041E00009F082FDC546BD4606B004BC9046F0BD50
:1041F000E02B002080B500AF024B1B78181CBD4699
:1042000080BDC04640000020F0B5474680B490B065
:1042100000AF021CB9613B1C1F331A706B469846F5
:1042200005F064FC061C3B1C2433374A181C14217F
:10423000331C09F027FDBB69181C09F062FD031C43
:10424000FB631A1C01323A6100227A6139694A0F14
:104250007969C900F960F9681143F9603A69D200D7
:104260001A1C0132141C0022151C620FE90079602F
:10427000796811437960E20001330733DB08DB0022
:104280006946C91A8D466B460033BB63BC6BBB697C
:10429000181C09F036FD031C0133BA69201C111CDF
:1042A0001A1C09F035FD3B1C2433181C0221FFF7B2
:1042B000CFFE021C154B1A60154B181CFFF71AFF96
:1042C0003B1C1F331A78134B9200D358181CFFF76E
:1042D00011FF0F4B181CFFF70DFFBB6B181CFFF7EE
:1042E00009FF0B4B181CFFF705FF0120FFF790FE9D
:1042F000064B1B68DB689847FFF7E8FEC546BD46DE
:1043000010B004BC9046F0BD100C0100E02B002062
:10431000140C010020000020F0B5474680B496B090
:1043200000AF3962FA613B1C2733021C1A706B46DE
:10433000984605F0DBFB061C3B1C3C333D4A181C31
:104340001421331C09F09EFC3B6A181C09F0D9FCAF
:10435000031C7B651A1C01323A6100227A613969BB
:104360004A0F7969C900F960F9681143F9603A693F
:10437000D2001A1C0132141C0022151C620FE90025
:104380007960796811437960E20001330733DB0813
:10439000DB006946C91A8D466B4600333B653C6DB0
:1043A0003B6A181C09F0ADFC031C01333A6A201C5F
:1043B000111C1A1C09F0ACFC391C28311D4AFB6980
:1043C000081C142109F05EFC3B1C3C33181C022124
:1043D000FFF73EFE021C184B1A60184B181CFFF723
:1043E00089FE3B1C27331A78154B9200D358181CB2
:1043F000FFF780FE114B181CFFF77CFE3B6D181C6D
:10440000FFF778FE0D4B181CFFF774FE3B1C28339A
:10441000181CFFF76FFE0120FFF7FAFD064B1B6823
:10442000DB689847FFF752FEC546BD4616B004BC90
:104430009046F0BD100C0100E02B0020140C010090
:1044400020000020F0B5474680B496B000AF396236
:10445000FA613B1C2733021C1A706B46984605F024
:1044600045FB061C3B1C3C333D4A181C1421331CE5
:1044700009F008FC3B6A181C09F043FC031C7B652F
:104480001A1C01323A6100227A6139694A0F79694E
:10449000C900F960F9681143F9603A69D2001A1C41
:1044A0000132141C0022151C620FE9007960796842
:1044B00011437960E20001330733DB08DB00694612
:1044C000C91A8D466B4600333B653C6D3B6A181C30
:1044D00009F017FC031C01333A6A201C111C1A1C3A
:1044E00009F016FC391C28311E4AFB69081C1421EE
:1044F00009F0C8FB3B1C3C33181C0221FFF7A8FD48
:10450000021C194B1A60194B181CFFF7F3FD3B1CDA
:1045100027331A78164B9200D358181CFFF7EAFD80
:10452000124B181CFFF7E6FD3B6D181CFFF7E2FD70
:104530000E4B181CFFF7DEFD3B1C2833181CFFF741
:10454000D9FD0120FFF764FD074B1B68DB68984726
:10455000FFF7BCFDC546BD4616B004BC9046F0BD95
:10456000100C0100180C0100E02B0020140C0100BD
:1045700020000020F0B5474680B498B002AF396201
:10458000FA613B1C2733021C1A706B46984605F0F3
:10459000ADFA061C3B1C3C33404A181C1421331C4A
:1045A00009F070FB3B6A181C09F0ABFB031C7B6530
:1045B0001A1C01323A6100227A6139694A0F79691D
:1045C000C900F960F9681143F9603A69D2001A1C10
:1045D0000132141C0022151C620FE9007960796811
:1045E00011437960E20001330733DB08DB006946E1
:1045F000C91A8D4602AB00333B653C6D3B6A181C03
:1046000009F07FFB031C01333A6A201C111C1A1CA1
:1046100009F07EFBF86909F0F7F8031C0C1C391C43
:1046200028311F4A00930194081C142109F02AFB29
:104630003B1C3C33181C0221FFF70AFD021C194BDE
:104640001A60194B181CFFF755FD3B1C27331A78CD
:10465000164B9200D358181CFFF74CFD124B181C38
:10466000FFF748FD3B6D181CFFF744FD0E4B181C6F
:10467000FFF740FD3B1C2833181CFFF73BFD0120D2
:10468000FFF7C6FC074B1B68DB689847FFF71EFD6A
:10469000C546BD4616B004BC9046F0BD100C0100E6
:1046A0001C0C0100E02B0020140C01002000002055
:1046B00080B500AFBD4680BD80B500AF284B1B69FB
:1046C0009847031C093B5A1E9341DBB2002B06D0CE
:1046D000244A254B101C191C05F05EFD02E0204BFE
:1046E000DB6898471E4B5B699847031C093B5A1EC1
:1046F0009341DBB2002B05D01A4A1C4B101C191C2D
:1047000005F04AFD1A4B9B689847031C083B5A1E4C
:104710009341DBB2002B05D0124A164B101C191C1A
:1047200005F03AFD144B1B68181C002105F084FBB2
:10473000124B1B68181C012105F07EFB104B181C46
:1047400000F000FA0E4B181C012100F0FDFA0D4B91
:10475000DB6998470B4B9B699847BD4680BDC046B7
:10476000E8070100002E00203C0C01005C0C010059
:10477000840B0100840C010048000020440000204C
:10478000642C0020D408010080B500AFBD4680BD78
:1047900090B585B000AF05F0AFFA09F061F9FFF709
:1047A00087FF012005F0D4F95F4B181C06F0E0FAF2
:1047B0005D4B181C06F03CFBFFF77EFFFFF7E4FFA4
:1047C0005A4B01221A705A4B1B68181C05F0C4FB87
:1047D000031C013B5A425341DBB2002B00D1A1E044
:1047E000544B1B699847031C022B06D94F4B1B786F
:1047F00001225340DBB2002B01D0012300E0002353
:10480000002B05D14B4B1B684B4A0320111C9847CA
:104810004A4B1B68181C002105F06EFB3B1C0F3334
:1048200000221A70464A3B1C0F331B78101C191CBF
:1048300000F0A6FA031CBB60BB1D00221A803B1DC2
:1048400000221A803B1C0F331B789BB2BC1D3C4AD4
:10485000101C191C00F0AEFA031C23803B1C0F3304
:104860001B789BB23C1D364A101C191C00F0A2FAA2
:10487000031C2380314B1B68181C012105F03CFBF5
:10488000BB1D1B881A043B1D1B881343BB60294BAF
:104890001B699847031C022B06D9244B1B78012265
:1048A0005340DBB2002B01D0012300E00023002B9A
:1048B00006D1204BDB68BA1D128822490320984795
:1048C0001C4B1B699847031C022B06D9174B1B78FE
:1048D00001225340DBB2002B01D0012300E0002372
:1048E000002B06D1134BDB683A1D128815490320B3
:1048F0009847104B1B699847031C022B06D90B4B9A
:104900001B7801225340DBB2002B01D0012300E0D1
:104910000023002B06D1074BDB68BA680A49032045
:104920009847FFE74FE7C046C7320020410000200C
:1049300048000020200C0100A80C010044000020C9
:10494000642C0020CC0C0100DC0C010080B500AF11
:10495000024B181C05F0C6FEBD4680BDFC2B002096
:1049600080B584B002AF786039607B68012B33D1A9
:104970003A681B4B9A422FD11A4A1B4B101C191C28
:1049800005F0CCFC194A1A4B101C191C05F0C6FC8A
:10499000184A194B101C191C05F0C0FC174A184B7B
:1049A000101C191C05F0BAFC164A174B101C191CD8
:1049B00005F0B4FC154A164B101C191C05F0AEFC92
:1049C000144A124B0321009101210191101C191C62
:1049D0000D220E2305F062FEBD4602B080BDC0462A
:1049E000FFFF0000E42B002000080042E82B00201D
:1049F000000C0042EC2B002000100042F02B0020A5
:104A000000140042F42B002000180042F82B002074
:104A1000001C0042FC2B002080B500AF034B01209E
:104A2000191CFFF79DFFBD4680BDC046FFFF00007B
:104A300080B586B000AF78607B687B61204B3B61BE
:104A40003B1C0F3301221A703B1C0E3302221A70DA
:104A50003B691C4A934200D91A4B7A6913603B1C8C
:104A60000F331B78013B5A1E9341DBB21A1C7B6942
:104A70005A713B1C0E331B78012B14D002DC002B27
:104A800009D014E0022B02D0032B08D00FE07B6981
:104A900000221A710EE07B6901221A710AE07B691B
:104AA00002221A7106E07B6903221A7102E07B6917
:104AB00000221A717B68181CBD4606B080BDC04636
:104AC00000093D00001BB70080B584B000AFF8605E
:104AD000B960111C1A1CFB1D1970BB1D1A70FB68F4
:104AE00000225A72BB68002B06D11349134A144B9B
:104AF000081C222108F084FFFB68BA681A60FB6872
:104B0000FA1D12781A71FB68BA1D12789A71FB6847
:104B10003A1C183212785A71FB683A1C1C3212780F
:104B2000DA71FB683A1C203212781A72FB68181C82
:104B3000BD4604B080BDC0464810010070100100A1
:104B40005C10010080B582B000AF78607B68181CF3
:104B500000F048F87B681B79191C7B681B791A1CCC
:104B60001E48131C5B009B18DB00C31808331B781E
:104B70005BB2081C191C05F007FA7B689B79191CAD
:104B80007B689B791A1C1548131C5B009B18DB0083
:104B9000C31808331B785BB2081C191C05F0F4F924
:104BA0007B685B79191C7B685B791A1C0B48131CAA
:104BB0005B009B18DB00C31808331B785BB2081C32
:104BC000191C05F0E1F97A68054B101C19685A6840
:104BD00000F020F8BD4602B080BDC046E80C0100E0
:104BE0005C2C002080B582B000AF78607B685B7A77
:104BF000002B00D00BE07B6800229A727B680022B9
:104C0000DA727B680022DA607B6801225A72BD4644
:104C100002B080BD80B586B002AFF8603B1D196060
:104C20005A60FB681B68181C05F018FCFB681968C3
:104C3000FB68DA79FB681B7A381D40790090081C04
:104C4000111C1A1C002305F0D9FCFB6819683B1DD8
:104C50001A793B1D1B68081C111C1A1C05F0CEFBA1
:104C6000FB681B68181C05F0EFFBBD4604B080BD57
:104C700080B582B000AF78607B681B68181C05F0B7
:104C8000D5FB7B6800225A72BD4602B080BDC0468B
:104C900080B586B000AFF8603B1D19605A60FB68B4
:104CA0009B7A002B1DD0FB689B7A1A1C02231340B1
:104CB0000BD0EFF310837B617B695A425341DBB227
:104CC0001A1CFB68DA7272B60BE0FB689B7A1A1C3E
:104CD0000123134005D0084BFA68D2689203920B67
:104CE0009A60FA683B1D101C19685A68FFF792FF1A
:104CF000BD4606B080BDC0460018004080B582B0F9
:104D000000AF78607B689B7A002B17D07B689B7A1A
:104D10001A1C0223134005D07B68DB7A002B0DD0D0
:104D200062B60BE07B689B7A1A1C0123134005D006
:104D3000044B7A68D2689203920BDA60BD4602B0E7
:104D400080BDC0460018004080B582B000AF7860DA
:104D50000A1CFB1C1A70FB1C1B78002B06D17B68FD
:104D60001B68181C012105F083FB05E07B681B68AC
:104D7000181C002105F07CFBBD4602B080BDC0467A
:104D800080B582B000AF78600A1CFB1C1A707B688B
:104D90001A68FB1C1B78101C191C05F082FB7B6831
:104DA0001B68181C05F090FB031CDBB2181CBD46E9
:104DB00002B080BD80B584B000AF78600A1CBB1C17
:104DC0001A803B1C0C33BA1C12881A807B681B6843
:104DD000181C05F061FB031C013B5A425341DBB236
:104DE000002B1AD03B1C0C331B787A68101C191C42
:104DF000FFF7C6FF031C1A1C3B1C0C331A703B1C2C
:104E00000C335B787A68101C191CFFF7B9FF031C80
:104E10001A1C3B1C0C335A7019E03B1C0C335B789A
:104E20007A68101C191CFFF7ABFF031C1A1C3B1CF3
:104E30000C335A703B1C0C331B787A68101C191CFD
:104E4000FFF79EFF031C1A1C3B1C0C331A703B1C03
:104E50000C331B88181CBD4604B080BD80B586B0DD
:104E600004AF786039607B68012B23D13A68134B1B
:104E70009A421FD1124B181CFFF7DAFD114A124B50
:104E8000082100910021019103210291101C191C9D
:104E90000A220923FFF718FE0C4A0D4B1A21009134
:104EA0000021019103210291101C191C1D221B23BA
:104EB000FFF70AFEBD4602B080BDC046FFFF0000FE
:104EC0005C2C0020642C0020E82B0020742C002097
:104ED000EC2B002080B500AF034B0120191CFFF71D
:104EE000BDFFBD4680BDC046FFFF000090B58FB03E
:104EF00002AF021C3960FB1D1A70FB1D1B78043BBE
:104F00002E2B00D934E19A009B4BD3181B689F4687
:104F10003B687B627B6A1B78012B17D1974B1B7E0A
:104F2000012B0BD1954BDB68002B07D1934B032250
:104F30005A760420002101F004FE4EE08F4B1B7EC8
:104F4000032B4AD18D4B08225A7646E07B6A1B78A8
:104F5000002B42D1894B1B7E012B2FD1874B062280
:104F60005A76864BDB68002B08D0844B00221A60EF
:104F7000824B00225A60814B00229A600023FB6220
:104F800018E07E4BFA6A18329200D358002B0ED0EC
:104F90007A4BFA6A18329200D3581B6824331B6884
:104FA000764AF96A183189008A58101C9847FB6ABA
:104FB0000133FB62FB6A062BE3DD06E06F4B1B7ED1
:104FC000032B02D16D4B07225A760420012101F0F8
:104FD000B8FD0120012101F0B4FDCAE0674B1B7E42
:104FE000012B18D13B683B623B6A1A68634B1A601D
:104FF0003B6ADA68614B5A603B6A5A685F4B9A6059
:105000005E4B03225A760420002101F09AFD012014
:10501000002101F096FDACE03B681B785AB2574B7B
:105020001A61A6E03B68FB61FA696323D35C002B3D
:105030002FD1534B181C0021212208F06DFDFC6973
:10504000FB69181C08F05DFE031C4D4A101C211C56
:105050001A1C08F03FFD494B01221A76474B0022EB
:105060001A60464B00225A60444B00229A60FC6949
:10507000FB69181C08F045FE031CD9B2FA696223CB
:10508000D25CFB692133FF200090201C01F0E6FE7A
:105090006FE03A4B04225A766BE03B68BB61BB6918
:1050A0001B78002B02D0354B02225A7661E03B6818
:1050B0007B617B690A33181C08F023FE021C3B1C31
:1050C00012331A802F4B181C0021212208F024FDD6
:1050D0003B1C12331B88002B0BD07B691A1C0A3235
:1050E0003B1C12331B882749081C111C1A1C08F092
:1050F000F1FC7B695B785AB2204B1A617B69997825
:105100001E4A3B23D1541D4B02225A7631E03B68A4
:10511000FB601A4B5B69002B18D00023BB620FE0C9
:10512000164B5A69BB6AD318BA6A0521891AF868FE
:10513000202241188A1892791A70BB6A0133BB6227
:10514000BB6A052BECDD0D4B00225A6111E00B4BC5
:105150001B69002B0BD0094B1B691A1C3B68101CE8
:10516000191C082208F0B6FC044B00221A6100E06A
:10517000C046BD460DB090BDC41001008C2C00206F
:10518000C82C0020A62C002080B582B000AF78602B
:105190003960034B3A681A61BD4602B080BDC04613
:1051A0008C2C002080B582B000AF78607B68002234
:1051B0001A767B68FF225A767B680022DA677B6862
:1051C000181CBD4602B080BD90B58BB000AF7860B2
:1051D00002F046FC3B1C0C333E4A1A603C1C273450
:1051E0003B1C0C33181C01F06FFD031C23703B1C8F
:1051F00027331B785BB2002B0CD00620002101F076
:10520000A0FC0320012101F088FC3B1C27331B7804
:105210005BB25BE002F068FE03F0B0F82E4A2F4B61
:10522000101C191C02F07CFE7B680122DA677B6887
:1052300000225A767B6800221A607B6800225A603E
:105240007B6800229A607B680122DA607B6800221A
:105250001A617B681A1C60321C23101C00211A1C66
:1052600008F05AFC0420012101F06BFC052001210B
:1052700001F067FC0620012101F063FC04200121FC
:1052800001F04BFC0520012101F047FC0620012123
:1052900001F043FC0120012101F053FC0220012117
:1052A00001F04FFC0320012101F04BFC0120012102
:1052B00001F033FC0220012101F02FFC0320012129
:1052C00001F02BFC3B1C27331B785BB2181CBD463E
:1052D0000BB090BDED4E0000C1830000895100006D
:1052E00080B582B000AF786039607A683B68101C86
:1052F000191C0122002300F005F8031C181CBD46F0
:1053000002B080BD90B589B002AFF860B9603B6073
:10531000FB1D1A70FB68DB6F002B03D1FB68181CA8
:10532000FFF752FFFB68DB68002B08D0FB68002208
:105330001A60FB6800225A60FB6800229A60BB6812
:10534000181C08F0DEFC031CD9B2B868FB1D1A78E3
:105350003B68FF24009401F081FD031CDBB2DB09F4
:10536000DBB2002B05D0FB6804225A76FB685B7E1B
:1053700046E0FB6800225A76FB6801221A7604F0A8
:10538000AFFB031C7B6102E0002001F0CDFCFB6859
:105390005B7E1A1C032313400FD1FB685B7E1A1C33
:1053A0000623134009D104F09BFB021C7B69D21A2F
:1053B000154B9A4201D8012300E00023002BE3D1D2
:1053C000FB685B7E1A1C0323134002D1FB6800229A
:1053D0001A76FB683C33181C0021212208F09CFB44
:1053E000FB681C1C3C34BB68181C08F08AFC031CBE
:1053F000BA68201C111C1A1C08F06CFBFB685B7E51
:10540000181CBD4607B090BD5FEA000080B582B0B1
:1054100000AF786039607B68034A1A607B68181CAB
:10542000BD4602B080BDC0468811010080B582B083
:1054300000AF786039607A683B68101C191CFFF770
:10544000E5FF7B68054A1A607B683A6852685A60D3
:105450007B68181CBD4602B080BDC046B015010077
:1054600080B584B000AF786039603B68181C01F0EB
:105470002FFD3B1C0833181C01F02AFD3B1C0F3389
:1054800000221A7014E03B1C0F331B783A68D318C3
:105490003A1C0F32127805218A1A391C08318A5CAD
:1054A0001A703B1C0F331A783B1C0F3301321A70F1
:1054B0003B1C0F331B78052BE5D93B68181CBD46F8
:1054C00004B080BD80B582B000AF78607B681B6897
:1054D000181CBD4602B080BD80B582B000AF7860B8
:1054E0007B685B7E032B07D07B685B7E072B03D03A
:1054F0007B685B7E082B02D17B683C3300E0002395
:10550000181CBD4602B080BD80B584B000AF786085
:10551000002001F009FC7B6800221A6101F0CCFC3C
:10552000031CDBB2DB09DBB2002B01D000231AE045
:1055300004F0D6FA031CFB6002E0002001F0F4FB4B
:105540007B681B69002B09D104F0CAFA021CFB68B6
:10555000D21A074B9A4201D8012300E00023002B06
:10556000EBD17B681B69181CBD4604B080BDC046EA
:10557000E703000080B584B000AF78603B1C0F33B8
:105580007A68527E1A707B68DB6F002B03D17B68D0
:10559000181CFFF719FEFF2001F06AFC031CDBB2A8
:1055A000DB09DBB2002B01D0002326E07B68002260
:1055B0005A7604F095FA031CBB6002E0002001F06B
:1055C000B3FB7B685B7E1A1C0223134009D104F0F5
:1055D00087FA021CBB68D21A0A4B9A4201D80123EF
:1055E00000E00023002BE9D17B683A1C0F321278CF
:1055F0005A7601F08BFC031CDBB25BB2181CBD4673
:1056000004B080BD8713000080B584B000AF78601F
:105610000A1CFB1C1A703B1C0F337A68527E1A70EE
:105620007B681A33181C0021212208F075FAFB1C34
:105630001B78181C01F05BFC031CDBB2DB09DBB23E
:10564000002B01D0002324E07B6800225A7604F06E
:1056500047FA031CBB6002E0002001F065FB7B6899
:105660005B7E1A1C0223134009D104F039FA021C94
:10567000BB68D21A094B9A4201D8012300E00023EB
:10568000002BE9D17B683A1C0F3212785A767B687E
:105690001A33181CBD4604B080BDC046CF070000B9
:1056A00080B584B000AF78600A1CFB1C1A703B1CEC
:1056B0000F337A68527E1A70FB1C1B78181C01F09D
:1056C00016FC031CDBB2DB09DBB2002B01D000238C
:1056D00024E07B6800225A7604F002FA031CBB60C7
:1056E00002E0002001F020FB7B685B7E1A1C022395
:1056F000134009D104F0F4F9021CBB68D21A094B1B
:105700009A4201D8012300E00023002BE9D17B68F5
:105710003A1C0F3212785A767B681B69181CBD46FA
:1057200004B080BDCF07000080B584B000AF7860C2
:105730000A1CFB1C1A703B1C0F337A68527E1A70CD
:10574000FB1C1B78181C01F0D2FB031CDBB2DB092D
:10575000DBB2002B01D0002325E07B6800225A76C3
:1057600004F0BEF9031CBB6002E0002001F0DCFA8B
:105770007B685B7E1A1C0223134009D104F0B0F948
:10578000021CBB68D21A0A4B9A4201D8012300E0DE
:105790000023002BE9D17B683A1C0F3212785A762D
:1057A0007A683B23D35C181CBD4604B080BDC0465C
:1057B000CF07000080B582B000AF78607B68DB6FF8
:1057C000002B03D17B68181CFFF7FEFC002001F0C2
:1057D000ABFA7B685B7E181CBD4602B080BDC0463C
:1057E00080B586B000AFF860B9607A607A68BB684F
:1057F000101C191C04F066FC031C002B01D00123B3
:1058000050E00520002101F09CF90220002101F068
:1058100098F9FB6800221A61BB68181C02F01CFD95
:10582000031CDBB2DB09DBB2002B09D00520012110
:1058300001F087F90220012101F083F9002331E012
:1058400004F04EF9031C7B6102E0002001F06CFAC9
:10585000FB681B69002B09D104F042F9021C7B692B
:10586000D21A124B9A4201D8012300E00023002BE8
:10587000EBD10520012101F064F90220012101F0A2
:1058800060F9FB681B69002B01D100230AE0FB686B
:105890001B697A68101C191C04F03AFCFB68002292
:1058A0001A610123181CBD4606B080BD1F4E0000C2
:1058B00080B584B002AF786039607B68012B10D16D
:1058C0003A68094B9A420CD1084B00220092181CEE
:1058D00000210022002304F0DFFB054B181CFFF71A
:1058E00061FCBD4602B080BDFFFF0000842C00209B
:1058F0008C2C002080B500AF034B0120191CFFF752
:10590000D7FFBD4680BDC046FFFF000080B584B014
:1059100002AF786039607B68012B0CD13A68074B85
:105920009A4208D1064B00220092181C0021002246
:10593000002304F0B1FBBD4602B080BDFFFF0000B4
:10594000182D002080B500AF034B0120191CFFF774
:10595000DDFFBD4680BDC046FFFF000080B582B0C0
:1059600000AF78607B68054A1A607B6800225A6045
:105970007B68181CBD4602B080BDC046C015010042
:1059800080B582B000AF78607B68181CFFF7E6FF37
:105990007B68054A1A607B68FA2292009A607B68ED
:1059A000181CBD4602B080BD3012010080B584B025
:1059B00000AFF860B9607A60FB681B6830331B6821
:1059C000F868B9687A689847031C181CBD4604B08B
:1059D00080BDC04680B582B000AF78607B68181C7F
:1059E000FFF7CEFF7B68034A1A607B68181CBD4630
:1059F00002B080BDE811010080B582B000AF7860D0
:105A00007B68181CFFF7E6FF7B68124A1A607B6808
:105A1000FF221A747B6800225A617B6800229A6117
:105A20007B680022DA617A68B323DB000021D1525F
:105A30007A68094B0021D1527A68084B0021D15075
:105A40007A68074B0021D1527B68181CBD4602B012
:105A500080BDC046981101009A0500009C05000019
:105A6000180B000090B58BB002AF78600A1CBB1C0D
:105A70001A800023BB607B6800225A617B68002289
:105A80009A617B680022DA617A68B323DB00002127
:105A9000D1527A684F4B0021D1527A684E4B002187
:105AA000D1507A684D4B0021D1523B1C0C3302225D
:105AB0001A80BB1C1B881B029AB2BB1C1B881B12C2
:105AC0009BB213439BB29AB23B1C0C335A803B1CD3
:105AD0000C3300225A6002200221002202F02AFA2E
:105AE000031C1A1C7B681A747B681B7CDB09DBB205
:105AF000002B01D0002369E07B68187C7B68191CAF
:105B000014317B681A1C18327B681C337C68203483
:105B100040B2009402F03CFC7B681B7C5AB23B1CF8
:105B2000083300210091101C0121002202F0AEFB7D
:105B30007B681B7C5AB23B1C0C33101C191C1022B6
:105B400002F042FA031CDBB2DB09DBB2002B0AD005
:105B50007B681B7C5BB2181C02F00CFB7B68FF228D
:105B60001A74002332E003F0BBFF031CFB6102E068
:105B7000002001F0D9F87B685A690423134009D149
:105B800003F0AEFF021CFB69D21A154B9A4201D8F2
:105B9000012300E00023002BEAD17B685A6904232B
:105BA00013400AD17B681B7C5BB2181C02F0E2FA3E
:105BB0007B68FF221A74002308E07B685B6904227B
:105BC000191C91430A1C7B685A610123181CBD46AD
:105BD00009B090BD9A0500009C050000180B00005C
:105BE000CF07000080B588B002AFF860B960BB1D78
:105BF0001A80BB68181CFCF7A9FA031C7B61FB68C0
:105C00001B6818331B68F968BA1D1288081C111C20
:105C10009847031C5A425341DBB2002B01D00023AA
:105C20000CE0FB681B7C5AB23B1C1433042100912E
:105C3000101C0121012202F029FB0123181CBD4682
:105C400006B080BD80B582B000AF7860002001F062
:105C50006BF87B681B7C5BB2013304D07A68B3239A
:105C6000DB00D35A00E00023181CBD4602B080BD03
:105C700080B582B000AF78607B681B7C5BB2002B84
:105C800000DA0EE07B681B7C5BB2181C02F08CFB18
:105C90007B681B7C5BB2181C02F06CFA7B68FF22ED
:105CA0001A74BD4602B080BD90B589B000AFF860EF
:105CB000B960BB1D1A803B1C1033181C04F0E4F9BA
:105CC0001549BA683B1C1033081C111C1A1CFFF73D
:105CD00087FD031C5A1E9341DBB2002B16D0FB68D4
:105CE0001B6820331C683A1C18323B1C1033101CF4
:105CF000191CFFF79BFBF9683A1C1832BB1D1B8867
:105D0000081C111C1A1CA047031C00E00023181CCF
:105D1000BD4609B090BDC0468C2C002080B584B033
:105D200000AFF860B960BB1D1A80BB68181CFCF797
:105D30000DFA011CFA68084BD150FA68B91D074BDF
:105D40000988D152FA68064B0021D1520123181C50
:105D5000BD4604B080BDC0461C0B00001A0B0000FD
:105D6000180B000080B588B002AF786005200021D4
:105D700000F0E7FE0220002100F0E3FE3B1C0833A8
:105D800002221A807A68234BD35A1B029AB279688E
:105D9000204BCB5A1B129BB213439BB29AB23B1CB3
:105DA00008335A807A681C4BD2583B1C08335A601F
:105DB0007B68197C7B68B420C0001A187868174B80
:105DC000C35A49B2381C0830009010200190081CBA
:105DD000111C1A1C002302F047F9031C9BB2DB0BB9
:105DE000DBB2002B09D00520012100F0AAFE022021
:105DF000012100F0A6FE002308E00520012100F0AB
:105E0000A0FE0220012100F09CFE0123181CBD46CB
:105E100006B080BD1A0B00001C0B0000180B000020
:105E200080B582B000AF78600A1CFB1C1A707B68DA
:105E30001B6804331B687968FA1C081C111C0122BA
:105E40009847031C181CBD4602B080BD80B584B0C5
:105E500000AFF860B9607A60FA68174BD35A1A1C21
:105E60007B68D218AF23DB009A4206D9FA68124B3E
:105E7000D35AAF22D200D31A7B60FA680E4BD35AA2
:105E8000B422D2009B18FA68D118BA687B68081C43
:105E9000111C1A1C07F01EFEFA68074BD25A7B68C9
:105EA0009BB2D31899B2FA68034BD1527B68181C85
:105EB000BD4604B080BDC046180B000080B582B05E
:105EC00000AF7860002000F02FFF7B681B7C5BB286
:105ED000013372D07A68B323DB00D35A002B04D08D
:105EE0007A68B323DB00D35A68E07B689A697B68E1
:105EF000DB699A4261D07B68DA69796820238A1865
:105F0000D3181B781B029AB27B68DB69591C78682E
:105F100020234118CB181B78D31899B27A68B32381
:105F2000DB00D1527B68DB699A1C796820238A18D0
:105F3000D3181B781B029AB27B68DB69D91C78687E
:105F400020234118CB181B78D31899B27A681D4BBF
:105F5000D1527B68DB691A1D796820238A18D3180F
:105F60001B781A067B68DB69591D78682023411865
:105F7000CB181B781B04D2187B68DB69991D7868E5
:105F800020234118CB181B781B02D2187B68DB69D1
:105F9000D91D786820234118CB181B78D1187A684E
:105FA000094BD1507B68DB691A1C08327B68DA61C7
:105FB0007A68B323DB00D35A00E00023181CBD46E7
:105FC00002B080BD9A0500009C05000080B584B039
:105FD00000AF78607B681B6830331B6879683A1CB7
:105FE0000F32081C111C01229847031C01335A422E
:105FF0005341DBB2002B02D001235B4202E03B1C89
:106000000F331B78181CBD4604B080BD80B586B028
:1060100000AFF860B9607A60FB681B6808331B68E2
:10602000FA68101C9847021C3B1C16331A803B1C54
:1060300016331B88002B02D101235B4267E03B1C17
:1060400016331A887B689A4203D93B1C16337A6848
:106050001A8000233B6151E0BA683B69D118FB68A4
:10606000DB69581CFA68D061F8682022C3189B18B5
:106070001B780B70FA68B323DB00D35A013B99B24B
:10608000FA68B323DB00D152FB68DA69FB689B69CD
:106090009A4230D1FB6800229A61FB689A69FB68DA
:1060A000DA61FB685B690222191C91430A1CFB68D8
:1060B0005A61194B1B78002B0DD0FB681B7CFA68CA
:1060C000203259B2AF23DB00081C111C1A1C00231C
:1060D00002F080F80CE0FB681B7CFA68283259B2A9
:1060E000AF23DB00081C111C1A1C002302F072F8FD
:1060F000002000F019FE3B6901333B613B1C163365
:106100001A883B699A42A7D83B1C16331B88181C77
:10611000BD4606B080BDC046582D002080B582B077
:1061200000AF78607B681B6808331B687A68101CB6
:106130009847031C5A425341DBB2002B02D0012383
:106140005B4206E07B68DA69796820238A18D318F5
:106150001B78181CBD4602B080BDC04680B582B019
:1061600000AF786006E07B681B680C331B687A68B8
:10617000101C98477B681B6808331B687A68101CE2
:106180009847031C5A1E9341DBB2002BEBD1BD464E
:1061900002B080BD80B582B000AF786039603A68E7
:1061A000054BD3587A68101C191C03F083FF7868DC
:1061B000BD4602B080BDC0469C05000080B582B0DF
:1061C00000AF78607A68034BD35A181CBD4602B002
:1061D00080BDC0469A05000080B584B002AF7860EB
:1061E00039607B68012B0CD13A68074B9A4208D181
:1061F000064B00220092181C00210022002303F00D
:106200004BFFBD4602B080BDFFFF0000202D0020E7
:1062100080B500AF034B0120191CFFF7DDFFBD4621
:1062200080BDC046FFFF000080B584B002AF78603B
:1062300039607B68012B0CD13A68074B9A4208D130
:10624000064B00220092181C00210022002303F0BC
:1062500023FFBD4602B080BDFFFF0000282D0020B7
:1062600080B500AF034B0120191CFFF7DDFFBD46D1
:1062700080BDC046FFFF000080B584B002AF7860EB
:1062800039607B68012B0CD13A68074B9A4208D1E0
:10629000064B00220092181C00210022002303F06C
:1062A000FBFEBD4602B080BDFFFF0000302D002088
:1062B00080B500AF034B0120191CFFF7DDFFBD4681
:1062C00080BDC046FFFF000080B584B002AF78609B
:1062D00039607B68012B0CD13A68074B9A4208D190
:1062E000064B00220092181C00210022002303F01C
:1062F000D3FEBD4602B080BDFFFF0000382D002058
:1063000080B500AF034B0120191CFFF7DDFFBD4630
:1063100080BDC046FFFF000080B584B000AFF860CC
:10632000B960111C1A1CFB1D1970BB1D1A70F8688E
:10633000B968FB1D1A78BB1D1B7800F005F8FB68D7
:10634000181CBD4604B080BD80B588B000AFF860B1
:10635000B960111C1A1CFB1D1970BB1D1A70FB685B
:10636000FB61BB68BB613B1C1733FA1D12781A70C6
:106370003B1C1633BA1D12781A70BB69194A934236
:1063800000D9184BFA6913603B1C17331B78013B8B
:106390005A1E9341DBB21A1CFB695A713B1C16331F
:1063A0001B78012B14D002DC002B09D014E0022B47
:1063B00002D0032B08D00FE0FB6900221A710EE017
:1063C000FB6901221A710AE0FB6902221A7106E0D8
:1063D000FB6903221A7102E0FB6900221A71BD46B3
:1063E00008B080BD001BB70080B586B000AFF86074
:1063F000B960BB1D1A803B1C153300221A703B1C70
:10640000173300221A703B1C163300221A70FB68E7
:10641000002B07D13B1C1533FB603B1C17330122BB
:106420001A700CE0BB68002B07D13B1C1533BB6016
:106430003B1C163301221A7001E0FA233EE0224A87
:10644000224B101C19685A68FEF722FC204B1B785F
:106450005BB2181C002103F04FFD1FE0FB681B78A6
:10646000194A101C191CFEF78BFC031C1A1CBB6874
:106470001A70BB1D1A88BB1D013A1A803B1C1633CB
:106480001B78002B02D1BB680133BB603B1C173368
:106490001B78002B02D1FB680133FB60BB1D1B88FE
:1064A000002BDBD10A4B1B785BB2181C012103F0D7
:1064B00023FD054B181CFEF721FC00235BB2181CC2
:1064C000BD4606B080BDC046742C0020402D002083
:1064D0005700002080B584B000AF78603B1C0F33BC
:1064E00000221A700F4B181CFEF72CFB0E4B1B786A
:1064F0005BB2181C012103F09FFC0B4B1B785BB2B5
:10650000181C012103F0F8FC01F094FA012001F0BD
:1065100087FA3B1C0F331B785BB2181CBD4604B0D6
:1065200080BDC046742C00205700002090B585B077
:1065300000AF021C3960FB1D1A703B1C0F33002298
:106540001A70FB1D1B78032B11D13B68BB60BB6825
:106550001968BB685A68BB681B893C1C0F34081C4F
:10656000111C1A1CFFF740FF031C237004E03B1CA6
:106570000F33FF221A70C0463B1C0F331B785BB2EF
:10658000181CBD4605B090BD80B500AF044B181C6B
:10659000FEF76EFB00235BB2181CBD4680BDC046F3
:1065A000742C002080B582B000AF786039607B68C1
:1065B000012B0BD13A68074B9A4207D1064A074B89
:1065C000101C191C01220223FFF7A6FEBD4602B0D3
:1065D00080BDC046FFFF0000402D0020001BB7001B
:1065E00080B500AF034B0120191CFFF7DBFFBD4650
:1065F00080BDC046FFFF000013B5041CA52040016C
:10660000211C00F029FA002C0BD0A520002340010A
:1066100001A9019300F01CFA0028EFD1019BA342CD
:10662000ECD1002016BD0000F7B5012001F0F8F90B
:106630000120694600F00CFA051E4BD1061C009B98
:1066400002211943012000F007FA012001F0E8F9C6
:10665000214C01A9206800F0FBF9271C002802D179
:10666000019B002B27D10E230120236001F0D8F9D4
:10667000206801A900F0ECF9002802D1019B002B51
:1066800019D113230120236001F0CAF9206801A960
:1066900000F0DEF900280ED01BE00136301C03218B
:1066A00005F0C6F900290AD1022001F0B9F93868CD
:1066B00001A900F0CDF9019B5B07EED505E0009B39
:1066C00002211943012000F0C7F9019B5B07B6D5F1
:1066D00000E0051C68B2FEBD5000002007B513485D
:1066E00001A900F0B5F9002801D0FA201BE0019BB8
:1066F0008021490019430D48019100F0ADF90028AF
:10670000F3D1D020400101A900F0A2F90028ECD17A
:10671000019B80214902D02019434001019100F0E2
:106720009BF90028E1D140B20EBDC046081400001C
:10673000F7B5214D2E682C1C002E3AD18020400147
:10674000291C00F085F9071E27D11C4801A900F07B
:106750007FF9061E01D02F6029E02B68184A93426A
:1067600004D1019A012A1AD0164B08E0164A934226
:1067700009D1019B032B12D0042B02D1134B2360B0
:106780000DE0134BFBE7134A934208D1EC20800342
:10679000291C00F05DF9002801D02E6007E0226876
:1067A0000D4B1340A022D2021343236001E00020CE
:1067B00000E02068FEBDC046482D0020F413000014
:1067C000A0021000A1021000B0021000B1021000DF
:1067D000B2021000F0001000FFFFF0FF38B5041CFB
:1067E000264800F031F9002803DB012001F018F9F8
:1067F000F6E7234800F028F9C30709D5022C15D184
:106800002049214800F028F980212048490315E05B
:106810001F4D012001F004F9013D1E4800F014F95C
:10682000002D27D01C4B9842F3D1E7E7032C09D168
:106830001449154800F010F91448002100F00CF933
:10684000002403E0043C63425C41E401FFF770FF75
:10685000E8230005000D9B00984202D1022020434E
:1068600000E0201CFFF7C8FE0A480C4900F0F4F8CD
:10687000002000E0FB2040B238BDC04614100000EC
:10688000BC0702007DD51C3CAC0702008C10000048
:10689000D10700000C000C009ED0AD10612F52EF0C
:1068A00037B5134B02380093124B01931D1C01287E
:1068B00003D8114B0093114B0193FA24E4000020FC
:1068C000019B83420AD0022001F0AAF8013C009803
:1068D00000F0BAF8002CF3D1FB2407E0019B002460
:1068E000AB4203D10248211C00F0B6F860B23EBDB5
:1068F0008C10000036265302AC070200C3C15DD7DE
:1069000037B5A020002301A940010193124C00F0EB
:106910009FF80199A02021404001019100F09CF8CE
:10692000251C002816D10A24A020400101A900F04E
:106930008FF800280ED101998020C000084009D0AE
:10694000A020013C29404001E4B2019100F084F80C
:10695000002CE9D140B23EBDFFFBFFFF37B5041C60
:106960000D1C0A4801A900F073F800280CD101227F
:10697000019BA240002D01D0134300E093430193FB
:106980000248019900F068F840B23EBD08010200DB
:1069900037B5041C0D1C0A4801A900F059F800285D
:1069A0000CD10122019BA240002D01D0134300E035
:1069B000934301930248019900F04EF840B23EBD66
:1069C0000001020030B587B00023041C01A918485B
:1069D0000493059300F03CF8002825D1019B002B7F
:1069E0000BD0C0208002184304A9082200F038F818
:1069F000002819D1049A019205E00E4801A900F07F
:106A000027F8002810D1019AC02093B280021843C1
:106A100002A90622019300F023F802A9051C062210
:106A2000201C00F0CFFF281C40B207B030BDC0468C
:106A300008000C009C14000008B5FFF74BFD08BDD2
:106A400008B5FFF7A1FD08BD08B500F0D7FE08BDE9
:106A500008B500F0D9FE08BD08B500F0DFFE08BD9E
:106A6000F7B50E4B051C1C880191083C161CA4B2FE
:106A70000027019BD919A64204D8B2B2281C00F005
:106A800017FF09E0281C221C00F012FF002803D188
:106A9000361B3F192D19ECE740B2FEBD4C0000201B
:106AA000F7B50E4B051C1C880191083C161CA4B2BE
:106AB0000027019BD919A64204D8B2B2281C00F0C5
:106AC0001DFF09E0281C221C00F018FF002803D13C
:106AD000361B3F192D19ECE740B2FEBD4C000020DB
:106AE000062815D80F23042815D01023052812D006
:106AF000122306280FD0032300280CD004230128DA
:106B000009D00523022806D0032803D1062302E07A
:106B1000FF2300E0FE2358B2704738B5051C0C1C5B
:106B200000F01AFA00280AD1281CFFF7D9FF002824
:106B300003DBC0B2211CFFF711FF00F033FA40B2B3
:106B400038BD38B5051C0C1C00F006FA00280AD127
:106B5000281CFFF7C5FF002803DBC0B2211CFFF78C
:106B600017FF00F01FFA40B238BD000070B5041CDA
:106B70009AB0151C2C2869D01B2804D1101C01A91F
:106B80000822002372E0062803D1101C01A930223C
:106B90006BE00E2800D18FE0322803D1101C01A930
:106BA0001022EEE72F2808D101A80021642200F06E
:106BB00012FF281C01A96422E3E734280DD1101C20
:106BC00001A90422002300F0A9FB011E74D13B4B54
:106BD0001B68002B70D0201C6DE0112814D1384A9E
:106BE000002301AC1370281C211C042200F096FB2A
:106BF000002861D1334B22781A70304B1B68002B70
:106C00005AD01120211C56E013280DD1101C01A9C7
:106C10002C22002300F082FB00284DD1274B1B685B
:106C2000002B49D013202AE004280DD1101C01A903
:106C30000422002300F072FB00283DD11F4B1B688B
:106C4000002B39D004201AE0652803D1281C01A9A3
:106C5000042296E7092803D1101C01A9642204E04C
:106C60002A280ED1101C01A90422012300F056FB92
:106C7000002821D1114B1B68002B1DD0201C01A91D
:106C800019E0202818D101AE101C311C0822002365
:106C900000F044FB00280FD1281C0830B28801996D
:106CA000012300F03BFB002806D1044B1B68002B9E
:106CB00002D0201C311C98471AB070BD4C2D00200A
:106CC000502D0020512D002070B58AB06B46012652
:106CD000DE71073300281DD00168104A00251160BD
:106CE0000F4A181C157000F0D9FB041EAC4212D1DB
:106CF00000F08EF9041EAC4208D10A49301C00F0A5
:106D000055FB02A800F07AFB041C04E0281C00F0EC
:106D1000EAFB00E0F42460B20AB070BD4C2D002004
:106D2000502D00206D6B000008B50023084A9A180A
:106D30005268002A02D01268910705D41033B02B94
:106D4000F4D100F043FA00E0F42040B208BDC046A0
:106D5000AC340020F0B5A5B01C1C2AAB1B880690F3
:106D600005932BAB1B780F1C161C0793012A03D12C
:106D70007B1E1F2B1BD901E0002C01D1F4206AE0FF
:106D8000022AF5D1201C00F02EFE4028F0D100236D
:106D9000E25C111C30393629F0D80A390629EDD9C0
:106DA000473A192AEAD90133402BF1D1E0E7059996
:106DB0000D2901D9FF29E1D109AD68463A1C6A3095
:106DC000EF19069900F0FEFD3B1C403300279F7130
:106DD000059A6B462A33DA87079A531E9A416B4607
:106DE0008B331A70263B1E70032E13D123782B7021
:106DF000032BC3D862781023111C6A7099430A29A7
:106E0000BCD16846A11C263000F0DCFD6378EB188D
:106E10009F7016E0022E0AD1201C00F0E4FD431EF4
:106E20009BB23F2BAAD8421C211C281C04E0042E34
:106E300005D1281C211C3E2200F0C4FD01E0012EDA
:106E40009CD10023009301930293012028212A1C46
:106E50006C2300F001F940B225B0F0BD13B504ACCD
:106E60002488009400240194FFF774FF16BD0000ED
:106E700010B5104C86B02378011CDBB2002B14D166
:106E8000021C0E3AD2B2F120F02A0FD905AA1170D5
:106E900001200093019302931021042300F0DCF8F9
:106EA000002803D10123237000E0F22040B206B095
:106EB00010BDC046502D00201FB500230093019344
:106EC000029303211A1C012000F0C6F805B000BD92
:106ED00010B5041C00F040F8002806D1201CFFF774
:106EE00071FD002801D100F05DF840B210BD7FB502
:106EF000002305AA10701221009301930293012030
:106F0000042300F0A9F807B000BD0000014B187879
:106F1000C0B27047512D0020024B1A780132D2B214
:106F20001A707047602D00207047000007B50120DF
:106F300000F0D2FD074801A9FFF78AFD002806D11D
:106F4000019B0221194303480191FFF785FD40B2DF
:106F50000EBDC0467010000010B50E4C2378002BFB
:106F600005D0237800200133DBB2237010E00A4BF8
:106F70001A78032A02D01B78042BF2D1FFF754FBB6
:106F8000002805D105480649FFF766FD0028E8D02E
:106F900040B210BD7C2D00206C2D0020741000002C
:106FA0007856000007B5164B1A78002A03D01A78D5
:106FB000013AD2B21A701B78002083421DD1114BC6
:106FC000021C1978032902D01B78042B15D10E4816
:106FD0000E490192FFF740FD00280ED1012001A9C2
:106FE000FFF736FD002808D101990223194204D089
:106FF000994301200191FFF72FFD40B20EBDC0461D
:107000007C2D00206C2D0020741000002143000016
:10701000094B10B500241C60084B09481C60094B43
:107020001C70094B1C70094B1C7000F043FD084A92
:10703000084B201C1A6010BD5C2D0020702D002014
:10704000196F00007C2D00206C2D0020602D002089
:10705000296F0000642D0020F0B58BB01C1C10AB14
:107060000E1C02CB02921B887F22019312AB1B885D
:107070003240039306AB5A70082218705A80051CE0
:107080005A88002904D001998A1803998A1800E0C7
:10709000A21892B25A80FFF75FFF031C002B00D0AA
:1070A00086E06F460893FB820793079B36021D43D9
:1070B0000795079B06AD1E430796079A6B883E48C7
:1070C0001B04134307930799FFF7C6FC1637031CED
:1070D000002B6DD10793079B022213430793079957
:1070E0003648FFF7B9FC031C002B61D108933B80A5
:1070F0006E4616363288324B9A4216D82F4807A968
:10710000FFF7A6FC002810D1079F02231F4007D1DC
:107110002C4808A9FFF79CFC002806D0089704E03B
:10712000338801339BB23380E2E7089B002B3ED0CB
:10713000089B291C09936B8808229BB26B800998D5
:10714000FFF7AEFC002833D1099B029A083309935C
:10715000002A09D0111C0998221CFFF7A1FC002865
:1071600026D1099BE3180993109B002B0FD003999C
:10717000099B0C1BE418099409981099019AFFF7D0
:107180008FFC002814D1099B019AD3180993089BFE
:1071900002229B000793079B0B4813430793079911
:1071A000FFF75AFC002803D1FFF7FCFE00E0FD20AA
:1071B00040B20BB0F0BDC0468C100000781000004B
:1071C000E7030000000415006C100000F0B5494B07
:1071D00085B01A78002A0AD1474B1C78E4B2002CFB
:1071E00000D184E01A78013AD2B21A700FE000F0B0
:1071F0001FFE00247BE0414801A9FFF729FC041E83
:107200000AD03C4A1378002B71D1002CE4D0FFF750
:10721000A3FE041EF5D1EEE7019A0126324262D0A8
:1072200000F05AFC01993548B1430191FFF714FC75
:10723000041EE6D1324AFE241070019A97043F0DD5
:10724000DFD0039003A92F48FFF702FC041E0BD1E7
:1072500002AD0398291C0422FFF702FC6B88041C72
:107260009BB26B80002803D0301C00F035FCC8E7CF
:107270006B88BB4207D06B88FF1A042F03DD301CDC
:1072800000F02AFC2DE02B78012B01D11E4B12E0DF
:107290002B78022B01D11D4B0DE02B78042B01D153
:1072A0001B4B08E02B78062B01D11A4B03E02B78FF
:1072B000072B16D1184B1B68002B07D068786988FC
:1072C000039A0839C0B289B208329847094A13783C
:1072D000002B96D10A4A1378002B04D1FFF726FE23
:1072E00001E0FA248DE7FFF75DFE041C89E760B238
:1072F00005B0F0BD582D0020602D0020701000005A
:10730000742D0020841000005C2D0020702D0020C2
:10731000782D0020542D0020682D0020F0B585B078
:10732000051C0F1C141C0193002803D0002901D058
:10733000002A04D1019A002A29D1F4202CE018480F
:1073400003A9FFF785FB002826D1164802A9039E52
:10735000FFF77EFB00281FD1B604360DB442ECD8EF
:10736000029B9D42E9D32A19F31800929A42E4D86D
:10737000281C391C221CFFF773FB00280CD1029B30
:10738000009AF618964202D0019B002B04D0064BBF
:1073900001221A70FFF7CAFD40B205B0F0BDC04629
:1073A0007010000084100000742D0020013800B51A
:1073B000062813D804F0EEFA06040A08120C0E0090
:1073C000084B08E0084B06E0084B04E0084B02E0DD
:1073D000084B00E0084B1960002000E0F42040B2A8
:1073E00000BDC046702D00205C2D0020782D0020AF
:1073F000642D0020542D0020682D002073B500233B
:10740000041C01A920480193FFF722FB1F4B019A9E
:10741000061C9A4204D11E4801A9FFF719FB061C5D
:10742000019B0F251A0C91B2080A2A40090929402C
:1074300062729AB22172110A12092A402B402171FC
:107440006271A371E071FFF773F92379A279617911
:107450001B022A401A430901FF23194020600A43F6
:10746000607AE179054009020D43217A09010B4058
:1074700008492B438B4200D9F326074B9A4200D888
:10748000F32670B276BDC046AC070200C3C15DD71B
:1074900048100000301300002F13000038B50028FA
:1074A00003D005786B1E032B00D901250020FFF7C0
:1074B000C3FA041E15D100F0BBF9281CFFF78EF9A2
:1074C000041E0CD1281CFFF7EBF9041E07D1023D66
:1074D000012D06D9FFF702F9002802D0041CFFF79E
:1074E000AFFA60B238BD10B5FFF70AFA041E09D131
:1074F00001F06CF8041E05D1FFF7A2FA041E01D1B9
:1075000000F076F960B210BD1FB501AB0022029009
:1075100019810320191C0192FFF708F805B000BD7E
:1075200073B56C46061C0734CF2806D0031C3B33CA
:10753000DBB2012B01D90B250EE0201C0121FFF746
:10754000E3FF0028F7D000201CE02378B3420AD0E4
:10755000013DEDB2002D06D0201C0121FFF7D4FF24
:107560000028F2D0EFE70B25201C0121FFF7CCFF0C
:107570000028E8D12378002B03D0013DEDB2002D87
:10758000F2D1012040B276BDF0B585B000900C1C60
:10759000019200278026B601B44200D8A6B20A257F
:1075A00068460B300121FFF7AFFF002801D0002013
:1075B00020E06A46D37A1B090F2B05D0013DADB2FE
:1075C0002BB20133ECD1F2E72DB2002DEFDD009BA1
:1075D000B6B238B21818311CFFF796FF0028E6D172
:1075E000019A002A09D0A41BF319A4B29FB2002C5F
:1075F000D0D1012040B205B0F0BD054B1B78002B67
:10760000F1D103A80221FFF77FFF0028EBD0CEE7DE
:107610007D2D00201FB501AB0190002219810320B0
:10762000191C0292FEF782FF05B000BD30B585B08F
:1076300008AC257801AC2070C1380E2857D804F06A
:10764000A9F92121360E19192B2B480856565656E2
:107650001B000B0C63700B0AA370E17010E00B0AA7
:10766000DBB2002D02D08022524213436370A1701E
:10767000002304E0002300E0FF236370A370E370A5
:10768000052138E00A0C62700A0AA2701A0AE17039
:107690002271637107212EE00A0C62700A0AA2703F
:1076A0001A0C22711A0AE1706271A3710FE00B0AC1
:1076B000DBB2002D02D08020404203436370130EE2
:1076C000E370130C2371130AA1706371A271082176
:1076D00011E00B0C63700B0AA370130E2371130CD3
:1076E0006371130AE170A371E271092103E00020C4
:1076F00040B205B030BD0D4B4A1E1B78002B0DD19A
:107700007F2001334000994206D0E518013D2D78D5
:107710006840074D285CF4E7A05400E0D1B2201C7B
:10772000FFF778FF43425841C0B2E1E77D2D0020CA
:107730004812010073B5031C0A1C302802D801202E
:10774000C32501E00020C9250090191C281C042332
:10775000FFF76CFF0024061E012E0DD1281CFFF739
:10776000DFFE341C012807D000240094CF20211C08
:10777000221C231CFFF75AFF60B276BDF0B5031C34
:1077800085B00F1CFF2802D80125C42601E0002582
:10779000CA26191C0095301C00220423FFF746FF5F
:1077A0000024012821D1301CFFF7BAFE012808D09F
:1077B00000240094211C221C231CCF20FFF736FF3D
:1077C00013E003AC201C04212A1CFFF7DDFE012876
:1077D000EED16278A37812021B041343227813437C
:1077E000E278041C120613433B6060B205B0F0BDA2
:1077F000014B0020187070477D2D002007B501A9AE
:10780000FFF7BCFF01980EBD08B5FFF7B7FF0128D1
:1078100001D1002000E0FA2040B208BD08B5FFF712
:1078200089FF012801D1002000E0FA2040B208BD04
:1078300013B51D4C00231D4801A901932370FFF7C8
:107840009DFF002803D02378002B09D015E00123E9
:10785000164801A92370FFF791FF0028F3D11DE01E
:10786000019A7C239A435021114310480191FFF75C
:1078700061FF002812D00123237080204001694657
:10788000FFF77CFF00280BD00848FFF7B7FF7023F5
:107890009843502101430548FFF7C0FF002000E056
:1078A000FA2040B216BDC0467D2D002024E800001D
:1078B00073B5031C151C00240E1C0094191CC82051
:1078C000221C2B1CFFF7B2FE012815D1C820FFF7A0
:1078D00027FE012807D000230093191C1A1CCF2073
:1078E000FFF7A4FE08E0301C291C221CFFF74CFE09
:1078F0000128F0D160B276BDFA24FBE7F0B5031C95
:1079000087B0141C002503910095191CC7202A1C60
:10791000231CFFF78BFE01284CD1C720FFF700FE88
:10792000012807D00095291C2A1C2B1CCF20FFF70B
:107930007DFE3FE005AF3D808023261C9B019C42DD
:1079400000D91E1CB6B2002D04D103229C4205D9D9
:10795000012203E00022A342524102321023684672
:107960005B4213301A4301210270FFF753FE0028D7
:1079700018D1039B28B21818311CFFF74BFE0028C2
:1079800010D10F4B1B78002B06D0A41B7519A4B285
:10799000ADB2002CD0D111E0381C0221FFF73AFE25
:1079A0000028F2D000230093191C1A1CCF20FFF7E7
:1079B0003DFE03E0FA2040B207B0F0BD0020FAE738
:1079C0007D2D002010B500239A4203D0CC5CC45416
:1079D0000133F9E710BD8318002A03D0017001308C
:1079E0009842FBD17047021C031C1978981A80B288
:1079F000002901D00133F8E77047000008B5034BB8
:107A00001B68002B00D0984708BDC046802D002081
:107A100008B501F06DFF08BD08B501F0EDFF08BD28
:107A200010B5041C002C04D0012002F091F8013C98
:107A3000F8E710BD10B5094C00202056002102F0D7
:107A40005BFA6420FFF7ECFF00202056012102F0D2
:107A500053FA6420FFF7E4FF10BDC0465500002034
:107A600038B5104B104D00241C6000202856012111
:107A700002F0E2F900202856012102F03DFA0B4BFA
:107A800000201856211C02F0D7F9094B0020185687
:107A9000A04202DB022102F0CFF9FFF7CBFF00206A
:107AA00038BDC046802D0020550000205400002025
:107AB0005600002008B5054B05491860054B00200D
:107AC00018560322FFF7A4FF08BDC046802D0020F2
:107AD000FD7900005400002008B5074B002806D0AF
