:1020000000800020A57700008D7700008D7700000C
:1020100000000000000000000000000000000000C0
:102020000000000000000000000000008D770000AC
:1020300000000000000000008D770000F97700002C
:102040008D7700008D7700008D7700008D77000080
:102050005D7700008D7700008D770000917700009C
:102060008D7700008D7700008D7700008D77000060
:102070008D7700008D770000453200008D770000DD
:102080008D7700008D7700008D7700008D77000040
:10209000000000008D7700008D7700008D77000034
:1020A0008D7700008D7700008D7700008D77000020
:1020B00010B5064C2378002B07D1054B002B02D01E
:1020C000044800E000BF0123237010BD8C010020F4
:1020D00000000000C4EB000008B5084B002B03D043
:1020E0000748084900E000BF07480368002B03D0F9
:1020F000064B002B00D0984708BDC04600000000EA
:10210000C4EB0000900100208801002000000000C6
:1021100090B583B000AF786039603B68002B01D187
:1021200000230FE07B681B6804331C683B68181CA5
:1021300009F09EFA031C79683A68081C111C1A1CE5
:10214000A047031C181CBD4603B090BD80B584B0E9
:1021500000AF154A3B1D101C191C01F099FD134AD4
:10216000134B101C191C05F04DFE0623FB6012E0FA
:102170000E4A0F4B101C191C05F044FE3A1DFB685B
:10218000D3181B78094A101C191C102205F0C5FE33
:10219000FB68013BFB60FB68002BE9DA0923181C94
:1021A000BD4604B080BDC046B01F002024210020E1
:1021B0000CDD000080B582B000AF021CFB1D1A7060
:1021C000FB1D1B78022B0FD002DC012B1AD01FE065
:1021D000032B02D0042B0ED01AE0134A134B101C11
:1021E000191C05F00FFE1AE00F4A114B101C191CA8
:1021F00005F008FE13E00C4A0E4B101C191C05F0EC
:1022000001FE0CE0084A0C4B101C191C05F0FAFDED
:10221000054A0A4B101C191C05F0F4FDC0460923A1
:10222000181CBD4602B080BD2421002014DD000032
:1022300018DD00001CDD000024DD00002CDD0000A6
:1022400080B582B000AF3C4B181C01F0ABFD031C05
:102250003B603B68013305D1384A394B101C191CCF
:1022600005F0EAFD354A374B101C191C05F0CAFD74
:10227000324A3B68101C191C0A2205F036FEFB1D71
:1022800000221A704EE02D4AFB1D1B78101C191CF1
:102290000A2205F03EFE294A2B4B101C191C05F0A2
:1022A000B1FD254AFB1D1B78101C191C01F0C4FD53
:1022B000031C224A101C191C05F0A4FD1F4A234BC5
:1022C000101C191C05F09EFD1B4AFB1D1B78101CE1
:1022D000191C01F0FDFD031C184A101C191C0A22D0
:1022E00005F0E5FD154A1A4B101C191C05F08AFD76
:1022F000124A184B101C191C05F084FD0E4AFB1DD8
:102300001B78101C191C01F027FE031C181CFFF77A
:1023100051FF0A4B181C06F0C0F8FB1D1A78FB1D74
:1023200001321A70FB1D1A783B689A42ABDB092315
:10233000181CBD4602B080BDB01F00202421002023
:102340003CDD000064DD000084DD000088DD00006D
:1023500094DD00009CDD000080B584B000AF2A4A07
:102360002A4B101C191C05F04DFD294B181C01F0BF
:10237000CBFC031C244A101C191C05F05DFD244BEA
:10238000181C01F0B7FC031C3A1C101C191C05F0AA
:10239000E1FC1D4A1F4B101C191C05F033FD1A4AA5
:1023A0003B1C101C191C05F051FD194B181C01F0A9
:1023B000C3FC031CFB60144A174B101C191C05F0CE
:1023C00021FD114AFB68101C191C0A2205F06FFD43
:1023D0000D4A124B101C191C05F02EFDAF23DB001B
:1023E000BB60094A0E4B101C191C05F00BFD064A78
:1023F000BB68101C191C0A2205F0A3FD0923181C38
:10240000BD4604B080BDC04624210020ACDD0000E4
:10241000B01F0020B4DD0000C4DD0000DCDD0000E2
:10242000E4DD000080B582B000AF044B1B687B6028
:102430007B68181CBD4602B080BDC046B0010020BC
:1024400080B582B000AF00237B60254B181C01F0E3
:10245000C9FD031CFF3B5A425341DBB2002B07D09E
:10246000204A214B101C191C05F0E6FC012332E028
:102470000DE0FA239B00181C05F0D2F97B680133AC
:102480007B607B680A2B02D1184B01221A70144919
:10249000174A184B081C111C1A1C01F037FB031CAF
:1024A000032B08D0114B1B7801225340DBB2002BC9
:1024B00001D0012300E00023002BDAD10B4B1B7865
:1024C000002B04D00C4B02221A60022303E00A4BBB
:1024D00003221A600923181CBD4602B080BDC04605
:1024E000B01F00202421002004DE0000B4010020E1
:1024F0000000002008000020B001002080B500AFDF
:10250000104B1B88104A101C191C01F0C3FE031C41
:102510005A425341DBB2002B01D003230FE00B4B97
:102520001B88094A101C191C01F0B4FE031C5A42F6
:102530005341DBB2002B01D0032300E00923181C18
:10254000BD4680BD18000020B80100201A00002000
:1025500080B500AF0B4B1B880B490C4A081C111CA3
:102560001A1C01F0B9FF084A094B101C191CFFF78F
:10257000CFFD054B181C02F00DF80923181CBD46B1
:1025800080BDC0461C000020B8010020ECDE000029
:10259000FCDE000080B582B000AF786039601D4A73
:1025A0001D4B101C191C05F02DFC1A4A3B68101C11
:1025B000191C0A2205F0BBFC164A184B101C191CEA
:1025C00005F03AFC164B1B881649174A081C111CCB
:1025D0001A1C01F081FF13497A683B68081C111C22
:1025E0001A1C02F04BF8021C3B68D31A5A1E934186
:1025F000DBB2002B05D0074A0C4B101C191C05F050
:102600001BFC084B181C01F0C5FF0923181CBD4614
:1026100002B080BD242100201CDE000054DE00003A
:102620001C000020B8010020ECDE000088DE000065
:1026300080B582B000AF786039600923181CBD46B0
:1026400002B080BD80B584B002AF786039607B682D
:10265000012B14D13A680B4B9A4210D10A4B00223D
:102660000092181C00210022002305F065FB074B97
:10267000181C01F0D9FD064B181C01F0D5FDBD4614
:1026800002B080BDFFFF0000A8010020B8010020BB
:10269000D80C002080B500AF034B0120191CFFF7B8
:1026A000D1FFBD4680BDC046FFFF000080B500AF32
:1026B000034B1B8A9AB2034B1A80BD4680BDC046AD
:1026C00000300042F817002080B500AF034B1B8A92
:1026D0009AB2034B1A80BD4680BDC046003000420E
:1026E0000019002080B500AF034B1B8A9AB2034B40
:1026F0001A80BD4680BDC04600300042081A002046
:1027000080B582B000AF174B1B8A9AB2164B5A8025
:10271000154B5B79DBB20133D9B2FB1D7F220A4036
:102720001A70114B1B79DBB2FA1D1278D31A5A1E9C
:102730009341DBB2002B11D0FB1D1B780A4A528853
:1027400091B2094A128892B28A1A92B206495B0083
:10275000CB18DA80044BFA1D12785A71BD4602B0CC
:1027600080BDC04600300042F817002080B582B01E
:1027700000AF174B1B8A9AB2164B5A80154B5B79E8
:10278000DBB20133D9B2FB1D7F220A401A70114B14
:102790001B79DBB2FA1D1278D31A5A1E9341DBB2B1
:1027A000002B11D0FB1D1B780A4A528891B2094AAE
:1027B000128892B28A1A92B206495B00CB18DA806C
:1027C000044BFA1D12785A71BD4602B080BDC04656
:1027D000003000420019002080B582B000AF174BD6
:1027E0001B8A9AB2164B5A80154B5B79DBB20133C8
:1027F000D9B2FB1D7F220A401A70114B1B79DBB244
:10280000FA1D1278D31A5A1E9341DBB2002B11D055
:10281000FB1D1B780A4A528891B2094A128892B26B
:102820008A1A92B206495B00CB18DA80044BFA1D73
:1028300012785A71BD4602B080BDC04600300042D9
:10284000081A002080B500AF094B00221A71084B0E
:1028500000225A71074B00221A71064B00225A714E
:10286000054B00221A71044B00225A71BD4680BDEF
:10287000F817002000190020081A002080B500AFCA
:102880001D4BC12292001A601C4B5B78DBB2DB0946
:10289000DBB2002BF8D11A4B1A4A1A60174B5B783F
:1028A000DBB2DB09DBB2002BF8D1174B174A1A80D9
:1028B000124B5B78DBB2DB09DBB2002BF8D1144B97
:1028C000134A128892B21A80114BDB7BDBB2DB0910
:1028D000DBB2002BF8D10E4B0D4A128892B20D4993
:1028E0000A4392B21A800A4BDB7BDBB2DB09DBB214
:1028F000002BF8D1BD4680BD080C0040000C004004
:10290000040C004004070300020C00401C440000BB
:10291000003000420204000080B582B000AF021C0B
:10292000BB1D1A80BB1D1B883C2B1CD9BB1D1B88E3
:10293000632B18D81E4A95230021D1541C4A3523F5
:102940000121D154BB1D1B88181C06F05BFF021C23
:10295000174B1A64BB1D1B88181C06F053FF021C82
:10296000134BDA6621E0BB1D1B88642B1DD9BB1DF0
:102970001B888B2B19D80E4A95230121D1540C4A60
:1029800035230021D154BB1D1B88181C06F03AFFCB
:10299000011C074AA023D150BB1D1B88181C06F040
:1029A00031FF011C024ACC23D150BD4602B080BD8C
:1029B000101B002080B582B000AF0A1CFB1D011C5B
:1029C00019703B1D1A80FB1D1A78094B5A60084B81
:1029D0000022DA603B1D1B88181CFFF79DFF054B8A
:1029E000DB68034A101C9847BD4602B080BDC04654
:1029F000101B002030E0000080B582B000AFBB1D8E
:102A000000221A804B4B1B79DAB24A4B5B79DBB25E
:102A10009A4210D0474B1B79DBB20133DAB27F23E5
:102A20001340DBB2434A191C1171424A5B00D318B0
:102A3000DB889BB200E00023BA1D138024E0BB1D9D
:102A40001B880120191CFFF7B5FF3B4B1B699847FA
:102A5000384B1B79DAB2374B5B79DBB29A4210D034
:102A6000344B1B79DBB20133DAB27F231340DBB284
:102A7000304A191C11712F4A5B00D318DB889BB2B6
:102A800000E00023BA1D1380BB1D1B88002BD6D18C
:102A9000294B5B699847294B1B79DAB2274B5B7945
:102AA000DBB29A4210D0254B1B79DBB20133DAB28C
:102AB0007F231340DBB2214A191C11711F4A5B00AE
:102AC000D318DB889BB200E00023BA1D138024E0FA
:102AD000BB1D1B880220191CFFF76CFF174B1B79CD
:102AE000DAB2164B5B79DBB29A4210D0134B1B79EA
:102AF000DBB20133DAB27F231340DBB20F4A191C79
:102B000011710E4A5B00D318DB889BB200E00023F2
:102B1000BA1D1380084B1B699847BB1D1B88002BEF
:102B2000D6D1054B5B699847034B1B689847BD4658
:102B300002B080BDF817002030E00000001900202E
:102B400080B57F4FBD4400AF7E497B1807221A70C5
:102B50007D4B03221A707D4B88229200D219D31824
:102B60001A1C80239B00101C00211A1C08F0C9FCB1
:102B700081239B00F9183A1D80239B00081C111C1F
:102B80001A1C04F0B5F981229200B918704A6E4BF4
:102B9000081C111C1A1C04F001FC031C1A1C6D4BB0
:102BA0001A70812189007B18DA686B4B1A60694BB7
:102BB0001B7801225340DBB2002B16D0674A684BCA
:102BC000101C191C05F01EF981229200BB181B690C
:102BD000002B04D0812189007B181B6900E0614B28
:102BE0005E4A101C191C05F027F95C4A5E4B101C4C
:102BF000191C05F021F9594A5C4B101C191C05F0F1
:102C000001F9554B1B68554A101C191C0A2205F086
:102C10008EF9574BDA69504B1B68391D081C191C7B
:102C20009047021C47497B181A70464ABB181B780C
:102C30000A2B09D043497B1808221A70474A4D4B8A
:102C4000101C191C05F0F8F8002386229200D219F6
:102C5000136065E03C4A86218900C9190B68F4219C
:102C60004B43D31800221A71374A86218900C919AB
:102C70000B68F4214B43D318083300221A713249F0
:102C800086239B00DB191A683023F42042438A18FC
:102C9000D31800221A722C4986239B00DB191A686C
:102CA0003823F42042438A18D3180022DA722649C6
:102CB00086239B00DB191A686823F42042438A1894
:102CC000D31800221A71204986239B00DB191A6849
:102CD0009023F42042438A18D31800221A721A490A
:102CE00086239B00DB191A689823F42042438A1834
:102CF000D3180022DA72144986239B00DB191A6864
:102D0000C823F42042438A18D31800221A7186215E
:102D10008900C9190B68013386229200D219136009
:102D200086218900C9190B68022B93DD054ABB185F
:102D30001B78181CBD4688239B009D4480BDC0465F
:102D4000E0FDFFFF1F020000101C0020E4FDFFFF5C
:102D5000FCE70000041C0020081C002024210020A7
:102D600008DF00002CDF000034DF00005CDF000023
:102D7000C4DE00007CDF000080B582B000AFFB1D28
:102D800007221A700B4B00221A600A4B00225A606D
:102D9000084B00221A72074B0022DA60054B002212
:102DA0001A74044B00225A61FB1D1B78181CBD4687
:102DB00002B080BDF01E002080B582B000AFFB1DC8
:102DC00007221A70114B1A1CB8239B00101C0021FB
:102DD0001A1C08F096FB0E4B00221A600C4B0022C6
:102DE0005A600B4B00221A72094B0022DA60084B22
:102DF00000221A74064B00225A61FB1D08221A7029
:102E0000FB1D1B78181CBD4602B080BD101C0020A5
:102E1000F01E0020B0B586B000AF78607B687B61A3
:102E20003B1C133307221A707B695B68013BFB6014
:102E3000FA688149FB68F4204343CB189A607E4AC4
:102E4000FB68F4214B43D31801221A717B4B1C6899
:102E50007B69D9687848FA68131C1B019B1A9B0090
:102E60009B181B1902339B00C3189960724AFB68B8
:102E7000F4214B43D31808331B790133DAB26E497E
:102E8000FB68F4204343CB1808331A716B4B196865
:102E90007A693523D25C684CF8683023F42568439E
:102EA00020184118CB185A726349FA683023F4206D
:102EB00042438A18D3181B7A0133DAB25E48F968A4
:102EC0003023F42461434118CB181A725B4B1C6801
:102ED0007B69196C5848FA68131C1B019B1A9B00EC
:102EE0009B181B1910339B00C31859605249FA688C
:102EF0003823F42042438A18D318DB7A0133DAB23C
:102F00004D48F9683823F42461434118CB18DA722C
:102F10004A4B1C687B69D96E4748FA68131C1B0131
:102F20009B1A9B009B181B191A339B00C3189960AE
:102F30004149FA686823F42042438A18D3181B7960
:102F40000133DAB23C48F9686823F424614341183C
:102F5000CB181A71394B19687A699523D25C364CB3
:102F6000F8689023F425684320184118CB185A724A
:102F70003149FA689023F42042438A18D3181B7A07
:102F80000133DAB22C48F9689023F42461434118E4
:102F9000CB181A72294B1C687A69A023D15826488D
:102FA000FA68131C1B019B1A9B009B181B192833E2
:102FB0009B00C31859602049FA689823F4204243C3
:102FC0008A18D318DB7A0133DAB21B48F9689823E0
:102FD000F42461434118CB18DA72184B1C687A69E3
:102FE000CC23D1581448FA68131C1B019B1A9B0070
:102FF0009B181B1932339B00C31899600E49FA685D
:10300000C823F42042438A18D3181B790133DAB25B
:103010000948F968C823F42461434118CB181A7190
:103020003B1C133308221A703B1C13331B78181CEB
:10303000BD4606B0B0BDC046101C00200C1C0020D0
:1030400080B582B000AFFB1D07221A70134B1B68BE
:103050000A2B06D1124A134B101C191C04F0ECFE6B
:1030600007E00E4B1B685A1C0C4B1A60FB1D082214
:103070001A700B4A0C4B101C191C04F0C3FE074BB2
:103080001B68074A101C191C0A2204F05AFFFB1D7A
:103090001B78181CBD4602B080BDC0460C1C002029
:1030A00024210020ACDF0000D8DF000080B500AF95
:1030B000054A064B101C191C04F0BEFE044B0022EE
:1030C0001A60BD4680BDC0462421002008E00000F3
:1030D0000C1C002080B500AFBD4680BD80B500AFA0
:1030E000FFF7CCFBFFF7AEFB1A4B1B699847031C9D
:1030F000093B5A1E9341DBB2002B06D0164A174BF0
:10310000101C191C04F098FE02E0124BDB68984773
:10311000104B5B699847031C093B5A1E9341DBB275
:10312000002B05D00C4A0E4B101C191C04F084FE19
:103130000C4B9B689847031C083B5A1E9341DBB21B
:10314000002B05D0044A084B101C191C04F074FE17
:10315000BD4680BDC4DE00002421002048E0000000
:1031600068E0000030E0000090E0000080B500AFB3
:103170000820002104F0C8FC0920002104F0C4FC50
:103180000A20002104F0C0FC0B20002104F0BCFC4C
:103190000C20002104F0B8FC0D20002104F0B4FC48
:1031A000124B0820191C042204F03CFA104B092091
:1031B000191C042204F036FA0E4B0520191C0422B7
:1031C00004F030FA0C4B0020191C032204F02AFAF8
:1031D0000A4B0120191C032204F024FA084B022098
:1031E000191C032204F01EFABD4680BDAD26000066
:1031F000C9260000E5260000012700006D27000019
:10320000D927000080B500AF04F0DEFB08F040F9DC
:10321000FFF760FF012004F003FB094B181C05F0C9
:10322000E7FB074B181C05F043FCFFF757FFFFF7C0
:103230009DFF0A2004F0F4FAFFF7DEFBF9E7C04631
:10324000EB25002080B500AF024B181C05F08AF872
:10325000BD4680BD201F002080B584B002AF7860DD
:1032600039607B68012B33D13A681B4B9A422FD1CE
:103270001A4A1B4B101C191C04F0AAFE194A1A4BBF
:10328000101C191C04F0A4FE184A194B101C191C20
:1032900004F09EFE174A184B101C191C04F098FEEF
:1032A000164A174B101C191C04F092FE154A164BB7
:1032B000101C191C04F08CFE144A124B03210091BF
:1032C00001210191101C191C0D220E2305F026F876
:1032D000BD4602B080BDC046FFFF0000081F0020B1
:1032E000000800420C1F0020000C0042101F0020AC
:1032F00000100042141F002000140042181F00207C
:10330000001800421C1F0020001C0042201F00204B
:1033100080B500AF034B0120191CFFF79DFFBD4690
:1033200080BDC046FFFF000080B586B000AF78606A
:103330007B687B61204B3B613B1C0F3301221A7081
:103340003B1C0E3302221A703B691C4A934200D97F
:103350001A4B7A6913603B1C0F331B78013B5A1ED2
:103360009341DBB21A1C7B695A713B1C0E331B78EC
:10337000012B14D002DC002B09D014E0022B02D068
:10338000032B08D00FE07B6900221A710EE07B69E5
:1033900001221A710AE07B6902221A7106E07B6938
:1033A00003221A7102E07B6900221A717B68181CE3
:1033B000BD4606B080BDC04600093D00001BB700F9
:1033C00080B584B000AFF860B960111C1A1CFB1DF9
:1033D0001970BB1D1A70FB6800225A72BB68002B63
:1033E00006D11349134A144B081C222108F020F877
:1033F000FB68BA681A60FB68FA1D12781A71FB68DC
:10340000BA1D12789A71FB683A1C183212785A71F8
:10341000FB683A1C1C321278DA71FB683A1C2032C5
:1034200012781A72FB68181CBD4604B080BDC046F5
:1034300014E400003CE4000028E4000080B582B001
:1034400000AF78607B68181C00F048F87B681B7937
:10345000191C7B681B791A1C1E48131C5B009B18E7
:10346000DB00C31808331B785BB2081C191C04F07E
:10347000DBFB7B689B79191C7B689B791A1C1548C0
:10348000131C5B009B18DB00C31808331B785BB26E
:10349000081C191C04F0C8FB7B685B79191C7B684D
:1034A0005B791A1C0B48131C5B009B18DB00C318CC
:1034B00008331B785BB2081C191C04F0B5FB7A6852
:1034C000054B101C19685A6800F020F8BD4602B080
:1034D00080BDC046B4E00000801F002080B582B0EF
:1034E00000AF78607B685B7A002B00D00BE07B68D4
:1034F00000229A727B680022DA727B680022DA600E
:103500007B6801225A72BD4602B080BD80B586B08C
:1035100002AFF8603B1D19605A60FB681B68181CFD
:1035200004F0F6FDFB681968FB68DA79FB681B7A22
:10353000381D40790090081C111C1A1C002304F04F
:103540009DFEFB6819683B1D1A793B1D1B68081C12
:10355000111C1A1C04F0ACFDFB681B68181C04F05D
:10356000CDFDBD4604B080BD80B582B000AF7860AF
:103570007B681B68181C04F0B3FD7B6800225A723C
:10358000BD4602B080BDC04680B586B000AFF860D1
:103590003B1D19605A60FB689B7A002B1DD0FB68AD
:1035A0009B7A1A1C022313400BD0EFF310837B612C
:1035B0007B695A425341DBB21A1CFB68DA7272B65D
:1035C0000BE0FB689B7A1A1C0123134005D0084BC3
:1035D000FA68D2689203920B9A60FA683B1D101C3D
:1035E00019685A68FFF792FFBD4606B080BDC04615
:1035F0000018004080B582B000AF78607B689B7A8D
:10360000002B17D07B689B7A1A1C0223134005D02D
:103610007B68DB7A002B0DD062B60BE07B689B7A6F
:103620001A1C0123134005D0044B7A68D268920318
:10363000920BDA60BD4602B080BDC0460018004063
:1036400080B582B000AF78600A1CFB1C1A707B68E2
:103650001A68FB1C1B78101C191C04F063FD7B68A6
:103660001B68181C04F071FD031CDBB2181CBD465E
:1036700002B080BD80B586B004AF786039607B68E9
:10368000012B23D13A68134B9A421FD1124B181CBD
:10369000FFF74AFE114A124B0821009100210191C7
:1036A00003210291101C191C0A220923FFF788FE2E
:1036B0000C4A0D4B1A210091002101910321029126
:1036C000101C191C1D221B23FFF77AFEBD4602B0F9
:1036D00080BDC046FFFF0000801F0020881F002023
:1036E0000C1F0020981F0020101F002080B500AF85
:1036F000034B0120191CFFF7BDFFBD4680BDC0462E
:10370000FFFF000080B582B000AF78607B685B6827
:10371000181CBD4602B080BD90B58FB002AF021C30
:103720003960FB1D1A70FB1D1B78043B2E2B00D942
:1037300034E19A009B4BD3181B689F463B687B6221
:103740007B6A1B78012B17D1974B1B7E012B0BD16A
:10375000954BDB68002B07D1934B03225A7604204C
:10376000002101F006FE4EE08F4B1B7E032B4AD159
:103770008D4B08225A7646E07B6A1B78002B42D19B
:10378000894B1B7E012B2FD1874B06225A76864B05
:10379000DB68002B08D0844B00221A60824B002289
:1037A0005A60814B00229A600023FB6218E07E4B36
:1037B000FA6A18329200D358002B0ED07A4BFA6A6C
:1037C00018329200D3581B6824331B68764AF96A72
:1037D000183189008A58101C9847FB6A0133FB6234
:1037E000FB6A062BE3DD06E06F4B1B7E032B02D149
:1037F0006D4B07225A760420012101F0BAFD012009
:10380000012101F0B6FDCAE0674B1B7E012B18D1E8
:103810003B683B623B6A1A68634B1A603B6ADA6832
:10382000614B5A603B6A5A685F4B9A605E4B032259
:103830005A760420002101F09CFD0120002101F0B6
:1038400098FDACE03B681B785AB2574B1A61A6E072
:103850003B68FB61FA696323D35C002B2FD1534B88
:10386000181C0021212207F04CFEFC69FB69181C82
:1038700007F0FEFE031C4D4A101C211C1A1C07F009
:1038800037FE494B01221A76474B00221A60464BFD
:1038900000225A60444B00229A60FC69FB69181CA4
:1038A00007F0E6FE031CD9B2FA696223D25CFB6919
:1038B0002133FF200090201C01F0E8FE6FE03A4B1E
:1038C00004225A766BE03B68BB61BB691B78002B16
:1038D00002D0354B02225A7661E03B687B617B69FE
:1038E0000A33181C07F0C4FE021C3B1C12331A805A
:1038F0002F4B181C0021212207F003FE3B1C123322
:103900001B88002B0BD07B691A1C0A323B1C12331C
:103910001B882749081C111C1A1C07F0E9FD7B694C
:103920005B785AB2204B1A617B6999781E4A3B2317
:10393000D1541D4B02225A7631E03B68FB601A4B92
:103940005B69002B18D00023BB620FE0164B5A694D
:10395000BB6AD318BA6A0521891AF868202241186F
:103960008A1892791A70BB6A0133BB62BB6A052B55
:10397000ECDD0D4B00225A6111E00B4B1B69002B53
:103980000BD0094B1B691A1C3B68101C191C082220
:1039900007F0AEFD044B00221A6100E0C046BD46B0
:1039A0000DB090BD90E40000B01F0020EC1F00207F
:1039B000CA1F002080B582B000AF78603960034B29
:1039C0003A681A61BD4602B080BDC046B01F0020F3
:1039D00080B582B000AF78607B6800221A767B6881
:1039E000FF225A767B680022DA677B68181CBD4686
:1039F00002B080BD90B58BB000AF786002F048FC9B
:103A00003B1C0C333E4A1A603C1C27343B1C0C33D5
:103A1000181C01F071FD031C23703B1C27331B781D
:103A20005BB2002B0CD00620002101F0A2FC032089
:103A3000012101F08AFC3B1C27331B785BB25BE061
:103A400002F06AFE03F0B2F82E4A2F4B101C191C2C
:103A500002F07EFE7B680122DA677B6800225A76DC
:103A60007B6800221A607B6800225A607B68002213
:103A70009A607B680122DA607B6800221A617B68A9
:103A80001A1C60321C23101C00211A1C07F039FD7F
:103A90000420012101F06DFC0520012101F069FCE9
:103AA0000620012101F065FC0420012101F04DFCFC
:103AB0000520012101F049FC0620012101F045FC0F
:103AC0000120012101F055FC0220012101F051FCEF
:103AD0000320012101F04DFC0120012101F035FC02
:103AE0000220012101F031FC0320012101F02DFC15
:103AF0003B1C27331B785BB2181CBD460BB090BD36
:103B000019370000F16B0000B539000080B584B0B2
:103B100000AFF860B9607A60F968BA687B68081C21
:103B2000111C022200F006F8031C181CBD4604B04C
:103B300080BDC04690B589B002AFF860B9603B6007
:103B4000FB1D1A70FB68DB6F002B03D1FB68181C90
:103B5000FFF750FFFB68DB68002B08D0FB680022F2
:103B60001A60FB6800225A60FB6800229A60BB68FA
:103B7000181C07F07DFD031CD9B2B868FB1D1A782C
:103B80003B68FF24009401F081FD031CDBB2DB09DC
:103B9000DBB2002B05D0FB6804225A76FB685B7E03
:103BA00046E0FB6800225A76FB6801221A7603F091
:103BB00031FE031C7B6102E0002001F0CDFCFB68BC
:103BC0005B7E1A1C032313400FD1FB685B7E1A1C1B
:103BD0000623134009D103F01DFE021C7B69D21A93
:103BE000154B9A4201D8012300E00023002BE3D1BA
:103BF000FB685B7E1A1C0323134002D1FB68002282
:103C00001A76FB683C33181C0021212207F079FC4E
:103C1000FB681C1C3C34BB68181C07F029FD031C06
:103C2000BA68201C111C1A1C07F062FCFB685B7E42
:103C3000181CBD4607B090BD5FEA000080B582B099
:103C400000AF786039607B68034A1A607B68181C93
:103C5000BD4602B080BDC04658E5000080B582B0C8
:103C600000AF786039607A683B68101C191CFFF758
:103C7000E5FF7B68054A1A607B683A6852685A60BB
:103C80007B68181CBD4602B080BDC04678E80000C5
:103C900080B584B000AF786039603B68181C01F0D3
:103CA0002FFD3B1C0833181C01F02AFD3B1C0F3371
:103CB00000221A7014E03B1C0F331B783A68D318AB
:103CC0003A1C0F32127805218A1A391C08318A5C95
:103CD0001A703B1C0F331A783B1C0F3301321A70D9
:103CE0003B1C0F331B78052BE5D93B68181CBD46E0
:103CF00004B080BD80B582B000AF78607B681B687F
:103D0000181CBD4602B080BD80B582B000AF78609F
:103D10007B685B7E032B07D07B685B7E072B03D021
:103D20007B685B7E082B02D17B683C3300E000237C
:103D3000181CBD4602B080BD80B584B000AF78606D
:103D4000002001F009FC7B6800221A6101F0CCFC24
:103D5000031CDBB2DB09DBB2002B01D000231AE02D
:103D600003F058FD031CFB6002E0002001F0F4FBAF
:103D70007B681B69002B09D103F04CFD021CFB681A
:103D8000D21A074B9A4201D8012300E00023002BEE
:103D9000EBD17B681B69181CBD4604B080BDC046D2
:103DA000E703000080B584B000AF78603B1C0F33A0
:103DB0007A68527E1A707B68DB6F002B03D17B68B8
:103DC000181CFFF717FEFF2001F06AFC031CDBB292
:103DD000DB09DBB2002B01D0002326E07B68002248
:103DE0005A7603F017FD031CBB6002E0002001F0CF
:103DF000B3FB7B685B7E1A1C0223134009D103F0DE
:103E000009FD021CBB68D21A0A4B9A4201D8012351
:103E100000E00023002BE9D17B683A1C0F321278B6
:103E20005A7601F08BFC031CDBB25BB2181CBD465A
:103E300004B080BD8713000080B584B000AF786007
:103E40000A1CFB1C1A703B1C0F337A68527E1A70D6
:103E50007B681A33181C0021212207F052FBFB1C3F
:103E60001B78181C01F05BFC031CDBB2DB09DBB226
:103E7000002B01D0002324E07B6800225A7603F057
:103E8000C9FC031CBB6002E0002001F065FB7B68FD
:103E90005B7E1A1C0223134009D103F0BBFC021CF9
:103EA000BB68D21A094B9A4201D8012300E00023D3
:103EB000002BE9D17B683A1C0F3212785A767B6866
:103EC0001A33181CBD4604B080BDC046CF070000A1
:103ED00080B584B000AF78600A1CFB1C1A703B1CD4
:103EE0000F337A68527E1A70FB1C1B78181C01F085
:103EF00016FC031CDBB2DB09DBB2002B01D0002374
:103F000024E07B6800225A7603F084FC031CBB602B
:103F100002E0002001F020FB7B685B7E1A1C02237C
:103F2000134009D103F076FC021CBB68D21A094B7E
:103F30009A4201D8012300E00023002BE9D17B68DD
:103F40003A1C0F3212785A767B681B69181CBD46E2
:103F500004B080BDCF07000080B584B000AF7860AA
:103F60000A1CFB1C1A703B1C0F337A68527E1A70B5
:103F7000FB1C1B78181C01F0D2FB031CDBB2DB0915
:103F8000DBB2002B01D0002325E07B6800225A76AB
:103F900003F040FC031CBB6002E0002001F0DCFAEF
:103FA0007B685B7E1A1C0223134009D103F032FCAC
:103FB000021CBB68D21A0A4B9A4201D8012300E0C6
:103FC0000023002BE9D17B683A1C0F3212785A7615
:103FD0007A683B23D35C181CBD4604B080BDC04644
:103FE000CF07000080B582B000AF78607B68DB6FE0
:103FF000002B03D17B68181CFFF7FCFC002001F0AC
:10400000ABFA7B685B7E181CBD4602B080BDC04623
:1040100080B586B000AFF860B9607A607A68BB6836
:10402000101C191C03F09EFE031C002B01D0012361
:1040300050E00520002101F09CF90220002101F050
:1040400098F9FB6800221A61BB68181C02F01CFD7D
:10405000031CDBB2DB09DBB2002B09D005200121F8
:1040600001F087F90220012101F083F9002331E0FA
:1040700003F0D0FB031C7B6102E0002001F06CFA2E
:10408000FB681B69002B09D103F0C4FB021C7B6990
:10409000D21A124B9A4201D8012300E00023002BD0
:1040A000EBD10520012101F064F90220012101F08A
:1040B00060F9FB681B69002B01D100230AE0FB6853
:1040C0001B697A68101C191C03F072FEFB68002241
:1040D0001A610123181CBD4606B080BD1F4E0000AA
:1040E00080B584B002AF786039607B68012B10D155
:1040F0003A68094B9A420CD1084B00220092181CD6
:1041000000210022002303F017FE054B181CFFF7C7
:104110005FFCBD4602B080BDFFFF0000A81F00206D
:10412000B01F002080B500AF034B0120191CFFF722
:10413000D7FFBD4680BDC046FFFF000080B584B0FC
:1041400002AF786039607B68012B0CD13A68074B6D
:104150009A4208D1064B00220092181C002100222E
:10416000002303F0E9FDBD4602B080BDFFFF000063
:104170003C20002080B500AF034B0120191CFFF745
:10418000DDFFBD4680BDC046FFFF000080B582B0A8
:1041900000AF78607B68054A1A607B6800225A602D
:1041A0007B68181CBD4602B080BDC04688E8000090
:1041B00080B582B000AF78607B68181CFFF7E6FF1F
:1041C0007B68054A1A607B68FA2292009A607B68D5
:1041D000181CBD4602B080BD00E6000080B584B06A
:1041E00000AFF860B9607A60FB681B6830331B6809
:1041F000F868B9687A689847031C181CBD4604B073
:1042000080BDC04680B582B000AF78607B68181C66
:10421000FFF7CEFF7B68034A1A607B68181CBD4617
:1042200002B080BDB8E5000080B582B000AF786014
:104230007B68181CFFF7E6FF7B68124A1A607B68F0
:10424000FF221A747B6800225A617B6800229A61FF
:104250007B680022DA617A68B323DB000021D15247
:104260007A68094B0021D1527A68084B0021D1505D
:104270007A68074B0021D1527B68181CBD4602B0FA
:1042800080BDC04668E500009A0500009C0500005E
:10429000180B000090B58BB002AF78600A1CBB1CF5
:1042A0001A800023BB607B6800225A617B68002271
:1042B0009A617B680022DA617A68B323DB0000210F
:1042C000D1527A684F4B0021D1527A684E4B00216F
:1042D000D1507A684D4B0021D1523B1C0C33022245
:1042E0001A80BB1C1B881B029AB2BB1C1B881B12AA
:1042F0009BB213439BB29AB23B1C0C335A803B1CBB
:104300000C3300225A6002200221002202F02AFA15
:10431000031C1A1C7B681A747B681B7CDB09DBB2EC
:10432000002B01D0002369E07B68187C7B68191C96
:1043300014317B681A1C18327B681C337C6820346B
:1043400040B2009402F03CFC7B681B7C5AB23B1CE0
:10435000083300210091101C0121002202F0AEFB65
:104360007B681B7C5AB23B1C0C33101C191C10229E
:1043700002F042FA031CDBB2DB09DBB2002B0AD0ED
:104380007B681B7C5BB2181C02F00CFB7B68FF2275
:104390001A74002332E003F03DFA031CFB6102E0D3
:1043A000002001F0D9F87B685A690423134009D131
:1043B00003F030FA021CFB69D21A154B9A4201D85D
:1043C000012300E00023002BEAD17B685A69042313
:1043D00013400AD17B681B7C5BB2181C02F0E2FA26
:1043E0007B68FF221A74002308E07B685B69042263
:1043F000191C91430A1C7B685A610123181CBD4695
:1044000009B090BD9A0500009C050000180B000043
:10441000CF07000080B588B002AFF860B960BB1D5F
:104420001A80BB68181CFFF76DF9031C7B61FB68E1
:104430001B6818331B68F968BA1D1288081C111C08
:104440009847031C5A425341DBB2002B01D0002392
:104450000CE0FB681B7C5AB23B1C14330421009116
:10446000101C0121012202F029FB0123181CBD466A
:1044700006B080BD80B582B000AF7860002001F04A
:104480006BF87B681B7C5BB2013304D07A68B32382
:10449000DB00D35A00E00023181CBD4602B080BDEB
:1044A00080B582B000AF78607B681B7C5BB2002B6C
:1044B00000DA0EE07B681B7C5BB2181C02F08CFB00
:1044C0007B681B7C5BB2181C02F06CFA7B68FF22D5
:1044D0001A74BD4602B080BD90B589B000AFF860D7
:1044E000B960BB1D1A803B1C1033181C03F01CFC68
:1044F0001549BA683B1C1033081C111C1A1CFFF725
:1045000087FD031C5A1E9341DBB2002B16D0FB68BB
:104510001B6820331C683A1C18323B1C1033101CDB
:10452000191CFFF79BFBF9683A1C1832BB1D1B884E
:10453000081C111C1A1CA047031C00E00023181CB7
:10454000BD4609B090BDC046B01F002080B584B004
:1045500000AFF860B960BB1D1A80BB68181CFFF77C
:10456000D1F8011CFA68084BD150FA68B91D074B05
:104570000988D152FA68064B0021D1520123181C38
:10458000BD4604B080BDC0461C0B00001A0B0000E5
:10459000180B000080B588B002AF786005200021BC
:1045A00000F0E7FE0220002100F0E3FE3B1C083390
:1045B00002221A807A68234BD35A1B029AB2796876
:1045C000204BCB5A1B129BB213439BB29AB23B1C9B
:1045D00008335A807A681C4BD2583B1C08335A6007
:1045E0007B68197C7B68B420C0001A187868174B68
:1045F000C35A49B2381C0830009010200190081CA2
:10460000111C1A1C002302F047F9031C9BB2DB0BA0
:10461000DBB2002B09D00520012100F0AAFE022008
:10462000012100F0A6FE002308E00520012100F092
:10463000A0FE0220012100F09CFE0123181CBD46B3
:1046400006B080BD1A0B00001C0B0000180B000008
:1046500080B582B000AF78600A1CFB1C1A707B68C2
:104660001B6804331B687968FA1C081C111C0122A2
:104670009847031C181CBD4602B080BD80B584B0AD
:1046800000AFF860B9607A60FA68174BD35A1A1C09
:104690007B68D218AF23DB009A4206D9FA68124B26
:1046A000D35AAF22D200D31A7B60FA680E4BD35A8A
:1046B000B422D2009B18FA68D118BA687B68081C2B
:1046C000111C1A1C06F014FFFA68074BD25A7B68BB
:1046D0009BB2D31899B2FA68034BD1527B68181C6D
:1046E000BD4604B080BDC046180B000080B582B046
:1046F00000AF7860002000F02FFF7B681B7C5BB26E
:10470000013372D07A68B323DB00D35A002B04D074
:104710007A68B323DB00D35A68E07B689A697B68C8
:10472000DB699A4261D07B68DA69796820238A184C
:10473000D3181B781B029AB27B68DB69591C786816
:1047400020234118CB181B78D31899B27A68B32369
:10475000DB00D1527B68DB699A1C796820238A18B8
:10476000D3181B781B029AB27B68DB69D91C786866
:1047700020234118CB181B78D31899B27A681D4BA7
:10478000D1527B68DB691A1D796820238A18D318F7
:104790001B781A067B68DB69591D7868202341184D
:1047A000CB181B781B04D2187B68DB69991D7868CD
:1047B00020234118CB181B781B02D2187B68DB69B9
:1047C000D91D786820234118CB181B78D1187A6836
:1047D000094BD1507B68DB691A1C08327B68DA61AF
:1047E0007A68B323DB00D35A00E00023181CBD46CF
:1047F00002B080BD9A0500009C05000080B584B021
:1048000000AF78607B681B6830331B6879683A1C9E
:104810000F32081C111C01229847031C01335A4215
:104820005341DBB2002B02D001235B4202E03B1C70
:104830000F331B78181CBD4604B080BD80B586B010
:1048400000AFF860B9607A60FB681B6808331B68CA
:10485000FA68101C9847021C3B1C16331A803B1C3C
:1048600016331B88002B02D101235B4267E03B1CFF
:1048700016331A887B689A4203D93B1C16337A6830
:104880001A8000233B6151E0BA683B69D118FB688C
:10489000DB69581CFA68D061F8682022C3189B189D
:1048A0001B780B70FA68B323DB00D35A013B99B233
:1048B000FA68B323DB00D152FB68DA69FB689B69B5
:1048C0009A4230D1FB6800229A61FB689A69FB68C2
:1048D000DA61FB685B690222191C91430A1CFB68C0
:1048E0005A61194B1B78002B0DD0FB681B7CFA68B2
:1048F000203259B2AF23DB00081C111C1A1C002304
:1049000002F080F80CE0FB681B7CFA68283259B290
:10491000AF23DB00081C111C1A1C002302F072F8E4
:10492000002000F019FE3B6901333B613B1C16334C
:104930001A883B699A42A7D83B1C16331B88181C5F
:10494000BD4606B080BDC0467C20002080B582B048
:1049500000AF78607B681B6808331B687A68101C9E
:104960009847031C5A425341DBB2002B02D001236B
:104970005B4206E07B68DA69796820238A18D318DD
:104980001B78181CBD4602B080BDC04680B582B001
:1049900000AF786006E07B681B680C331B687A68A0
:1049A000101C98477B681B6808331B687A68101CCA
:1049B0009847031C5A1E9341DBB2002BEBD1BD4636
:1049C00002B080BD80B582B000AF786039603A68CF
:1049D000054BD3587A68101C191C03F0BBF9786892
:1049E000BD4602B080BDC0469C05000080B582B0C7
:1049F00000AF78607A68034BD35A181CBD4602B0EA
:104A000080BDC0469A05000080B584B002AF7860D2
:104A100039607B68012B0CD13A68074B9A4208D168
:104A2000064B00220092181C00210022002303F0F4
:104A300083F9BD4602B080BDFFFF00004420002086
:104A400080B500AF034B0120191CFFF7DDFFBD4609
:104A500080BDC046FFFF000080B584B002AF786023
:104A600039607B68012B0CD13A68074B9A4208D118
:104A7000064B00220092181C00210022002303F0A4
:104A80005BF9BD4602B080BDFFFF00004C20002056
:104A900080B500AF034B0120191CFFF7DDFFBD46B9
:104AA00080BDC046FFFF000080B584B002AF7860D3
:104AB00039607B68012B0CD13A68074B9A4208D1C8
:104AC000064B00220092181C00210022002303F054
:104AD00033F9BD4602B080BDFFFF00005420002026
:104AE00080B500AF034B0120191CFFF7DDFFBD4669
:104AF00080BDC046FFFF000080B584B002AF786083
:104B000039607B68012B0CD13A68074B9A4208D177
:104B1000064B00220092181C00210022002303F003
:104B20000BF9BD4602B080BDFFFF00005C200020F5
:104B300080B500AF034B0120191CFFF7DDFFBD4618
:104B400080BDC046FFFF000080B584B000AFF860B4
:104B5000B960111C1A1CFB1D1970BB1D1A70F86876
:104B6000B968FB1D1A78BB1D1B7800F005F8FB68BF
:104B7000181CBD4604B080BD80B588B000AFF86099
:104B8000B960111C1A1CFB1D1970BB1D1A70FB6843
:104B9000FB61BB68BB613B1C1733FA1D12781A70AE
:104BA0003B1C1633BA1D12781A70BB69194A93421E
:104BB00000D9184BFA6913603B1C17331B78013B73
:104BC0005A1E9341DBB21A1CFB695A713B1C163307
:104BD0001B78012B14D002DC002B09D014E0022B2F
:104BE00002D0032B08D00FE0FB6900221A710EE0FF
:104BF000FB6901221A710AE0FB6902221A7106E0C0
:104C0000FB6903221A7102E0FB6900221A71BD469A
:104C100008B080BD001BB70080B586B000AFF8605B
:104C2000B960BB1D1A803B1C153300221A703B1C57
:104C3000173300221A703B1C163300221A70FB68CF
:104C4000002B07D13B1C1533FB603B1C17330122A3
:104C50001A700CE0BB68002B07D13B1C1533BB60FE
:104C60003B1C163301221A7001E0FA233EE0224A6F
:104C7000224B101C19685A68FEF786FC204B1B78E3
:104C80005BB2181C002102F09FFF1FE0FB681B783D
:104C9000194A101C191CFEF7D3FC031C1A1CBB6814
:104CA0001A70BB1D1A88BB1D013A1A803B1C1633B3
:104CB0001B78002B02D1BB680133BB603B1C173350
:104CC0001B78002B02D1FB680133FB60BB1D1B88E6
:104CD000002BDBD10A4B1B785BB2181C012102F0C0
:104CE00073FF054B181CFEF785FC00235BB2181CF4
:104CF000BD4606B080BDC046981F0020642000203D
:104D00002B00002080B584B000AF78603B1C0F33CF
:104D100000221A700F4B181CFEF790FB0E4B1B78ED
:104D20005BB2181C012102F0EFFE0B4B1B785BB24B
:104D3000181C012102F048FF01F094FA012001F053
:104D400087FA3B1C0F331B785BB2181CBD4604B0BE
:104D500080BDC046981F00202B00002090B585B074
:104D600000AF021C3960FB1D1A703B1C0F33002280
:104D70001A70FB1D1B78032B11D13B68BB60BB680D
:104D80001968BB685A68BB681B893C1C0F34081C37
:104D9000111C1A1CFFF740FF031C237004E03B1C8E
:104DA0000F33FF221A70C0463B1C0F331B785BB2D7
:104DB000181CBD4605B090BD80B500AF044B181C53
:104DC000FEF7D2FB00235BB2181CBD4680BDC04677
:104DD000981F002080B582B000AF786039607B6892
:104DE000012B0BD13A68074B9A4207D1064A074B71
:104DF000101C191C01220223FFF7A6FEBD4602B0BB
:104E000080BDC046FFFF000064200020001BB700EB
:104E100080B500AF034B0120191CFFF7DBFFBD4637
:104E200080BDC046FFFF000013B5041CA520400153
:104E3000211C00F029FA002C0BD0A52000234001F2
:104E400001A9019300F01CFA0028EFD1019BA342B5
:104E5000ECD1002016BD0000F7B5012001F0F8F9F3
:104E60000120694600F00CFA051E4BD1061C009B80
:104E700002211943012000F007FA012001F0E8F9AE
:104E8000214C01A9206800F0FBF9271C002802D161
:104E9000019B002B27D10E230120236001F0D8F9BC
:104EA000206801A900F0ECF9002802D1019B002B39
:104EB00019D113230120236001F0CAF9206801A948
:104EC00000F0DEF900280ED01BE00136301C032173
:104ED00004F0EEFB00290AD1022001F0B9F938688C
:104EE00001A900F0CDF9019B5B07EED505E0009B21
:104EF00002211943012000F0C7F9019B5B07B6D5D9
:104F000000E0051C68B2FEBD2400002007B5134870
:104F100001A900F0B5F9002801D0FA201BE0019B9F
:104F20008021490019430D48019100F0ADF9002896
:104F3000F3D1D020400101A900F0A2F90028ECD162
:104F4000019B80214902D02019434001019100F0CA
:104F50009BF90028E1D140B20EBDC0460814000004
:104F6000F7B5214D2E682C1C002E3AD1802040012F
:104F7000291C00F085F9071E27D11C4801A900F063
:104F80007FF9061E01D02F6029E02B68184A934252
:104F900004D1019A012A1AD0164B08E0164A93420E
:104FA00009D1019B032B12D0042B02D1134B236098
:104FB0000DE0134BFBE7134A934208D1EC2080032A
:104FC000291C00F05DF9002801D02E6007E022685E
:104FD0000D4B1340A022D2021343236001E00020B6
:104FE00000E02068FEBDC0466C200020F4130000E5
:104FF000A0021000A1021000B0021000B1021000C7
:10500000B2021000F0001000FFFFF0FF38B5041CE2
:10501000264800F031F9002803DB012001F018F9DF
:10502000F6E7234800F028F9C30709D5022C15D16B
:105030002049214800F028F980212048490315E043
:105040001F4D012001F004F9013D1E4800F014F944
:10505000002D27D01C4B9842F3D1E7E7032C09D150
:105060001449154800F010F91448002100F00CF91B
:10507000002403E0043C63425C41E401FFF770FF5D
:10508000E8230005000D9B00984202D10220204336
:1050900000E0201CFFF7C8FE0A480C4900F0F4F8B5
:1050A000002000E0FB2040B238BDC04614100000D4
:1050B000BC0702007DD51C3CAC0702008C10000030
:1050C000D10700000C000C009ED0AD10612F52EFF4
:1050D00037B5134B02380093124B01931D1C012866
:1050E00003D8114B0093114B0193FA24E4000020E4
:1050F000019B83420AD0022001F0AAF8013C0098EB
:1051000000F0BAF8002CF3D1FB2407E0019B002447
:10511000AB4203D10248211C00F0B6F860B23EBD9C
:105120008C10000036265302AC070200C3C15DD7C5
:1051300037B5A020002301A940010193124C00F0D3
:105140009FF80199A02021404001019100F09CF8B6
:10515000251C002816D10A24A020400101A900F036
:105160008FF800280ED101998020C000084009D096
:10517000A020013C29404001E4B2019100F084F8F4
:10518000002CE9D140B23EBDFFFBFFFF37B5041C48
:105190000D1C0A4801A900F073F800280CD1012267
:1051A000019BA240002D01D0134300E093430193E3
:1051B0000248019900F068F840B23EBD08010200C3
:1051C00037B5041C0D1C0A4801A900F059F8002845
:1051D0000CD10122019BA240002D01D0134300E01D
:1051E000934301930248019900F04EF840B23EBD4E
:1051F0000001020030B587B00023041C01A9184843
:105200000493059300F03CF8002825D1019B002B66
:105210000BD0C0208002184304A9082200F038F8FF
:10522000002819D1049A019205E00E4801A900F066
:1052300027F8002810D1019AC02093B280021843A9
:1052400002A90622019300F023F802A9051C0622F8
:10525000201C00F0CFFF281C40B207B030BDC04674
:1052600008000C009C14000008B5FFF74BFD08BDBA
:1052700008B5FFF7A1FD08BD08B500F0D7FE08BDD1
:1052800008B500F0D9FE08BD08B500F0DFFE08BD86
:10529000F7B50E4B051C1C880191083C161CA4B2E6
:1052A0000027019BD919A64204D8B2B2281C00F0ED
:1052B00017FF09E0281C221C00F012FF002803D170
:1052C000361B3F192D19ECE740B2FEBD200000202F
:1052D000F7B50E4B051C1C880191083C161CA4B2A6
:1052E0000027019BD919A64204D8B2B2281C00F0AD
:1052F0001DFF09E0281C221C00F018FF002803D124
:10530000361B3F192D19ECE740B2FEBD20000020EE
:10531000062815D80F23042815D01023052812D0ED
:10532000122306280FD0032300280CD004230128C1
:1053300009D00523022806D0032803D1062302E062
:10534000FF2300E0FE2358B2704738B5051C0C1C43
:1053500000F01AFA00280AD1281CFFF7D9FF00280C
:1053600003DBC0B2211CFFF711FF00F033FA40B29B
:1053700038BD38B5051C0C1C00F006FA00280AD10F
:10538000281CFFF7C5FF002803DBC0B2211CFFF774
:1053900017FF00F01FFA40B238BD000070B5041CC2
:1053A0009AB0151C2C2869D01B2804D1101C01A907
:1053B0000822002372E0062803D1101C01A9302224
:1053C0006BE00E2800D18FE0322803D1101C01A918
:1053D0001022EEE72F2808D101A80021642200F056
:1053E00012FF281C01A96422E3E734280DD1101C08
:1053F00001A90422002300F0A9FB011E74D13B4B3C
:105400001B68002B70D0201C6DE0112814D1384A85
:10541000002301AC1370281C211C042200F096FB11
:10542000002861D1334B22781A70304B1B68002B57
:105430005AD01120211C56E013280DD1101C01A9AF
:105440002C22002300F082FB00284DD1274B1B6843
:10545000002B49D013202AE004280DD1101C01A9EB
:105460000422002300F072FB00283DD11F4B1B6873
:10547000002B39D004201AE0652803D1281C01A98B
:10548000042296E7092803D1101C01A9642204E034
:105490002A280ED1101C01A90422012300F056FB7A
:1054A000002821D1114B1B68002B1DD0201C01A905
:1054B00019E0202818D101AE101C311C082200234D
:1054C00000F044FB00280FD1281C0830B288019955
:1054D000012300F03BFB002806D1044B1B68002B86
:1054E00002D0201C311C98471AB070BD70200020DB
:1054F000742000207520002070B58AB06B4601260C
:10550000DE71073300281DD00168104A00251160A4
:105510000F4A181C157000F0D9FB041EAC4212D1C2
:1055200000F08EF9041EAC4208D10A49301C00F08C
:1055300055FB02A800F07AFB041C04E0281C00F0D4
:10554000EAFB00E0F42460B20AB070BD70200020D5
:10555000742000209D53000008B50023084A9A18C3
:105560005268002A02D01268910705D41033B02B7C
:10557000F4D100F043FA00E0F42040B208BDC04688
:10558000D0270020F0B5A5B01C1C2AAB1B880690C4
:1055900005932BAB1B780F1C161C0793012A03D114
:1055A0007B1E1F2B1BD901E0002C01D1F4206AE0E7
:1055B000022AF5D1201C00F02EFE4028F0D1002355
:1055C000E25C111C30393629F0D80A390629EDD9A8
:1055D000473A192AEAD90133402BF1D1E0E705997E
:1055E0000D2901D9FF29E1D109AD68463A1C6A307D
:1055F000EF19069900F0FEFD3B1C403300279F7118
:10560000059A6B462A33DA87079A531E9A416B46EE
:105610008B331A70263B1E70032E13D123782B7008
:10562000032BC3D862781023111C6A7099430A298E
:10563000BCD16846A11C263000F0DCFD6378EB1875
:105640009F7016E0022E0AD1201C00F0E4FD431EDC
:105650009BB23F2BAAD8421C211C281C04E0042E1C
:1056600005D1281C211C3E2200F0C4FD01E0012EC2
:105670009CD10023009301930293012028212A1C2E
:105680006C2300F001F940B225B0F0BD13B504ACB5
:105690002488009400240194FFF774FF16BD0000D5
:1056A00010B5104C86B02378011CDBB2002B14D14E
:1056B000021C0E3AD2B2F120F02A0FD905AA1170BD
:1056C00001200093019302931021042300F0DCF8E1
:1056D000002803D10123237000E0F22040B206B07D
:1056E00010BDC046742000201FB500230093019315
:1056F000029303211A1C012000F0C6F805B000BD7A
:1057000010B5041C00F040F8002806D1201CFFF75B
:1057100071FD002801D100F05DF840B210BD7FB5E9
:10572000002305AA10701221009301930293012017
:10573000042300F0A9F807B000BD0000014B187861
:10574000C0B2704775200020024B1A780132D2B2E5
:105750001A707047842000207047000007B50120B0
:1057600000F0D2FD074801A9FFF78AFD002806D105
:10577000019B0221194303480191FFF785FD40B2C7
:105780000EBDC0467010000010B50E4C2378002BE3
:1057900005D0237800200133DBB2237010E00A4BE0
:1057A0001A78032A02D01B78042BF2D1FFF754FB9E
:1057B000002805D105480649FFF766FD0028E8D016
:1057C00040B210BDA02000209020002074100000E6
:1057D0007856000007B5164B1A78002A03D01A78BD
:1057E000013AD2B21A701B78002083421DD1114BAE
:1057F000021C1978032902D01B78042B15D10E48FE
:105800000E490192FFF740FD00280ED1012001A9A9
:10581000FFF736FD002808D101990223194204D070
:10582000994301200191FFF72FFD40B20EBDC04604
:10583000A0200020902000207410000021430000D0
:10584000094B10B500241C60084B09481C60094B2B
:105850001C70094B1C70094B1C7000F043FD084A7A
:10586000084B201C1A6010BD8020002094200020CE
:1058700049570000A0200020902000208420002014
:105880005957000088200020F0B58BB01C1C10ABCD
:105890000E1C02CB02921B887F22019312AB1B8845
:1058A0003240039306AB5A70082218705A80051CC8
:1058B0005A88002904D001998A1803998A1800E0AF
:1058C000A21892B25A80FFF75FFF031C002B00D092
:1058D00086E06F460893FB820793079B36021D43C1
:1058E0000795079B06AD1E430796079A6B883E48AF
:1058F0001B04134307930799FFF7C6FC1637031CD5
:10590000002B6DD10793079B02221343079307993E
:105910003648FFF7B9FC031C002B61D108933B808C
:105920006E4616363288324B9A4216D82F4807A94F
:10593000FFF7A6FC002810D1079F02231F4007D1C4
:105940002C4808A9FFF79CFC002806D0089704E023
:10595000338801339BB23380E2E7089B002B3ED0B3
:10596000089B291C09936B8808229BB26B800998BD
:10597000FFF7AEFC002833D1099B029A0833099344
:10598000002A09D0111C0998221CFFF7A1FC00284D
:1059900026D1099BE3180993109B002B0FD0039984
:1059A000099B0C1BE418099409981099019AFFF7B8
:1059B0008FFC002814D1099B019AD3180993089BE6
:1059C00002229B000793079B0B48134307930799F9
:1059D000FFF75AFC002803D1FFF7FCFE00E0FD2092
:1059E00040B20BB0F0BDC0468C1000007810000033
:1059F000E7030000000415006C100000F0B5494BEF
:105A000085B01A78002A0AD1474B1C78E4B2002CE2
:105A100000D184E01A78013AD2B21A700FE000F097
:105A20001FFE00247BE0414801A9FFF729FC041E6A
:105A30000AD03C4A1378002B71D1002CE4D0FFF738
:105A4000A3FE041EF5D1EEE7019A0126324262D090
:105A500000F05AFC01993548B1430191FFF714FC5D
:105A6000041EE6D1324AFE241070019A97043F0DBD
:105A7000DFD0039003A92F48FFF702FC041E0BD1CF
:105A800002AD0398291C0422FFF702FC6B88041C5A
:105A90009BB26B80002803D0301C00F035FCC8E7B7
:105AA0006B88BB4207D06B88FF1A042F03DD301CC4
:105AB00000F02AFC2DE02B78012B01D11E4B12E0C7
:105AC0002B78022B01D11D4B0DE02B78042B01D13B
:105AD0001B4B08E02B78062B01D11A4B03E02B78E7
:105AE000072B16D1184B1B68002B07D068786988E4
:105AF000039A0839C0B289B208329847094A137824
:105B0000002B96D10A4A1378002B04D1FFF726FE0A
:105B100001E0FA248DE7FFF75DFE041C89E760B21F
:105B200005B0F0BD7C200020842000207010000013
:105B30009820002084100000802000209420002065
:105B40009C200020782000208C200020F0B585B01B
:105B5000051C0F1C141C0193002803D0002901D040
:105B6000002A04D1019A002A29D1F4202CE01848F7
:105B700003A9FFF785FB002826D1164802A9039E3A
:105B8000FFF77EFB00281FD1B604360DB442ECD8D7
:105B9000029B9D42E9D32A19F31800929A42E4D855
:105BA000281C391C221CFFF773FB00280CD1029B18
:105BB000009AF618964202D0019B002B04D0064BA7
:105BC00001221A70FFF7CAFD40B205B0F0BDC04611
:105BD000701000008410000098200020013800B5EB
:105BE000062813D803F016FD06040A08120C0E004E
:105BF000084B08E0084B06E0084B04E0084B02E0C5
:105C0000084B00E0084B1960002000E0F42040B28F
:105C100000BDC04694200020802000209C20002051
:105C200088200020782000208C20002073B50023DD
:105C3000041C01A920480193FFF722FB1F4B019A86
:105C4000061C9A4204D11E4801A9FFF719FB061C45
:105C5000019B0F251A0C91B2080A2A400909294014
:105C600062729AB22172110A12092A402B402171E4
:105C70006271A371E071FFF773F92379A2796179F9
:105C80001B022A401A430901FF23194020600A43DE
:105C9000607AE179054009020D43217A09010B4040
:105CA00008492B438B4200D9F326074B9A4200D870
:105CB000F32670B276BDC046AC070200C3C15DD703
:105CC00048100000301300002F13000038B50028E2
:105CD00003D005786B1E032B00D901250020FFF7A8
:105CE000C3FA041E15D100F0BBF9281CFFF78EF98A
:105CF000041E0CD1281CFFF7EBF9041E07D1023D4E
:105D0000012D06D9FFF702F9002802D0041CFFF785
:105D1000AFFA60B238BD10B5FFF70AFA041E09D118
:105D200001F06CF8041E05D1FFF7A2FA041E01D1A0
:105D300000F076F960B210BD1FB501AB00220290F1
:105D400019810320191C0192FFF708F805B000BD66
:105D500073B56C46061C0734CF2806D0031C3B33B2
:105D6000DBB2012B01D90B250EE0201C0121FFF72E
:105D7000E3FF0028F7D000201CE02378B3420AD0CC
:105D8000013DEDB2002D06D0201C0121FFF7D4FF0C
:105D90000028F2D0EFE70B25201C0121FFF7CCFFF4
:105DA0000028E8D12378002B03D0013DEDB2002D6F
:105DB000F2D1012040B276BDF0B585B000900C1C48
:105DC000019200278026B601B44200D8A6B20A2567
:105DD00068460B300121FFF7AFFF002801D00020FB
:105DE00020E06A46D37A1B090F2B05D0013DADB2E6
:105DF0002BB20133ECD1F2E72DB2002DEFDD009B89
:105E0000B6B238B21818311CFFF796FF0028E6D159
:105E1000019A002A09D0A41BF319A4B29FB2002C46
:105E2000D0D1012040B205B0F0BD054B1B78002B4E
:105E3000F1D103A80221FFF77FFF0028EBD0CEE7C6
:105E4000A12000201FB501AB019000221981032081
:105E5000191C0292FEF782FF05B000BD30B585B077
:105E600008AC257801AC2070C1380E2857D803F053
:105E7000D1FB2121360E19192B2B480856565656A0
:105E80001B000B0C63700B0AA370E17010E00B0A8F
:105E9000DBB2002D02D08022524213436370A17006
:105EA000002304E0002300E0FF236370A370E3708D
:105EB000052138E00A0C62700A0AA2701A0AE17021
:105EC0002271637107212EE00A0C62700A0AA27027
:105ED0001A0C22711A0AE1706271A3710FE00B0AA9
:105EE000DBB2002D02D08020404203436370130ECA
:105EF000E370130C2371130AA1706371A27108215E
:105F000011E00B0C63700B0AA370130E2371130CBA
:105F10006371130AE170A371E271092103E00020AB
:105F200040B205B030BD0D4B4A1E1B78002B0DD181
:105F30007F2001334000994206D0E518013D2D78BD
:105F40006840074D285CF4E7A05400E0D1B2201C63
:105F5000FFF778FF43425841C0B2E1E7A12000209B
:105F600018E6000073B5031C0A1C302802D8012073
:105F7000C32501E00020C9250090191C281C04231A
:105F8000FFF76CFF0024061E012E0DD1281CFFF721
:105F9000DFFE341C012807D000240094CF20211CF0
:105FA000221C231CFFF75AFF60B276BDF0B5031C1C
:105FB00085B00F1CFF2802D80125C42601E000256A
:105FC000CA26191C0095301C00220423FFF746FF47
:105FD0000024012821D1301CFFF7BAFE012808D087
:105FE00000240094211C221C231CCF20FFF736FF25
:105FF00013E003AC201C04212A1CFFF7DDFE01285E
:10600000EED16278A37812021B0413432278134363
:10601000E278041C120613433B6060B205B0F0BD89
:10602000014B002018707047A120002007B501A97E
:10603000FFF7BCFF01980EBD08B5FFF7B7FF0128B9
:1060400001D1002000E0FA2040B208BD08B5FFF7FA
:1060500089FF012801D1002000E0FA2040B208BDEC
:1060600013B51D4C00231D4801A901932370FFF7B0
:106070009DFF002803D02378002B09D015E00123D1
:10608000164801A92370FFF791FF0028F3D11DE006
:10609000019A7C239A435021114310480191FFF744
:1060A00061FF002812D0012323708020400169463F
:1060B000FFF77CFF00280BD00848FFF7B7FF7023DD
:1060C0009843502101430548FFF7C0FF002000E03E
:1060D000FA2040B216BDC046A120002024E80000EE
:1060E00073B5031C151C00240E1C0094191CC82039
:1060F000221C2B1CFFF7B2FE012815D1C820FFF788
:1061000027FE012807D000230093191C1A1CCF205A
:10611000FFF7A4FE08E0301C291C221CFFF74CFEF0
:106120000128F0D160B276BDFA24FBE7F0B5031C7C
:1061300087B0141C002503910095191CC7202A1C48
:10614000231CFFF78BFE01284CD1C720FFF700FE70
:10615000012807D00095291C2A1C2B1CCF20FFF7F3
:106160007DFE3FE005AF3D808023261C9B019C42C5
:1061700000D91E1CB6B2002D04D103229C4205D9C1
:10618000012203E00022A34252410232102368465A
:106190005B4213301A4301210270FFF753FE0028BF
:1061A00018D1039B28B21818311CFFF74BFE0028AA
:1061B00010D10F4B1B78002B06D0A41B7519A4B26D
:1061C000ADB2002CD0D111E0381C0221FFF73AFE0D
:1061D0000028F2D000230093191C1A1CCF20FFF7CF
:1061E0003DFE03E0FA2040B207B0F0BD0020FAE720
:1061F000A120002010B500239A4203D0CC5CC454E7
:106200000133F9E710BD8318002A03D00170013073
:106210009842FBD17047021C031C1978981A80B26F
:10622000002901D00133F8E77047000008B5034B9F
:106230001B68002B00D0984708BDC046A420002052
:1062400008B501F0EFF908BD08B501F06FFA08BD17
:1062500010B5041C002C04D0012001F0E1FA013C2F
:10626000F8E710BD10B5094C00202056002101F0C0
:10627000ABFC6420FFF7ECFF00202056012101F069
:10628000A3FC6420FFF7E4FF10BDC04629000020F6
:1062900038B5104B104D00241C60002028560121F9
:1062A00001F032FC00202856012101F08DFC0B4B3F
:1062B00000201856211C01F027FC094B002018561D
:1062C000A04202DB022101F01FFCFFF7CBFF002000
:1062D00038BDC046A420002029000020280000204E
:1062E0002A00002008B5054B05491860054B002021
:1062F00018560322FFF7A4FF08BDC046A4200020C3
:106300002D6200002800002008B5074B002806D0A9
:106310000020185605490322FFF792FF03E00020F2
:106320001856FFF791FF08BD280000202D620000DD
:10633000F0B585B003920AAA128802900192002A51
:1063400046D0244D02015059002841D0AD18AA88EA
:10635000002A3DD0AF7AFFB2012F39D11E4C1F4E1B
:10636000201C18223360FFF745FF0198E080AB88BE
:10637000C31A1BB2002B0CDDAB8802999BB20193B0
:10638000174B039A1F70174B1970174B1A70002385
:1063900000E03B1C02980F4F0501E9593068019A53
:1063A000FFF7D4FB002813D10199E388ED595B1A5C
:1063B000E3800E4B25601A68A180002A04D01B6878
:1063C00002980399221C98473068019A1318336089
:1063D00005B0F0BD14270020B0200020AC20002024
:1063E0007C200020A9200020CA200020C4270020F3
:1063F000F0B50F1C9DB0141C412816D10BAD101C1C
:10640000291C04220023FFF7A1FB002800D01AE179
:106410006B7807AA13708D4B1968002900D112E11F
:1064200000201B682856012117E0422817D10BAD28
:10643000101C291C04220023FFF788FB002800D031
:1064400001E16B7807AA1370804B1968002900D10D
:10645000F9E000201B68285602219847F3E0432802
:1064600035D107AD101C291C0C220023FFF76EFB51
:10647000002800D0E7E0697A4AB2002A15DB744CA4
:106480001201A318D87201209872724B188801303B
:1064900080B218801888002803D11888013080B293
:1064A00018801B88A2189BB2D3800BAA02231170FC
:1064B00093806B886968D380644B91601968002968
:1064C00000D1C0E008201B6828560421C5E74428F5
:1064D00001D04B2821D10BAD201C291C0422002304
:1064E000FFF734FB002800D0ADE0287807AA107031
:1064F0006B785370002B07D1698843B2544C08392C
:106500001B0189B2E3181981504B1968002900D189
:1065100099E01B6840B205219FE74A2812D1101C60
:106520000BA944220023FFF711FB002800D08AE0CA
:10653000494B1B991A68002A00D184E01B680BA8FC
:10654000984780E0462803D0482803D04D283FD103
:10655000062600E0092607AD0023201C291C102276
:10656000FFF7F4FA031E6ED1EA890C200392285635
:106570003749020189180B738C46298902916A896F
:10658000059269886D680BAA5181D5606146CD88F6
:106590000399A94213D102990BB2002B0ADDBB4229
:1065A00008DA0599631802990091111C321CFFF753
:1065B000BFFE48E0029B938000230B9326E0102F40
:1065C00041D9191C1A1C181C0123FFF7BFFA3AE025
:1065D000452803D0472803D04C281ED1072600E0C9
:1065E00008260BAD201C291C08220023FFF7AEFA59
:1065F000002828D128786B8807AA40B2144CA988B3
:1066000013800301E318DB8899421CD10F4B1968F2
:10661000002918D01B68311C1FE7522813D10BAD7D
:10662000101C291C14220123FFF790FA00280AD11C
:106630000A4B696819601A68002A04D01B68286828
:10664000A9682A7C98471DB0F0BDC046C427002029
:1066500014270020C8200020CC270020C8270020B5
:10666000F8B5264DEC88002C46D0254B0021595614
:10667000244E09018A59002A3ED072189388002BB3
:106680003AD0131C08339B78DBB2012B34D19088AD
:10669000201A00B2002806DD1B4F02233B709488AD
:1066A0000023A4B202E0184F03223A70174F71582A
:1066B0003868221CFFF74AFA002815D1104A00203A
:1066C0001056AC800301F658EB882E601B1BEB8044
:1066D0000F4B1A68002A04D00E4A1B6811782A1C36
:1066E00098473B68E4183C60074F3B78032B03D185
:1066F00000233B70FFF76EF8F8BDC046B0200020C5
:10670000A9200020142700207C200020AC2000209D
:10671000C4270020CA20002038B5094D2C78E4B2E7
:10672000002C0CD10748211CB022FFF76CFD022081
:106730000549FFF753FA01232B70044B1C8038BD29
:10674000A820002014270020F1630000C8200020AA
:10675000024B1860024B19607047C046C4270020E6
:10676000CC27002070B5161C86B0FF2402283CD12F
:10677000012904D0022938D10B2307240BE0072379
:10678000002408E01A4A2501AD18A97AC9B20029E7
:1067900004D00134E4B29C42F4D325E01022281C3A
:1067A000FFF731FD0123AB72124B1A88013292B20E
:1067B0001A801A88002A03D11A88013292B21A80EC
:1067C0001B88E4B29BB2EB8001231E420DD0EB721A
:1067D00005AA002314705021009301930293022014
:1067E0000423FFF751F800E0FF2460B206B070BD4B
:1067F00014270020C820002030B589B0002921D0FE
:1068000000281FDB114D0301ED182B1C08339B786A
:10681000012B17D1002A15D005AC20720822201CAC
:10682000FFF7E8FCEB8802206381002300930193CB
:1068300002934121221C0C23FFF726F8002802D0E6
:10684000F72000E0FA2040B209B030BD1427002044
:106850007FB5002819DB0F4A0301D3181A1C083230
:106860009278012A11D105AA10705170DB8802209C
:106870005380002300930193029342210423FFF7E6
:1068800003F8002802D0F72000E0FA2040B207B059
:1068900000BDC04614270020F0B58BB0071C059141
:1068A000161C109D002833DB002931D0AF23DB00FC
:1068B0009A422DD8184A0301D31804939A7A0833C0
:1068C000012A25D19B78002B22D006AC1022201C57
:1068D0000021FFF798FC049A27706680D388A38173
:1068E000002D05D02B88A3806B886D68E380A560A0
:1068F000059B019600934423029302201023C72195
:10690000221CFEF7C1FF0023984202D0034B00E097
:10691000034B18B20BB0F0BD14270020F2FF0000AB
:10692000FAFF0000F0B587B0002830DB00292ED038
:10693000002A2CD0184F05017C19A67AA446F6B27D
:106940000834012E23D1E95161468A802179002241
:1069500091421DD12671E2784D21324200D146216B
:10696000002B01D101235B4204AA107104937D190D
:10697000EB880024D3800220009401940294082321
:10698000FEF782FF221CA04202D0044A00E0044A23
:1069900010B207B0F0BDC04614270020F2FF00007F
:1069A000FAFF0000F0B587B0002824DB144E050183
:1069B0007419A77A211CFFB20831012F1BD105AA37
:1069C0001070E388538000238B70E380C8784E21D9
:1069D000384200D1492100930193029302200423FD
:1069E000FEF752FF041E00D0F72470190021102278
:1069F000FFF709FC00E0FA2460B207B0F0BDC04622
:106A000014270020F0B589B0002833DB002931D0ED
:106A1000002A2FD0194C05016719A4463C1C0834E4
:106A2000A678F6B20496012E24D1A678002E01D1C4
:106A3000002320E06646A951BA802279002AF7D1C6
:106A4000049A2271002B01D101235B4206AA107126
:106A500006936544EB880024D38002200823009429
:106A6000019402944821FEF70FFF231CA04202D09C
:106A7000034B00E0034B18B209B0F0BD142700200F
:106A8000F2FF0000FAFF00001FB5041CFFF7C3FB74
:106A9000C3B2402B0ED80021C0B2431C009101911B
:106AA00002910220CA21221CFEF7EEFE002802D02D
:106AB000F72000E0FA2040B204B010BDF0B599B064
:106AC0001EAC2488059400286ADB002B68D0364C65
:106AD0000601A519A4462C1C0834A778FFB2012F83
:106AE0005ED1022947D106285ADCE5783D4257D0CD
:106AF000012A08D11868E378002802D01943E17010
:106B000037E08B430BE0032A0BD11868E27810239F
:106B1000002802D01343E3702BE09A43131CE37068
:106B20003FE0022A3CD1059A3F2A39D806AC2070B2
:106B30006644F288191C6280059A00260225079295
:106B400008A840226570FFF755FB00960196029653
:106B5000281C5121221C4823FEF796FE033008D141
:106B6000009601960296281CD121221C4823FEF78C
:106B70008BFE002015E01B6806AC62712071069345
:106B8000EB880220E38000230093019302934F21BE
:106B9000221C0823FEF778FE002802D0F72000E030
:106BA000FA2040B219B0F0BD1427002008B5034800
:106BB0000021B02204F0A5FC08BDC046D02700206B
:106BC00030B5044D00012C18E360039B6160A260A6
:106BD000435130BDD027002010B5044900010023E7
:106BE0000A1853609360D360435010BDD027002033
:106BF000F7B5051C481E141C082800D9F5E002F062
:106C000009FDBDF4F4DA051AF4F45900002A10D095
:106C100053787F2B0DD8754E2C01AF22A159D2008D
:106C20000023281C3419FFF77DFE636801221968D0
:106C3000D9E0281CCDE000210520FEF79AFB0021B9
:106C40000220FEF796FB69482901002C20D004227F
:106C5000A35E002B1CDD4618B7683A689B18AF226C
:106C6000D200934204D9736802221C682243BBE01D
:106C70003B60002B07D0E388002B12D07368022200
:106C80001E68324364E04158281CFFF74BFE08E0C1
:106C900041184B6801221F68281C97431F60FFF7AB
:106CA00081FE01210520FEF764FB01210220FEF791
:106CB00060FB9AE000210520FEF75BFB022000212B
:106CC000FEF757FB002CECD0A7883AB2002AE8DD8B
:106CD000474B464E1B782801012B23D831188B686F
:106CE0001A6833580193E3889C466744BFB2019BFE
:106CF00000973F0A9F54009F9B185F7067899F70A1
:106D000067893F0ADF70E77B1F71E7895F71E7687A
:106D10003F0A9F71E768DF718B680427E15F5218B3
:106D2000083203E033189B6819688A181A60331810
:106D30009A681168AF22D200571ABC462D4FBC4545
:106D400008D8E288002AACD05B68022219680A439E
:106D50001A60A6E7264B1B78002B05D0032B03D027
:106D60003358281C591805E033580831AF225918F8
:106D7000281CD2000023FFF745FE92E7002A34D0FA
:106D80000023D356002B30D1184A290150184068EF
:106D90000424066834430460062D04DC281C191CF6
:106DA000FFF756FD21E08958AF220831281CD20098
:106DB000FFF728FE19E0002A17D0002010560028FF
:106DC00013DB0A4B2D015D196B680822196811420B
:106DD00002D0FFF7E7FD08E00748014019600020F6
:106DE0002056000401430A431A60F7BDD027002053
:106DF0007C2000207F050000FFFF00FF73B5061C0C
:106E0000FEF7AEF8294B0005000D002498424BD93F
:106E1000274801A9FEF734FA041E45D1019B254DF0
:106E200025492B40194322480191FEF72DFA2348AA
:106E3000211C002E20D0FEF727FAAB212048FEF7B8
:106E400023FA01211F48FEF71FFA211C1E48FEF7F6
:106E50001BFA1E488121FEF717FA1D48FEF70CFAAF
:106E60000128FAD1019B80211D4049022943104885
:106E70000191FEF709FA17E0FEF706FAB92110486A
:106E8000FEF702FA01210F48FEF7FEF9211C0E4819
:106E9000FEF7FAF90D488121FEF7F6F90C48FEF7E6
:106EA000EBF90128FAD1DDE760B276BD9F0300005F
:106EB00010140000FF8F88F8001011010802010073
:106EC0000C020100140201001C0201000402010076
:106ED0001802010010B54468A318436000239342D0
:106EE00003D0C85CE0540133F9E7012010BD000075
:106EF000034B4160036000238260C36003617047FD
:106F0000D56E000038B50368041C151C002B16D084
:106F1000C0681218A068824206D92369002B00D1EC
:106F2000094B236100200EE0201C2A1C98470028F2
:106F300005D12369002B00D1044B236103E0E268F3
:106F400001205519E56038BD18E7000024E700006E
:106F5000F0B585B0002B05D17F2A03D801A90A70AE
:106F6000012214E00024802676425D061643D209F1
:106F70002A43F6B201A9DB09171C6654651C1F439E
:106F800001D02C1CEFE77F231E400E552A1CFFF773
:106F9000B9FF05B0F0BD000008B5131C0A79012A3D
:106FA00001D11A7806E0022A01D11A8802E0042AE7
:106FB00002D11A6800230BE0082A02D11A685B6824
:106FC00006E00369002B00D1034B0361002001E0C0
:106FD000FFF7BEFF08BDC0462DE7000008B5131C33
:106FE0000A79012A02D100229A5607E0022A02D128
:106FF00000215A5E02E0042A02D11A68D3170BE07E
:10700000082A02D11A685B6806E00369002B00D1E8
:10701000034B0361002001E0FFF79AFF08BDC04663
:107020002DE7000038B5141C1D1CA4185D41002B71
:1070300002DAE243EB4301E0221C2B1CFFF788FF3E
:1070400038BD000008B5131C0A79012A02D10022BC
:107050009A5607E0022A02D100215A5E02E0042A71
:1070600002D11A68D3170BE0082A02D11A685B68AC
:1070700006E00369002B00D1034B0361002001E00F
:10708000FFF7D0FF08BDC0462DE7000007B50B682D
:1070900001A91A0A4A701A0C0B708A701B0E04227E
:1070A000CB70FFF72FFF0EBD08B5111CFFF7EEFFE9
:1070B00008BD13B50CC969466C460A70110A6170A7
:1070C000110C120EE2701A0A62711A0CA17023716F
:1070D000A2711B0E69460822E371FFF713FF16BD6C
:1070E00008B5111CFFF7E5FF08BD08B5530FD20026
:1070F0000A43FFF72DFF08BD10B5041C48780F2385
:10710000184009280AD802F085FA10101012050755
:107110000707090701230BE0022309E02369002B7D
:1071200000D1064B2361002007E0002300E0052387
:107130000A78201C191CFFF7D8FF10BD3FE700009C
:10714000F0B5041C4878161C3F23021C8BB00D1CA4
:107150009A43402A00D1FFE0802A02D0002A00D0C2
:107160000AE16946012313310B700F2303409F008E
:107170009C46854BFF58EB780397002B02D05BB2FF
:10718000F3182EE0302707400B1C102F29D167463B
:10719000052F07D13178002923D16B461333002105
:1071A00019701EE0062F02D02B79012B02D1337803
:1071B000002BF2D02F79022F03D13388002BECD093
:1071C00004E0042F04D13768002FE6D00B1C08E040
:1071D0000B1C082F05D1336871680B43DDD06B465B
:1071E0001333802A05D13668371C791E8F416946D2
:1071F000CF7430210840102812D002D8002806D0C1
:10720000BAE0202812D0302800D194E0B4E0002E5B
:1072100000D095E02369002B00D0B1E05B4BAFE0DC
:107220001B780120002B00D1ACE089E01B78019392
:10723000002B00D194E0802A09D06B79019F9F42F6
:1072400005D92369002B00D09AE0514B98E06146A4
:107250000027042966DC2A78201C0221FFF745FF5D
:10726000B84200D18DE06A780F231340032B02D17E
:10727000019A97001AE0042B02D1019BDF0015E070
:1072800005A8391C142204F03CF9029605A8291C13
:10729000029A039B9847002873D002992B79019A90
:1072A000C918013702919742F0D3089F201C3A1C5D
:1072B0000023FFF74DFE002863D0216800230293CE
:1072C00099420ED1201C3A1CFFF71CFE002858D012
:1072D00046E0029F2B7901990137F61802978F42F9
:1072E0003ED2201C291C321C039FB8470028F0D135
:1072F00047E06B783F22191C91430A1C201C291C73
:10730000802A16D10F221340053B012B11D8326879
:10731000039B9847002834D02B7901990137F61840
:107320008F421DD2201C291CFFF7E6FE0028E0D169
:1073300027E0321CECE71A782B7801209A4221D101
:10734000201C291CFFF7D8FE00281AD0201C291C5D
:10735000321C039FB84715E03368321D002B01D162
:1073600001200FE0201C98470028F9D12369002B49
:1073700000D1084B236105E02369002B00D1064BA7
:10738000236100200BB0F0BDD4E7000052E70000FD
:1073900069E7000081E700003FE7000030B587B0F3
:1073A000051C684600F0ECF8002801D101202DE012
:1073B00001990F234A781340049A082B1DD11468B1
:1073C000002C1FD022685368002B03D0281C211CDE
:1073D00098470CE091683F224B789343802B02D171
:1073E000221D281C01E06268281CFFF7A9FE002866
:1073F00001D100200AE0A468E2E7281CFFF7A0FE04
:107400000028F6D0684600F0CCF8CDE707B030BDD4
:1074100070B50023051C0E1C141CFFF799FD0028F5
:1074200004D0281C311C221CFFF76CFD70BD10B568
:107430000B7949783F24A143802901D0191C01E030
:1074400001214942002A07D000238B4205D0D45C99
:10745000002C02D00133F8E7131C111C1A1CFFF793
:10746000D7FF10BD10B54B780F241C40092C02D15A
:107470000B79111C15E0002A01D1111C12E03F24E8
:10748000A3431C1C1378002C0AD109795C1C8C4284
:1074900006D90369002B00D1044B0361002003E0EF
:1074A000511C1A1CFFF7B4FF10BDC04690E7000046
:1074B000F0B589B00F1C019200211422041C03A80E
:1074C00004F01FF803A8391C019AFFF767FF002892
:1074D00002D10799216135E0069D0026201C2A1C57
:1074E000331CFFF735FDB0422CD02168B14204D1E6
:1074F000201C2A1CFFF706FD24E0E268AB18A268F6
:10750000934204D92369002B1AD10F4B18E063680A
:107510000391019A391C03A80493059506960796D2
:10752000FFF73CFFE168069A8B18E360049B6360F9
:10753000079BAA4201D1236104E0002B00D1034B39
:107540002361002009B0F0BD18E70000A4E70000A7
:1075500010B5CB798C791B0223430C7A497A240429
:1075600023430906194306D10369002B00D1034BBD
:107570000361002001E0FFF79BFF10BDB8E70000AA
:107580000023C2600160416083608B78D218026181
:107590000323CB56D21842610878431E9841C0B2EB
:1075A0007047F8B5436800241A78A24238D0191CF5
:1075B0000A3141609A7AA24204D10168C268FFF799
:1075C000DFFF2DE05D7830261A792E40302E09D16C
:1075D0004F783E40302E05D19A780569AA1A02618B
:1075E000221C0CE00F242E1CA643202E02D15C7915
:1075F000624304E03F24A543802D00D104225C783F
:1076000030231C4202D18368013383608B780124CC
:10761000D21803699A1802610323CB56D21842612B
:10762000201CF8BDF0B51823434385B00292374AB9
:107630001625D3185D5701900391691C63D0102D56
:1076400061D0334B334C196800291FD14422324892
:1076500003F057FF31491022CA67314BC02149005E
:107660005A50C12189005858FF26B04358501A601B
:107670002C4A2D4B5A8023780222134323706378BF
:10768000DB09012BFBD0224B01221A600127636921
:107690003E1CAE40334363610021019800F0C4FA00
:1076A0001D4A0399AB009950072D00DC0027FB0011
:1076B000029AED1AAD00042A22D8101CBF0001F076
:1076C000A9FF03080D121700124B0522FF18BB6912
:1076D00012E0104904227F18BB690DE00D4ABF1863
:1076E000BB69032208E00B4B0222FF18BB6903E0D1
:1076F000084901227F18BB69AA40151C1D43BD61C2
:10770000B603B60BE66005B0F0BDC046B4E00000BD
:10771000CC20002000180040D020002004E100E030
:1077200000E100E005400000000C00401823584331
:10773000084B18181623C3565A1C0AD0102B08D011
:1077400001229A409103044B890B99605969914336
:1077500059617047B4E000000018004070B5002483
:10776000084D01262B69A640334206D0064BA200E5
:10777000D358002B00D098472E610134102CEFD144
:1077800070BDC04600180040D0200020FEE7000079
:1077900008B5034B1B68002B00D0984708BDC046B6
:1077A0001421002038B50F490F4CA14204D100F03C
:1077B00055F8FBF727FD0BE00C4D8D42F7D0002369
:1077C000CA18E818A24204D2006804331060F7E730
:1077D000FEE79042EBD0064B064A9342E7D20022E6
:1077E00004C3F9E7000000208C010020C8EB000072
:1077F0008C0100208428002008B500F02CF8002817
:1078000001D100F01DF808BD014B18607047C0465B
:1078100014210020014B18687047C0461821002031
:1078200070B5041E08D0054B1D681E1C00F012F830
:1078300033685B1BA342F9D370BDC04618210020FA
:1078400008B5034B1A6801321A6000F093FB08BDBB
:1078500018210020704700207047000070B54A4A88
:107860001E21536802208B430343484953608B69B0
:10787000082423438B61464C464B9C829C8A2043C0
:107880009882101CDA689407FCD5434A01241470CE
:107890001478E50704D5404C647864B2002CF7DB1B
:1078A00001249460547864B2002CFBDB3B4D3A4CCD
:1078B0006560547864B2002CFBDB8225364CED0108
:1078C0006580547864B2002CFBDB9C8C8025AC4333
:1078D0009C84DC68E606FCD5314D2E4CE562DD6803
:1078E0002C4CEE06FBD5A58C2E4E3543A584DD68C9
:1078F000284CEE06FBD5A58C02263543A584DC6812
:107900002506FCD5234CE4686606F8D5DC68E50658
:10791000FCD500249460547864B2002CFBDB224D2B
:107920001D4C656055781C4C6DB2002DFADB1E6A4B
:107930001E4D35401D621D6A8026B5431D6203231E
:10794000A3601B4B636053785BB2002BFBDB00230F
:107950000B72184A4B728B72CB72174BFF211A6055
:10796000164B174A1B6812685C01D20E2140114366
:107970009A06520F12020B1C1343124A13854368D6
:1079800080221343436070BD00400041000400406A
:107990000C06000000080040000C0040010501003A
:1079A000B805FF7D040A000000070300FFFCFFFF8D
:1079B00003060100006CDC022C0000202460800023
:1079C00020608000004000422E4BFA21186810B55C
:1079D000890001F029FE2C4B013898421DD82B4B11
:1079E0002B4A5860106AC0210002000A09060143B0
:1079F0001162002407229C601A60264BFC211A6A3F
:107A00000A431A62196AFC2292010A431A62196A2D
:107A1000A022D2020A431A6200E0FEE7201C0021E5
:107A2000013400F071F8162CF8D11B4C63785BB26E
:107A3000002BFADB194B6380194B5A7ED209012ABD
:107A4000FAD0E422D2009A803F22DA70597E144A9A
:107A5000C9090129FAD0C0235B010020136190708D
:107A600000F024F863785BB2002BFBDB0D4A0A4B75
:107A70005A800D4BDA79D209012AFAD041225A7084
:107A800010BDC0462C000020FFFFFF0010E000E00A
:107A900000ED00E000040040000C00401E4000002B
:107AA00000400042214000000048004200B5144A56
:107AB000517E131CC9090129F9D00138042813D8B3
:107AC0001969104A0A401A615A780F218A4301F055
:107AD000A1FD030509070300012102E0032100E0E5
