:1020000000800020652500004D2500004D250000C2
:1020100000000000000000000000000000000000C0
:102020000000000000000000000000004D2500003E
:1020300000000000000000004D250000B925000050
:102040004D2500004D2500004D2500004D250000C8
:102050001D2500004D2500004D25000051250000E4
:102060004D2500004D2500004D2500004D250000A8
:102070004D2500004D2500004D2500004D25000098
:102080004D2500004D2500004D2500004D25000088
:10209000000000004D2500004D2500004D250000EA
:1020A0004D2500004D2500004D2500004D25000068
:1020B00010B5064C2378002B07D1054B002B02D01E
:1020C000044800E000BF0123237010BDFC00002085
:1020D00000000000CC42000008B5084B002B03D0E4
:1020E0000748084900E000BF07480368002B03D0F9
:1020F000064B002B00D0984708BDC04600000000EA
:10210000CC42000000010020F80000200000000088
:102110007047000010B500F031FB01F0FDFDFFF746
:10212000F7FF012000F056FA214C201C00F0F0FFD0
:10213000201C01F04DF800F0C7F800F0B3F80820BB
:10214000002100F0BBFB0920002100F0B7FB0A20B2
:10215000002100F0B3FB0B20002100F0AFFB0C20AE
:10216000002100F0ABFB0D20002100F0A7FB0820B0
:102170001049042200F04EF909200F49042200F012
:1021800049F905200D49042200F044F900200C49CA
:10219000032200F03FF901200A49032200F03AF936
:1021A00002200949032200F035F900F0C3F8FCE7EA
:1021B00043090020CD210000E1210000F5210000AD
:1021C000092200003D22000071220000024B1A8A01
:1021D000024B92B21A807047003000421801002072
:1021E000024B1A8A024B92B21A80704700300042AA
:1021F0001E020020024B1A8A024B92B21A807047CC
:1022000000300042240300200A4B7F211A8A0A4B27
:1022100092B25A805A7901320A4019798A4207D01B
:1022200058881988401A510080B25918C8805A71CC
:102230007047C04600300042180100200A4B7F2141
:102240001A8A0A4B92B25A805A7901320A40197995
:102250008A4207D058881988401A510080B259180C
:10226000C8805A717047C046003000421E020020EC
:102270000A4B7F211A8A0A4B92B25A805A7901324C
:102280000A4019798A4207D058881988401A5100A3
:1022900080B25918C8805A717047C0460030004259
:1022A00024030020054A002313715371044A13715B
:1022B0005371044A137153717047C04618010020CE
:1022C0001E02002024030020114A124B1A60124BF8
:1022D0005A78D209FBD11149114A11605A78D209B2
:1022E000FCD11049104A11805A78D209FCD10F4B09
:1022F0001A8892B21A80D97B0C4AC909FBD111887D
:102300000B4801431180DA7BD209FCD17047C046EB
:1023100004060000080C0040000C00400407030005
:10232000040C00401C440000020C0040003000423D
:102330000202000070B5304C227963799A4210D1C4
:102340000025002D17D02D4E2D49301C00F086FBA6
:102350000A22301C291C00F0D8FB227963799A42AA
:1023600009D023797F220133134023715B00E318E6
:10237000DD88ADB2E5E7234C0025227963799A42E6
:102380000FD1002D17D01D4E1F49301C00F066FBE9
:102390000A22301C291C00F0B8FB227963799A428A
:1023A00009D023797F220133134023715B00E318A6
:1023B000DD88ADB2E5E7154C0025227963799A42B4
:1023C0000FD1002D17D00D4E1149301C00F046FBE7
:1023D0000A22301C291C00F098FB227963799A426A
:1023E00009D023797F220133134023715B00E31866
:1023F000DD88ADB2E5E770BD180100207C04002047
:10240000244200001E0200202E420000240300206F
:1024100038420000F0B51823434385B00292374A92
:102420001625D3185D5701900391691C63D0102DB8
:1024300061D0334B334C196800291FD144223248F4
:1024400001F0A3FC31491022CA67314BC021490079
:102450005A50C12189005858FF26B04358501A607D
:102460002C4A2D4B5A802378022213432370637821
:10247000DB09012BFBD0224B01221A600127636983
:102480003E1CAE40334363610021019800F076FAB0
:102490001D4A0399AB009950072D00DC0027FB0073
:1024A000029AED1AAD00042A22D8101CBF0001F0D8
:1024B000D9FB03080D121700124B0522FF18BB6948
:1024C00012E0104904227F18BB690DE00D4ABF18C5
:1024D000BB69032208E00B4B0222FF18BB6903E033
:1024E000084901227F18BB69AA40151C1D43BD6124
:1024F000B603B60BE66005B0F0BDC046C43E0000B2
:102500002C040020001800403004002004E100E00A
:1025100000E100E005400000000C004070B5002420
:10252000084D01262B69A640334206D0064BA20077
:10253000D358002B00D098472E610134102CEFD1D6
:1025400070BDC0460018004030040020FEE70000C7
:1025500008B5034B1B68002B00D0984708BDC04648
:102560007404002038B50F490F4CA14204D100F08B
:102570004FF8FFF7CFFD0BE00C4D8D42F7D0002355
:10258000CA18E818A24204D2006804331060F7E7C2
:10259000FEE79042EBD0064B064A9342E7D2002278
:1025A00004C3F9E700000020FC000020D042000036
:1025B000FC0000206C0A002008B500F026F8002876
:1025C00001D100F017F808BD014B18607047C046F4
:1025D0007404002070B5041E08D0054B1D681E1C35
:1025E00000F012F833685B1BA342F9D370BDC046FC
:1025F0007804002008B5034B1A6801321A6000F015
:102600009DFA08BD78040020704700207047000044
:1026100070B54A4A1E21536802208B430343484940
:1026200053608B69082423438B61464C464B9C8244
:102630009C8A20439882101CDA689407FCD5434A90
:10264000012414701478E50704D5404C647864B212
:10265000002CF7DB01249460547864B2002CFBDB7F
:102660003B4D3A4C6560547864B2002CFBDB82250C
:10267000364CED016580547864B2002CFBDB9C8CF9
:102680008025AC439C84DC68E606FCD5314D2E4C9D
:10269000E562DD682C4CEE06FBD5A58C2E4E35434D
:1026A000A584DD68284CEE06FBD5A58C02263543B3
:1026B000A584DC682506FCD5234CE4686606F8D5BD
:1026C000DC68E506FCD500249460547864B2002CE4
:1026D000FBDB224D1D4C656055781C4C6DB2002D06
:1026E000FADB1E6A1E4D35401D621D6A8026B54309
:1026F0001D620323A3601B4B636053785BB2002B06
:10270000FBDB00230B72184A4B728B72CB72174B98
:10271000FF211A60164B174A1B6812685C01D20E23
:10272000214011439A06520F12020B1C1343124A06
:102730001385436880221343436070BD004000410D
:10274000000400400C06000000080040000C00409F
:1027500001050100B805FF7D040A00000007030021
:10276000FFFCFFFF03060100006CDC0200000020FC
:102770002460800020608000004000422E4BFA213F
:10278000186810B5890001F077FA2C4B013898428F
:102790001DD82B4B2B4A5860106AC0210002000A3A
:1027A000090601431162002407229C601A60264B2F
:1027B000FC211A6A0A431A62196AFC2292010A432E
:1027C0001A62196AA022D2020A431A6200E0FEE7E6
:1027D000201C0021013400F071F8162CF8D11B4C9C
:1027E00063785BB2002BFADB194B6380194B5A7E7E
:1027F000D209012AFAD0E422D2009A803F22DA706C
:10280000597E144AC9090129FAD0C0235B0100206E
:102810001361907000F024F863785BB2002BFBDB4F
:102820000D4A0A4B5A800D4BDA79D209012AFAD0A7
:1028300041225A7010BDC04600000020FFFFFF007B
:1028400010E000E000ED00E000040040000C00405B
:102850001E400000004000422140000000480042AD
:1028600000B5144A517E131CC9090129F9D0013859
:10287000042813D81969104A0A401A615A780F219E
:102880008A4301F0EFF9030509070300012102E083
:10289000032100E002210A435A700AE01169F02383
:1028A0001B050B43136153780F218B4302210B430C
:1028B000537000BD00400042FFFFFFF010B5182428
:1028C000021C201C50432A4B1818007A40B20130D9
:1028D0004CD003294AD8081C211C01F0C3F902334B
:1028E0001121624398569A18C301224852681B1856
:1028F000991840310220087001219140596035E05B
:10290000624398561B499A185268C3015B1899187C
:10291000403106200870012191405960996125E0FD
:1029200051435A56134859184B68D2011118C81808
:102930004030062404700120984048600E49521827
:10294000506013E051435A5659180A4B4968D20156
:10295000D21853184033187802242043187018787E
:102960000424A043187001238B40936010BDC0461F
:10297000C43E00000044004110440041182242437C
:10298000F8B52D4D0824AA181457031C621C50D00A
:10299000481C00240C284CD801F064F9071E1E1EA8
:1029A0001E1E1E1E1E0A0A0A0A000124644240E07E
:1029B000092902D1181C002103E00A2904D1181C9E
:1029C0000221FFF77BFF23E000240B2931D1181CE3
:1029D0000121FFF773FF2CE018225343EA185268D5
:1029E000EB560120141C04405508DB01002C11D0CB
:1029F000124C1B195D1930352E780C010F21314016
:102A000021439A18C9B229704032137818431070C4
:102A100000240EE0094E0F279B195D1930352E78E2
:102A20009A18BE433143C9B2297040321378184313
:102A30001070201CF8BDC046C43E00000044004198
:102A400038B5051C0C1C081E07D001F00DFA2B68C8
:102A5000021C5B68281C211C984738BD08B5FFF78D
:102A6000EFFF08BD08B503681B68984708BD000064
:102A700008B50249FFF7E4FF08BDC0464242000026
:102A8000F0B58DB0161C0BAB002201900C1C1A7017
:102A9000012E00D80A266D462B35201C311C01F072
:102AA0002FF9201CCFB2311C01F0E6F8291C041CC0
:102AB000092F01D8303700E03737FFB22F70013DC2
:102AC000002CEAD10198FFF7BBFF0DB0F0BDF8B5BF
:102AD000041C0D1C161E04D10368C9B21B6898475C
:102AE00012E00A2A0DD100290ADA2D21FFF7BAFFD8
:102AF0006942071C321C201CFFF7C2FFC01903E00B
:102B000000E0D2B2FFF7BCFFF8BD38B5041CFFF7F8
:102B1000DEFF051C201CFFF7ABFF281838BD0000A6
:102B2000014B18607047C04604000020024B012290
:102B300052421A607047C04604000020104A1368D1
:102B4000591C1CD0013B1360002B18D172B60D4BE1
:102B50001A7DD107FBD5198B2022FF320A431A8335
:102B6000094ADA61094A1A801A7DD107FCD5BFF3F8
:102B70004F8F074A074BDA60BFF34F8FFEE770476E
:102B800004000020004000410210000002A5FFFFE9
:102B90000400FA0500ED00E03F20704713B502681D
:102BA0006B46D97107335468191C0122A04716BD22
:102BB00008B50069022100F00FFC08BD08B50069E6
:102BC000032100F01FFC08BD38B50D1C041C131CAC
:102BD000006903212A1C00F009FD002801D101230E
:102BE000636038BD10B5054C23685A1C04D10368D6
:102BF000DB6898472060031C181C10BD580000209B
:102C0000074A08B51368591C04D0012149421160D4
:102C1000181C03E00069022100F0DAFC08BDC04680
:102C20005800002008B5037803490233037042229C
:102C3000024800F085FD08BD140000204309002073
:102C400010B50178031C42780020A12908D1212A5F
:102C50002FD118481849072200F072FD012028E002
:102C6000212926D1202A05D113490722114800F035
:102C70000FFC04E0222A10D19A780F4BDA710E4B28
:102C800096221968D200914210D1DC7901231C40B0
:102C90000CD1FA20FFF744FF0AE0232A09D1DA78A1
:102CA0009B7812021A43054B1A6002E0FFF73EFFC1
:102CB000002010BD43090020080000201000002063
:102CC000064BFA21890099600549002208311960F4
:102CD00004495A6019611A767047C0467C04002086
:102CE000584200004309002070B5C2B2194953018F
:102CF000CB189E68184DC0242E40A40526439E6024
:102D0000164E800109683018083258605201505C34
:102D10000726B0430126304350549E6935402C436A
:102D20009C610F4C5C61505C7024A04310242043D4
:102D300050549C680B488A18204080246403204328
:102D4000986098684021800B8003986053790B430A
:102D5000537170BD48090020FFFFFF8F64070020FA
:102D6000A4050020FF3F00F038B5041C08CC012169
:102D70001A78051C0A431A708022201C0021520078
:102D800001F003F82B689A78D107FCD45C6238BD57
:102D9000134BF0B51B6899035A029B01C90ED20E62
:102DA0005B0F1F2900D105211F2A00D11D22072BEF
:102DB00000D1032304688E01278D0A491F2539405D
:102DC0003143218501682A400C8DAC4322430A859A
:102DD00002681903108D044B03400B431385F0BDAB
:102DE000246080003FF8FFFFFF8FFFFFEFF31083A9
:102DF00003600123436072B670470368002B02D161
:102E000062B6BFF36F8F704737B50569041C68461B
:102E1000002D12D1FFF7EAFF019B013B03D3621D96
:102E2000D57FEDB2F9E768460193FFF7E6FF002092
:102E3000854217D0206AE36913E0FFF7D7FF019BB3
:102E40000025013B04D3221C34321578EDB2F8E79B
:102E500068460193FFF7D1FF0020854202D0206B26
:102E6000E36AC01A3EBD0000436810B51A68037AD1
:102E700003215B01D318FF339A7A8A4301210A4365
:102E80009A72037A42685B01D318C2689C68910405
:102E90000B4A090922400A439A60037A42685B019F
:102EA000D3189A684021920B92039A6043681A687B
:102EB000037A08335B01D3181A790A431A7110BDDB
:102EC000FF3F00F0F7B50569041C0E1C171C68468F
:102ED000002D1FD1FFF78AFF019B013B5A1C06D032
:102EE000621DD17F5A1E00293AD0131CF6E76846AE
:102EF0000193FFF782FF0025E369BD4235D0226AC6
:102F0000934232D25A1CE261A269D3181B787355DE
:102F10000135F1E7FFF76AFF019B013B5A1C08D01E
:102F2000221C343215785A1EEDB2002D18D0131C15
:102F3000F4E768460193FFF760FF0025E36ABD42AE
:102F400026D0226B934241D322E0621D0021D1772B
:102F500030321678581E8E4214D1031C5A1CF4D1FC
:102F600068460193FFF749FF38E0226A934235D162
:102F70000023E361012323616846FFF737FF019BCC
:102F8000013BEBE71170201C0193FFF76DFFF6E7A3
:102F9000226B934222D10023E36223616846FFF74C
:102FA00025FF019B013B5A1CDAD0221C3432002140
:102FB000117001321678581E8E4201D1031CF2E7BF
:102FC0001170201C0193FFF74FFFEAE75A1CE262E1
:102FD000A26AD3181B7873550135AFE7281CFEBDD4
:102FE00037B54368027A1B68083252019A18041CEC
:102FF000D0790123FF21184253D0D371A0686569AD
:1030000062680140002D20D1490152189168636126
:103010008904890C2162A16A68465160621DD377D8
:10302000FFF7E4FE019B013B5A1C33D0221C3432D3
:103030001178581EC9B20132002903D0019301232F
:10304000137023E01170031CEEE74B01D3189A684C
:10305000A5699204920C22630022626168465D6059
:10306000FFF7C4FE019B013B01E011702B1C591CB2
:1030700010D0221C343201201070621DD17F5D1EE1
:10308000C9B230320029F0D0019310706846FFF7C2
:10309000B4FE06E068460193FFF7AFFE201CFFF781
:1030A000E3FE37BD37B500236C46E3710734201CBF
:1030B0000D1CFFF7B7FD2B681818286000F0C0FD45
:1030C000211C00F077FD2B681818286020783EBD81
:1030D00003290BD10D4BB2221B685200985C802152
:1030E000494201439954022168220CE001290CD184
:1030F000064B92221B685200985C80214942014392
:10310000995402212822FF3299547047480900201F
:1031100038B5264B2021DA69051C0A43DA61244BB5
:1031200001201A78062402431A70224B0F221978C4
:10313000914319701978214319701F490C78204365
:10314000087019780A401A701A7860210A431A70B8
:103150001A4B1B4A5A805A78D209FCD11948FFF7FA
:1031600033FA194C201CFFF7FFFD201CFFF710FE5F
:1031700023687F2219780A401A701A7804210A43BA
:103180001A701A890C218A431A81C1210F4A8900B9
:1031900050580002000A5050802111601A78022114
:1031A0000A431A7001232B7038BDC046000400404A
:1031B000584400413C44004159440041000C004047
:1031C000064000008D3B00004809002000E100E0BF
:1031D0000078002810D0094B01211B681A898A4306
:1031E0001A811A8B08210A431A831A8B04210A4375
:1031F0001A83034B00221A607047C046480900201A
:103200004C0A00200F4B9A69920B92039A611B683B
:103210000222FF331A7298798022524202439A7135
:103220001A7A9007FCD5084B081C997A7F22104027
:10323000914301439972997A802252420A439A72C9
:103240007047C046480900200050004110B50B7976
:103250000C1C002B0BD1081CFFF7F2FC002804D13A
:10326000094B9A69920B92039A6101200BE000F0DE
:10327000E7FC211C00F0D2FC0028F6D1024B9A6931
:10328000920B92039A6110BD48090020F8B50D1CFD
:10329000832A16D1CAB242495301CB189C694148CE
:1032A000AD012040C024A405204398613E48083267
:1032B00045195D610B685201D15C7020814340204B
:1032C00065E0022A45D1382000F070FC374B344FBE
:1032D0008026036076000023421D03620361436180
:1032E000C36147608560C660D3772F32041CC36218
:1032F00003631370301C537000F034FDA061301C68
:1033000000F030FDFF232A1C1A405201A062BF18B2
:10331000B968244A07260A40C02189050A43BA60D1
:10332000A16862681940126808314901885CAD00E3
:10333000B043032630438854A16862680B405B01A8
:10334000A169D3185960201CFFF78EFD184BEC5073
:1033500025E0822A1ED1CAB211495301CB189C69BB
:103360001048AD012040C024A405204398610E48B8
:10337000083245195D610B68520199180C7980205B
:10338000404220430871D15C7020814330200143CA
:10339000D15404E0002A02D1081CFFF7A5FCF8BDB7
:1033A00048090020FFFFFF8FA4050020884200008D
:1033B0002409002038B5051C0124064BA200D25870
:1033C000002A06D0211C281C0134FFF75FFFE4B25D
:1033D000F3E738BD5C00002008B5084B8A00D058E0
:1033E000002803D003689B68984706E0C9B2044BE5
:1033F0004901591888688004800C08BD2409002000
:103400004809002010B50C1CFFF7E6FF00280CD07F
:10341000064BE1B21B680831490159184A798023EB
:103420005B4213434B710223CB7110BD480900204E
:1034300070B5CAB2134B14485401890159180319C5
:1034400059609D681149083229408025AD02294301
:10345000996099684026890B890399600368510136
:1034600059180D7935430D715101591889794D0657
:10347000FAD551015918C979CD07FAD50419A068B0
:10348000C0B270BD6407002048090020FF3F00F073
:1034900038B50C4B141C1B680D1CFF335A794021A6
:1034A0000A435A710021FFF7C3FFA04200D9201C34
:1034B0000023A34204D0044A9A5CEA540133F8E79B
:1034C00038BDC046480900206407002010B5C9B2C5
:1034D0000C48490143189A689204920C3F2A08D973
:1034E000141C9A68403CA404920BA40C920322433F
:1034F00002E09A68920B92039A6041188868C0B201
:1035000010BDC04648090020F0B51C1C2C4B85B0EE
:103510001B68061C0D1C0292002B4AD0294B8A0006
:10352000D058002805D0036802995B68221C984790
:1035300043E0301CFFF750FFA04204D2301C291C8E
:10354000FFF74AFF041C291C301CFFF7BFFF1E4F6A
:10355000E9B24A010191396803928B18FF335A7A14
:1035600003218A4301210A4318495A72AB01C91841
:103570000298221C00F000FC002C1DD0301C291CDD
:10358000FFF72AFF002817D1019B3A6808335B0137
:10359000D31819794020014319710121D971039978
:1035A0005318FF339A7A03218A4301210A439A72FE
:1035B00002E00120404200E0201C05B0F0BDC04602
:1035C0004C0A00202409002048090020640700203C
:1035D00013B56C460734221C0123FFF795FF012821
:1035E00001D1207801E00120404216BDF0B51C1C3D
:1035F0003A4B85B01B680E1C0292002B60D08023D2
:10360000DB019C425CD800220092002C56D0344D45
:10361000F7B22B6801933B1C0833019A5B01D31866
:103620009B79DB091AD02F4B2F49186800F024FB37
:103630002E4B1721584300F01FFB3B1C0833019A07
:103640005B01D318DB799A0708D4294B9A5D002ACD
:1036500038D1421E002835D0101CEEE7244B002242
:103660009A55251E3F2D00D93F25224AB301D31874
:10367000181C02992A1C039300F07EFB184A7B0158
:10368000D318039AA9045A619A69890C920B920380
:103690000A439A613B1C019A08335B01D31802224A
:1036A000DA715979802252420A435A71009B029A78
:1036B0005B1952190093641B0292A6E700980BE075
:1036C000012008E001229A557B01ED18AB69101C1E
:1036D0009B0B9B03AB61404205B0F0BD4C0A002040
:1036E000480900200000002040420F007011010036
:1036F0009C050020A405002070B50E4D1C1C8B01FC
:10370000ED18281C0E1C111C221C00F035FBF6B213
:103710000949760189194D618A69084B201C1340BB
:103720008B618B69A2049B0B920C9B0313438B61EF
:1037300070BDC046A405002048090020FF3F00F0EE
:10374000F7B5114B01901B780F1C141C002B19D1DD
:103750000E4B1E78002E01D1151C08E00C4D0D48B3
:103760002E888019361900F007FB2E800AE0002D04
:1037700008D0BA192B1C01980021FFF7BDFF36189D
:103780002D1AF4E7201CFEBD42090020400900204C
:103790009A05002099040020F8B50E1C00AF151EF4
:1037A000012D28D9D31DDB08DB006A46D21A9546C5
:1037B000081C00F059FB01306C46400003232070C8
:1037C00063700222AA420ED23378002B0BD0511C18
:1037D000C9B20136A354A94204D000230232635473
:1037E000D2B2EFE72A1C0548211CFFF7A9FF431EB0
:1037F0009841C0B200E00020BD46F8BD430900205A
:1038000008B5044B00221A70034B04491A88FFF7CD
:1038100097FF08BD400900209A0500209904002068
:10382000F0B5204A87B001230026009102A9137049
:10383000051C0296FFF736FC03AC092701903A1CE1
:10384000201C311C00F0A1FA022363708023E37175
:10385000FA232372029B0122DB196380019B6271B0
:103860002371104A009B27701670BB4205D1281C9B
:10387000211C1A1CFFF764FF11E00B4B01221A7088
:103880000A4B211C3A1C281C1E800296FFF758FF89
:10389000281C02A9FFF706FC281CFFF7B1FF012036
:1038A00007B0F0BD42090020400900209A05002021
:1038B00070B5CE7886B0051C0C1C022E08D1C988C4
:1038C0002348FFF7ADFF031C581E8341D8B23DE0EB
:1038D00000F0B6F9211C00F082F9002803D0C317CC
:1038E0001B1AD80F32E0012E04D1E2881949112A9F
:1038F00027D823E0032E29D1A278002A05D1164922
:10390000E2880B78934219D81BE0022A03D1A279EE
:10391000281C124904E0012A05D1A2791049281C6B
:10392000FFF73AFF12E0032A10D100F089F901A94C
:1039300000F065F9A279281C01A9F1E7D2B2002AAA
:1039400000D10A78281CFFF7FBFE012006B070BDED
:1039500043090020A8420000A4420000BA4200002F
:103960009842000073B5051C48780C1C0B287BD8C6
:1039700000F078F9081C7A287A3E4306474B6B72B0
:10398000002072E0097801AA002903D1117051705A
:10399000281C09E0002313705370344B1B78012B53
:1039A00000D11370281C0021022352E08A780023E2
:1039B000012A04D101AA137053702D4BEEE72B4A54
:1039C00013704CE08E78012E07D1294B01AA0021FB
:1039D0001E701170281C331C3BE0002E08D1234AB6
:1039E00001231370234A9169890B890391613BE09C
:1039F000A178281CFFF706FC36E0281CFFF758FFCB
:103A000033E0281C00211C4A22E00A780020D3065B
:103A10002BD1281CFFF7CEFCA2781649164B2A2082
:103A20001A600A68FF30145C03239C4302252C4370
:103A300014544A20FF30145C9C4301231C4314544B
:103A40008A69920B92038A610EE00C4A281C0021BD
:103A50000123FFF751FE07E08A78084B1A60054BF7
:103A60009A69920B92039A61012076BD9804002016
:103A700041090020480900204C0A00204409002088
:103A8000F8B53C4B071C1C78002C72D13A4D2868C5
:103A9000838B19070DD5201CFFF726F92B68102002
:103AA0001A1CFF32917A01439172344A1460082241
:103AB0009A832B689A8B500701D504229A83FF338F
:103AC0001A7AD10628D510221A725A7940210A434F
:103AD0002B495A710A786023381C1A4202D1FFF729
:103AE00041FF01E0FFF7B2FB002806D02B688022DF
:103AF000FF33997952420A4301E0224B20229A7106
:103B00002B68FF331A7A500606D540221A72597A6A
:103B1000602081430A435A722968FE230E8C0024D8
:103B20001E40E1B2002E24D0331C01222341134257
:103B300017D0231C286808335B01C318D8791042BA
:103B400004D1DA79032313409A0707D50E4BA2005C
:103B5000D058002809D003681B6898470123A34068
:103B60009E430134092CDCD103E0381CFFF7B0FA86
:103B7000F4E7F8BD40090020480900204C0A002065
:103B800064070020FF5000412409002008B50248C6
:103B9000FFF776FF08BDC04643090020014A024BEB
:103BA0001A607047005000414809002008B500F035
:103BB000D9F808BD70B544680E1C0025002C09D04A
:103BC0002368201C5B68311C9847002804DB2D18F3
:103BD000E468F3E7281C01E00120404270BD38B5DD
:103BE00044680D1C002C08D02368201C9B68291CED
:103BF0009847002802D1E468F4E7201C38BD38B5A6
:103C000044680D1C002C07D02368201C291CDB688D
:103C10009847E4682D18F5E72C7038BD38B544682E
:103C20000D1C002C08D02368201C1B68291C9847F9
:103C3000002803D1E468F4E7201C00E0012038BD2F
:103C4000064B0122196810B51140054805D1022420
:103C500004700424447041601A6010BD580A0020AA
:103C6000500A002002B4714649084900095C490025
:103C70008E4402BC7047C046002934D00123002284
:103C800010B488422CD301242407A14204D28142DB
:103C900002D209011B01F8E7E400A14204D28142EB
:103CA00002D249005B00F8E7884201D3401A1A4368
:103CB0004C08A04202D3001B5C0822438C08A0429F
:103CC00002D3001B9C082243CC08A04202D3001B55
:103CD000DC082243002803D01B0901D00909E3E7CF
:103CE000101C10BC7047002801D00020C04307B44E
:103CF000024802A14018029003BDC046190000000E
:103D00000029F0D003B5FFF7B9FF0EBC4243891A72
:103D10001847C0467047C04670B50E4B0E4D002484
:103D2000ED1AAD101E1CAC4204D0A300F358984706
:103D30000134F8E700F0BAF8084B094D0024ED1AF9
:103D4000AD101E1CAC4204D0A300F35898470134B8
:103D5000F8E770BDE8000020E8000020E80000203F
:103D6000F400002008B5034B011C186800F016F899
:103D700008BDC046E400002010B50023934203D0E4
:103D8000CC5CC4540133F9E710BD031C8218934284
:103D900002D019700133FAE77047000070B50323B1
:103DA000CD1C9D430835061C0C2D01D20C2501E0CD
:103DB000002D3FDB8D423DD3204B1C681A1C211C7B
:103DC000002913D00868431B0DD40B2B02D90B60BC
:103DD000CC181EE08C4202D1636813601AE0486878
:103DE00060600C1C16E00C1C4968E9E7144C206864
:103DF000002803D1301C00F025F82060301C291C5D
:103E000000F020F8431C15D0C41C03239C438442BB
:103E10000AD12560201C0B300722231D9043C31AB2
:103E20000BD05A42E25008E0211A301C00F00AF888
:103E30000130EED10C233360002070BD600A0020F9
:103E40005C0A002038B5074C0023051C081C2360C1
:103E500000F012F8431C03D12368002B00D02B6024
:103E600038BDC046680A00200023C25C0133002A26
:103E7000FBD1581E70470000094A1368002B0CD074
:103E800018186946884202D81060181C7047054B04
:103E90000C2201201A604042F8E7034B1360EFE761
:103EA000640A0020680A00206C0A0020F8B5C046A9
:103EB000F8BC08BC9E467047F8B5C046F8BC08BCC4
:103EC0009E46704700000000160000000800000039
:103ED0001C000000FF0000040004060000000000B9
:103EE00017000000080000001C000000FF00010493
:103EF00001040700000000000A00000008000000A4
:103F00001C000000120000010001FF000000000082
:103F10000B000000080000001C000000130001015D
:103F20000101FF00010000000A000000080000007D
:103F30001C000000FF00000500050A000100000051
:103F40000B000000080000001C000000FF0001053D
:103F500001050B0000000000140000000800000034
:103F60002C000000FF00020002000400000000001E
:103F700015000000080000002C000000FF000300F6
:103F80000300050000000000100000000200000017
:103F90001C000000FF000002000200000000000002
:103FA000110000000200000004000000FF00FFFFFD
:103FB000FFFF0100000000001300000002000000ED
:103FC0001C000000FF0001030103FF0000000000CF
:103FD0000800000002000000040000001000FFFFC5
:103FE000FFFF1000000000000900000002000000B8
:103FF000040000001100FFFFFFFFFF0001000000B0
:10400000170000000300000004000000FF00FFFF95
:10401000FFFFFF0001000000160000000300000089
:1040200004000000FF00FFFFFFFFFF000000000092
:104030000200000001000000060000000000FFFF79
:10404000FFFFFF000100000002000000010000006F
:10405000040000000A00FFFFFFFF02000100000053
:104060000300000001000000040000000B00FFFF3F
:10407000FFFF03000000000004000000010000003A
:104080001C000000040000000000FF000000000011
:1040900005000000010000001C00000005000100F8
:1040A0000100FF0000000000060000000100000009
:1040B000040000000600FFFFFFFFFF0000000000FB
:1040C0000700000001000000040000000700FFFFDF
:1040D000FFFFFF00000000001800000006000000C5
:1040E00000000000FF00FFFFFFFFFF0000000000D6
:1040F000190000000600000000000000FF00FFFFA4
:10410000FFFFFF0000000000120000000800000098
:1041100004000000FF00FFFFFFFFFF0000000000A1
:10412000030000000800000004000000FF00FFFF83
:10413000FFFFFF00000000000C0000000200000074
:1041400000000000FF00FFFFFFFFFF000000000075
:104150000D0000000200000000000000FF00FFFF53
:10416000FFFFFF00000000000E000000080000003C
:1041700000000000FF00FFFFFFFFFF000000000045
:104180000F0000000200000000000000FF00FFFF21
:10419000FFFFFF00000000001B00000008000000FF
:1041A00000000000FF00FFFFFFFFFF000000000015
:1041B0001C0000000800000000000000FF00FFFFDE
:1041C000FFFFFF00010000000800000008000000E1
:1041D00000000000FF00FFFFFFFFFF0001000000E4
:1041E000090000000800000000000000FF00FFFFC1
:1041F000FFFF0900000000000000000008000000B0
:1042000000000000FF00FFFFFFFFFF0000000000B4
:10421000010000000800000000000000FF00FFFF98
:10422000FFFFFF0053656E736F72313A09005365EB
:104230006E736F72323A090053656E736F72333A60
:1042400009000D0A006E616E00696E66006F766689
:10425000002E000000000000000000000000000030
:104260009D2B0000C92B0000B12B0000012C000089
:10427000E52B0000BD2B0000992B00000000000082
:104280000000000000000000E12F0000C52E00002B
:10429000092E00000000000041726475696E6F20F5
:1042A0004C4C43000403090412010002EF020140D8
:1042B00041234E8000010102030141726475696E61
:1042C0006F204D4B52313030300043000000000071
:1042D00040420F00FFFFFFFF00C201000000080086
:1042E000FFFFFFFF080B00020202000009040000AC
:1042F0000102020000052400100104240206052426
:1043000006000105240101010705810310001009C1
:10431000040100020A000000070502024000000735
:104320000583024000000000FFFFFFFF00000000C7
:104330008300000002000000820000000000000076
:10434000000000000000000000000000000000006D
:10435000000000000000000000000000000000005D
:10436000000000000000000000000000000000004D
:1043700000000000CA420000000000000000000031
:10438000000000000000000000000000000000002D
:10439000000000000000000000000000000000001D
:1043A000000000000000000000000000000000000D
:1043B0000000000084000020D9200000C12C000073
:0C43C0009D3B0000B12000000000000048
:04000003000025656F
:00000001FF
